{
  "address": "0x8221Cd8255faE740531c92Cf6F6Ea304973C9272",
  "abi": [
    {
      "inputs": [],
      "name": "AlreadyInitialized",
      "type": "error"
    },
    {
      "inputs": [],
      "name": "FeeGreaterThan100",
      "type": "error"
    },
    {
      "inputs": [],
      "name": "ZeroAddress",
      "type": "error"
    },
    {
      "anonymous": false,
      "inputs": [
        {
          "indexed": true,
          "internalType": "address",
          "name": "feeRecipient",
          "type": "address"
        },
        {
          "indexed": false,
          "internalType": "uint16",
          "name": "feeBPS",
          "type": "uint16"
        }
      ],
      "name": "FeeConfigUpdated",
      "type": "event"
    },
    {
      "anonymous": false,
      "inputs": [
        {
          "indexed": true,
          "internalType": "bytes32",
          "name": "role",
          "type": "bytes32"
        },
        {
          "indexed": true,
          "internalType": "bytes32",
          "name": "previousAdminRole",
          "type": "bytes32"
        },
        {
          "indexed": true,
          "internalType": "bytes32",
          "name": "newAdminRole",
          "type": "bytes32"
        }
      ],
      "name": "RoleAdminChanged",
      "type": "event"
    },
    {
      "anonymous": false,
      "inputs": [
        {
          "indexed": true,
          "internalType": "bytes32",
          "name": "role",
          "type": "bytes32"
        },
        {
          "indexed": true,
          "internalType": "address",
          "name": "account",
          "type": "address"
        },
        {
          "indexed": true,
          "internalType": "address",
          "name": "sender",
          "type": "address"
        }
      ],
      "name": "RoleGranted",
      "type": "event"
    },
    {
      "anonymous": false,
      "inputs": [
        {
          "indexed": true,
          "internalType": "bytes32",
          "name": "role",
          "type": "bytes32"
        },
        {
          "indexed": true,
          "internalType": "address",
          "name": "account",
          "type": "address"
        },
        {
          "indexed": true,
          "internalType": "address",
          "name": "sender",
          "type": "address"
        }
      ],
      "name": "RoleRevoked",
      "type": "event"
    },
    {
      "anonymous": false,
      "inputs": [
        {
          "indexed": true,
          "internalType": "address",
          "name": "vault",
          "type": "address"
        },
        {
          "indexed": false,
          "internalType": "uint32",
          "name": "profitMaxUnlockTime",
          "type": "uint32"
        },
        {
          "indexed": true,
          "internalType": "address",
          "name": "asset",
          "type": "address"
        },
        {
          "indexed": false,
          "internalType": "string",
          "name": "name",
          "type": "string"
        },
        {
          "indexed": false,
          "internalType": "string",
          "name": "symbol",
          "type": "string"
        },
        {
          "indexed": true,
          "internalType": "address",
          "name": "accountant",
          "type": "address"
        },
        {
          "indexed": false,
          "internalType": "address",
          "name": "admin",
          "type": "address"
        }
      ],
      "name": "VaultDeployed",
      "type": "event"
    },
    {
      "anonymous": false,
      "inputs": [
        {
          "indexed": true,
          "internalType": "address",
          "name": "vaultPackage",
          "type": "address"
        }
      ],
      "name": "VaultPackageUpdated",
      "type": "event"
    },
    {
      "inputs": [],
      "name": "DEFAULT_ADMIN_ROLE",
      "outputs": [
        {
          "internalType": "bytes32",
          "name": "",
          "type": "bytes32"
        }
      ],
      "stateMutability": "view",
      "type": "function"
    },
    {
      "inputs": [],
      "name": "MAX_BPS",
      "outputs": [
        {
          "internalType": "uint16",
          "name": "",
          "type": "uint16"
        }
      ],
      "stateMutability": "view",
      "type": "function"
    },
    {
      "inputs": [
        {
          "internalType": "uint32",
          "name": "_profitMaxUnlockTime",
          "type": "uint32"
        },
        {
          "internalType": "address",
          "name": "_asset",
          "type": "address"
        },
        {
          "internalType": "string",
          "name": "_name",
          "type": "string"
        },
        {
          "internalType": "string",
          "name": "_symbol",
          "type": "string"
        },
        {
          "internalType": "address",
          "name": "_accountant",
          "type": "address"
        },
        {
          "internalType": "address",
          "name": "_admin",
          "type": "address"
        }
      ],
      "name": "deployVault",
      "outputs": [
        {
          "internalType": "address",
          "name": "",
          "type": "address"
        }
      ],
      "stateMutability": "nonpayable",
      "type": "function"
    },
    {
      "inputs": [],
      "name": "feeBPS",
      "outputs": [
        {
          "internalType": "uint16",
          "name": "",
          "type": "uint16"
        }
      ],
      "stateMutability": "view",
      "type": "function"
    },
    {
      "inputs": [],
      "name": "feeRecipient",
      "outputs": [
        {
          "internalType": "address",
          "name": "",
          "type": "address"
        }
      ],
      "stateMutability": "view",
      "type": "function"
    },
    {
      "inputs": [
        {
          "internalType": "bytes32",
          "name": "role",
          "type": "bytes32"
        }
      ],
      "name": "getRoleAdmin",
      "outputs": [
        {
          "internalType": "bytes32",
          "name": "",
          "type": "bytes32"
        }
      ],
      "stateMutability": "view",
      "type": "function"
    },
    {
      "inputs": [
        {
          "internalType": "address",
          "name": "_vault",
          "type": "address"
        }
      ],
      "name": "getVaultCreator",
      "outputs": [
        {
          "internalType": "address",
          "name": "",
          "type": "address"
        }
      ],
      "stateMutability": "view",
      "type": "function"
    },
    {
      "inputs": [],
      "name": "getVaults",
      "outputs": [
        {
          "internalType": "address[]",
          "name": "",
          "type": "address[]"
        }
      ],
      "stateMutability": "view",
      "type": "function"
    },
    {
      "inputs": [
        {
          "internalType": "bytes32",
          "name": "role",
          "type": "bytes32"
        },
        {
          "internalType": "address",
          "name": "account",
          "type": "address"
        }
      ],
      "name": "grantRole",
      "outputs": [],
      "stateMutability": "nonpayable",
      "type": "function"
    },
    {
      "inputs": [
        {
          "internalType": "bytes32",
          "name": "role",
          "type": "bytes32"
        },
        {
          "internalType": "address",
          "name": "account",
          "type": "address"
        }
      ],
      "name": "hasRole",
      "outputs": [
        {
          "internalType": "bool",
          "name": "",
          "type": "bool"
        }
      ],
      "stateMutability": "view",
      "type": "function"
    },
    {
      "inputs": [
        {
          "internalType": "address",
          "name": "_vaultPackage",
          "type": "address"
        },
        {
          "internalType": "address",
          "name": "_feeRecipient",
          "type": "address"
        },
        {
          "internalType": "uint16",
          "name": "_feeBPS",
          "type": "uint16"
        }
      ],
      "name": "initialize",
      "outputs": [],
      "stateMutability": "nonpayable",
      "type": "function"
    },
    {
      "inputs": [],
      "name": "initialized",
      "outputs": [
        {
          "internalType": "bool",
          "name": "",
          "type": "bool"
        }
      ],
      "stateMutability": "view",
      "type": "function"
    },
    {
      "inputs": [],
      "name": "protocolFeeConfig",
      "outputs": [
        {
          "internalType": "uint16",
          "name": "",
          "type": "uint16"
        },
        {
          "internalType": "address",
          "name": "",
          "type": "address"
        }
      ],
      "stateMutability": "view",
      "type": "function"
    },
    {
      "inputs": [
        {
          "internalType": "bytes32",
          "name": "role",
          "type": "bytes32"
        },
        {
          "internalType": "address",
          "name": "account",
          "type": "address"
        }
      ],
      "name": "renounceRole",
      "outputs": [],
      "stateMutability": "nonpayable",
      "type": "function"
    },
    {
      "inputs": [
        {
          "internalType": "bytes32",
          "name": "role",
          "type": "bytes32"
        },
        {
          "internalType": "address",
          "name": "account",
          "type": "address"
        }
      ],
      "name": "revokeRole",
      "outputs": [],
      "stateMutability": "nonpayable",
      "type": "function"
    },
    {
      "inputs": [
        {
          "internalType": "bytes4",
          "name": "interfaceId",
          "type": "bytes4"
        }
      ],
      "name": "supportsInterface",
      "outputs": [
        {
          "internalType": "bool",
          "name": "",
          "type": "bool"
        }
      ],
      "stateMutability": "view",
      "type": "function"
    },
    {
      "inputs": [
        {
          "internalType": "address",
          "name": "_feeRecipient",
          "type": "address"
        },
        {
          "internalType": "uint16",
          "name": "_feeBPS",
          "type": "uint16"
        }
      ],
      "name": "updateFeeConfig",
      "outputs": [],
      "stateMutability": "nonpayable",
      "type": "function"
    },
    {
      "inputs": [
        {
          "internalType": "address",
          "name": "_vaultPackage",
          "type": "address"
        }
      ],
      "name": "updateVaultPackage",
      "outputs": [],
      "stateMutability": "nonpayable",
      "type": "function"
    },
    {
      "inputs": [
        {
          "internalType": "address",
          "name": "",
          "type": "address"
        }
      ],
      "name": "vaultCreators",
      "outputs": [
        {
          "internalType": "address",
          "name": "",
          "type": "address"
        }
      ],
      "stateMutability": "view",
      "type": "function"
    },
    {
      "inputs": [],
      "name": "vaultPackage",
      "outputs": [
        {
          "internalType": "address",
          "name": "",
          "type": "address"
        }
      ],
      "stateMutability": "view",
      "type": "function"
    },
    {
      "inputs": [
        {
          "internalType": "uint256",
          "name": "",
          "type": "uint256"
        }
      ],
      "name": "vaults",
      "outputs": [
        {
          "internalType": "address",
          "name": "",
          "type": "address"
        }
      ],
      "stateMutability": "view",
      "type": "function"
    }
  ],
  "transactionHash": "0x064a36344dcefa442026ff2d386506fe0cd46ac7048244d96f4d42a68f707496",
  "args": [],
  "numDeployments": 1,
  "solcInputHash": "b0f8386a88fde1c098b868bae08df37f",
  "bytecode": "0x608060405234801561001057600080fd5b5060018055612851806100246000396000f3fe60806040523480156200001157600080fd5b50600436106200011e5760003560e01c806301ffc9a7146200012357806307d3277f146200014f578063158ef93e14620001795780631a1c6e5314620001875780631c0bdcfe14620001aa5780631f65940f14620001ef5780632369cfd6146200021e578063248a9ca314620002375780632f2ff15d146200025d57806336568abe146200027457806344d00f82146200028b5780634690484014620002a45780637ebef52914620002be5780638c64ea4a14620002d557806391d1485414620002ec578063a217fddf1462000303578063c38f1b25146200030c578063c55480741462000323578063cee0c7ca146200033a578063d547741f146200034e578063fd967f471462000365575b600080fd5b6200013a6200013436600462000cbc565b6200036f565b60405190151581526020015b60405180910390f35b6002546040805161ffff83168152620100009092046001600160a01b031660208301520162000146565b6006546200013a9060ff1681565b600254620001969061ffff1681565b60405161ffff909116815260200162000146565b620001d6620001bb36600462000d05565b6005602052600090815260409020546001600160a01b031681565b6040516001600160a01b03909116815260200162000146565b620001d66200020036600462000d05565b6001600160a01b039081166000908152600560205260409020541690565b620002356200022f36600462000d05565b620003a7565b005b6200024e6200024836600462000d23565b62000427565b60405190815260200162000146565b620002356200026e36600462000d3d565b6200043c565b620002356200028536600462000d3d565b62000463565b62000295620004e9565b60405162000146919062000d6c565b600254620001d6906201000090046001600160a01b031681565b62000235620002cf36600462000dce565b6200054d565b620001d6620002e636600462000d23565b62000672565b6200013a620002fd36600462000d3d565b6200069d565b6200024e600081565b620001d66200031d36600462000e63565b620006c6565b620002356200033436600462000f2d565b6200089e565b600354620001d6906001600160a01b031681565b620002356200035f36600462000d3d565b62000956565b6200019661271081565b60006001600160e01b03198216637965db0b60e01b1480620003a157506301ffc9a760e01b6001600160e01b03198316145b92915050565b6000620003b48162000978565b6001600160a01b038216620003dc5760405163d92e233d60e01b815260040160405180910390fd5b600380546001600160a01b0319166001600160a01b0384169081179091556040517f9ee4359a3a0b64f24b47429e9cf46a0dd5a98d2d9170e45b50859df9fca9913d90600090a25050565b60009081526020819052604090206001015490565b620004478262000427565b620004528162000978565b6200045e838362000987565b505050565b6001600160a01b0381163314620004d95760405162461bcd60e51b815260206004820152602f60248201527f416363657373436f6e74726f6c3a2063616e206f6e6c792072656e6f756e636560448201526e103937b632b9903337b91039b2b63360891b60648201526084015b60405180910390fd5b620004e5828262000a0f565b5050565b606060048054806020026020016040519081016040528092919081815260200182805480156200054357602002820191906000526020600020905b81546001600160a01b0316815260019091019060200180831162000524575b5050505050905090565b60006200055a8162000978565b60065460ff161515600103620005825760405162dc149f60e41b815260040160405180910390fd5b6001600160a01b0384161580620005a057506001600160a01b038316155b15620005bf5760405163d92e233d60e01b815260040160405180910390fd5b61271061ffff83161115620005e757604051637a50132760e11b815260040160405180910390fd5b600380546001600160a01b0319166001600160a01b0386811691909117909155600280546001600160b01b0319166201000092861692830261ffff19161761ffff8516179055604051600080516020620027fc833981519152906200065790859061ffff91909116815260200190565b60405180910390a250506006805460ff191660011790555050565b600481815481106200068357600080fd5b6000918252602090912001546001600160a01b0316905081565b6000918252602082815260408084206001600160a01b0393909316845291905290205460ff1690565b600080620006d48162000978565b6003546040805160008082526020820192839052926001600160a01b031691620006fe9062000cae565b6200070b92919062000fc6565b604051809103906000f08015801562000728573d6000803e3d6000fd5b506040516397e958d960e01b81529091506001600160a01b038216906397e958d99062000768908e908e908e908e908e908e908e908e906004016200101d565b600060405180830381600087803b1580156200078357600080fd5b505af115801562000798573d6000803e3d6000fd5b505050506004819080600181540180825580915050600190039060005260206000200160009091909190916101000a8154816001600160a01b0302191690836001600160a01b031602179055503360056000836001600160a01b03166001600160a01b0316815260200190815260200160002060006101000a8154816001600160a01b0302191690836001600160a01b03160217905550846001600160a01b03168a6001600160a01b0316826001600160a01b03167f86b4fabe6653dc170f81aafb968bb2c0c841411b628f39a0987776d445bc2cd48e8d8d8d8d8c604051620008889695949392919062001081565b60405180910390a49a9950505050505050505050565b6000620008ab8162000978565b6001600160a01b038316620008d35760405163d92e233d60e01b815260040160405180910390fd5b61271061ffff83161115620008fb57604051637a50132760e11b815260040160405180910390fd5b600280546001600160b01b031916620100006001600160a01b03861690810261ffff19169190911761ffff851690811790925560405191825290600080516020620027fc8339815191529060200160405180910390a2505050565b620009618262000427565b6200096c8162000978565b6200045e838362000a0f565b62000984813362000a77565b50565b6200099382826200069d565b620004e5576000828152602081815260408083206001600160a01b03851684529091529020805460ff19166001179055620009cb3390565b6001600160a01b0316816001600160a01b0316837f2f8788117e7eff1d82e926ec794901d17c78024a50270940304540a733656f0d60405160405180910390a45050565b62000a1b82826200069d565b15620004e5576000828152602081815260408083206001600160a01b0385168085529252808320805460ff1916905551339285917ff6391f5c32d9c69d2a47ea670b442974b53935d1edc7fd64eb21e047a839171b9190a45050565b62000a8382826200069d565b620004e55762000a938162000adb565b62000aa083602062000aee565b60405160200162000ab3929190620010d4565b60408051601f198184030181529082905262461bcd60e51b8252620004d09160040162001147565b6060620003a16001600160a01b03831660145b6060600062000aff83600262001172565b62000b0c9060026200118c565b6001600160401b0381111562000b265762000b2662000f5c565b6040519080825280601f01601f19166020018201604052801562000b51576020820181803683370190505b509050600360fc1b8160008151811062000b6f5762000b6f620011a2565b60200101906001600160f81b031916908160001a905350600f60fb1b8160018151811062000ba15762000ba1620011a2565b60200101906001600160f81b031916908160001a905350600062000bc784600262001172565b62000bd49060016200118c565b90505b600181111562000c56576f181899199a1a9b1b9c1cb0b131b232b360811b85600f166010811062000c0c5762000c0c620011a2565b1a60f81b82828151811062000c255762000c25620011a2565b60200101906001600160f81b031916908160001a90535060049490941c9362000c4e81620011b8565b905062000bd7565b50831562000ca75760405162461bcd60e51b815260206004820181905260248201527f537472696e67733a20686578206c656e67746820696e73756666696369656e746044820152606401620004d0565b9392505050565b61162980620011d383390190565b60006020828403121562000ccf57600080fd5b81356001600160e01b03198116811462000ca757600080fd5b80356001600160a01b038116811462000d0057600080fd5b919050565b60006020828403121562000d1857600080fd5b62000ca78262000ce8565b60006020828403121562000d3657600080fd5b5035919050565b6000806040838503121562000d5157600080fd5b8235915062000d636020840162000ce8565b90509250929050565b6020808252825182820181905260009190848201906040850190845b8181101562000daf5783516001600160a01b03168352928401929184019160010162000d88565b50909695505050505050565b803561ffff8116811462000d0057600080fd5b60008060006060848603121562000de457600080fd5b62000def8462000ce8565b925062000dff6020850162000ce8565b915062000e0f6040850162000dbb565b90509250925092565b60008083601f84011262000e2b57600080fd5b5081356001600160401b0381111562000e4357600080fd5b60208301915083602082850101111562000e5c57600080fd5b9250929050565b60008060008060008060008060c0898b03121562000e8057600080fd5b883563ffffffff8116811462000e9557600080fd5b975062000ea560208a0162000ce8565b965060408901356001600160401b038082111562000ec257600080fd5b62000ed08c838d0162000e18565b909850965060608b013591508082111562000eea57600080fd5b5062000ef98b828c0162000e18565b909550935062000f0e905060808a0162000ce8565b915062000f1e60a08a0162000ce8565b90509295985092959890939650565b6000806040838503121562000f4157600080fd5b62000f4c8362000ce8565b915062000d636020840162000dbb565b634e487b7160e01b600052604160045260246000fd5b60005b8381101562000f8f57818101518382015260200162000f75565b50506000910152565b6000815180845262000fb281602086016020860162000f72565b601f01601f19169290920160200192915050565b6001600160a01b038316815260406020820181905260009062000fec9083018462000f98565b949350505050565b81835281816020850137506000828201602090810191909152601f909101601f19169091010190565b63ffffffff89168152600060018060a01b03808a16602084015260c060408401526200104e60c08401898b62000ff4565b83810360608501526200106381888a62000ff4565b9582166080850152509290921660a090910152509695505050505050565b63ffffffff87168152608060208201526000620010a360808301878962000ff4565b8281036040840152620010b881868862000ff4565b91505060018060a01b0383166060830152979650505050505050565b76020b1b1b2b9b9a1b7b73a3937b61d1030b1b1b7bab73a1604d1b8152600083516200110881601785016020880162000f72565b7001034b99036b4b9b9b4b733903937b6329607d1b60179184019182015283516200113b81602884016020880162000f72565b01602801949350505050565b60208152600062000ca7602083018462000f98565b634e487b7160e01b600052601160045260246000fd5b8082028115828204841417620003a157620003a16200115c565b80820180821115620003a157620003a16200115c565b634e487b7160e01b600052603260045260246000fd5b600081620011ca57620011ca6200115c565b50600019019056fe608060405260405162001629380380620016298339810160408190526200002691620003b5565b60018055620000376000336200004d565b6200004582826000620000ee565b5050620004e3565b6000828152602081815260408083206001600160a01b038516845290915290205460ff16620000ea576000828152602081815260408083206001600160a01b03851684529091529020805460ff19166001179055620000a93390565b6001600160a01b0316816001600160a01b0316837f2f8788117e7eff1d82e926ec794901d17c78024a50270940304540a733656f0d60405160405180910390a45b5050565b620000f98362000120565b600082511180620001075750805b156200011b5762000119838362000162565b505b505050565b6200012b8162000191565b6040516001600160a01b038216907fbc7cd75a20ee27fd9adebab32041f755214dbc6bffa90cc0225b39da2e5c2d3b90600090a250565b60606200018a8383604051806060016040528060278152602001620016026027913962000245565b9392505050565b6001600160a01b0381163b620002045760405162461bcd60e51b815260206004820152602d60248201527f455243313936373a206e657720696d706c656d656e746174696f6e206973206e60448201526c1bdd08184818dbdb9d1c9858dd609a1b60648201526084015b60405180910390fd5b7f360894a13ba1a3210667c828492db98dca3e2076cc3735a920a3ca505d382bbc80546001600160a01b0319166001600160a01b0392909216919091179055565b6060600080856001600160a01b03168560405162000264919062000490565b600060405180830381855af49150503d8060008114620002a1576040519150601f19603f3d011682016040523d82523d6000602084013e620002a6565b606091505b509092509050620002ba86838387620002c4565b9695505050505050565b606083156200033857825160000362000330576001600160a01b0385163b620003305760405162461bcd60e51b815260206004820152601d60248201527f416464726573733a2063616c6c20746f206e6f6e2d636f6e74726163740000006044820152606401620001fb565b508162000344565b6200034483836200034c565b949350505050565b8151156200035d5781518083602001fd5b8060405162461bcd60e51b8152600401620001fb9190620004ae565b634e487b7160e01b600052604160045260246000fd5b60005b83811015620003ac57818101518382015260200162000392565b50506000910152565b60008060408385031215620003c957600080fd5b82516001600160a01b0381168114620003e157600080fd5b60208401519092506001600160401b0380821115620003ff57600080fd5b818501915085601f8301126200041457600080fd5b81518181111562000429576200042962000379565b604051601f8201601f19908116603f0116810190838211818310171562000454576200045462000379565b816040528281528860208487010111156200046e57600080fd5b620004818360208301602088016200038f565b80955050505050509250929050565b60008251620004a48184602087016200038f565b9190910192915050565b6020815260008251806020840152620004cf8160408501602087016200038f565b601f01601f19169190910160400192915050565b61110f80620004f36000396000f3fe6080604052600436106101a35760003560e01c806301ffc9a7146101ba57806303dcd12c146101ef5780630835a3fc146102315780630952864e14610247578063158ef93e1461025d57806316d3bfbb1461027e578063248a9ca3146102965780632d632692146102b65780632f2ff15d146102cc57806336568abe146102ec57806336fba0841461030c57806339ebf823146103255780633f7b5e40146103875780634d4bb1971461039c5780634fb3ccc5146103d05780635141eebb146104085780637ecebe001461041e5780638afca8f01461044b578063919860031461046157806391d14854146104815780639aa7df94146104a15780639e34e348146104b75780639fc2c476146104d7578063a217fddf1461050b578063ab5b4d4914610520578063bbe4eb4914610554578063c0993eea14610575578063c45a0155146105a9578063c6d93f4a146105c9578063d547741f146105e9578063ecf7085814610609578063f828f50b1461061f578063fc0e74d114610635578063fc7b9c1814610656578063fd967f471461066c578063ff1e7f0814610682576101b2565b366101b2576101b06106a2565b005b6101b06106a2565b3480156101c657600080fd5b506101da6101d5366004610e05565b6106b4565b60405190151581526020015b60405180910390f35b3480156101fb57600080fd5b506102237f633076a97f32ae349b28772e7b1483f67a926f150cbc501d02bdbd77389325ab81565b6040519081526020016101e6565b34801561023d57600080fd5b5061022360055481565b34801561025357600080fd5b5061022360075481565b34801561026957600080fd5b50600f546101da90600160b01b900460ff1681565b34801561028a57600080fd5b506102236301e1855881565b3480156102a257600080fd5b506102236102b1366004610e2f565b6106eb565b3480156102c257600080fd5b5061022360085481565b3480156102d857600080fd5b506101b06102e7366004610e64565b610700565b3480156102f857600080fd5b506101b0610307366004610e64565b610721565b34801561031857600080fd5b5061022364e8d4a5100081565b34801561033157600080fd5b50610367610340366004610e90565b60136020526000908152604090208054600182015460028301546003909301549192909184565b6040805194855260208501939093529183015260608201526080016101e6565b34801561039357600080fd5b50610223600a81565b3480156103a857600080fd5b506102237f6e71edae12b1b97f4d1f60370fef10105fa2faae0126114a169c64845d6126c981565b3480156103dc57600080fd5b50600b546103f0906001600160a01b031681565b6040516001600160a01b0390911681526020016101e6565b34801561041457600080fd5b5061022360095481565b34801561042a57600080fd5b50610223610439366004610e90565b60166020526000908152604090205481565b34801561045757600080fd5b50610223600a5481565b34801561046d57600080fd5b50600d546103f0906001600160a01b031681565b34801561048d57600080fd5b506101da61049c366004610e64565b6107a4565b3480156104ad57600080fd5b5061022360045481565b3480156104c357600080fd5b50600c546103f0906001600160a01b031681565b3480156104e357600080fd5b506102237f1893e1a169e79f2fe8aa327b1bceb2fede7a1b76a54824f95ea0e737720954ae81565b34801561051757600080fd5b50610223600081565b34801561052c57600080fd5b506102237f900d80def0427daac599092fcb16b21808ec68dd9a2e1eae89d1e8db2135737581565b34801561056057600080fd5b50600f546101da90600160a01b900460ff1681565b34801561058157600080fd5b506102237f8b73c3c69bb8fe3d512ecc4cf759cc79239f7b179b0ffacaa9a75d522b39400f81565b3480156105b557600080fd5b50600e546103f0906001600160a01b031681565b3480156105d557600080fd5b506101b06105e4366004610eab565b6107cd565b3480156105f557600080fd5b506101b0610604366004610e64565b61081e565b34801561061557600080fd5b5061022360065481565b34801561062b57600080fd5b5061022360025481565b34801561064157600080fd5b50600f546101da90600160a81b900460ff1681565b34801561066257600080fd5b5061022360035481565b34801561067857600080fd5b5061022361271081565b34801561068e57600080fd5b506103f061069d366004610e2f565b61083a565b6106b26106ad610864565b61088a565b565b60006001600160e01b03198216637965db0b60e01b14806106e557506301ffc9a760e01b6001600160e01b03198316145b92915050565b60009081526020819052604090206001015490565b610709826106eb565b610712816108ae565b61071c83836108bb565b505050565b6001600160a01b03811633146107965760405162461bcd60e51b815260206004820152602f60248201527f416363657373436f6e74726f6c3a2063616e206f6e6c792072656e6f756e636560448201526e103937b632b9903337b91039b2b63360891b60648201526084015b60405180910390fd5b6107a0828261093f565b5050565b6000918252602082815260408084206001600160a01b0393909316845291905290205460ff1690565b60006107d8816108ae565b6108188484848080601f016020809104026020016040519081016040528093929190818152602001838380828437600092018290525092506109a4915050565b50505050565b610827826106eb565b610830816108ae565b61071c838361093f565b6012818154811061084a57600080fd5b6000918252602090912001546001600160a01b0316905081565b6000610885600080516020611093833981519152546001600160a01b031690565b905090565b3660008037600080366000845af43d6000803e8080156108a9573d6000f35b3d6000fd5b6108b881336109c9565b50565b6108c582826107a4565b6107a0576000828152602081815260408083206001600160a01b03851684529091529020805460ff191660011790556108fb3390565b6001600160a01b0316816001600160a01b0316837f2f8788117e7eff1d82e926ec794901d17c78024a50270940304540a733656f0d60405160405180910390a45050565b61094982826107a4565b156107a0576000828152602081815260408083206001600160a01b0385168085529252808320805460ff1916905551339285917ff6391f5c32d9c69d2a47ea670b442974b53935d1edc7fd64eb21e047a839171b9190a45050565b6109ad83610a22565b6000825111806109ba5750805b1561071c576108188383610a62565b6109d382826107a4565b6107a0576109e081610a8e565b6109eb836020610aa0565b6040516020016109fc929190610f51565b60408051601f198184030181529082905262461bcd60e51b825261078d91600401610fc0565b610a2b81610c3b565b6040516001600160a01b038216907fbc7cd75a20ee27fd9adebab32041f755214dbc6bffa90cc0225b39da2e5c2d3b90600090a250565b6060610a8783836040518060600160405280602781526020016110b360279139610cd5565b9392505050565b60606106e56001600160a01b03831660145b60606000610aaf836002611009565b610aba906002611020565b6001600160401b03811115610ad157610ad1611033565b6040519080825280601f01601f191660200182016040528015610afb576020820181803683370190505b509050600360fc1b81600081518110610b1657610b16611049565b60200101906001600160f81b031916908160001a905350600f60fb1b81600181518110610b4557610b45611049565b60200101906001600160f81b031916908160001a9053506000610b69846002611009565b610b74906001611020565b90505b6001811115610bec576f181899199a1a9b1b9c1cb0b131b232b360811b85600f1660108110610ba857610ba8611049565b1a60f81b828281518110610bbe57610bbe611049565b60200101906001600160f81b031916908160001a90535060049490941c93610be58161105f565b9050610b77565b508315610a875760405162461bcd60e51b815260206004820181905260248201527f537472696e67733a20686578206c656e67746820696e73756666696369656e74604482015260640161078d565b610c4481610d4d565b610ca65760405162461bcd60e51b815260206004820152602d60248201527f455243313936373a206e657720696d706c656d656e746174696f6e206973206e60448201526c1bdd08184818dbdb9d1c9858dd609a1b606482015260840161078d565b60008051602061109383398151915280546001600160a01b0319166001600160a01b0392909216919091179055565b6060600080856001600160a01b031685604051610cf29190611076565b600060405180830381855af49150503d8060008114610d2d576040519150601f19603f3d011682016040523d82523d6000602084013e610d32565b606091505b5091509150610d4386838387610d5c565b9695505050505050565b6001600160a01b03163b151590565b60608315610dc9578251600003610dc257610d7685610d4d565b610dc25760405162461bcd60e51b815260206004820152601d60248201527f416464726573733a2063616c6c20746f206e6f6e2d636f6e7472616374000000604482015260640161078d565b5081610dd3565b610dd38383610ddb565b949350505050565b815115610deb5781518083602001fd5b8060405162461bcd60e51b815260040161078d9190610fc0565b600060208284031215610e1757600080fd5b81356001600160e01b031981168114610a8757600080fd5b600060208284031215610e4157600080fd5b5035919050565b80356001600160a01b0381168114610e5f57600080fd5b919050565b60008060408385031215610e7757600080fd5b82359150610e8760208401610e48565b90509250929050565b600060208284031215610ea257600080fd5b610a8782610e48565b600080600060408486031215610ec057600080fd5b610ec984610e48565b925060208401356001600160401b0380821115610ee557600080fd5b818601915086601f830112610ef957600080fd5b813581811115610f0857600080fd5b876020828501011115610f1a57600080fd5b6020830194508093505050509250925092565b60005b83811015610f48578181015183820152602001610f30565b50506000910152565b76020b1b1b2b9b9a1b7b73a3937b61d1030b1b1b7bab73a1604d1b815260008351610f83816017850160208801610f2d565b7001034b99036b4b9b9b4b733903937b6329607d1b6017918401918201528351610fb4816028840160208801610f2d565b01602801949350505050565b6020815260008251806020840152610fdf816040850160208701610f2d565b601f01601f19169190910160400192915050565b634e487b7160e01b600052601160045260246000fd5b80820281158282048414176106e5576106e5610ff3565b808201808211156106e5576106e5610ff3565b634e487b7160e01b600052604160045260246000fd5b634e487b7160e01b600052603260045260246000fd5b60008161106e5761106e610ff3565b506000190190565b60008251611088818460208701610f2d565b919091019291505056fe360894a13ba1a3210667c828492db98dca3e2076cc3735a920a3ca505d382bbc416464726573733a206c6f772d6c6576656c2064656c65676174652063616c6c206661696c6564a26469706673582212208fd16eef916b9fffddb45d4e742dd348d41b36221205ba017b2052fd65f0128764736f6c63430008130033416464726573733a206c6f772d6c6576656c2064656c65676174652063616c6c206661696c6564077c6dc895847ccdbc655db399eacb5db402ee3572d3ce713a8b914861e67936a2646970667358221220183b006eeb0b635d1aa301625671a4677a5ced766846fc50133df426bcc4ce2764736f6c63430008130033",
  "devdoc": {
    "events": {
      "RoleAdminChanged(bytes32,bytes32,bytes32)": {
        "details": "Emitted when `newAdminRole` is set as ``role``'s admin role, replacing `previousAdminRole` `DEFAULT_ADMIN_ROLE` is the starting admin for all roles, despite {RoleAdminChanged} not being emitted signaling this. _Available since v3.1._"
      },
      "RoleGranted(bytes32,address,address)": {
        "details": "Emitted when `account` is granted `role`. `sender` is the account that originated the contract call, an admin role bearer except when using {AccessControl-_setupRole}."
      },
      "RoleRevoked(bytes32,address,address)": {
        "details": "Emitted when `account` is revoked `role`. `sender` is the account that originated the contract call:   - if using `revokeRole`, it is the admin role bearer   - if using `renounceRole`, it is the role bearer (i.e. `account`)"
      }
    },
    "kind": "dev",
    "methods": {
      "getRoleAdmin(bytes32)": {
        "details": "Returns the admin role that controls `role`. See {grantRole} and {revokeRole}. To change a role's admin, use {_setRoleAdmin}."
      },
      "grantRole(bytes32,address)": {
        "details": "Grants `role` to `account`. If `account` had not been already granted `role`, emits a {RoleGranted} event. Requirements: - the caller must have ``role``'s admin role. May emit a {RoleGranted} event."
      },
      "hasRole(bytes32,address)": {
        "details": "Returns `true` if `account` has been granted `role`."
      },
      "renounceRole(bytes32,address)": {
        "details": "Revokes `role` from the calling account. Roles are often managed via {grantRole} and {revokeRole}: this function's purpose is to provide a mechanism for accounts to lose their privileges if they are compromised (such as when a trusted device is misplaced). If the calling account had been revoked `role`, emits a {RoleRevoked} event. Requirements: - the caller must be `account`. May emit a {RoleRevoked} event."
      },
      "revokeRole(bytes32,address)": {
        "details": "Revokes `role` from `account`. If `account` had been granted `role`, emits a {RoleRevoked} event. Requirements: - the caller must have ``role``'s admin role. May emit a {RoleRevoked} event."
      },
      "supportsInterface(bytes4)": {
        "details": "See {IERC165-supportsInterface}."
      }
    },
    "version": 1
  },
  "userdoc": {
    "kind": "user",
    "methods": {
      "initialized()": {
        "notice": "Initialized state of the factory."
      }
    },
    "version": 1
  },
  "storageLayout": {
    "storage": [
      {
        "astId": 24,
        "contract": "contracts/factory/packages/FactoryPackage.sol:FactoryPackage",
        "label": "_roles",
        "offset": 0,
        "slot": "0",
        "type": "t_mapping(t_bytes32,t_struct(RoleData)19_storage)"
      },
      {
        "astId": 964,
        "contract": "contracts/factory/packages/FactoryPackage.sol:FactoryPackage",
        "label": "_status",
        "offset": 0,
        "slot": "1",
        "type": "t_uint256"
      },
      {
        "astId": 4413,
        "contract": "contracts/factory/packages/FactoryPackage.sol:FactoryPackage",
        "label": "feeBPS",
        "offset": 0,
        "slot": "2",
        "type": "t_uint16"
      },
      {
        "astId": 4415,
        "contract": "contracts/factory/packages/FactoryPackage.sol:FactoryPackage",
        "label": "feeRecipient",
        "offset": 2,
        "slot": "2",
        "type": "t_address"
      },
      {
        "astId": 4417,
        "contract": "contracts/factory/packages/FactoryPackage.sol:FactoryPackage",
        "label": "vaultPackage",
        "offset": 0,
        "slot": "3",
        "type": "t_address"
      },
      {
        "astId": 4420,
        "contract": "contracts/factory/packages/FactoryPackage.sol:FactoryPackage",
        "label": "vaults",
        "offset": 0,
        "slot": "4",
        "type": "t_array(t_address)dyn_storage"
      },
      {
        "astId": 4424,
        "contract": "contracts/factory/packages/FactoryPackage.sol:FactoryPackage",
        "label": "vaultCreators",
        "offset": 0,
        "slot": "5",
        "type": "t_mapping(t_address,t_address)"
      },
      {
        "astId": 4427,
        "contract": "contracts/factory/packages/FactoryPackage.sol:FactoryPackage",
        "label": "initialized",
        "offset": 0,
        "slot": "6",
        "type": "t_bool"
      }
    ],
    "types": {
      "t_address": {
        "encoding": "inplace",
        "label": "address",
        "numberOfBytes": "20"
      },
      "t_array(t_address)dyn_storage": {
        "base": "t_address",
        "encoding": "dynamic_array",
        "label": "address[]",
        "numberOfBytes": "32"
      },
      "t_bool": {
        "encoding": "inplace",
        "label": "bool",
        "numberOfBytes": "1"
      },
      "t_bytes32": {
        "encoding": "inplace",
        "label": "bytes32",
        "numberOfBytes": "32"
      },
      "t_mapping(t_address,t_address)": {
        "encoding": "mapping",
        "key": "t_address",
        "label": "mapping(address => address)",
        "numberOfBytes": "32",
        "value": "t_address"
      },
      "t_mapping(t_address,t_bool)": {
        "encoding": "mapping",
        "key": "t_address",
        "label": "mapping(address => bool)",
        "numberOfBytes": "32",
        "value": "t_bool"
      },
      "t_mapping(t_bytes32,t_struct(RoleData)19_storage)": {
        "encoding": "mapping",
        "key": "t_bytes32",
        "label": "mapping(bytes32 => struct AccessControl.RoleData)",
        "numberOfBytes": "32",
        "value": "t_struct(RoleData)19_storage"
      },
      "t_struct(RoleData)19_storage": {
        "encoding": "inplace",
        "label": "struct AccessControl.RoleData",
        "members": [
          {
            "astId": 16,
            "contract": "contracts/factory/packages/FactoryPackage.sol:FactoryPackage",
            "label": "members",
            "offset": 0,
            "slot": "0",
            "type": "t_mapping(t_address,t_bool)"
          },
          {
            "astId": 18,
            "contract": "contracts/factory/packages/FactoryPackage.sol:FactoryPackage",
            "label": "adminRole",
            "offset": 0,
            "slot": "1",
            "type": "t_bytes32"
          }
        ],
        "numberOfBytes": "64"
      },
      "t_uint16": {
        "encoding": "inplace",
        "label": "uint16",
        "numberOfBytes": "2"
      },
      "t_uint256": {
        "encoding": "inplace",
        "label": "uint256",
        "numberOfBytes": "32"
      }
    }
  }
}