{
  "address": "0x78be91dDC9377Ebd57d4f26f5470E233D467Cd15",
  "abi": [
    {
      "inputs": [
        {
          "internalType": "address",
          "name": "implementation",
          "type": "address"
        },
        {
          "internalType": "address",
          "name": "admin",
          "type": "address"
        },
        {
          "internalType": "bytes",
          "name": "_data",
          "type": "bytes"
        }
      ],
      "stateMutability": "payable",
      "type": "constructor"
    },
    {
      "anonymous": false,
      "inputs": [
        {
          "indexed": false,
          "internalType": "address",
          "name": "previousAdmin",
          "type": "address"
        },
        {
          "indexed": false,
          "internalType": "address",
          "name": "newAdmin",
          "type": "address"
        }
      ],
      "name": "AdminChanged",
      "type": "event"
    },
    {
      "anonymous": false,
      "inputs": [
        {
          "indexed": true,
          "internalType": "address",
          "name": "beacon",
          "type": "address"
        }
      ],
      "name": "BeaconUpgraded",
      "type": "event"
    },
    {
      "anonymous": false,
      "inputs": [
        {
          "indexed": true,
          "internalType": "bytes32",
          "name": "role",
          "type": "bytes32"
        },
        {
          "indexed": true,
          "internalType": "bytes32",
          "name": "previousAdminRole",
          "type": "bytes32"
        },
        {
          "indexed": true,
          "internalType": "bytes32",
          "name": "newAdminRole",
          "type": "bytes32"
        }
      ],
      "name": "RoleAdminChanged",
      "type": "event"
    },
    {
      "anonymous": false,
      "inputs": [
        {
          "indexed": true,
          "internalType": "bytes32",
          "name": "role",
          "type": "bytes32"
        },
        {
          "indexed": true,
          "internalType": "address",
          "name": "account",
          "type": "address"
        },
        {
          "indexed": true,
          "internalType": "address",
          "name": "sender",
          "type": "address"
        }
      ],
      "name": "RoleGranted",
      "type": "event"
    },
    {
      "anonymous": false,
      "inputs": [
        {
          "indexed": true,
          "internalType": "bytes32",
          "name": "role",
          "type": "bytes32"
        },
        {
          "indexed": true,
          "internalType": "address",
          "name": "account",
          "type": "address"
        },
        {
          "indexed": true,
          "internalType": "address",
          "name": "sender",
          "type": "address"
        }
      ],
      "name": "RoleRevoked",
      "type": "event"
    },
    {
      "anonymous": false,
      "inputs": [
        {
          "indexed": true,
          "internalType": "address",
          "name": "implementation",
          "type": "address"
        }
      ],
      "name": "Upgraded",
      "type": "event"
    },
    {
      "stateMutability": "payable",
      "type": "fallback"
    },
    {
      "inputs": [],
      "name": "DEFAULT_ADMIN_ROLE",
      "outputs": [
        {
          "internalType": "bytes32",
          "name": "",
          "type": "bytes32"
        }
      ],
      "stateMutability": "view",
      "type": "function"
    },
    {
      "inputs": [],
      "name": "MAX_BPS",
      "outputs": [
        {
          "internalType": "uint16",
          "name": "",
          "type": "uint16"
        }
      ],
      "stateMutability": "view",
      "type": "function"
    },
    {
      "inputs": [],
      "name": "feeBPS",
      "outputs": [
        {
          "internalType": "uint16",
          "name": "",
          "type": "uint16"
        }
      ],
      "stateMutability": "view",
      "type": "function"
    },
    {
      "inputs": [],
      "name": "feeRecipient",
      "outputs": [
        {
          "internalType": "address",
          "name": "",
          "type": "address"
        }
      ],
      "stateMutability": "view",
      "type": "function"
    },
    {
      "inputs": [
        {
          "internalType": "bytes32",
          "name": "role",
          "type": "bytes32"
        }
      ],
      "name": "getRoleAdmin",
      "outputs": [
        {
          "internalType": "bytes32",
          "name": "",
          "type": "bytes32"
        }
      ],
      "stateMutability": "view",
      "type": "function"
    },
    {
      "inputs": [
        {
          "internalType": "bytes32",
          "name": "role",
          "type": "bytes32"
        },
        {
          "internalType": "address",
          "name": "account",
          "type": "address"
        }
      ],
      "name": "grantRole",
      "outputs": [],
      "stateMutability": "nonpayable",
      "type": "function"
    },
    {
      "inputs": [
        {
          "internalType": "bytes32",
          "name": "role",
          "type": "bytes32"
        },
        {
          "internalType": "address",
          "name": "account",
          "type": "address"
        }
      ],
      "name": "hasRole",
      "outputs": [
        {
          "internalType": "bool",
          "name": "",
          "type": "bool"
        }
      ],
      "stateMutability": "view",
      "type": "function"
    },
    {
      "inputs": [],
      "name": "initialized",
      "outputs": [
        {
          "internalType": "bool",
          "name": "",
          "type": "bool"
        }
      ],
      "stateMutability": "view",
      "type": "function"
    },
    {
      "inputs": [
        {
          "internalType": "bytes32",
          "name": "role",
          "type": "bytes32"
        },
        {
          "internalType": "address",
          "name": "account",
          "type": "address"
        }
      ],
      "name": "renounceRole",
      "outputs": [],
      "stateMutability": "nonpayable",
      "type": "function"
    },
    {
      "inputs": [
        {
          "internalType": "bytes32",
          "name": "role",
          "type": "bytes32"
        },
        {
          "internalType": "address",
          "name": "account",
          "type": "address"
        }
      ],
      "name": "revokeRole",
      "outputs": [],
      "stateMutability": "nonpayable",
      "type": "function"
    },
    {
      "inputs": [
        {
          "internalType": "address",
          "name": "implementation",
          "type": "address"
        },
        {
          "internalType": "bytes",
          "name": "_data",
          "type": "bytes"
        }
      ],
      "name": "setImplementation",
      "outputs": [],
      "stateMutability": "nonpayable",
      "type": "function"
    },
    {
      "inputs": [
        {
          "internalType": "bytes4",
          "name": "interfaceId",
          "type": "bytes4"
        }
      ],
      "name": "supportsInterface",
      "outputs": [
        {
          "internalType": "bool",
          "name": "",
          "type": "bool"
        }
      ],
      "stateMutability": "view",
      "type": "function"
    },
    {
      "inputs": [
        {
          "internalType": "address",
          "name": "",
          "type": "address"
        }
      ],
      "name": "vaultCreators",
      "outputs": [
        {
          "internalType": "address",
          "name": "",
          "type": "address"
        }
      ],
      "stateMutability": "view",
      "type": "function"
    },
    {
      "inputs": [],
      "name": "vaultPackage",
      "outputs": [
        {
          "internalType": "address",
          "name": "",
          "type": "address"
        }
      ],
      "stateMutability": "view",
      "type": "function"
    },
    {
      "inputs": [
        {
          "internalType": "uint256",
          "name": "",
          "type": "uint256"
        }
      ],
      "name": "vaults",
      "outputs": [
        {
          "internalType": "address",
          "name": "",
          "type": "address"
        }
      ],
      "stateMutability": "view",
      "type": "function"
    },
    {
      "stateMutability": "payable",
      "type": "receive"
    }
  ],
  "transactionHash": "0xfee3c1fc1363fa8dc46f3082a3530be7a0791f3400e05b56b9f8f5d05fe6442b",
  "args": [
    "0x796B7b30a60311336BDA0B0fF51A9a36B7db43Ac",
    "0x0Eb7DEE6e18Cce8fE839E986502d95d47dC0ADa3",
    "0x"
  ],
  "numDeployments": 1,
  "solcInputHash": "c3d40667c371f42bc302cf0e2280989d",
  "bytecode": "0x6080604052604051620012a7380380620012a78339810160408190526200002691620003d3565b60018055620000376000836200004e565b6200004583826000620000ef565b50505062000506565b6000828152602081815260408083206001600160a01b038516845290915290205460ff16620000eb576000828152602081815260408083206001600160a01b03851684529091529020805460ff19166001179055620000aa3390565b6001600160a01b0316816001600160a01b0316837f2f8788117e7eff1d82e926ec794901d17c78024a50270940304540a733656f0d60405160405180910390a45b5050565b620000fa8362000121565b600082511180620001085750805b156200011c576200011a838362000163565b505b505050565b6200012c8162000192565b6040516001600160a01b038216907fbc7cd75a20ee27fd9adebab32041f755214dbc6bffa90cc0225b39da2e5c2d3b90600090a250565b60606200018b8383604051806060016040528060278152602001620012806027913962000246565b9392505050565b6001600160a01b0381163b620002055760405162461bcd60e51b815260206004820152602d60248201527f455243313936373a206e657720696d706c656d656e746174696f6e206973206e60448201526c1bdd08184818dbdb9d1c9858dd609a1b60648201526084015b60405180910390fd5b7f360894a13ba1a3210667c828492db98dca3e2076cc3735a920a3ca505d382bbc80546001600160a01b0319166001600160a01b0392909216919091179055565b6060600080856001600160a01b031685604051620002659190620004b3565b600060405180830381855af49150503d8060008114620002a2576040519150601f19603f3d011682016040523d82523d6000602084013e620002a7565b606091505b509092509050620002bb86838387620002c5565b9695505050505050565b606083156200033957825160000362000331576001600160a01b0385163b620003315760405162461bcd60e51b815260206004820152601d60248201527f416464726573733a2063616c6c20746f206e6f6e2d636f6e74726163740000006044820152606401620001fc565b508162000345565b6200034583836200034d565b949350505050565b8151156200035e5781518083602001fd5b8060405162461bcd60e51b8152600401620001fc9190620004d1565b80516001600160a01b03811681146200039257600080fd5b919050565b634e487b7160e01b600052604160045260246000fd5b60005b83811015620003ca578181015183820152602001620003b0565b50506000910152565b600080600060608486031215620003e957600080fd5b620003f4846200037a565b925062000404602085016200037a565b60408501519092506001600160401b03808211156200042257600080fd5b818601915086601f8301126200043757600080fd5b8151818111156200044c576200044c62000397565b604051601f8201601f19908116603f0116810190838211818310171562000477576200047762000397565b816040528281528960208487010111156200049157600080fd5b620004a4836020830160208801620003ad565b80955050505050509250925092565b60008251620004c7818460208701620003ad565b9190910192915050565b6020815260008251806020840152620004f2816040850160208701620003ad565b601f01601f19169190910160400192915050565b610d6a80620005166000396000f3fe6080604052600436106100bc5760003560e01c806301ffc9a7146100d3578063158ef93e146101085780631a1c6e53146101225780631c0bdcfe14610150578063248a9ca31461019e5780632f2ff15d146101cc57806336568abe146101ec578063469048401461020c5780638c64ea4a1461023257806391d1485414610252578063a217fddf14610272578063c6d93f4a14610287578063cee0c7ca146102a7578063d547741f146102c7578063fd967f47146102e7576100cb565b366100cb576100c96102fd565b005b6100c96102fd565b3480156100df57600080fd5b506100f36100ee366004610a60565b61030f565b60405190151581526020015b60405180910390f35b34801561011457600080fd5b506006546100f39060ff1681565b34801561012e57600080fd5b5060025461013d9061ffff1681565b60405161ffff90911681526020016100ff565b34801561015c57600080fd5b5061018661016b366004610aa6565b6005602052600090815260409020546001600160a01b031681565b6040516001600160a01b0390911681526020016100ff565b3480156101aa57600080fd5b506101be6101b9366004610ac1565b610346565b6040519081526020016100ff565b3480156101d857600080fd5b506100c96101e7366004610ada565b61035b565b3480156101f857600080fd5b506100c9610207366004610ada565b61037c565b34801561021857600080fd5b50600254610186906201000090046001600160a01b031681565b34801561023e57600080fd5b5061018661024d366004610ac1565b6103ff565b34801561025e57600080fd5b506100f361026d366004610ada565b610429565b34801561027e57600080fd5b506101be600081565b34801561029357600080fd5b506100c96102a2366004610b06565b610452565b3480156102b357600080fd5b50600354610186906001600160a01b031681565b3480156102d357600080fd5b506100c96102e2366004610ada565b6104a3565b3480156102f357600080fd5b5061013d61271081565b61030d6103086104bf565b6104e5565b565b60006001600160e01b03198216637965db0b60e01b148061034057506301ffc9a760e01b6001600160e01b03198316145b92915050565b60009081526020819052604090206001015490565b61036482610346565b61036d81610509565b6103778383610516565b505050565b6001600160a01b03811633146103f15760405162461bcd60e51b815260206004820152602f60248201527f416363657373436f6e74726f6c3a2063616e206f6e6c792072656e6f756e636560448201526e103937b632b9903337b91039b2b63360891b60648201526084015b60405180910390fd5b6103fb828261059a565b5050565b6004818154811061040f57600080fd5b6000918252602090912001546001600160a01b0316905081565b6000918252602082815260408084206001600160a01b0393909316845291905290205460ff1690565b600061045d81610509565b61049d8484848080601f016020809104026020016040519081016040528093929190818152602001838380828437600092018290525092506105ff915050565b50505050565b6104ac82610346565b6104b581610509565b610377838361059a565b60006104e0600080516020610cee833981519152546001600160a01b031690565b905090565b3660008037600080366000845af43d6000803e808015610504573d6000f35b3d6000fd5b6105138133610624565b50565b6105208282610429565b6103fb576000828152602081815260408083206001600160a01b03851684529091529020805460ff191660011790556105563390565b6001600160a01b0316816001600160a01b0316837f2f8788117e7eff1d82e926ec794901d17c78024a50270940304540a733656f0d60405160405180910390a45050565b6105a48282610429565b156103fb576000828152602081815260408083206001600160a01b0385168085529252808320805460ff1916905551339285917ff6391f5c32d9c69d2a47ea670b442974b53935d1edc7fd64eb21e047a839171b9190a45050565b6106088361067d565b6000825111806106155750805b156103775761049d83836106bd565b61062e8282610429565b6103fb5761063b816106e9565b6106468360206106fb565b604051602001610657929190610bac565b60408051601f198184030181529082905262461bcd60e51b82526103e891600401610c1b565b61068681610896565b6040516001600160a01b038216907fbc7cd75a20ee27fd9adebab32041f755214dbc6bffa90cc0225b39da2e5c2d3b90600090a250565b60606106e28383604051806060016040528060278152602001610d0e60279139610930565b9392505050565b60606103406001600160a01b03831660145b6060600061070a836002610c64565b610715906002610c7b565b6001600160401b0381111561072c5761072c610c8e565b6040519080825280601f01601f191660200182016040528015610756576020820181803683370190505b509050600360fc1b8160008151811061077157610771610ca4565b60200101906001600160f81b031916908160001a905350600f60fb1b816001815181106107a0576107a0610ca4565b60200101906001600160f81b031916908160001a90535060006107c4846002610c64565b6107cf906001610c7b565b90505b6001811115610847576f181899199a1a9b1b9c1cb0b131b232b360811b85600f166010811061080357610803610ca4565b1a60f81b82828151811061081957610819610ca4565b60200101906001600160f81b031916908160001a90535060049490941c9361084081610cba565b90506107d2565b5083156106e25760405162461bcd60e51b815260206004820181905260248201527f537472696e67733a20686578206c656e67746820696e73756666696369656e7460448201526064016103e8565b61089f816109a8565b6109015760405162461bcd60e51b815260206004820152602d60248201527f455243313936373a206e657720696d706c656d656e746174696f6e206973206e60448201526c1bdd08184818dbdb9d1c9858dd609a1b60648201526084016103e8565b600080516020610cee83398151915280546001600160a01b0319166001600160a01b0392909216919091179055565b6060600080856001600160a01b03168560405161094d9190610cd1565b600060405180830381855af49150503d8060008114610988576040519150601f19603f3d011682016040523d82523d6000602084013e61098d565b606091505b509150915061099e868383876109b7565b9695505050505050565b6001600160a01b03163b151590565b60608315610a24578251600003610a1d576109d1856109a8565b610a1d5760405162461bcd60e51b815260206004820152601d60248201527f416464726573733a2063616c6c20746f206e6f6e2d636f6e747261637400000060448201526064016103e8565b5081610a2e565b610a2e8383610a36565b949350505050565b815115610a465781518083602001fd5b8060405162461bcd60e51b81526004016103e89190610c1b565b600060208284031215610a7257600080fd5b81356001600160e01b0319811681146106e257600080fd5b80356001600160a01b0381168114610aa157600080fd5b919050565b600060208284031215610ab857600080fd5b6106e282610a8a565b600060208284031215610ad357600080fd5b5035919050565b60008060408385031215610aed57600080fd5b82359150610afd60208401610a8a565b90509250929050565b600080600060408486031215610b1b57600080fd5b610b2484610a8a565b925060208401356001600160401b0380821115610b4057600080fd5b818601915086601f830112610b5457600080fd5b813581811115610b6357600080fd5b876020828501011115610b7557600080fd5b6020830194508093505050509250925092565b60005b83811015610ba3578181015183820152602001610b8b565b50506000910152565b76020b1b1b2b9b9a1b7b73a3937b61d1030b1b1b7bab73a1604d1b815260008351610bde816017850160208801610b88565b7001034b99036b4b9b9b4b733903937b6329607d1b6017918401918201528351610c0f816028840160208801610b88565b01602801949350505050565b6020815260008251806020840152610c3a816040850160208701610b88565b601f01601f19169190910160400192915050565b634e487b7160e01b600052601160045260246000fd5b808202811582820484141761034057610340610c4e565b8082018082111561034057610340610c4e565b634e487b7160e01b600052604160045260246000fd5b634e487b7160e01b600052603260045260246000fd5b600081610cc957610cc9610c4e565b506000190190565b60008251610ce3818460208701610b88565b919091019291505056fe360894a13ba1a3210667c828492db98dca3e2076cc3735a920a3ca505d382bbc416464726573733a206c6f772d6c6576656c2064656c65676174652063616c6c206661696c6564a2646970667358221220e4338d15799c003ca68c48afa9ec6aa59aa52f30c40fb314902f755bae50df7964736f6c63430008130033416464726573733a206c6f772d6c6576656c2064656c65676174652063616c6c206661696c6564",
  "devdoc": {
    "events": {
      "AdminChanged(address,address)": {
        "details": "Emitted when the admin account has changed."
      },
      "BeaconUpgraded(address)": {
        "details": "Emitted when the beacon is changed."
      },
      "RoleAdminChanged(bytes32,bytes32,bytes32)": {
        "details": "Emitted when `newAdminRole` is set as ``role``'s admin role, replacing `previousAdminRole` `DEFAULT_ADMIN_ROLE` is the starting admin for all roles, despite {RoleAdminChanged} not being emitted signaling this. _Available since v3.1._"
      },
      "RoleGranted(bytes32,address,address)": {
        "details": "Emitted when `account` is granted `role`. `sender` is the account that originated the contract call, an admin role bearer except when using {AccessControl-_setupRole}."
      },
      "RoleRevoked(bytes32,address,address)": {
        "details": "Emitted when `account` is revoked `role`. `sender` is the account that originated the contract call:   - if using `revokeRole`, it is the admin role bearer   - if using `renounceRole`, it is the role bearer (i.e. `account`)"
      },
      "Upgraded(address)": {
        "details": "Emitted when the implementation is upgraded."
      }
    },
    "kind": "dev",
    "methods": {
      "constructor": {
        "details": "Initializes the upgradeable proxy with an initial implementation specified by `implementation`. If `_data` is nonempty, it's used as data in a delegate call to `implementation`. This will typically be an encoded function call, and allows initializing the storage of the proxy like a Solidity constructor. Requirements: - If `data` is empty, `msg.value` must be zero."
      },
      "getRoleAdmin(bytes32)": {
        "details": "Returns the admin role that controls `role`. See {grantRole} and {revokeRole}. To change a role's admin, use {_setRoleAdmin}."
      },
      "grantRole(bytes32,address)": {
        "details": "Grants `role` to `account`. If `account` had not been already granted `role`, emits a {RoleGranted} event. Requirements: - the caller must have ``role``'s admin role. May emit a {RoleGranted} event."
      },
      "hasRole(bytes32,address)": {
        "details": "Returns `true` if `account` has been granted `role`."
      },
      "renounceRole(bytes32,address)": {
        "details": "Revokes `role` from the calling account. Roles are often managed via {grantRole} and {revokeRole}: this function's purpose is to provide a mechanism for accounts to lose their privileges if they are compromised (such as when a trusted device is misplaced). If the calling account had been revoked `role`, emits a {RoleRevoked} event. Requirements: - the caller must be `account`. May emit a {RoleRevoked} event."
      },
      "revokeRole(bytes32,address)": {
        "details": "Revokes `role` from `account`. If `account` had been granted `role`, emits a {RoleRevoked} event. Requirements: - the caller must have ``role``'s admin role. May emit a {RoleRevoked} event."
      },
      "supportsInterface(bytes4)": {
        "details": "See {IERC165-supportsInterface}."
      }
    },
    "title": "Vault Factory",
    "version": 1
  },
  "userdoc": {
    "kind": "user",
    "methods": {
      "initialized()": {
        "notice": "Initialized state of the factory."
      }
    },
    "version": 1
  },
  "storageLayout": {
    "storage": [
      {
        "astId": 24,
        "contract": "contracts/factory/Factory.sol:Factory",
        "label": "_roles",
        "offset": 0,
        "slot": "0",
        "type": "t_mapping(t_bytes32,t_struct(RoleData)19_storage)"
      },
      {
        "astId": 964,
        "contract": "contracts/factory/Factory.sol:Factory",
        "label": "_status",
        "offset": 0,
        "slot": "1",
        "type": "t_uint256"
      },
      {
        "astId": 4429,
        "contract": "contracts/factory/Factory.sol:Factory",
        "label": "feeBPS",
        "offset": 0,
        "slot": "2",
        "type": "t_uint16"
      },
      {
        "astId": 4431,
        "contract": "contracts/factory/Factory.sol:Factory",
        "label": "feeRecipient",
        "offset": 2,
        "slot": "2",
        "type": "t_address"
      },
      {
        "astId": 4433,
        "contract": "contracts/factory/Factory.sol:Factory",
        "label": "vaultPackage",
        "offset": 0,
        "slot": "3",
        "type": "t_address"
      },
      {
        "astId": 4436,
        "contract": "contracts/factory/Factory.sol:Factory",
        "label": "vaults",
        "offset": 0,
        "slot": "4",
        "type": "t_array(t_address)dyn_storage"
      },
      {
        "astId": 4440,
        "contract": "contracts/factory/Factory.sol:Factory",
        "label": "vaultCreators",
        "offset": 0,
        "slot": "5",
        "type": "t_mapping(t_address,t_address)"
      },
      {
        "astId": 4443,
        "contract": "contracts/factory/Factory.sol:Factory",
        "label": "initialized",
        "offset": 0,
        "slot": "6",
        "type": "t_bool"
      }
    ],
    "types": {
      "t_address": {
        "encoding": "inplace",
        "label": "address",
        "numberOfBytes": "20"
      },
      "t_array(t_address)dyn_storage": {
        "base": "t_address",
        "encoding": "dynamic_array",
        "label": "address[]",
        "numberOfBytes": "32"
      },
      "t_bool": {
        "encoding": "inplace",
        "label": "bool",
        "numberOfBytes": "1"
      },
      "t_bytes32": {
        "encoding": "inplace",
        "label": "bytes32",
        "numberOfBytes": "32"
      },
      "t_mapping(t_address,t_address)": {
        "encoding": "mapping",
        "key": "t_address",
        "label": "mapping(address => address)",
        "numberOfBytes": "32",
        "value": "t_address"
      },
      "t_mapping(t_address,t_bool)": {
        "encoding": "mapping",
        "key": "t_address",
        "label": "mapping(address => bool)",
        "numberOfBytes": "32",
        "value": "t_bool"
      },
      "t_mapping(t_bytes32,t_struct(RoleData)19_storage)": {
        "encoding": "mapping",
        "key": "t_bytes32",
        "label": "mapping(bytes32 => struct AccessControl.RoleData)",
        "numberOfBytes": "32",
        "value": "t_struct(RoleData)19_storage"
      },
      "t_struct(RoleData)19_storage": {
        "encoding": "inplace",
        "label": "struct AccessControl.RoleData",
        "members": [
          {
            "astId": 16,
            "contract": "contracts/factory/Factory.sol:Factory",
            "label": "members",
            "offset": 0,
            "slot": "0",
            "type": "t_mapping(t_address,t_bool)"
          },
          {
            "astId": 18,
            "contract": "contracts/factory/Factory.sol:Factory",
            "label": "adminRole",
            "offset": 0,
            "slot": "1",
            "type": "t_bytes32"
          }
        ],
        "numberOfBytes": "64"
      },
      "t_uint16": {
        "encoding": "inplace",
        "label": "uint16",
        "numberOfBytes": "2"
      },
      "t_uint256": {
        "encoding": "inplace",
        "label": "uint256",
        "numberOfBytes": "32"
      }
    }
  }
}