{
  "address": "0xF8E56b3578a274e4a1dF0FF9664f668F5728dCD8",
  "abi": [
    {
      "inputs": [],
      "name": "AlreadyInitialized",
      "type": "error"
    },
    {
      "inputs": [],
      "name": "FeeGreaterThan100",
      "type": "error"
    },
    {
      "inputs": [],
      "name": "SameVaultPackage",
      "type": "error"
    },
    {
      "inputs": [],
      "name": "ZeroAddress",
      "type": "error"
    },
    {
      "anonymous": false,
      "inputs": [
        {
          "indexed": true,
          "internalType": "address",
          "name": "feeRecipient",
          "type": "address"
        },
        {
          "indexed": false,
          "internalType": "uint16",
          "name": "feeBPS",
          "type": "uint16"
        }
      ],
      "name": "FeeConfigUpdated",
      "type": "event"
    },
    {
      "anonymous": false,
      "inputs": [
        {
          "indexed": true,
          "internalType": "bytes32",
          "name": "role",
          "type": "bytes32"
        },
        {
          "indexed": true,
          "internalType": "bytes32",
          "name": "previousAdminRole",
          "type": "bytes32"
        },
        {
          "indexed": true,
          "internalType": "bytes32",
          "name": "newAdminRole",
          "type": "bytes32"
        }
      ],
      "name": "RoleAdminChanged",
      "type": "event"
    },
    {
      "anonymous": false,
      "inputs": [
        {
          "indexed": true,
          "internalType": "bytes32",
          "name": "role",
          "type": "bytes32"
        },
        {
          "indexed": true,
          "internalType": "address",
          "name": "account",
          "type": "address"
        },
        {
          "indexed": true,
          "internalType": "address",
          "name": "sender",
          "type": "address"
        }
      ],
      "name": "RoleGranted",
      "type": "event"
    },
    {
      "anonymous": false,
      "inputs": [
        {
          "indexed": true,
          "internalType": "bytes32",
          "name": "role",
          "type": "bytes32"
        },
        {
          "indexed": true,
          "internalType": "address",
          "name": "account",
          "type": "address"
        },
        {
          "indexed": true,
          "internalType": "address",
          "name": "sender",
          "type": "address"
        }
      ],
      "name": "RoleRevoked",
      "type": "event"
    },
    {
      "anonymous": false,
      "inputs": [
        {
          "indexed": true,
          "internalType": "address",
          "name": "vault",
          "type": "address"
        },
        {
          "indexed": false,
          "internalType": "uint32",
          "name": "profitMaxUnlockTime",
          "type": "uint32"
        },
        {
          "indexed": true,
          "internalType": "address",
          "name": "asset",
          "type": "address"
        },
        {
          "indexed": false,
          "internalType": "string",
          "name": "name",
          "type": "string"
        },
        {
          "indexed": false,
          "internalType": "string",
          "name": "symbol",
          "type": "string"
        },
        {
          "indexed": true,
          "internalType": "address",
          "name": "accountant",
          "type": "address"
        },
        {
          "indexed": false,
          "internalType": "address",
          "name": "admin",
          "type": "address"
        }
      ],
      "name": "VaultDeployed",
      "type": "event"
    },
    {
      "anonymous": false,
      "inputs": [
        {
          "indexed": true,
          "internalType": "address",
          "name": "vaultPackage",
          "type": "address"
        }
      ],
      "name": "VaultPackageUpdated",
      "type": "event"
    },
    {
      "inputs": [],
      "name": "DEFAULT_ADMIN_ROLE",
      "outputs": [
        {
          "internalType": "bytes32",
          "name": "",
          "type": "bytes32"
        }
      ],
      "stateMutability": "view",
      "type": "function"
    },
    {
      "inputs": [],
      "name": "MAX_BPS",
      "outputs": [
        {
          "internalType": "uint16",
          "name": "",
          "type": "uint16"
        }
      ],
      "stateMutability": "view",
      "type": "function"
    },
    {
      "inputs": [
        {
          "internalType": "uint32",
          "name": "_profitMaxUnlockTime",
          "type": "uint32"
        },
        {
          "internalType": "uint256",
          "name": "_assetType",
          "type": "uint256"
        },
        {
          "internalType": "address",
          "name": "_asset",
          "type": "address"
        },
        {
          "internalType": "string",
          "name": "_name",
          "type": "string"
        },
        {
          "internalType": "string",
          "name": "_symbol",
          "type": "string"
        },
        {
          "internalType": "address",
          "name": "_accountant",
          "type": "address"
        },
        {
          "internalType": "address",
          "name": "_admin",
          "type": "address"
        }
      ],
      "name": "deployVault",
      "outputs": [
        {
          "internalType": "address",
          "name": "",
          "type": "address"
        }
      ],
      "stateMutability": "nonpayable",
      "type": "function"
    },
    {
      "inputs": [],
      "name": "feeBPS",
      "outputs": [
        {
          "internalType": "uint16",
          "name": "",
          "type": "uint16"
        }
      ],
      "stateMutability": "view",
      "type": "function"
    },
    {
      "inputs": [],
      "name": "feeRecipient",
      "outputs": [
        {
          "internalType": "address",
          "name": "",
          "type": "address"
        }
      ],
      "stateMutability": "view",
      "type": "function"
    },
    {
      "inputs": [
        {
          "internalType": "bytes32",
          "name": "role",
          "type": "bytes32"
        }
      ],
      "name": "getRoleAdmin",
      "outputs": [
        {
          "internalType": "bytes32",
          "name": "",
          "type": "bytes32"
        }
      ],
      "stateMutability": "view",
      "type": "function"
    },
    {
      "inputs": [
        {
          "internalType": "address",
          "name": "_vault",
          "type": "address"
        }
      ],
      "name": "getVaultCreator",
      "outputs": [
        {
          "internalType": "address",
          "name": "",
          "type": "address"
        }
      ],
      "stateMutability": "view",
      "type": "function"
    },
    {
      "inputs": [],
      "name": "getVaults",
      "outputs": [
        {
          "internalType": "address[]",
          "name": "",
          "type": "address[]"
        }
      ],
      "stateMutability": "view",
      "type": "function"
    },
    {
      "inputs": [
        {
          "internalType": "bytes32",
          "name": "role",
          "type": "bytes32"
        },
        {
          "internalType": "address",
          "name": "account",
          "type": "address"
        }
      ],
      "name": "grantRole",
      "outputs": [],
      "stateMutability": "nonpayable",
      "type": "function"
    },
    {
      "inputs": [
        {
          "internalType": "bytes32",
          "name": "role",
          "type": "bytes32"
        },
        {
          "internalType": "address",
          "name": "account",
          "type": "address"
        }
      ],
      "name": "hasRole",
      "outputs": [
        {
          "internalType": "bool",
          "name": "",
          "type": "bool"
        }
      ],
      "stateMutability": "view",
      "type": "function"
    },
    {
      "inputs": [
        {
          "internalType": "address",
          "name": "_vaultPackage",
          "type": "address"
        },
        {
          "internalType": "address",
          "name": "_feeRecipient",
          "type": "address"
        },
        {
          "internalType": "uint16",
          "name": "_feeBPS",
          "type": "uint16"
        }
      ],
      "name": "initialize",
      "outputs": [],
      "stateMutability": "nonpayable",
      "type": "function"
    },
    {
      "inputs": [],
      "name": "initialized",
      "outputs": [
        {
          "internalType": "bool",
          "name": "",
          "type": "bool"
        }
      ],
      "stateMutability": "view",
      "type": "function"
    },
    {
      "inputs": [],
      "name": "protocolFeeConfig",
      "outputs": [
        {
          "internalType": "uint16",
          "name": "",
          "type": "uint16"
        },
        {
          "internalType": "address",
          "name": "",
          "type": "address"
        }
      ],
      "stateMutability": "view",
      "type": "function"
    },
    {
      "inputs": [
        {
          "internalType": "bytes32",
          "name": "role",
          "type": "bytes32"
        },
        {
          "internalType": "address",
          "name": "account",
          "type": "address"
        }
      ],
      "name": "renounceRole",
      "outputs": [],
      "stateMutability": "nonpayable",
      "type": "function"
    },
    {
      "inputs": [
        {
          "internalType": "bytes32",
          "name": "role",
          "type": "bytes32"
        },
        {
          "internalType": "address",
          "name": "account",
          "type": "address"
        }
      ],
      "name": "revokeRole",
      "outputs": [],
      "stateMutability": "nonpayable",
      "type": "function"
    },
    {
      "inputs": [
        {
          "internalType": "bytes4",
          "name": "interfaceId",
          "type": "bytes4"
        }
      ],
      "name": "supportsInterface",
      "outputs": [
        {
          "internalType": "bool",
          "name": "",
          "type": "bool"
        }
      ],
      "stateMutability": "view",
      "type": "function"
    },
    {
      "inputs": [
        {
          "internalType": "address",
          "name": "_feeRecipient",
          "type": "address"
        },
        {
          "internalType": "uint16",
          "name": "_feeBPS",
          "type": "uint16"
        }
      ],
      "name": "updateFeeConfig",
      "outputs": [],
      "stateMutability": "nonpayable",
      "type": "function"
    },
    {
      "inputs": [
        {
          "internalType": "address",
          "name": "_vaultPackage",
          "type": "address"
        }
      ],
      "name": "updateVaultPackage",
      "outputs": [],
      "stateMutability": "nonpayable",
      "type": "function"
    },
    {
      "inputs": [
        {
          "internalType": "address",
          "name": "",
          "type": "address"
        }
      ],
      "name": "vaultCreators",
      "outputs": [
        {
          "internalType": "address",
          "name": "",
          "type": "address"
        }
      ],
      "stateMutability": "view",
      "type": "function"
    },
    {
      "inputs": [],
      "name": "vaultPackage",
      "outputs": [
        {
          "internalType": "address",
          "name": "",
          "type": "address"
        }
      ],
      "stateMutability": "view",
      "type": "function"
    },
    {
      "inputs": [
        {
          "internalType": "uint256",
          "name": "",
          "type": "uint256"
        }
      ],
      "name": "vaults",
      "outputs": [
        {
          "internalType": "address",
          "name": "",
          "type": "address"
        }
      ],
      "stateMutability": "view",
      "type": "function"
    }
  ],
  "transactionHash": "0xb6bc5000d74d1b0cea14549b4f4b6d9064e854af70e4950ad05cc8ff3cbecbd8",
  "args": [],
  "numDeployments": 1,
  "solcInputHash": "f7419bef3f7b79b6be045b705fb06756",
  "bytecode": "0x608060405234801561001057600080fd5b506128dd806100206000396000f3fe60806040523480156200001157600080fd5b50600436106200011e5760003560e01c806301ffc9a7146200012357806307d3277f146200014f578063158ef93e14620001795780631a1c6e5314620001875780631c0bdcfe14620001aa5780631f65940f14620001ef5780632369cfd6146200021e578063248a9ca314620002375780632f2ff15d146200025d57806336568abe146200027457806344d00f82146200028b5780634690484014620002a45780637ebef52914620002be5780638c64ea4a14620002d557806391d1485414620002ec578063a217fddf1462000303578063c5548074146200030c578063cee0c7ca1462000323578063d547741f1462000337578063ddce2acc146200034e578063fd967f471462000365575b600080fd5b6200013a6200013436600462000cf7565b6200036f565b60405190151581526020015b60405180910390f35b6001546040805161ffff83168152620100009092046001600160a01b031660208301520162000146565b6005546200013a9060ff1681565b600154620001969061ffff1681565b60405161ffff909116815260200162000146565b620001d6620001bb36600462000d40565b6004602052600090815260409020546001600160a01b031681565b6040516001600160a01b03909116815260200162000146565b620001d66200020036600462000d40565b6001600160a01b039081166000908152600460205260409020541690565b620002356200022f36600462000d40565b620003a7565b005b6200024e6200024836600462000d5e565b62000445565b60405190815260200162000146565b620002356200026e36600462000d78565b6200045a565b620002356200028536600462000d78565b62000481565b6200029562000507565b60405162000146919062000da7565b600154620001d6906201000090046001600160a01b031681565b62000235620002cf36600462000e09565b6200056b565b620001d6620002e636600462000d5e565b620006ab565b6200013a620002fd36600462000d78565b620006d6565b6200024e600081565b620002356200031d36600462000e53565b620006ff565b600254620001d6906001600160a01b031681565b620002356200034836600462000d78565b620007b7565b620001d66200035f36600462000ecd565b620007d9565b6200019661271081565b60006001600160e01b03198216637965db0b60e01b1480620003a157506301ffc9a760e01b6001600160e01b03198316145b92915050565b6000620003b481620009b3565b6001600160a01b038216620003dc5760405163d92e233d60e01b815260040160405180910390fd5b6002546001600160a01b038084169116036200040b576040516335db9d3d60e01b815260040160405180910390fd5b600280546001600160a01b0319166001600160a01b0384169081179091556040516000805160206200286883398151915290600090a25050565b60009081526020819052604090206001015490565b620004658262000445565b6200047081620009b3565b6200047c8383620009c2565b505050565b6001600160a01b0381163314620004f75760405162461bcd60e51b815260206004820152602f60248201527f416363657373436f6e74726f6c3a2063616e206f6e6c792072656e6f756e636560448201526e103937b632b9903337b91039b2b63360891b60648201526084015b60405180910390fd5b62000503828262000a4a565b5050565b606060038054806020026020016040519081016040528092919081815260200182805480156200056157602002820191906000526020600020905b81546001600160a01b0316815260019091019060200180831162000542575b5050505050905090565b60006200057881620009b3565b60055460ff161515600103620005a05760405162dc149f60e41b815260040160405180910390fd5b6001600160a01b0384161580620005be57506001600160a01b038316155b15620005dd5760405163d92e233d60e01b815260040160405180910390fd5b61271061ffff831611156200060557604051637a50132760e11b815260040160405180910390fd5b600280546001600160a01b0319166001600160a01b03868116918217909255600180546001600160b01b031916620100009387169390930261ffff19169290921761ffff8516179091556040516000805160206200286883398151915290600090a260405161ffff831681526001600160a01b03841690600080516020620028888339815191529060200160405180910390a250506005805460ff191660011790555050565b60038181548110620006bc57600080fd5b6000918252602090912001546001600160a01b0316905081565b6000918252602082815260408084206001600160a01b0393909316845291905290205460ff1690565b60006200070c81620009b3565b6001600160a01b038316620007345760405163d92e233d60e01b815260040160405180910390fd5b61271061ffff831611156200075c57604051637a50132760e11b815260040160405180910390fd5b600180546001600160b01b031916620100006001600160a01b03861690810261ffff19169190911761ffff851690811790925560405191825290600080516020620028888339815191529060200160405180910390a2505050565b620007c28262000445565b620007cd81620009b3565b6200047c838362000a4a565b600080620007e781620009b3565b6002546040805160008082526020820192839052926001600160a01b031691620008119062000ce9565b6200081e9291906200100a565b604051809103906000f0801580156200083b573d6000803e3d6000fd5b5060405162c981f560e11b81529091506001600160a01b0382169063019303ea906200087c908f908f908f908f908f908f908f908f908f9060040162001061565b600060405180830381600087803b1580156200089757600080fd5b505af1158015620008ac573d6000803e3d6000fd5b505050506003819080600181540180825580915050600190039060005260206000200160009091909190916101000a8154816001600160a01b0302191690836001600160a01b031602179055503360046000836001600160a01b03166001600160a01b0316815260200190815260200160002060006101000a8154816001600160a01b0302191690836001600160a01b03160217905550846001600160a01b03168a6001600160a01b0316826001600160a01b03167f86b4fabe6653dc170f81aafb968bb2c0c841411b628f39a0987776d445bc2cd48f8d8d8d8d8c6040516200099c96959493929190620010cc565b60405180910390a49b9a5050505050505050505050565b620009bf813362000ab2565b50565b620009ce8282620006d6565b62000503576000828152602081815260408083206001600160a01b03851684529091529020805460ff1916600117905562000a063390565b6001600160a01b0316816001600160a01b0316837f2f8788117e7eff1d82e926ec794901d17c78024a50270940304540a733656f0d60405160405180910390a45050565b62000a568282620006d6565b1562000503576000828152602081815260408083206001600160a01b0385168085529252808320805460ff1916905551339285917ff6391f5c32d9c69d2a47ea670b442974b53935d1edc7fd64eb21e047a839171b9190a45050565b62000abe8282620006d6565b620005035762000ace8162000b16565b62000adb83602062000b29565b60405160200162000aee9291906200111f565b60408051601f198184030181529082905262461bcd60e51b8252620004ee9160040162001192565b6060620003a16001600160a01b03831660145b6060600062000b3a836002620011bd565b62000b47906002620011d7565b6001600160401b0381111562000b615762000b6162000fa0565b6040519080825280601f01601f19166020018201604052801562000b8c576020820181803683370190505b509050600360fc1b8160008151811062000baa5762000baa620011ed565b60200101906001600160f81b031916908160001a905350600f60fb1b8160018151811062000bdc5762000bdc620011ed565b60200101906001600160f81b031916908160001a905350600062000c02846002620011bd565b62000c0f906001620011d7565b90505b600181111562000c91576f181899199a1a9b1b9c1cb0b131b232b360811b85600f166010811062000c475762000c47620011ed565b1a60f81b82828151811062000c605762000c60620011ed565b60200101906001600160f81b031916908160001a90535060049490941c9362000c898162001203565b905062000c12565b50831562000ce25760405162461bcd60e51b815260206004820181905260248201527f537472696e67733a20686578206c656e67746820696e73756666696369656e746044820152606401620004ee565b9392505050565b61164a806200121e83390190565b60006020828403121562000d0a57600080fd5b81356001600160e01b03198116811462000ce257600080fd5b80356001600160a01b038116811462000d3b57600080fd5b919050565b60006020828403121562000d5357600080fd5b62000ce28262000d23565b60006020828403121562000d7157600080fd5b5035919050565b6000806040838503121562000d8c57600080fd5b8235915062000d9e6020840162000d23565b90509250929050565b6020808252825182820181905260009190848201906040850190845b8181101562000dea5783516001600160a01b03168352928401929184019160010162000dc3565b50909695505050505050565b803561ffff8116811462000d3b57600080fd5b60008060006060848603121562000e1f57600080fd5b62000e2a8462000d23565b925062000e3a6020850162000d23565b915062000e4a6040850162000df6565b90509250925092565b6000806040838503121562000e6757600080fd5b62000e728362000d23565b915062000d9e6020840162000df6565b60008083601f84011262000e9557600080fd5b5081356001600160401b0381111562000ead57600080fd5b60208301915083602082850101111562000ec657600080fd5b9250929050565b600080600080600080600080600060e08a8c03121562000eec57600080fd5b893563ffffffff8116811462000f0157600080fd5b985060208a0135975062000f1860408b0162000d23565b965060608a01356001600160401b038082111562000f3557600080fd5b62000f438d838e0162000e82565b909850965060808c013591508082111562000f5d57600080fd5b5062000f6c8c828d0162000e82565b909550935062000f81905060a08b0162000d23565b915062000f9160c08b0162000d23565b90509295985092959850929598565b634e487b7160e01b600052604160045260246000fd5b60005b8381101562000fd357818101518382015260200162000fb9565b50506000910152565b6000815180845262000ff681602086016020860162000fb6565b601f01601f19169290920160200192915050565b6001600160a01b0383168152604060208201819052600090620010309083018462000fdc565b949350505050565b81835281816020850137506000828201602090810191909152601f909101601f19169091010190565b63ffffffff8a168152886020820152600060018060a01b03808a16604084015260e060608401526200109860e08401898b62001038565b8381036080850152620010ad81888a62001038565b95821660a0850152509290921660c09091015250979650505050505050565b63ffffffff87168152608060208201526000620010ee60808301878962001038565b82810360408401526200110381868862001038565b91505060018060a01b0383166060830152979650505050505050565b76020b1b1b2b9b9a1b7b73a3937b61d1030b1b1b7bab73a1604d1b8152600083516200115381601785016020880162000fb6565b7001034b99036b4b9b9b4b733903937b6329607d1b60179184019182015283516200118681602884016020880162000fb6565b01602801949350505050565b60208152600062000ce2602083018462000fdc565b634e487b7160e01b600052601160045260246000fd5b8082028115828204841417620003a157620003a1620011a7565b80820180821115620003a157620003a1620011a7565b634e487b7160e01b600052603260045260246000fd5b600081620012155762001215620011a7565b50600019019056fe60806040526040516200164a3803806200164a8339810160408190526200002691620003b5565b60018055620000376000336200004d565b6200004582826000620000ee565b5050620004e3565b6000828152602081815260408083206001600160a01b038516845290915290205460ff16620000ea576000828152602081815260408083206001600160a01b03851684529091529020805460ff19166001179055620000a93390565b6001600160a01b0316816001600160a01b0316837f2f8788117e7eff1d82e926ec794901d17c78024a50270940304540a733656f0d60405160405180910390a45b5050565b620000f98362000120565b600082511180620001075750805b156200011b5762000119838362000162565b505b505050565b6200012b8162000191565b6040516001600160a01b038216907fbc7cd75a20ee27fd9adebab32041f755214dbc6bffa90cc0225b39da2e5c2d3b90600090a250565b60606200018a8383604051806060016040528060278152602001620016236027913962000245565b9392505050565b6001600160a01b0381163b620002045760405162461bcd60e51b815260206004820152602d60248201527f455243313936373a206e657720696d706c656d656e746174696f6e206973206e60448201526c1bdd08184818dbdb9d1c9858dd609a1b60648201526084015b60405180910390fd5b7f360894a13ba1a3210667c828492db98dca3e2076cc3735a920a3ca505d382bbc80546001600160a01b0319166001600160a01b0392909216919091179055565b6060600080856001600160a01b03168560405162000264919062000490565b600060405180830381855af49150503d8060008114620002a1576040519150601f19603f3d011682016040523d82523d6000602084013e620002a6565b606091505b509092509050620002ba86838387620002c4565b9695505050505050565b606083156200033857825160000362000330576001600160a01b0385163b620003305760405162461bcd60e51b815260206004820152601d60248201527f416464726573733a2063616c6c20746f206e6f6e2d636f6e74726163740000006044820152606401620001fb565b508162000344565b6200034483836200034c565b949350505050565b8151156200035d5781518083602001fd5b8060405162461bcd60e51b8152600401620001fb9190620004ae565b634e487b7160e01b600052604160045260246000fd5b60005b83811015620003ac57818101518382015260200162000392565b50506000910152565b60008060408385031215620003c957600080fd5b82516001600160a01b0381168114620003e157600080fd5b60208401519092506001600160401b0380821115620003ff57600080fd5b818501915085601f8301126200041457600080fd5b81518181111562000429576200042962000379565b604051601f8201601f19908116603f0116810190838211818310171562000454576200045462000379565b816040528281528860208487010111156200046e57600080fd5b620004818360208301602088016200038f565b80955050505050509250929050565b60008251620004a48184602087016200038f565b9190910192915050565b6020815260008251806020840152620004cf8160408501602087016200038f565b601f01601f19169190910160400192915050565b61113080620004f36000396000f3fe6080604052600436106101ae5760003560e01c806301ffc9a7146101c557806303dcd12c146101fa5780630835a3fc1461023c5780630952864e14610252578063158ef93e1461026857806316d3bfbb14610289578063248a9ca3146102a15780632d632692146102c15780632f2ff15d146102d757806336568abe146102f757806336fba0841461031757806339ebf823146103305780633f7b5e40146103925780633fe3347a146103a75780634d4bb197146103bd5780634fb3ccc5146103f15780635141eebb146104295780637ecebe001461043f5780638afca8f01461046c578063919860031461048257806391d14854146104a25780639aa7df94146104c25780639e34e348146104d85780639fc2c476146104f8578063a217fddf1461052c578063ab5b4d4914610541578063bbe4eb4914610575578063c0993eea14610596578063c45a0155146105ca578063c6d93f4a146105ea578063d547741f1461060a578063ecf708581461062a578063f828f50b14610640578063fc0e74d114610656578063fc7b9c1814610677578063fd967f471461068d578063ff1e7f08146106a3576101bd565b366101bd576101bb6106c3565b005b6101bb6106c3565b3480156101d157600080fd5b506101e56101e0366004610e26565b6106d5565b60405190151581526020015b60405180910390f35b34801561020657600080fd5b5061022e7f633076a97f32ae349b28772e7b1483f67a926f150cbc501d02bdbd77389325ab81565b6040519081526020016101f1565b34801561024857600080fd5b5061022e60055481565b34801561025e57600080fd5b5061022e60075481565b34801561027457600080fd5b506010546101e590600160b01b900460ff1681565b34801561029557600080fd5b5061022e6301e1855881565b3480156102ad57600080fd5b5061022e6102bc366004610e50565b61070c565b3480156102cd57600080fd5b5061022e60085481565b3480156102e357600080fd5b506101bb6102f2366004610e85565b610721565b34801561030357600080fd5b506101bb610312366004610e85565b610742565b34801561032357600080fd5b5061022e64e8d4a5100081565b34801561033c57600080fd5b5061037261034b366004610eb1565b60146020526000908152604090208054600182015460028301546003909301549192909184565b6040805194855260208501939093529183015260608201526080016101f1565b34801561039e57600080fd5b5061022e600a81565b3480156103b357600080fd5b5061022e600b5481565b3480156103c957600080fd5b5061022e7f6e71edae12b1b97f4d1f60370fef10105fa2faae0126114a169c64845d6126c981565b3480156103fd57600080fd5b50600c54610411906001600160a01b031681565b6040516001600160a01b0390911681526020016101f1565b34801561043557600080fd5b5061022e60095481565b34801561044b57600080fd5b5061022e61045a366004610eb1565b60176020526000908152604090205481565b34801561047857600080fd5b5061022e600a5481565b34801561048e57600080fd5b50600e54610411906001600160a01b031681565b3480156104ae57600080fd5b506101e56104bd366004610e85565b6107c5565b3480156104ce57600080fd5b5061022e60045481565b3480156104e457600080fd5b50600d54610411906001600160a01b031681565b34801561050457600080fd5b5061022e7f1893e1a169e79f2fe8aa327b1bceb2fede7a1b76a54824f95ea0e737720954ae81565b34801561053857600080fd5b5061022e600081565b34801561054d57600080fd5b5061022e7f900d80def0427daac599092fcb16b21808ec68dd9a2e1eae89d1e8db2135737581565b34801561058157600080fd5b506010546101e590600160a01b900460ff1681565b3480156105a257600080fd5b5061022e7f8b73c3c69bb8fe3d512ecc4cf759cc79239f7b179b0ffacaa9a75d522b39400f81565b3480156105d657600080fd5b50600f54610411906001600160a01b031681565b3480156105f657600080fd5b506101bb610605366004610ecc565b6107ee565b34801561061657600080fd5b506101bb610625366004610e85565b61083f565b34801561063657600080fd5b5061022e60065481565b34801561064c57600080fd5b5061022e60025481565b34801561066257600080fd5b506010546101e590600160a81b900460ff1681565b34801561068357600080fd5b5061022e60035481565b34801561069957600080fd5b5061022e61271081565b3480156106af57600080fd5b506104116106be366004610e50565b61085b565b6106d36106ce610885565b6108ab565b565b60006001600160e01b03198216637965db0b60e01b148061070657506301ffc9a760e01b6001600160e01b03198316145b92915050565b60009081526020819052604090206001015490565b61072a8261070c565b610733816108cf565b61073d83836108dc565b505050565b6001600160a01b03811633146107b75760405162461bcd60e51b815260206004820152602f60248201527f416363657373436f6e74726f6c3a2063616e206f6e6c792072656e6f756e636560448201526e103937b632b9903337b91039b2b63360891b60648201526084015b60405180910390fd5b6107c18282610960565b5050565b6000918252602082815260408084206001600160a01b0393909316845291905290205460ff1690565b60006107f9816108cf565b6108398484848080601f016020809104026020016040519081016040528093929190818152602001838380828437600092018290525092506109c5915050565b50505050565b6108488261070c565b610851816108cf565b61073d8383610960565b6013818154811061086b57600080fd5b6000918252602090912001546001600160a01b0316905081565b60006108a66000805160206110b4833981519152546001600160a01b031690565b905090565b3660008037600080366000845af43d6000803e8080156108ca573d6000f35b3d6000fd5b6108d981336109ea565b50565b6108e682826107c5565b6107c1576000828152602081815260408083206001600160a01b03851684529091529020805460ff1916600117905561091c3390565b6001600160a01b0316816001600160a01b0316837f2f8788117e7eff1d82e926ec794901d17c78024a50270940304540a733656f0d60405160405180910390a45050565b61096a82826107c5565b156107c1576000828152602081815260408083206001600160a01b0385168085529252808320805460ff1916905551339285917ff6391f5c32d9c69d2a47ea670b442974b53935d1edc7fd64eb21e047a839171b9190a45050565b6109ce83610a43565b6000825111806109db5750805b1561073d576108398383610a83565b6109f482826107c5565b6107c157610a0181610aaf565b610a0c836020610ac1565b604051602001610a1d929190610f72565b60408051601f198184030181529082905262461bcd60e51b82526107ae91600401610fe1565b610a4c81610c5c565b6040516001600160a01b038216907fbc7cd75a20ee27fd9adebab32041f755214dbc6bffa90cc0225b39da2e5c2d3b90600090a250565b6060610aa883836040518060600160405280602781526020016110d460279139610cf6565b9392505050565b60606107066001600160a01b03831660145b60606000610ad083600261102a565b610adb906002611041565b6001600160401b03811115610af257610af2611054565b6040519080825280601f01601f191660200182016040528015610b1c576020820181803683370190505b509050600360fc1b81600081518110610b3757610b3761106a565b60200101906001600160f81b031916908160001a905350600f60fb1b81600181518110610b6657610b6661106a565b60200101906001600160f81b031916908160001a9053506000610b8a84600261102a565b610b95906001611041565b90505b6001811115610c0d576f181899199a1a9b1b9c1cb0b131b232b360811b85600f1660108110610bc957610bc961106a565b1a60f81b828281518110610bdf57610bdf61106a565b60200101906001600160f81b031916908160001a90535060049490941c93610c0681611080565b9050610b98565b508315610aa85760405162461bcd60e51b815260206004820181905260248201527f537472696e67733a20686578206c656e67746820696e73756666696369656e7460448201526064016107ae565b610c6581610d6e565b610cc75760405162461bcd60e51b815260206004820152602d60248201527f455243313936373a206e657720696d706c656d656e746174696f6e206973206e60448201526c1bdd08184818dbdb9d1c9858dd609a1b60648201526084016107ae565b6000805160206110b483398151915280546001600160a01b0319166001600160a01b0392909216919091179055565b6060600080856001600160a01b031685604051610d139190611097565b600060405180830381855af49150503d8060008114610d4e576040519150601f19603f3d011682016040523d82523d6000602084013e610d53565b606091505b5091509150610d6486838387610d7d565b9695505050505050565b6001600160a01b03163b151590565b60608315610dea578251600003610de357610d9785610d6e565b610de35760405162461bcd60e51b815260206004820152601d60248201527f416464726573733a2063616c6c20746f206e6f6e2d636f6e747261637400000060448201526064016107ae565b5081610df4565b610df48383610dfc565b949350505050565b815115610e0c5781518083602001fd5b8060405162461bcd60e51b81526004016107ae9190610fe1565b600060208284031215610e3857600080fd5b81356001600160e01b031981168114610aa857600080fd5b600060208284031215610e6257600080fd5b5035919050565b80356001600160a01b0381168114610e8057600080fd5b919050565b60008060408385031215610e9857600080fd5b82359150610ea860208401610e69565b90509250929050565b600060208284031215610ec357600080fd5b610aa882610e69565b600080600060408486031215610ee157600080fd5b610eea84610e69565b925060208401356001600160401b0380821115610f0657600080fd5b818601915086601f830112610f1a57600080fd5b813581811115610f2957600080fd5b876020828501011115610f3b57600080fd5b6020830194508093505050509250925092565b60005b83811015610f69578181015183820152602001610f51565b50506000910152565b76020b1b1b2b9b9a1b7b73a3937b61d1030b1b1b7bab73a1604d1b815260008351610fa4816017850160208801610f4e565b7001034b99036b4b9b9b4b733903937b6329607d1b6017918401918201528351610fd5816028840160208801610f4e565b01602801949350505050565b6020815260008251806020840152611000816040850160208701610f4e565b601f01601f19169190910160400192915050565b634e487b7160e01b600052601160045260246000fd5b808202811582820484141761070657610706611014565b8082018082111561070657610706611014565b634e487b7160e01b600052604160045260246000fd5b634e487b7160e01b600052603260045260246000fd5b60008161108f5761108f611014565b506000190190565b600082516110a9818460208701610f4e565b919091019291505056fe360894a13ba1a3210667c828492db98dca3e2076cc3735a920a3ca505d382bbc416464726573733a206c6f772d6c6576656c2064656c65676174652063616c6c206661696c6564a26469706673582212209d22eb3879844024ac3a2f642aef0822c433b95452fabee0765769624e203f3e64736f6c63430008130033416464726573733a206c6f772d6c6576656c2064656c65676174652063616c6c206661696c65649ee4359a3a0b64f24b47429e9cf46a0dd5a98d2d9170e45b50859df9fca9913d077c6dc895847ccdbc655db399eacb5db402ee3572d3ce713a8b914861e67936a26469706673582212201003dfe7fc2b7f6e0ebe9afc430f398dc2d98c25f95a79cce45b7045480bf85d64736f6c63430008130033",
  "devdoc": {
    "events": {
      "RoleAdminChanged(bytes32,bytes32,bytes32)": {
        "details": "Emitted when `newAdminRole` is set as ``role``'s admin role, replacing `previousAdminRole` `DEFAULT_ADMIN_ROLE` is the starting admin for all roles, despite {RoleAdminChanged} not being emitted signaling this. _Available since v3.1._"
      },
      "RoleGranted(bytes32,address,address)": {
        "details": "Emitted when `account` is granted `role`. `sender` is the account that originated the contract call, an admin role bearer except when using {AccessControl-_setupRole}."
      },
      "RoleRevoked(bytes32,address,address)": {
        "details": "Emitted when `account` is revoked `role`. `sender` is the account that originated the contract call:   - if using `revokeRole`, it is the admin role bearer   - if using `renounceRole`, it is the role bearer (i.e. `account`)"
      }
    },
    "kind": "dev",
    "methods": {
      "getRoleAdmin(bytes32)": {
        "details": "Returns the admin role that controls `role`. See {grantRole} and {revokeRole}. To change a role's admin, use {_setRoleAdmin}."
      },
      "grantRole(bytes32,address)": {
        "details": "Grants `role` to `account`. If `account` had not been already granted `role`, emits a {RoleGranted} event. Requirements: - the caller must have ``role``'s admin role. May emit a {RoleGranted} event."
      },
      "hasRole(bytes32,address)": {
        "details": "Returns `true` if `account` has been granted `role`."
      },
      "renounceRole(bytes32,address)": {
        "details": "Revokes `role` from the calling account. Roles are often managed via {grantRole} and {revokeRole}: this function's purpose is to provide a mechanism for accounts to lose their privileges if they are compromised (such as when a trusted device is misplaced). If the calling account had been revoked `role`, emits a {RoleRevoked} event. Requirements: - the caller must be `account`. May emit a {RoleRevoked} event."
      },
      "revokeRole(bytes32,address)": {
        "details": "Revokes `role` from `account`. If `account` had been granted `role`, emits a {RoleRevoked} event. Requirements: - the caller must have ``role``'s admin role. May emit a {RoleRevoked} event."
      },
      "supportsInterface(bytes4)": {
        "details": "See {IERC165-supportsInterface}."
      }
    },
    "version": 1
  },
  "userdoc": {
    "kind": "user",
    "methods": {
      "initialized()": {
        "notice": "Initialized state of the factory."
      }
    },
    "version": 1
  },
  "storageLayout": {
    "storage": [
      {
        "astId": 24,
        "contract": "contracts/factory/packages/FactoryPackage.sol:FactoryPackage",
        "label": "_roles",
        "offset": 0,
        "slot": "0",
        "type": "t_mapping(t_bytes32,t_struct(RoleData)19_storage)"
      },
      {
        "astId": 5367,
        "contract": "contracts/factory/packages/FactoryPackage.sol:FactoryPackage",
        "label": "feeBPS",
        "offset": 0,
        "slot": "1",
        "type": "t_uint16"
      },
      {
        "astId": 5369,
        "contract": "contracts/factory/packages/FactoryPackage.sol:FactoryPackage",
        "label": "feeRecipient",
        "offset": 2,
        "slot": "1",
        "type": "t_address"
      },
      {
        "astId": 5371,
        "contract": "contracts/factory/packages/FactoryPackage.sol:FactoryPackage",
        "label": "vaultPackage",
        "offset": 0,
        "slot": "2",
        "type": "t_address"
      },
      {
        "astId": 5374,
        "contract": "contracts/factory/packages/FactoryPackage.sol:FactoryPackage",
        "label": "vaults",
        "offset": 0,
        "slot": "3",
        "type": "t_array(t_address)dyn_storage"
      },
      {
        "astId": 5378,
        "contract": "contracts/factory/packages/FactoryPackage.sol:FactoryPackage",
        "label": "vaultCreators",
        "offset": 0,
        "slot": "4",
        "type": "t_mapping(t_address,t_address)"
      },
      {
        "astId": 5381,
        "contract": "contracts/factory/packages/FactoryPackage.sol:FactoryPackage",
        "label": "initialized",
        "offset": 0,
        "slot": "5",
        "type": "t_bool"
      }
    ],
    "types": {
      "t_address": {
        "encoding": "inplace",
        "label": "address",
        "numberOfBytes": "20"
      },
      "t_array(t_address)dyn_storage": {
        "base": "t_address",
        "encoding": "dynamic_array",
        "label": "address[]",
        "numberOfBytes": "32"
      },
      "t_bool": {
        "encoding": "inplace",
        "label": "bool",
        "numberOfBytes": "1"
      },
      "t_bytes32": {
        "encoding": "inplace",
        "label": "bytes32",
        "numberOfBytes": "32"
      },
      "t_mapping(t_address,t_address)": {
        "encoding": "mapping",
        "key": "t_address",
        "label": "mapping(address => address)",
        "numberOfBytes": "32",
        "value": "t_address"
      },
      "t_mapping(t_address,t_bool)": {
        "encoding": "mapping",
        "key": "t_address",
        "label": "mapping(address => bool)",
        "numberOfBytes": "32",
        "value": "t_bool"
      },
      "t_mapping(t_bytes32,t_struct(RoleData)19_storage)": {
        "encoding": "mapping",
        "key": "t_bytes32",
        "label": "mapping(bytes32 => struct AccessControl.RoleData)",
        "numberOfBytes": "32",
        "value": "t_struct(RoleData)19_storage"
      },
      "t_struct(RoleData)19_storage": {
        "encoding": "inplace",
        "label": "struct AccessControl.RoleData",
        "members": [
          {
            "astId": 16,
            "contract": "contracts/factory/packages/FactoryPackage.sol:FactoryPackage",
            "label": "members",
            "offset": 0,
            "slot": "0",
            "type": "t_mapping(t_address,t_bool)"
          },
          {
            "astId": 18,
            "contract": "contracts/factory/packages/FactoryPackage.sol:FactoryPackage",
            "label": "adminRole",
            "offset": 0,
            "slot": "1",
            "type": "t_bytes32"
          }
        ],
        "numberOfBytes": "64"
      },
      "t_uint16": {
        "encoding": "inplace",
        "label": "uint16",
        "numberOfBytes": "2"
      }
    }
  }
}