{
  "_format": "hh-sol-artifact-1",
  "contractName": "FathomVault",
  "sourceName": "contracts/FathomVault.sol",
  "abi": [
    {
      "inputs": [
        {
          "internalType": "address",
          "name": "implementation",
          "type": "address"
        },
        {
          "internalType": "bytes",
          "name": "_data",
          "type": "bytes"
        }
      ],
      "stateMutability": "payable",
      "type": "constructor"
    },
    {
      "anonymous": false,
      "inputs": [
        {
          "indexed": false,
          "internalType": "address",
          "name": "previousAdmin",
          "type": "address"
        },
        {
          "indexed": false,
          "internalType": "address",
          "name": "newAdmin",
          "type": "address"
        }
      ],
      "name": "AdminChanged",
      "type": "event"
    },
    {
      "anonymous": false,
      "inputs": [
        {
          "indexed": true,
          "internalType": "address",
          "name": "beacon",
          "type": "address"
        }
      ],
      "name": "BeaconUpgraded",
      "type": "event"
    },
    {
      "anonymous": false,
      "inputs": [
        {
          "indexed": true,
          "internalType": "bytes32",
          "name": "role",
          "type": "bytes32"
        },
        {
          "indexed": true,
          "internalType": "bytes32",
          "name": "previousAdminRole",
          "type": "bytes32"
        },
        {
          "indexed": true,
          "internalType": "bytes32",
          "name": "newAdminRole",
          "type": "bytes32"
        }
      ],
      "name": "RoleAdminChanged",
      "type": "event"
    },
    {
      "anonymous": false,
      "inputs": [
        {
          "indexed": true,
          "internalType": "bytes32",
          "name": "role",
          "type": "bytes32"
        },
        {
          "indexed": true,
          "internalType": "address",
          "name": "account",
          "type": "address"
        },
        {
          "indexed": true,
          "internalType": "address",
          "name": "sender",
          "type": "address"
        }
      ],
      "name": "RoleGranted",
      "type": "event"
    },
    {
      "anonymous": false,
      "inputs": [
        {
          "indexed": true,
          "internalType": "bytes32",
          "name": "role",
          "type": "bytes32"
        },
        {
          "indexed": true,
          "internalType": "address",
          "name": "account",
          "type": "address"
        },
        {
          "indexed": true,
          "internalType": "address",
          "name": "sender",
          "type": "address"
        }
      ],
      "name": "RoleRevoked",
      "type": "event"
    },
    {
      "anonymous": false,
      "inputs": [
        {
          "indexed": true,
          "internalType": "address",
          "name": "implementation",
          "type": "address"
        }
      ],
      "name": "Upgraded",
      "type": "event"
    },
    {
      "stateMutability": "payable",
      "type": "fallback"
    },
    {
      "inputs": [],
      "name": "DEBT_PURCHASER",
      "outputs": [
        {
          "internalType": "bytes32",
          "name": "",
          "type": "bytes32"
        }
      ],
      "stateMutability": "view",
      "type": "function"
    },
    {
      "inputs": [],
      "name": "DEFAULT_ADMIN_ROLE",
      "outputs": [
        {
          "internalType": "bytes32",
          "name": "",
          "type": "bytes32"
        }
      ],
      "stateMutability": "view",
      "type": "function"
    },
    {
      "inputs": [],
      "name": "DOMAIN_TYPE_HASH",
      "outputs": [
        {
          "internalType": "bytes32",
          "name": "",
          "type": "bytes32"
        }
      ],
      "stateMutability": "view",
      "type": "function"
    },
    {
      "inputs": [],
      "name": "MAX_BPS",
      "outputs": [
        {
          "internalType": "uint256",
          "name": "",
          "type": "uint256"
        }
      ],
      "stateMutability": "view",
      "type": "function"
    },
    {
      "inputs": [],
      "name": "MAX_BPS_EXTENDED",
      "outputs": [
        {
          "internalType": "uint256",
          "name": "",
          "type": "uint256"
        }
      ],
      "stateMutability": "view",
      "type": "function"
    },
    {
      "inputs": [],
      "name": "MAX_QUEUE",
      "outputs": [
        {
          "internalType": "uint256",
          "name": "",
          "type": "uint256"
        }
      ],
      "stateMutability": "view",
      "type": "function"
    },
    {
      "inputs": [],
      "name": "ONE_YEAR",
      "outputs": [
        {
          "internalType": "uint256",
          "name": "",
          "type": "uint256"
        }
      ],
      "stateMutability": "view",
      "type": "function"
    },
    {
      "inputs": [],
      "name": "PERMIT_TYPE_HASH",
      "outputs": [
        {
          "internalType": "bytes32",
          "name": "",
          "type": "bytes32"
        }
      ],
      "stateMutability": "view",
      "type": "function"
    },
    {
      "inputs": [],
      "name": "REPORTING_MANAGER",
      "outputs": [
        {
          "internalType": "bytes32",
          "name": "",
          "type": "bytes32"
        }
      ],
      "stateMutability": "view",
      "type": "function"
    },
    {
      "inputs": [],
      "name": "STRATEGY_MANAGER",
      "outputs": [
        {
          "internalType": "bytes32",
          "name": "",
          "type": "bytes32"
        }
      ],
      "stateMutability": "view",
      "type": "function"
    },
    {
      "inputs": [],
      "name": "accountant",
      "outputs": [
        {
          "internalType": "address",
          "name": "",
          "type": "address"
        }
      ],
      "stateMutability": "view",
      "type": "function"
    },
    {
      "inputs": [
        {
          "internalType": "uint256",
          "name": "",
          "type": "uint256"
        }
      ],
      "name": "defaultQueue",
      "outputs": [
        {
          "internalType": "address",
          "name": "",
          "type": "address"
        }
      ],
      "stateMutability": "view",
      "type": "function"
    },
    {
      "inputs": [],
      "name": "depositLimit",
      "outputs": [
        {
          "internalType": "uint256",
          "name": "",
          "type": "uint256"
        }
      ],
      "stateMutability": "view",
      "type": "function"
    },
    {
      "inputs": [],
      "name": "depositLimitModule",
      "outputs": [
        {
          "internalType": "address",
          "name": "",
          "type": "address"
        }
      ],
      "stateMutability": "view",
      "type": "function"
    },
    {
      "inputs": [],
      "name": "factory",
      "outputs": [
        {
          "internalType": "address",
          "name": "",
          "type": "address"
        }
      ],
      "stateMutability": "view",
      "type": "function"
    },
    {
      "inputs": [],
      "name": "fullProfitUnlockDate",
      "outputs": [
        {
          "internalType": "uint256",
          "name": "",
          "type": "uint256"
        }
      ],
      "stateMutability": "view",
      "type": "function"
    },
    {
      "inputs": [
        {
          "internalType": "bytes32",
          "name": "role",
          "type": "bytes32"
        }
      ],
      "name": "getRoleAdmin",
      "outputs": [
        {
          "internalType": "bytes32",
          "name": "",
          "type": "bytes32"
        }
      ],
      "stateMutability": "view",
      "type": "function"
    },
    {
      "inputs": [
        {
          "internalType": "bytes32",
          "name": "role",
          "type": "bytes32"
        },
        {
          "internalType": "address",
          "name": "account",
          "type": "address"
        }
      ],
      "name": "grantRole",
      "outputs": [],
      "stateMutability": "nonpayable",
      "type": "function"
    },
    {
      "inputs": [
        {
          "internalType": "bytes32",
          "name": "role",
          "type": "bytes32"
        },
        {
          "internalType": "address",
          "name": "account",
          "type": "address"
        }
      ],
      "name": "hasRole",
      "outputs": [
        {
          "internalType": "bool",
          "name": "",
          "type": "bool"
        }
      ],
      "stateMutability": "view",
      "type": "function"
    },
    {
      "inputs": [],
      "name": "lastProfitUpdate",
      "outputs": [
        {
          "internalType": "uint256",
          "name": "",
          "type": "uint256"
        }
      ],
      "stateMutability": "view",
      "type": "function"
    },
    {
      "inputs": [],
      "name": "minimumTotalIdle",
      "outputs": [
        {
          "internalType": "uint256",
          "name": "",
          "type": "uint256"
        }
      ],
      "stateMutability": "view",
      "type": "function"
    },
    {
      "inputs": [
        {
          "internalType": "address",
          "name": "",
          "type": "address"
        }
      ],
      "name": "nonces",
      "outputs": [
        {
          "internalType": "uint256",
          "name": "",
          "type": "uint256"
        }
      ],
      "stateMutability": "view",
      "type": "function"
    },
    {
      "inputs": [],
      "name": "profitMaxUnlockTime",
      "outputs": [
        {
          "internalType": "uint256",
          "name": "",
          "type": "uint256"
        }
      ],
      "stateMutability": "view",
      "type": "function"
    },
    {
      "inputs": [],
      "name": "profitUnlockingRate",
      "outputs": [
        {
          "internalType": "uint256",
          "name": "",
          "type": "uint256"
        }
      ],
      "stateMutability": "view",
      "type": "function"
    },
    {
      "inputs": [
        {
          "internalType": "bytes32",
          "name": "role",
          "type": "bytes32"
        },
        {
          "internalType": "address",
          "name": "account",
          "type": "address"
        }
      ],
      "name": "renounceRole",
      "outputs": [],
      "stateMutability": "nonpayable",
      "type": "function"
    },
    {
      "inputs": [
        {
          "internalType": "bytes32",
          "name": "role",
          "type": "bytes32"
        },
        {
          "internalType": "address",
          "name": "account",
          "type": "address"
        }
      ],
      "name": "revokeRole",
      "outputs": [],
      "stateMutability": "nonpayable",
      "type": "function"
    },
    {
      "inputs": [
        {
          "internalType": "address",
          "name": "implementation",
          "type": "address"
        },
        {
          "internalType": "bytes",
          "name": "_data",
          "type": "bytes"
        }
      ],
      "name": "setImplementation",
      "outputs": [],
      "stateMutability": "nonpayable",
      "type": "function"
    },
    {
      "inputs": [],
      "name": "shutdown",
      "outputs": [
        {
          "internalType": "bool",
          "name": "",
          "type": "bool"
        }
      ],
      "stateMutability": "view",
      "type": "function"
    },
    {
      "inputs": [
        {
          "internalType": "address",
          "name": "",
          "type": "address"
        }
      ],
      "name": "strategies",
      "outputs": [
        {
          "internalType": "uint256",
          "name": "activation",
          "type": "uint256"
        },
        {
          "internalType": "uint256",
          "name": "lastReport",
          "type": "uint256"
        },
        {
          "internalType": "uint256",
          "name": "currentDebt",
          "type": "uint256"
        },
        {
          "internalType": "uint256",
          "name": "maxDebt",
          "type": "uint256"
        }
      ],
      "stateMutability": "view",
      "type": "function"
    },
    {
      "inputs": [
        {
          "internalType": "bytes4",
          "name": "interfaceId",
          "type": "bytes4"
        }
      ],
      "name": "supportsInterface",
      "outputs": [
        {
          "internalType": "bool",
          "name": "",
          "type": "bool"
        }
      ],
      "stateMutability": "view",
      "type": "function"
    },
    {
      "inputs": [],
      "name": "totalDebt",
      "outputs": [
        {
          "internalType": "uint256",
          "name": "",
          "type": "uint256"
        }
      ],
      "stateMutability": "view",
      "type": "function"
    },
    {
      "inputs": [],
      "name": "totalIdle",
      "outputs": [
        {
          "internalType": "uint256",
          "name": "",
          "type": "uint256"
        }
      ],
      "stateMutability": "view",
      "type": "function"
    },
    {
      "inputs": [],
      "name": "totalSupplyAmount",
      "outputs": [
        {
          "internalType": "uint256",
          "name": "",
          "type": "uint256"
        }
      ],
      "stateMutability": "view",
      "type": "function"
    },
    {
      "inputs": [],
      "name": "useDefaultQueue",
      "outputs": [
        {
          "internalType": "bool",
          "name": "",
          "type": "bool"
        }
      ],
      "stateMutability": "view",
      "type": "function"
    },
    {
      "inputs": [],
      "name": "withdrawLimitModule",
      "outputs": [
        {
          "internalType": "address",
          "name": "",
          "type": "address"
        }
      ],
      "stateMutability": "view",
      "type": "function"
    },
    {
      "stateMutability": "payable",
      "type": "receive"
    }
  ],
  "bytecode": "0x6080604052604051620015fd380380620015fd8339810160408190526200002691620003b5565b60018055620000376000336200004d565b6200004582826000620000ee565b5050620004e3565b6000828152602081815260408083206001600160a01b038516845290915290205460ff16620000ea576000828152602081815260408083206001600160a01b03851684529091529020805460ff19166001179055620000a93390565b6001600160a01b0316816001600160a01b0316837f2f8788117e7eff1d82e926ec794901d17c78024a50270940304540a733656f0d60405160405180910390a45b5050565b620000f98362000120565b600082511180620001075750805b156200011b5762000119838362000162565b505b505050565b6200012b8162000191565b6040516001600160a01b038216907fbc7cd75a20ee27fd9adebab32041f755214dbc6bffa90cc0225b39da2e5c2d3b90600090a250565b60606200018a8383604051806060016040528060278152602001620015d66027913962000245565b9392505050565b6001600160a01b0381163b620002045760405162461bcd60e51b815260206004820152602d60248201527f455243313936373a206e657720696d706c656d656e746174696f6e206973206e60448201526c1bdd08184818dbdb9d1c9858dd609a1b60648201526084015b60405180910390fd5b7f360894a13ba1a3210667c828492db98dca3e2076cc3735a920a3ca505d382bbc80546001600160a01b0319166001600160a01b0392909216919091179055565b6060600080856001600160a01b03168560405162000264919062000490565b600060405180830381855af49150503d8060008114620002a1576040519150601f19603f3d011682016040523d82523d6000602084013e620002a6565b606091505b509092509050620002ba86838387620002c4565b9695505050505050565b606083156200033857825160000362000330576001600160a01b0385163b620003305760405162461bcd60e51b815260206004820152601d60248201527f416464726573733a2063616c6c20746f206e6f6e2d636f6e74726163740000006044820152606401620001fb565b508162000344565b6200034483836200034c565b949350505050565b8151156200035d5781518083602001fd5b8060405162461bcd60e51b8152600401620001fb9190620004ae565b634e487b7160e01b600052604160045260246000fd5b60005b83811015620003ac57818101518382015260200162000392565b50506000910152565b60008060408385031215620003c957600080fd5b82516001600160a01b0381168114620003e157600080fd5b60208401519092506001600160401b0380821115620003ff57600080fd5b818501915085601f8301126200041457600080fd5b81518181111562000429576200042962000379565b604051601f8201601f19908116603f0116810190838211818310171562000454576200045462000379565b816040528281528860208487010111156200046e57600080fd5b620004818360208301602088016200038f565b80955050505050509250929050565b60008251620004a48184602087016200038f565b9190910192915050565b6020815260008251806020840152620004cf8160408501602087016200038f565b601f01601f19169190910160400192915050565b6110e380620004f36000396000f3fe6080604052600436106101985760003560e01c806301ffc9a7146101af57806303dcd12c146101e45780630835a3fc146102265780630952864e1461023c57806316d3bfbb14610252578063248a9ca31461026a5780632d6326921461028a5780632f2ff15d146102a057806336568abe146102c057806336fba084146102e057806339ebf823146102f95780633f7b5e401461035b5780634d4bb197146103705780634fb3ccc5146103a45780635141eebb146103dc5780637ecebe00146103f25780638afca8f01461041f578063919860031461043557806391d14854146104555780639aa7df94146104755780639e34e3481461048b5780639fc2c476146104ab578063a217fddf146104df578063ab5b4d49146104f4578063bbe4eb4914610528578063c0993eea14610549578063c45a01551461057d578063c6d93f4a1461059d578063d547741f146105bd578063ecf70858146105dd578063f828f50b146105f3578063fc0e74d114610609578063fc7b9c181461062a578063fd967f4714610640578063ff1e7f0814610656576101a7565b366101a7576101a5610676565b005b6101a5610676565b3480156101bb57600080fd5b506101cf6101ca366004610dd9565b610688565b60405190151581526020015b60405180910390f35b3480156101f057600080fd5b506102187f633076a97f32ae349b28772e7b1483f67a926f150cbc501d02bdbd77389325ab81565b6040519081526020016101db565b34801561023257600080fd5b5061021860055481565b34801561024857600080fd5b5061021860075481565b34801561025e57600080fd5b506102186301e1855881565b34801561027657600080fd5b50610218610285366004610e03565b6106bf565b34801561029657600080fd5b5061021860085481565b3480156102ac57600080fd5b506101a56102bb366004610e38565b6106d4565b3480156102cc57600080fd5b506101a56102db366004610e38565b6106f5565b3480156102ec57600080fd5b5061021864e8d4a5100081565b34801561030557600080fd5b5061033b610314366004610e64565b60136020526000908152604090208054600182015460028301546003909301549192909184565b6040805194855260208501939093529183015260608201526080016101db565b34801561036757600080fd5b50610218600a81565b34801561037c57600080fd5b506102187f6e71edae12b1b97f4d1f60370fef10105fa2faae0126114a169c64845d6126c981565b3480156103b057600080fd5b50600b546103c4906001600160a01b031681565b6040516001600160a01b0390911681526020016101db565b3480156103e857600080fd5b5061021860095481565b3480156103fe57600080fd5b5061021861040d366004610e64565b60166020526000908152604090205481565b34801561042b57600080fd5b50610218600a5481565b34801561044157600080fd5b50600d546103c4906001600160a01b031681565b34801561046157600080fd5b506101cf610470366004610e38565b610778565b34801561048157600080fd5b5061021860045481565b34801561049757600080fd5b50600c546103c4906001600160a01b031681565b3480156104b757600080fd5b506102187f1893e1a169e79f2fe8aa327b1bceb2fede7a1b76a54824f95ea0e737720954ae81565b3480156104eb57600080fd5b50610218600081565b34801561050057600080fd5b506102187f900d80def0427daac599092fcb16b21808ec68dd9a2e1eae89d1e8db2135737581565b34801561053457600080fd5b50600f546101cf90600160a01b900460ff1681565b34801561055557600080fd5b506102187f8b73c3c69bb8fe3d512ecc4cf759cc79239f7b179b0ffacaa9a75d522b39400f81565b34801561058957600080fd5b50600e546103c4906001600160a01b031681565b3480156105a957600080fd5b506101a56105b8366004610e7f565b6107a1565b3480156105c957600080fd5b506101a56105d8366004610e38565b6107f2565b3480156105e957600080fd5b5061021860065481565b3480156105ff57600080fd5b5061021860025481565b34801561061557600080fd5b50600f546101cf90600160a81b900460ff1681565b34801561063657600080fd5b5061021860035481565b34801561064c57600080fd5b5061021861271081565b34801561066257600080fd5b506103c4610671366004610e03565b61080e565b610686610681610838565b61085e565b565b60006001600160e01b03198216637965db0b60e01b14806106b957506301ffc9a760e01b6001600160e01b03198316145b92915050565b60009081526020819052604090206001015490565b6106dd826106bf565b6106e681610882565b6106f0838361088f565b505050565b6001600160a01b038116331461076a5760405162461bcd60e51b815260206004820152602f60248201527f416363657373436f6e74726f6c3a2063616e206f6e6c792072656e6f756e636560448201526e103937b632b9903337b91039b2b63360891b60648201526084015b60405180910390fd5b6107748282610913565b5050565b6000918252602082815260408084206001600160a01b0393909316845291905290205460ff1690565b60006107ac81610882565b6107ec8484848080601f01602080910402602001604051908101604052809392919081815260200183838082843760009201829052509250610978915050565b50505050565b6107fb826106bf565b61080481610882565b6106f08383610913565b6012818154811061081e57600080fd5b6000918252602090912001546001600160a01b0316905081565b6000610859600080516020611067833981519152546001600160a01b031690565b905090565b3660008037600080366000845af43d6000803e80801561087d573d6000f35b3d6000fd5b61088c813361099d565b50565b6108998282610778565b610774576000828152602081815260408083206001600160a01b03851684529091529020805460ff191660011790556108cf3390565b6001600160a01b0316816001600160a01b0316837f2f8788117e7eff1d82e926ec794901d17c78024a50270940304540a733656f0d60405160405180910390a45050565b61091d8282610778565b15610774576000828152602081815260408083206001600160a01b0385168085529252808320805460ff1916905551339285917ff6391f5c32d9c69d2a47ea670b442974b53935d1edc7fd64eb21e047a839171b9190a45050565b610981836109f6565b60008251118061098e5750805b156106f0576107ec8383610a36565b6109a78282610778565b610774576109b481610a62565b6109bf836020610a74565b6040516020016109d0929190610f25565b60408051601f198184030181529082905262461bcd60e51b825261076191600401610f94565b6109ff81610c0f565b6040516001600160a01b038216907fbc7cd75a20ee27fd9adebab32041f755214dbc6bffa90cc0225b39da2e5c2d3b90600090a250565b6060610a5b838360405180606001604052806027815260200161108760279139610ca9565b9392505050565b60606106b96001600160a01b03831660145b60606000610a83836002610fdd565b610a8e906002610ff4565b6001600160401b03811115610aa557610aa5611007565b6040519080825280601f01601f191660200182016040528015610acf576020820181803683370190505b509050600360fc1b81600081518110610aea57610aea61101d565b60200101906001600160f81b031916908160001a905350600f60fb1b81600181518110610b1957610b1961101d565b60200101906001600160f81b031916908160001a9053506000610b3d846002610fdd565b610b48906001610ff4565b90505b6001811115610bc0576f181899199a1a9b1b9c1cb0b131b232b360811b85600f1660108110610b7c57610b7c61101d565b1a60f81b828281518110610b9257610b9261101d565b60200101906001600160f81b031916908160001a90535060049490941c93610bb981611033565b9050610b4b565b508315610a5b5760405162461bcd60e51b815260206004820181905260248201527f537472696e67733a20686578206c656e67746820696e73756666696369656e746044820152606401610761565b610c1881610d21565b610c7a5760405162461bcd60e51b815260206004820152602d60248201527f455243313936373a206e657720696d706c656d656e746174696f6e206973206e60448201526c1bdd08184818dbdb9d1c9858dd609a1b6064820152608401610761565b60008051602061106783398151915280546001600160a01b0319166001600160a01b0392909216919091179055565b6060600080856001600160a01b031685604051610cc6919061104a565b600060405180830381855af49150503d8060008114610d01576040519150601f19603f3d011682016040523d82523d6000602084013e610d06565b606091505b5091509150610d1786838387610d30565b9695505050505050565b6001600160a01b03163b151590565b60608315610d9d578251600003610d9657610d4a85610d21565b610d965760405162461bcd60e51b815260206004820152601d60248201527f416464726573733a2063616c6c20746f206e6f6e2d636f6e74726163740000006044820152606401610761565b5081610da7565b610da78383610daf565b949350505050565b815115610dbf5781518083602001fd5b8060405162461bcd60e51b81526004016107619190610f94565b600060208284031215610deb57600080fd5b81356001600160e01b031981168114610a5b57600080fd5b600060208284031215610e1557600080fd5b5035919050565b80356001600160a01b0381168114610e3357600080fd5b919050565b60008060408385031215610e4b57600080fd5b82359150610e5b60208401610e1c565b90509250929050565b600060208284031215610e7657600080fd5b610a5b82610e1c565b600080600060408486031215610e9457600080fd5b610e9d84610e1c565b925060208401356001600160401b0380821115610eb957600080fd5b818601915086601f830112610ecd57600080fd5b813581811115610edc57600080fd5b876020828501011115610eee57600080fd5b6020830194508093505050509250925092565b60005b83811015610f1c578181015183820152602001610f04565b50506000910152565b76020b1b1b2b9b9a1b7b73a3937b61d1030b1b1b7bab73a1604d1b815260008351610f57816017850160208801610f01565b7001034b99036b4b9b9b4b733903937b6329607d1b6017918401918201528351610f88816028840160208801610f01565b01602801949350505050565b6020815260008251806020840152610fb3816040850160208701610f01565b601f01601f19169190910160400192915050565b634e487b7160e01b600052601160045260246000fd5b80820281158282048414176106b9576106b9610fc7565b808201808211156106b9576106b9610fc7565b634e487b7160e01b600052604160045260246000fd5b634e487b7160e01b600052603260045260246000fd5b60008161104257611042610fc7565b506000190190565b6000825161105c818460208701610f01565b919091019291505056fe360894a13ba1a3210667c828492db98dca3e2076cc3735a920a3ca505d382bbc416464726573733a206c6f772d6c6576656c2064656c65676174652063616c6c206661696c6564a2646970667358221220c51acb5ac5427b735221267ff7b284f5c08a0680374e9c9b983fe81c6ab12cad64736f6c63430008130033416464726573733a206c6f772d6c6576656c2064656c65676174652063616c6c206661696c6564",
  "linkReferences": {},
  "deployedLinkReferences": {}
}