{
  "address": "0xe732aAd84ed3a55B02FBE7DF10334c4d2a06afBf",
  "abi": [
    {
      "inputs": [
        {
          "internalType": "uint256",
          "name": "performanceFee_",
          "type": "uint256"
        },
        {
          "internalType": "address",
          "name": "feeRecipient_",
          "type": "address"
        },
        {
          "internalType": "address",
          "name": "admin_",
          "type": "address"
        }
      ],
      "stateMutability": "nonpayable",
      "type": "constructor"
    },
    {
      "inputs": [],
      "name": "ERC20TransferFailed",
      "type": "error"
    },
    {
      "inputs": [],
      "name": "FeeGreaterThan100",
      "type": "error"
    },
    {
      "inputs": [],
      "name": "ZeroAddress",
      "type": "error"
    },
    {
      "inputs": [],
      "name": "ZeroAmount",
      "type": "error"
    },
    {
      "anonymous": false,
      "inputs": [
        {
          "indexed": false,
          "internalType": "address",
          "name": "feeRecipient",
          "type": "address"
        }
      ],
      "name": "FeeRecipientSet",
      "type": "event"
    },
    {
      "anonymous": false,
      "inputs": [
        {
          "indexed": false,
          "internalType": "uint256",
          "name": "fee",
          "type": "uint256"
        }
      ],
      "name": "PerformanceFeeSet",
      "type": "event"
    },
    {
      "anonymous": false,
      "inputs": [
        {
          "indexed": true,
          "internalType": "bytes32",
          "name": "role",
          "type": "bytes32"
        },
        {
          "indexed": true,
          "internalType": "bytes32",
          "name": "previousAdminRole",
          "type": "bytes32"
        },
        {
          "indexed": true,
          "internalType": "bytes32",
          "name": "newAdminRole",
          "type": "bytes32"
        }
      ],
      "name": "RoleAdminChanged",
      "type": "event"
    },
    {
      "anonymous": false,
      "inputs": [
        {
          "indexed": true,
          "internalType": "bytes32",
          "name": "role",
          "type": "bytes32"
        },
        {
          "indexed": true,
          "internalType": "address",
          "name": "account",
          "type": "address"
        },
        {
          "indexed": true,
          "internalType": "address",
          "name": "sender",
          "type": "address"
        }
      ],
      "name": "RoleGranted",
      "type": "event"
    },
    {
      "anonymous": false,
      "inputs": [
        {
          "indexed": true,
          "internalType": "bytes32",
          "name": "role",
          "type": "bytes32"
        },
        {
          "indexed": true,
          "internalType": "address",
          "name": "account",
          "type": "address"
        },
        {
          "indexed": true,
          "internalType": "address",
          "name": "sender",
          "type": "address"
        }
      ],
      "name": "RoleRevoked",
      "type": "event"
    },
    {
      "inputs": [],
      "name": "DEFAULT_ADMIN_ROLE",
      "outputs": [
        {
          "internalType": "bytes32",
          "name": "",
          "type": "bytes32"
        }
      ],
      "stateMutability": "view",
      "type": "function"
    },
    {
      "inputs": [
        {
          "internalType": "address",
          "name": "token",
          "type": "address"
        }
      ],
      "name": "distribute",
      "outputs": [],
      "stateMutability": "nonpayable",
      "type": "function"
    },
    {
      "inputs": [],
      "name": "feeRecipient",
      "outputs": [
        {
          "internalType": "address",
          "name": "",
          "type": "address"
        }
      ],
      "stateMutability": "view",
      "type": "function"
    },
    {
      "inputs": [
        {
          "internalType": "bytes32",
          "name": "role",
          "type": "bytes32"
        }
      ],
      "name": "getRoleAdmin",
      "outputs": [
        {
          "internalType": "bytes32",
          "name": "",
          "type": "bytes32"
        }
      ],
      "stateMutability": "view",
      "type": "function"
    },
    {
      "inputs": [
        {
          "internalType": "bytes32",
          "name": "role",
          "type": "bytes32"
        },
        {
          "internalType": "address",
          "name": "account",
          "type": "address"
        }
      ],
      "name": "grantRole",
      "outputs": [],
      "stateMutability": "nonpayable",
      "type": "function"
    },
    {
      "inputs": [
        {
          "internalType": "bytes32",
          "name": "role",
          "type": "bytes32"
        },
        {
          "internalType": "address",
          "name": "account",
          "type": "address"
        }
      ],
      "name": "hasRole",
      "outputs": [
        {
          "internalType": "bool",
          "name": "",
          "type": "bool"
        }
      ],
      "stateMutability": "view",
      "type": "function"
    },
    {
      "inputs": [],
      "name": "performanceFee",
      "outputs": [
        {
          "internalType": "uint256",
          "name": "",
          "type": "uint256"
        }
      ],
      "stateMutability": "view",
      "type": "function"
    },
    {
      "inputs": [
        {
          "internalType": "bytes32",
          "name": "role",
          "type": "bytes32"
        },
        {
          "internalType": "address",
          "name": "account",
          "type": "address"
        }
      ],
      "name": "renounceRole",
      "outputs": [],
      "stateMutability": "nonpayable",
      "type": "function"
    },
    {
      "inputs": [
        {
          "internalType": "address",
          "name": "",
          "type": "address"
        },
        {
          "internalType": "uint256",
          "name": "gain",
          "type": "uint256"
        },
        {
          "internalType": "uint256",
          "name": "",
          "type": "uint256"
        }
      ],
      "name": "report",
      "outputs": [
        {
          "internalType": "uint256",
          "name": "",
          "type": "uint256"
        },
        {
          "internalType": "uint256",
          "name": "",
          "type": "uint256"
        }
      ],
      "stateMutability": "view",
      "type": "function"
    },
    {
      "inputs": [
        {
          "internalType": "bytes32",
          "name": "role",
          "type": "bytes32"
        },
        {
          "internalType": "address",
          "name": "account",
          "type": "address"
        }
      ],
      "name": "revokeRole",
      "outputs": [],
      "stateMutability": "nonpayable",
      "type": "function"
    },
    {
      "inputs": [
        {
          "internalType": "address",
          "name": "recipient",
          "type": "address"
        }
      ],
      "name": "setFeeRecipient",
      "outputs": [],
      "stateMutability": "nonpayable",
      "type": "function"
    },
    {
      "inputs": [
        {
          "internalType": "uint256",
          "name": "fee",
          "type": "uint256"
        }
      ],
      "name": "setPerformanceFee",
      "outputs": [],
      "stateMutability": "nonpayable",
      "type": "function"
    },
    {
      "inputs": [
        {
          "internalType": "bytes4",
          "name": "interfaceId",
          "type": "bytes4"
        }
      ],
      "name": "supportsInterface",
      "outputs": [
        {
          "internalType": "bool",
          "name": "",
          "type": "bool"
        }
      ],
      "stateMutability": "view",
      "type": "function"
    }
  ],
  "transactionHash": "0x8f310f2b9d15f73c5351ca94746c05671e4801b1363b9e9982382c3f90668b44",
  "args": [
    1000,
    "0x0Eb7DEE6e18Cce8fE839E986502d95d47dC0ADa3",
    "0x0Eb7DEE6e18Cce8fE839E986502d95d47dC0ADa3"
  ],
  "numDeployments": 1,
  "solcInputHash": "7aaec0c49e902d3315c3ebe90ef1da4d",
  "bytecode": "0x608060405234801561001057600080fd5b50604051610fe1380380610fe183398101604081905261002f916101d6565b61271083111561005257604051637a50132760e11b815260040160405180910390fd5b6001600160a01b0382166100795760405163d92e233d60e01b815260040160405180910390fd5b6001839055600280546001600160a01b0319166001600160a01b0384161790556040518381527fceb20f7f0b19335681096ee1eaa9bb2a6ef5a9a69ba48b6b488e7b7eff2ef04d9060200160405180910390a16040516001600160a01b03831681527fbf9a9534339a9d6b81696e05dcfb614b7dc518a31d48be3cfb757988381fb3239060200160405180910390a161011360008261011b565b505050610212565b6000828152602081815260408083206001600160a01b038516845290915290205460ff166101b6576000828152602081815260408083206001600160a01b03851684529091529020805460ff191660011790556101753390565b6001600160a01b0316816001600160a01b0316837f2f8788117e7eff1d82e926ec794901d17c78024a50270940304540a733656f0d60405160405180910390a45b5050565b80516001600160a01b03811681146101d157600080fd5b919050565b6000806000606084860312156101eb57600080fd5b835192506101fb602085016101ba565b9150610209604085016101ba565b90509250925092565b610dc0806102216000396000f3fe608060405234801561001057600080fd5b50600436106100af5760003560e01c806301ffc9a7146100b4578063248a9ca3146100dc5780632f2ff15d146100fd57806336568abe14610112578063469048401461012557806363453ae11461013e57806370897b2314610151578063877887821461016457806391d148541461016c578063921f8a8f1461017f578063a217fddf146101a7578063d547741f146101af578063e74b981b146101c2575b600080fd5b6100c76100c2366004610adb565b6101d5565b60405190151581526020015b60405180910390f35b6100ef6100ea366004610b05565b61020c565b6040519081526020016100d3565b61011061010b366004610b3a565b610221565b005b610110610120366004610b3a565b610242565b6002546001600160a01b03166040516100d39190610b66565b61011061014c366004610b7a565b6102c5565b61011061015f366004610b05565b61037b565b6001546100ef565b6100c761017a366004610b3a565b6103e6565b61019261018d366004610b95565b61040f565b604080519283526020830191909152016100d3565b6100ef600081565b6101106101bd366004610b3a565b610439565b6101106101d0366004610b7a565b610455565b60006001600160e01b03198216637965db0b60e01b148061020657506301ffc9a760e01b6001600160e01b03198316145b92915050565b60009081526020819052604090206001015490565b61022a8261020c565b610233816104d2565b61023d83836104df565b505050565b6001600160a01b03811633146102b75760405162461bcd60e51b815260206004820152602f60248201527f416363657373436f6e74726f6c3a2063616e206f6e6c792072656e6f756e636560448201526e103937b632b9903337b91039b2b63360891b60648201526084015b60405180910390fd5b6102c18282610563565b5050565b60006102d0816104d2565b6040516370a0823160e01b81526000906001600160a01b038416906370a08231906102ff903090600401610b66565b602060405180830381865afa15801561031c573d6000803e3d6000fd5b505050506040513d601f19601f820116820180604052508101906103409190610bc8565b90508060000361036357604051631f2a200560e01b815260040160405180910390fd5b60025461023d9084906001600160a01b0316836105c8565b6000610386816104d2565b6127108211156103a957604051637a50132760e11b815260040160405180910390fd5b60018290556040518281527fceb20f7f0b19335681096ee1eaa9bb2a6ef5a9a69ba48b6b488e7b7eff2ef04d906020015b60405180910390a15050565b6000918252602082815260408084206001600160a01b0393909316845291905290205460ff1690565b600080612710600154856104239190610bf7565b61042d9190610c0e565b95600095509350505050565b6104428261020c565b61044b816104d2565b61023d8383610563565b6000610460816104d2565b6001600160a01b0382166104875760405163d92e233d60e01b815260040160405180910390fd5b600280546001600160a01b0319166001600160a01b0384161790556040517fbf9a9534339a9d6b81696e05dcfb614b7dc518a31d48be3cfb757988381fb323906103da908490610b66565b6104dc8133610617565b50565b6104e982826103e6565b6102c1576000828152602081815260408083206001600160a01b03851684529091529020805460ff1916600117905561051f3390565b6001600160a01b0316816001600160a01b0316837f2f8788117e7eff1d82e926ec794901d17c78024a50270940304540a733656f0d60405160405180910390a45050565b61056d82826103e6565b156102c1576000828152602081815260408083206001600160a01b0385168085529252808320805460ff1916905551339285917ff6391f5c32d9c69d2a47ea670b442974b53935d1edc7fd64eb21e047a839171b9190a45050565b6001600160a01b03831615806105e557506001600160a01b038216155b156106035760405163d92e233d60e01b815260040160405180910390fd5b61023d6001600160a01b0384168383610670565b61062182826103e6565b6102c15761062e816106c2565b6106398360206106d4565b60405160200161064a929190610c54565b60408051601f198184030181529082905262461bcd60e51b82526102ae91600401610cc3565b604080516001600160a01b038416602482015260448082018490528251808303909101815260649091019091526020810180516001600160e01b031663a9059cbb60e01b17905261023d908490610876565b60606102066001600160a01b03831660145b606060006106e3836002610bf7565b6106ee906002610cf6565b6001600160401b0381111561070557610705610d09565b6040519080825280601f01601f19166020018201604052801561072f576020820181803683370190505b509050600360fc1b8160008151811061074a5761074a610d1f565b60200101906001600160f81b031916908160001a905350600f60fb1b8160018151811061077957610779610d1f565b60200101906001600160f81b031916908160001a905350600061079d846002610bf7565b6107a8906001610cf6565b90505b6001811115610820576f181899199a1a9b1b9c1cb0b131b232b360811b85600f16601081106107dc576107dc610d1f565b1a60f81b8282815181106107f2576107f2610d1f565b60200101906001600160f81b031916908160001a90535060049490941c9361081981610d35565b90506107ab565b50831561086f5760405162461bcd60e51b815260206004820181905260248201527f537472696e67733a20686578206c656e67746820696e73756666696369656e7460448201526064016102ae565b9392505050565b60006108cb826040518060400160405280602081526020017f5361666545524332303a206c6f772d6c6576656c2063616c6c206661696c6564815250856001600160a01b031661094b9092919063ffffffff16565b90508051600014806108ec5750808060200190518101906108ec9190610d4c565b61023d5760405162461bcd60e51b815260206004820152602a60248201527f5361666545524332303a204552433230206f7065726174696f6e20646964206e6044820152691bdd081cdd58d8d9595960b21b60648201526084016102ae565b606061095a8484600085610962565b949350505050565b6060824710156109c35760405162461bcd60e51b815260206004820152602660248201527f416464726573733a20696e73756666696369656e742062616c616e636520666f6044820152651c8818d85b1b60d21b60648201526084016102ae565b600080866001600160a01b031685876040516109df9190610d6e565b60006040518083038185875af1925050503d8060008114610a1c576040519150601f19603f3d011682016040523d82523d6000602084013e610a21565b606091505b5091509150610a3287838387610a3d565b979650505050505050565b60608315610aac578251600003610aa5576001600160a01b0385163b610aa55760405162461bcd60e51b815260206004820152601d60248201527f416464726573733a2063616c6c20746f206e6f6e2d636f6e747261637400000060448201526064016102ae565b508161095a565b61095a8383815115610ac15781518083602001fd5b8060405162461bcd60e51b81526004016102ae9190610cc3565b600060208284031215610aed57600080fd5b81356001600160e01b03198116811461086f57600080fd5b600060208284031215610b1757600080fd5b5035919050565b80356001600160a01b0381168114610b3557600080fd5b919050565b60008060408385031215610b4d57600080fd5b82359150610b5d60208401610b1e565b90509250929050565b6001600160a01b0391909116815260200190565b600060208284031215610b8c57600080fd5b61086f82610b1e565b600080600060608486031215610baa57600080fd5b610bb384610b1e565b95602085013595506040909401359392505050565b600060208284031215610bda57600080fd5b5051919050565b634e487b7160e01b600052601160045260246000fd5b808202811582820484141761020657610206610be1565b600082610c2b57634e487b7160e01b600052601260045260246000fd5b500490565b60005b83811015610c4b578181015183820152602001610c33565b50506000910152565b76020b1b1b2b9b9a1b7b73a3937b61d1030b1b1b7bab73a1604d1b815260008351610c86816017850160208801610c30565b7001034b99036b4b9b9b4b733903937b6329607d1b6017918401918201528351610cb7816028840160208801610c30565b01602801949350505050565b6020815260008251806020840152610ce2816040850160208701610c30565b601f01601f19169190910160400192915050565b8082018082111561020657610206610be1565b634e487b7160e01b600052604160045260246000fd5b634e487b7160e01b600052603260045260246000fd5b600081610d4457610d44610be1565b506000190190565b600060208284031215610d5e57600080fd5b8151801515811461086f57600080fd5b60008251610d80818460208701610c30565b919091019291505056fea264697066735822122038237266c3f083f2cbdcd546e5573390425d0d0b8848d0677558666fb6ec94b964736f6c63430008130033",
  "devdoc": {
    "details": "GenericAccountant is a simple accountant that charges a performance fee.GenericAccountant isn't giving any refunds in case of losses.",
    "events": {
      "RoleAdminChanged(bytes32,bytes32,bytes32)": {
        "details": "Emitted when `newAdminRole` is set as ``role``'s admin role, replacing `previousAdminRole` `DEFAULT_ADMIN_ROLE` is the starting admin for all roles, despite {RoleAdminChanged} not being emitted signaling this. _Available since v3.1._"
      },
      "RoleGranted(bytes32,address,address)": {
        "details": "Emitted when `account` is granted `role`. `sender` is the account that originated the contract call, an admin role bearer except when using {AccessControl-_setupRole}."
      },
      "RoleRevoked(bytes32,address,address)": {
        "details": "Emitted when `account` is revoked `role`. `sender` is the account that originated the contract call:   - if using `revokeRole`, it is the admin role bearer   - if using `renounceRole`, it is the role bearer (i.e. `account`)"
      }
    },
    "kind": "dev",
    "methods": {
      "getRoleAdmin(bytes32)": {
        "details": "Returns the admin role that controls `role`. See {grantRole} and {revokeRole}. To change a role's admin, use {_setRoleAdmin}."
      },
      "grantRole(bytes32,address)": {
        "details": "Grants `role` to `account`. If `account` had not been already granted `role`, emits a {RoleGranted} event. Requirements: - the caller must have ``role``'s admin role. May emit a {RoleGranted} event."
      },
      "hasRole(bytes32,address)": {
        "details": "Returns `true` if `account` has been granted `role`."
      },
      "renounceRole(bytes32,address)": {
        "details": "Revokes `role` from the calling account. Roles are often managed via {grantRole} and {revokeRole}: this function's purpose is to provide a mechanism for accounts to lose their privileges if they are compromised (such as when a trusted device is misplaced). If the calling account had been revoked `role`, emits a {RoleRevoked} event. Requirements: - the caller must be `account`. May emit a {RoleRevoked} event."
      },
      "revokeRole(bytes32,address)": {
        "details": "Revokes `role` from `account`. If `account` had been granted `role`, emits a {RoleRevoked} event. Requirements: - the caller must have ``role``'s admin role. May emit a {RoleRevoked} event."
      },
      "supportsInterface(bytes4)": {
        "details": "See {IERC165-supportsInterface}."
      }
    },
    "title": "GenericAccountant",
    "version": 1
  },
  "userdoc": {
    "kind": "user",
    "methods": {},
    "version": 1
  },
  "storageLayout": {
    "storage": [
      {
        "astId": 24,
        "contract": "contracts/accountant/GenericAccountant.sol:GenericAccountant",
        "label": "_roles",
        "offset": 0,
        "slot": "0",
        "type": "t_mapping(t_bytes32,t_struct(RoleData)19_storage)"
      },
      {
        "astId": 4788,
        "contract": "contracts/accountant/GenericAccountant.sol:GenericAccountant",
        "label": "_performanceFee",
        "offset": 0,
        "slot": "1",
        "type": "t_uint256"
      },
      {
        "astId": 4791,
        "contract": "contracts/accountant/GenericAccountant.sol:GenericAccountant",
        "label": "_feeRecipient",
        "offset": 0,
        "slot": "2",
        "type": "t_address"
      }
    ],
    "types": {
      "t_address": {
        "encoding": "inplace",
        "label": "address",
        "numberOfBytes": "20"
      },
      "t_bool": {
        "encoding": "inplace",
        "label": "bool",
        "numberOfBytes": "1"
      },
      "t_bytes32": {
        "encoding": "inplace",
        "label": "bytes32",
        "numberOfBytes": "32"
      },
      "t_mapping(t_address,t_bool)": {
        "encoding": "mapping",
        "key": "t_address",
        "label": "mapping(address => bool)",
        "numberOfBytes": "32",
        "value": "t_bool"
      },
      "t_mapping(t_bytes32,t_struct(RoleData)19_storage)": {
        "encoding": "mapping",
        "key": "t_bytes32",
        "label": "mapping(bytes32 => struct AccessControl.RoleData)",
        "numberOfBytes": "32",
        "value": "t_struct(RoleData)19_storage"
      },
      "t_struct(RoleData)19_storage": {
        "encoding": "inplace",
        "label": "struct AccessControl.RoleData",
        "members": [
          {
            "astId": 16,
            "contract": "contracts/accountant/GenericAccountant.sol:GenericAccountant",
            "label": "members",
            "offset": 0,
            "slot": "0",
            "type": "t_mapping(t_address,t_bool)"
          },
          {
            "astId": 18,
            "contract": "contracts/accountant/GenericAccountant.sol:GenericAccountant",
            "label": "adminRole",
            "offset": 0,
            "slot": "1",
            "type": "t_bytes32"
          }
        ],
        "numberOfBytes": "64"
      },
      "t_uint256": {
        "encoding": "inplace",
        "label": "uint256",
        "numberOfBytes": "32"
      }
    }
  }
}