{
  "address": "0x443713d388eB2F20163D10CF93C8A10f161b6CC2",
  "abi": [
    {
      "inputs": [],
      "stateMutability": "nonpayable",
      "type": "constructor"
    },
    {
      "inputs": [],
      "name": "DistributionEnded",
      "type": "error"
    },
    {
      "inputs": [],
      "name": "DistributionNotEnded",
      "type": "error"
    },
    {
      "inputs": [],
      "name": "DistributionNotStarted",
      "type": "error"
    },
    {
      "inputs": [],
      "name": "NotStrategy",
      "type": "error"
    },
    {
      "inputs": [],
      "name": "PeriodStartInPast",
      "type": "error"
    },
    {
      "inputs": [],
      "name": "WrongAmount",
      "type": "error"
    },
    {
      "inputs": [],
      "name": "WrongAsset",
      "type": "error"
    },
    {
      "inputs": [],
      "name": "WrongBalance",
      "type": "error"
    },
    {
      "inputs": [],
      "name": "WrongPeriod",
      "type": "error"
    },
    {
      "inputs": [],
      "name": "ZeroAddress",
      "type": "error"
    },
    {
      "inputs": [],
      "name": "ZeroAmount",
      "type": "error"
    },
    {
      "anonymous": false,
      "inputs": [
        {
          "indexed": false,
          "internalType": "uint256",
          "name": "amount",
          "type": "uint256"
        },
        {
          "indexed": false,
          "internalType": "uint256",
          "name": "periodStart",
          "type": "uint256"
        },
        {
          "indexed": false,
          "internalType": "uint256",
          "name": "periodEnd",
          "type": "uint256"
        }
      ],
      "name": "DistributionSetup",
      "type": "event"
    },
    {
      "anonymous": false,
      "inputs": [
        {
          "indexed": false,
          "internalType": "uint256",
          "name": "timestamp",
          "type": "uint256"
        },
        {
          "indexed": false,
          "internalType": "uint256",
          "name": "leftRewards",
          "type": "uint256"
        }
      ],
      "name": "EmergencyWithdraw",
      "type": "event"
    },
    {
      "anonymous": false,
      "inputs": [
        {
          "indexed": false,
          "internalType": "uint256",
          "name": "timestamp",
          "type": "uint256"
        },
        {
          "indexed": false,
          "internalType": "uint256",
          "name": "accruedRewards",
          "type": "uint256"
        }
      ],
      "name": "Report",
      "type": "event"
    },
    {
      "anonymous": false,
      "inputs": [
        {
          "indexed": true,
          "internalType": "bytes32",
          "name": "role",
          "type": "bytes32"
        },
        {
          "indexed": true,
          "internalType": "bytes32",
          "name": "previousAdminRole",
          "type": "bytes32"
        },
        {
          "indexed": true,
          "internalType": "bytes32",
          "name": "newAdminRole",
          "type": "bytes32"
        }
      ],
      "name": "RoleAdminChanged",
      "type": "event"
    },
    {
      "anonymous": false,
      "inputs": [
        {
          "indexed": true,
          "internalType": "bytes32",
          "name": "role",
          "type": "bytes32"
        },
        {
          "indexed": true,
          "internalType": "address",
          "name": "account",
          "type": "address"
        },
        {
          "indexed": true,
          "internalType": "address",
          "name": "sender",
          "type": "address"
        }
      ],
      "name": "RoleGranted",
      "type": "event"
    },
    {
      "anonymous": false,
      "inputs": [
        {
          "indexed": true,
          "internalType": "bytes32",
          "name": "role",
          "type": "bytes32"
        },
        {
          "indexed": true,
          "internalType": "address",
          "name": "account",
          "type": "address"
        },
        {
          "indexed": true,
          "internalType": "address",
          "name": "sender",
          "type": "address"
        }
      ],
      "name": "RoleRevoked",
      "type": "event"
    },
    {
      "anonymous": false,
      "inputs": [
        {
          "indexed": false,
          "internalType": "address",
          "name": "oldStrategy",
          "type": "address"
        },
        {
          "indexed": false,
          "internalType": "address",
          "name": "newStrategy",
          "type": "address"
        },
        {
          "indexed": false,
          "internalType": "address",
          "name": "newStrategyAsset",
          "type": "address"
        }
      ],
      "name": "StrategyUpdate",
      "type": "event"
    },
    {
      "inputs": [],
      "name": "DEFAULT_ADMIN_ROLE",
      "outputs": [
        {
          "internalType": "bytes32",
          "name": "",
          "type": "bytes32"
        }
      ],
      "stateMutability": "view",
      "type": "function"
    },
    {
      "inputs": [],
      "name": "asset",
      "outputs": [
        {
          "internalType": "address",
          "name": "",
          "type": "address"
        }
      ],
      "stateMutability": "view",
      "type": "function"
    },
    {
      "inputs": [],
      "name": "distributedRewards",
      "outputs": [
        {
          "internalType": "uint256",
          "name": "",
          "type": "uint256"
        }
      ],
      "stateMutability": "view",
      "type": "function"
    },
    {
      "inputs": [],
      "name": "distributionEnd",
      "outputs": [
        {
          "internalType": "uint256",
          "name": "",
          "type": "uint256"
        }
      ],
      "stateMutability": "view",
      "type": "function"
    },
    {
      "inputs": [],
      "name": "distributionStart",
      "outputs": [
        {
          "internalType": "uint256",
          "name": "",
          "type": "uint256"
        }
      ],
      "stateMutability": "view",
      "type": "function"
    },
    {
      "inputs": [],
      "name": "emergencyWithdraw",
      "outputs": [
        {
          "internalType": "uint256",
          "name": "",
          "type": "uint256"
        }
      ],
      "stateMutability": "nonpayable",
      "type": "function"
    },
    {
      "inputs": [
        {
          "internalType": "bytes32",
          "name": "role",
          "type": "bytes32"
        }
      ],
      "name": "getRoleAdmin",
      "outputs": [
        {
          "internalType": "bytes32",
          "name": "",
          "type": "bytes32"
        }
      ],
      "stateMutability": "view",
      "type": "function"
    },
    {
      "inputs": [
        {
          "internalType": "bytes32",
          "name": "role",
          "type": "bytes32"
        },
        {
          "internalType": "address",
          "name": "account",
          "type": "address"
        }
      ],
      "name": "grantRole",
      "outputs": [],
      "stateMutability": "nonpayable",
      "type": "function"
    },
    {
      "inputs": [
        {
          "internalType": "bytes32",
          "name": "role",
          "type": "bytes32"
        },
        {
          "internalType": "address",
          "name": "account",
          "type": "address"
        }
      ],
      "name": "hasRole",
      "outputs": [
        {
          "internalType": "bool",
          "name": "",
          "type": "bool"
        }
      ],
      "stateMutability": "view",
      "type": "function"
    },
    {
      "inputs": [],
      "name": "lastReport",
      "outputs": [
        {
          "internalType": "uint256",
          "name": "",
          "type": "uint256"
        }
      ],
      "stateMutability": "view",
      "type": "function"
    },
    {
      "inputs": [],
      "name": "processReport",
      "outputs": [
        {
          "internalType": "uint256",
          "name": "",
          "type": "uint256"
        }
      ],
      "stateMutability": "nonpayable",
      "type": "function"
    },
    {
      "inputs": [
        {
          "internalType": "bytes32",
          "name": "role",
          "type": "bytes32"
        },
        {
          "internalType": "address",
          "name": "account",
          "type": "address"
        }
      ],
      "name": "renounceRole",
      "outputs": [],
      "stateMutability": "nonpayable",
      "type": "function"
    },
    {
      "inputs": [
        {
          "internalType": "bytes32",
          "name": "role",
          "type": "bytes32"
        },
        {
          "internalType": "address",
          "name": "account",
          "type": "address"
        }
      ],
      "name": "revokeRole",
      "outputs": [],
      "stateMutability": "nonpayable",
      "type": "function"
    },
    {
      "inputs": [],
      "name": "rewardRate",
      "outputs": [
        {
          "internalType": "uint256",
          "name": "",
          "type": "uint256"
        }
      ],
      "stateMutability": "view",
      "type": "function"
    },
    {
      "inputs": [],
      "name": "rewardsAccrued",
      "outputs": [
        {
          "internalType": "uint256",
          "name": "",
          "type": "uint256"
        }
      ],
      "stateMutability": "view",
      "type": "function"
    },
    {
      "inputs": [],
      "name": "rewardsLeft",
      "outputs": [
        {
          "internalType": "uint256",
          "name": "",
          "type": "uint256"
        }
      ],
      "stateMutability": "view",
      "type": "function"
    },
    {
      "inputs": [
        {
          "internalType": "address",
          "name": "_strategy",
          "type": "address"
        }
      ],
      "name": "setStrategy",
      "outputs": [],
      "stateMutability": "nonpayable",
      "type": "function"
    },
    {
      "inputs": [
        {
          "internalType": "uint256",
          "name": "approxAmount",
          "type": "uint256"
        },
        {
          "internalType": "uint256",
          "name": "periodStart",
          "type": "uint256"
        },
        {
          "internalType": "uint256",
          "name": "periodEnd",
          "type": "uint256"
        }
      ],
      "name": "setupDistribution",
      "outputs": [],
      "stateMutability": "nonpayable",
      "type": "function"
    },
    {
      "inputs": [],
      "name": "strategy",
      "outputs": [
        {
          "internalType": "contract IStrategy",
          "name": "",
          "type": "address"
        }
      ],
      "stateMutability": "view",
      "type": "function"
    },
    {
      "inputs": [],
      "name": "strategyAsset",
      "outputs": [
        {
          "internalType": "contract ERC20",
          "name": "",
          "type": "address"
        }
      ],
      "stateMutability": "view",
      "type": "function"
    },
    {
      "inputs": [
        {
          "internalType": "bytes4",
          "name": "interfaceId",
          "type": "bytes4"
        }
      ],
      "name": "supportsInterface",
      "outputs": [
        {
          "internalType": "bool",
          "name": "",
          "type": "bool"
        }
      ],
      "stateMutability": "view",
      "type": "function"
    },
    {
      "inputs": [],
      "name": "totalRewards",
      "outputs": [
        {
          "internalType": "uint256",
          "name": "",
          "type": "uint256"
        }
      ],
      "stateMutability": "view",
      "type": "function"
    }
  ],
  "transactionHash": "0xaeef06416214e1cf399a787ec10ff192a7f9d16436ec397911235942030719f4",
  "args": [],
  "numDeployments": 1,
  "solcInputHash": "c3d40667c371f42bc302cf0e2280989d",
  "bytecode": "0x608060405234801561001057600080fd5b5060018055610020600033610025565b6100c4565b6000828152602081815260408083206001600160a01b038516845290915290205460ff166100c0576000828152602081815260408083206001600160a01b03851684529091529020805460ff1916600117905561007f3390565b6001600160a01b0316816001600160a01b0316837f2f8788117e7eff1d82e926ec794901d17c78024a50270940304540a733656f0d60405160405180910390a45b5050565b611488806100d36000396000f3fe608060405234801561001057600080fd5b50600436106101125760003560e01c806301ffc9a7146101175780630e15561a1461013f578063248a9ca3146101555780632f2ff15d1461016857806333a100ca1461017d57806336568abe1461019057806338d52e0f146101a3578063529c21a0146101bd5780637b0a47ee146101c55780637bbc101b146101cd57806391d14854146101d6578063a1499601146101e9578063a217fddf146101fc578063a8158f6514610204578063a8bc58f21461020c578063a8c62e7614610214578063b7ecf30e14610227578063c3535b521461023a578063d547741f14610243578063db2e21bc14610256578063efa90b541461025e578063f3e14f1e14610267575b600080fd5b61012a61012536600461117b565b61026f565b60405190151581526020015b60405180910390f35b6101476102a6565b604051908152602001610136565b6101476101633660046111a5565b6102ca565b61017b6101763660046111d3565b6102df565b005b61017b61018b366004611203565b610300565b61017b61019e3660046111d3565b610466565b6002546001600160a01b03165b6040516101369190611220565b6101476104e9565b600754610147565b61014760045481565b61012a6101e43660046111d3565b610600565b6002546101b0906001600160a01b031681565b610147600081565b610147610629565b610147610668565b6003546101b0906001600160a01b031681565b61017b610235366004611234565b61067a565b61014760065481565b61017b6102513660046111d3565b610920565b61014761093c565b61014760055481565b610147610a56565b60006001600160e01b03198216637965db0b60e01b14806102a057506301ffc9a760e01b6001600160e01b03198316145b92915050565b60006004546005546102b89190611276565b6007546102c59190611289565b905090565b60009081526020819052604090206001015490565b6102e8826102ca565b6102f181610a68565b6102fb8383610a75565b505050565b600061030b81610a68565b6001600160a01b0382166103325760405163d92e233d60e01b815260040160405180910390fd5b600380546001600160a01b0319166001600160a01b038416908117909155604080516338d52e0f60e01b81529051600092916338d52e0f9160048083019260209291908290030181865afa15801561038e573d6000803e3d6000fd5b505050506040513d601f19601f820116820180604052508101906103b291906112a0565b6002549091506001600160a01b03166103e557600280546001600160a01b0319166001600160a01b038316179055610413565b6002546001600160a01b038281169116146104135760405163f170c67f60e01b815260040160405180910390fd5b600354604080516001600160a01b039283168152858316602082015291831682820152517f27f0699781fde3fdc7f7968ddd638fef30ac0f6054108b1677a1726798dfa46c9181900360600190a1505050565b6001600160a01b03811633146104db5760405162461bcd60e51b815260206004820152602f60248201527f416363657373436f6e74726f6c3a2063616e206f6e6c792072656e6f756e636560448201526e103937b632b9903337b91039b2b63360891b60648201526084015b60405180910390fd5b6104e58282610af9565b5050565b60006104f3610b5e565b6003546001600160a01b0316331461051e576040516359935c8f60e11b815260040160405180910390fd5b6005546006541061054257604051639856227d60e01b815260040160405180910390fd5b6004544210156105655760405163049812ad60e41b815260040160405180910390fd5b600061056f610629565b9050806000036105835760009150506105f4565b60055442116105925742610596565b6005545b600681905560408051918252602082018390527f6756f660865043896d30684428df3d547781d14aadec83db58966fd6a4a23cc5910160405180910390a16002546003546105f1916001600160a01b03908116911683610bb7565b90505b6105fd60018055565b90565b6000918252602082815260408084206001600160a01b0393909316845291905290205460ff1690565b6000600554600654148061063f57506004544211155b1561064a5750600090565b600554421061065b576102c5610668565b6006546102b89042611276565b60006006546005546102b89190611276565b610682610b5e565b600061068d81610a68565b60055460065410156106b2576040516345c7461360e01b815260040160405180910390fd5b4283116106d257604051631fa3495f60e21b815260040160405180910390fd5b8282116106f257604051634323091d60e11b815260040160405180910390fd5b8360000361071357604051631f2a200560e01b815260040160405180910390fd5b600061071f8484611276565b61072990866112bd565b90508060000361074c576040516349986e7360e01b815260040160405180910390fd5b6007819055600061075d8585611276565b6107679083611289565b60048690556005859055600686905560408051828152602081018890529081018690529091507f08476c8862bf0a0d136af72b217bb19a7c1f859cccc08f60c83d13cddefad1c99060600160405180910390a16002546040516370a0823160e01b81526000916001600160a01b0316906370a08231906107eb903090600401611220565b602060405180830381865afa158015610808573d6000803e3d6000fd5b505050506040513d601f19601f8201168201806040525081019061082c91906112df565b90508181101561085c57600254610857906001600160a01b031633306108528587611276565b610c06565b610884565b8181111561088457600254610884906001600160a01b03163361087f8585611276565b610bb7565b6002546040516370a0823160e01b815283916001600160a01b0316906370a08231906108b4903090600401611220565b602060405180830381865afa1580156108d1573d6000803e3d6000fd5b505050506040513d601f19601f820116820180604052508101906108f591906112df565b146109135760405163eee8873560e01b815260040160405180910390fd5b505050506102fb60018055565b610929826102ca565b61093281610a68565b6102fb8383610af9565b6000610946610b5e565b600061095181610a68565b6002546040516370a0823160e01b81526000916001600160a01b0316906370a0823190610982903090600401611220565b602060405180830381865afa15801561099f573d6000803e3d6000fd5b505050506040513d601f19601f820116820180604052508101906109c391906112df565b9050806000036109e657604051631f2a200560e01b815260040160405180910390fd5b600060078190556004819055600581905560065560408051428152602081018390527fb073e6fbd06d7557d2c82f414fee57de28e7fb517ecc0afdd6b1fc57034a9cb8910160405180910390a1600254610a4a906001600160a01b03163383610bb7565b9150506105fd60018055565b60006004546006546102b89190611276565b610a728133610c6e565b50565b610a7f8282610600565b6104e5576000828152602081815260408083206001600160a01b03851684529091529020805460ff19166001179055610ab53390565b6001600160a01b0316816001600160a01b0316837f2f8788117e7eff1d82e926ec794901d17c78024a50270940304540a733656f0d60405160405180910390a45050565b610b038282610600565b156104e5576000828152602081815260408083206001600160a01b0385168085529252808320805460ff1916905551339285917ff6391f5c32d9c69d2a47ea670b442974b53935d1edc7fd64eb21e047a839171b9190a45050565b600260015403610bb05760405162461bcd60e51b815260206004820152601f60248201527f5265656e7472616e637947756172643a207265656e7472616e742063616c6c0060448201526064016104d2565b6002600155565b6001600160a01b0383161580610bd457506001600160a01b038216155b15610bf25760405163d92e233d60e01b815260040160405180910390fd5b6102fb6001600160a01b0384168383610cc7565b6001600160a01b0384161580610c2357506001600160a01b038316155b80610c3557506001600160a01b038216155b15610c535760405163d92e233d60e01b815260040160405180910390fd5b610c686001600160a01b038516848484610d2a565b50505050565b610c788282610600565b6104e557610c8581610d62565b610c90836020610d74565b604051602001610ca192919061131c565b60408051601f198184030181529082905262461bcd60e51b82526104d29160040161138b565b6040516001600160a01b0383166024820152604481018290526102fb90849063a9059cbb60e01b906064015b60408051601f198184030181529190526020810180516001600160e01b03166001600160e01b031990931692909217909152610f16565b6040516001600160a01b0380851660248301528316604482015260648101829052610c689085906323b872dd60e01b90608401610cf3565b60606102a06001600160a01b03831660145b60606000610d83836002611289565b610d8e9060026113be565b6001600160401b03811115610da557610da56113d1565b6040519080825280601f01601f191660200182016040528015610dcf576020820181803683370190505b509050600360fc1b81600081518110610dea57610dea6113e7565b60200101906001600160f81b031916908160001a905350600f60fb1b81600181518110610e1957610e196113e7565b60200101906001600160f81b031916908160001a9053506000610e3d846002611289565b610e489060016113be565b90505b6001811115610ec0576f181899199a1a9b1b9c1cb0b131b232b360811b85600f1660108110610e7c57610e7c6113e7565b1a60f81b828281518110610e9257610e926113e7565b60200101906001600160f81b031916908160001a90535060049490941c93610eb9816113fd565b9050610e4b565b508315610f0f5760405162461bcd60e51b815260206004820181905260248201527f537472696e67733a20686578206c656e67746820696e73756666696369656e7460448201526064016104d2565b9392505050565b6000610f6b826040518060400160405280602081526020017f5361666545524332303a206c6f772d6c6576656c2063616c6c206661696c6564815250856001600160a01b0316610feb9092919063ffffffff16565b9050805160001480610f8c575080806020019051810190610f8c9190611414565b6102fb5760405162461bcd60e51b815260206004820152602a60248201527f5361666545524332303a204552433230206f7065726174696f6e20646964206e6044820152691bdd081cdd58d8d9595960b21b60648201526084016104d2565b6060610ffa8484600085611002565b949350505050565b6060824710156110635760405162461bcd60e51b815260206004820152602660248201527f416464726573733a20696e73756666696369656e742062616c616e636520666f6044820152651c8818d85b1b60d21b60648201526084016104d2565b600080866001600160a01b0316858760405161107f9190611436565b60006040518083038185875af1925050503d80600081146110bc576040519150601f19603f3d011682016040523d82523d6000602084013e6110c1565b606091505b50915091506110d2878383876110dd565b979650505050505050565b6060831561114c578251600003611145576001600160a01b0385163b6111455760405162461bcd60e51b815260206004820152601d60248201527f416464726573733a2063616c6c20746f206e6f6e2d636f6e747261637400000060448201526064016104d2565b5081610ffa565b610ffa83838151156111615781518083602001fd5b8060405162461bcd60e51b81526004016104d2919061138b565b60006020828403121561118d57600080fd5b81356001600160e01b031981168114610f0f57600080fd5b6000602082840312156111b757600080fd5b5035919050565b6001600160a01b0381168114610a7257600080fd5b600080604083850312156111e657600080fd5b8235915060208301356111f8816111be565b809150509250929050565b60006020828403121561121557600080fd5b8135610f0f816111be565b6001600160a01b0391909116815260200190565b60008060006060848603121561124957600080fd5b505081359360208301359350604090920135919050565b634e487b7160e01b600052601160045260246000fd5b818103818111156102a0576102a0611260565b80820281158282048414176102a0576102a0611260565b6000602082840312156112b257600080fd5b8151610f0f816111be565b6000826112da57634e487b7160e01b600052601260045260246000fd5b500490565b6000602082840312156112f157600080fd5b5051919050565b60005b838110156113135781810151838201526020016112fb565b50506000910152565b76020b1b1b2b9b9a1b7b73a3937b61d1030b1b1b7bab73a1604d1b81526000835161134e8160178501602088016112f8565b7001034b99036b4b9b9b4b733903937b6329607d1b601791840191820152835161137f8160288401602088016112f8565b01602801949350505050565b60208152600082518060208401526113aa8160408501602087016112f8565b601f01601f19169190910160400192915050565b808201808211156102a0576102a0611260565b634e487b7160e01b600052604160045260246000fd5b634e487b7160e01b600052603260045260246000fd5b60008161140c5761140c611260565b506000190190565b60006020828403121561142657600080fd5b81518015158114610f0f57600080fd5b600082516114488184602087016112f8565b919091019291505056fea264697066735822122031c510933e91d8a78bb8fdfb11b2214637b1958565029e995159e9d324ca368c64736f6c63430008130033",
  "devdoc": {
    "events": {
      "RoleAdminChanged(bytes32,bytes32,bytes32)": {
        "details": "Emitted when `newAdminRole` is set as ``role``'s admin role, replacing `previousAdminRole` `DEFAULT_ADMIN_ROLE` is the starting admin for all roles, despite {RoleAdminChanged} not being emitted signaling this. _Available since v3.1._"
      },
      "RoleGranted(bytes32,address,address)": {
        "details": "Emitted when `account` is granted `role`. `sender` is the account that originated the contract call, an admin role bearer except when using {AccessControl-_setupRole}."
      },
      "RoleRevoked(bytes32,address,address)": {
        "details": "Emitted when `account` is revoked `role`. `sender` is the account that originated the contract call:   - if using `revokeRole`, it is the admin role bearer   - if using `renounceRole`, it is the role bearer (i.e. `account`)"
      }
    },
    "kind": "dev",
    "methods": {
      "getRoleAdmin(bytes32)": {
        "details": "Returns the admin role that controls `role`. See {grantRole} and {revokeRole}. To change a role's admin, use {_setRoleAdmin}."
      },
      "grantRole(bytes32,address)": {
        "details": "Grants `role` to `account`. If `account` had not been already granted `role`, emits a {RoleGranted} event. Requirements: - the caller must have ``role``'s admin role. May emit a {RoleGranted} event."
      },
      "hasRole(bytes32,address)": {
        "details": "Returns `true` if `account` has been granted `role`."
      },
      "renounceRole(bytes32,address)": {
        "details": "Revokes `role` from the calling account. Roles are often managed via {grantRole} and {revokeRole}: this function's purpose is to provide a mechanism for accounts to lose their privileges if they are compromised (such as when a trusted device is misplaced). If the calling account had been revoked `role`, emits a {RoleRevoked} event. Requirements: - the caller must be `account`. May emit a {RoleRevoked} event."
      },
      "revokeRole(bytes32,address)": {
        "details": "Revokes `role` from `account`. If `account` had been granted `role`, emits a {RoleRevoked} event. Requirements: - the caller must have ``role``'s admin role. May emit a {RoleRevoked} event."
      },
      "supportsInterface(bytes4)": {
        "details": "See {IERC165-supportsInterface}."
      }
    },
    "version": 1
  },
  "userdoc": {
    "kind": "user",
    "methods": {},
    "version": 1
  },
  "storageLayout": {
    "storage": [
      {
        "astId": 24,
        "contract": "contracts/strategy/Investor.sol:Investor",
        "label": "_roles",
        "offset": 0,
        "slot": "0",
        "type": "t_mapping(t_bytes32,t_struct(RoleData)19_storage)"
      },
      {
        "astId": 964,
        "contract": "contracts/strategy/Investor.sol:Investor",
        "label": "_status",
        "offset": 0,
        "slot": "1",
        "type": "t_uint256"
      },
      {
        "astId": 5152,
        "contract": "contracts/strategy/Investor.sol:Investor",
        "label": "strategyAsset",
        "offset": 0,
        "slot": "2",
        "type": "t_contract(ERC20)1605"
      },
      {
        "astId": 5155,
        "contract": "contracts/strategy/Investor.sol:Investor",
        "label": "strategy",
        "offset": 0,
        "slot": "3",
        "type": "t_contract(IStrategy)9144"
      },
      {
        "astId": 5157,
        "contract": "contracts/strategy/Investor.sol:Investor",
        "label": "distributionStart",
        "offset": 0,
        "slot": "4",
        "type": "t_uint256"
      },
      {
        "astId": 5159,
        "contract": "contracts/strategy/Investor.sol:Investor",
        "label": "distributionEnd",
        "offset": 0,
        "slot": "5",
        "type": "t_uint256"
      },
      {
        "astId": 5161,
        "contract": "contracts/strategy/Investor.sol:Investor",
        "label": "lastReport",
        "offset": 0,
        "slot": "6",
        "type": "t_uint256"
      },
      {
        "astId": 5163,
        "contract": "contracts/strategy/Investor.sol:Investor",
        "label": "rewardInSecond",
        "offset": 0,
        "slot": "7",
        "type": "t_uint256"
      }
    ],
    "types": {
      "t_address": {
        "encoding": "inplace",
        "label": "address",
        "numberOfBytes": "20"
      },
      "t_bool": {
        "encoding": "inplace",
        "label": "bool",
        "numberOfBytes": "1"
      },
      "t_bytes32": {
        "encoding": "inplace",
        "label": "bytes32",
        "numberOfBytes": "32"
      },
      "t_contract(ERC20)1605": {
        "encoding": "inplace",
        "label": "contract ERC20",
        "numberOfBytes": "20"
      },
      "t_contract(IStrategy)9144": {
        "encoding": "inplace",
        "label": "contract IStrategy",
        "numberOfBytes": "20"
      },
      "t_mapping(t_address,t_bool)": {
        "encoding": "mapping",
        "key": "t_address",
        "label": "mapping(address => bool)",
        "numberOfBytes": "32",
        "value": "t_bool"
      },
      "t_mapping(t_bytes32,t_struct(RoleData)19_storage)": {
        "encoding": "mapping",
        "key": "t_bytes32",
        "label": "mapping(bytes32 => struct AccessControl.RoleData)",
        "numberOfBytes": "32",
        "value": "t_struct(RoleData)19_storage"
      },
      "t_struct(RoleData)19_storage": {
        "encoding": "inplace",
        "label": "struct AccessControl.RoleData",
        "members": [
          {
            "astId": 16,
            "contract": "contracts/strategy/Investor.sol:Investor",
            "label": "members",
            "offset": 0,
            "slot": "0",
            "type": "t_mapping(t_address,t_bool)"
          },
          {
            "astId": 18,
            "contract": "contracts/strategy/Investor.sol:Investor",
            "label": "adminRole",
            "offset": 0,
            "slot": "1",
            "type": "t_bytes32"
          }
        ],
        "numberOfBytes": "64"
      },
      "t_uint256": {
        "encoding": "inplace",
        "label": "uint256",
        "numberOfBytes": "32"
      }
    }
  }
}