{
  "address": "0x02badDc3231786B6f1B28035560781362c3d9CD6",
  "abi": [
    {
      "inputs": [
        {
          "internalType": "address",
          "name": "_investor",
          "type": "address"
        },
        {
          "internalType": "address",
          "name": "_asset",
          "type": "address"
        },
        {
          "internalType": "string",
          "name": "_name",
          "type": "string"
        },
        {
          "internalType": "address",
          "name": "_tokenizedStrategyAddress",
          "type": "address"
        }
      ],
      "stateMutability": "nonpayable",
      "type": "constructor"
    },
    {
      "stateMutability": "nonpayable",
      "type": "fallback"
    },
    {
      "inputs": [
        {
          "internalType": "address",
          "name": "",
          "type": "address"
        }
      ],
      "name": "availableDepositLimit",
      "outputs": [
        {
          "internalType": "uint256",
          "name": "",
          "type": "uint256"
        }
      ],
      "stateMutability": "view",
      "type": "function"
    },
    {
      "inputs": [
        {
          "internalType": "address",
          "name": "",
          "type": "address"
        }
      ],
      "name": "availableWithdrawLimit",
      "outputs": [
        {
          "internalType": "uint256",
          "name": "",
          "type": "uint256"
        }
      ],
      "stateMutability": "view",
      "type": "function"
    },
    {
      "inputs": [
        {
          "internalType": "uint256",
          "name": "_amount",
          "type": "uint256"
        }
      ],
      "name": "deployFunds",
      "outputs": [],
      "stateMutability": "nonpayable",
      "type": "function"
    },
    {
      "inputs": [
        {
          "internalType": "uint256",
          "name": "_amount",
          "type": "uint256"
        }
      ],
      "name": "freeFunds",
      "outputs": [],
      "stateMutability": "nonpayable",
      "type": "function"
    },
    {
      "inputs": [],
      "name": "harvestAndReport",
      "outputs": [
        {
          "internalType": "uint256",
          "name": "",
          "type": "uint256"
        }
      ],
      "stateMutability": "nonpayable",
      "type": "function"
    },
    {
      "inputs": [],
      "name": "investor",
      "outputs": [
        {
          "internalType": "contract IInvestor",
          "name": "",
          "type": "address"
        }
      ],
      "stateMutability": "view",
      "type": "function"
    },
    {
      "inputs": [
        {
          "internalType": "uint256",
          "name": "_amount",
          "type": "uint256"
        }
      ],
      "name": "shutdownWithdraw",
      "outputs": [],
      "stateMutability": "nonpayable",
      "type": "function"
    },
    {
      "inputs": [
        {
          "internalType": "uint256",
          "name": "_totalIdle",
          "type": "uint256"
        }
      ],
      "name": "tendThis",
      "outputs": [],
      "stateMutability": "nonpayable",
      "type": "function"
    },
    {
      "inputs": [],
      "name": "tendTrigger",
      "outputs": [
        {
          "internalType": "bool",
          "name": "",
          "type": "bool"
        },
        {
          "internalType": "bytes",
          "name": "",
          "type": "bytes"
        }
      ],
      "stateMutability": "view",
      "type": "function"
    },
    {
      "inputs": [],
      "name": "tokenizedStrategyAddress",
      "outputs": [
        {
          "internalType": "address",
          "name": "",
          "type": "address"
        }
      ],
      "stateMutability": "view",
      "type": "function"
    }
  ],
  "transactionHash": "0x011571e3d0c26db782b41005756baf8c883d59652abea55f6bddf521e39048fb",
  "args": [
    "0x4d4b6237CA7CD8Ce3376517Aed54Ba2734c8a520",
    "0x49d3f7543335cf38Fa10889CCFF10207e22110B5",
    "FXD: Direct Incentive - Educational Strategy 1",
    "0x21B5a34F8ae0387f247E9b01bA1B5c5B8A48971F"
  ],
  "numDeployments": 1,
  "solcInputHash": "f7419bef3f7b79b6be045b705fb06756",
  "bytecode": "0x61010060405234801561001157600080fd5b5060405161093738038061093783398101604081905261003091610203565b6001600160a01b0380841660c05281166080523060a05260405183908390839061009d9061006a90859085903390819081906024016102e4565b60408051601f198184030181529190526020810180516001600160e01b03908116632ecfe31560e01b1790915261013016565b507f360894a13ba1a3210667c828492db98dca3e2076cc3735a920a3ca505d382bbc5550506001600160a01b03841661011c5760405162461bcd60e51b815260206004820152601e60248201527f496e766573746f7253747261746567793a207a65726f20616464726573730000604482015260640160405180910390fd5b5050506001600160a01b031660e052610359565b60606000806080516001600160a01b03168460405161014f919061033d565b600060405180830381855af49150503d806000811461018a576040519150601f19603f3d011682016040523d82523d6000602084013e61018f565b606091505b5091509150816101a6576040513d806000833e8082fd5b9392505050565b80516001600160a01b03811681146101c457600080fd5b919050565b634e487b7160e01b600052604160045260246000fd5b60005b838110156101fa5781810151838201526020016101e2565b50506000910152565b6000806000806080858703121561021957600080fd5b610222856101ad565b9350610230602086016101ad565b60408601519093506001600160401b038082111561024d57600080fd5b818701915087601f83011261026157600080fd5b815181811115610273576102736101c9565b604051601f8201601f19908116603f0116810190838211818310171561029b5761029b6101c9565b816040528281528a60208487010111156102b457600080fd5b6102c58360208301602088016101df565b80965050505050506102d9606086016101ad565b905092959194509250565b600060018060a01b03808816835260a0602084015286518060a08501526103128160c0860160208b016101df565b95811660408401529384166060830152509116608082015260c0601f909201601f1916010192915050565b6000825161034f8184602087016101df565b9190910192915050565b60805160a05160c05160e0516105916103a660003960008181610100015261033d01526000818161028901526103d7015260006101be0152600081816090015261019801526105916000f3fe608060405234801561001057600080fd5b506004361061008e5760003560e01c806304bd4629146100d55780631e0018d6146100fb5780633d6cb5751461012f57806346aa2f121461014257806349317f1d14610155578063503160d91461012f5780635d265d3f1461015d5780639d7fb70c1461012f578063d19a3bb814610193578063fde813a81461012f575b7f00000000000000000000000000000000000000000000000000000000000000003660008037600080366000845af43d6000803e8080156100ce573d6000f35b3d6000fd5b005b6100e86100e336600461044d565b6101ba565b6040519081526020015b60405180910390f35b6101227f000000000000000000000000000000000000000000000000000000000000000081565b6040516100f2919061047d565b6100d361013d366004610491565b610244565b6100e861015036600461044d565b61026f565b6100e861030b565b60408051600481526024810182526020810180516001600160e01b031663440368a360e01b17905290516100f2916000916104aa565b6101227f000000000000000000000000000000000000000000000000000000000000000081565b60007f00000000000000000000000000000000000000000000000000000000000000006001600160a01b0316639aa7df946040518163ffffffff1660e01b8152600401602060405180830381865afa15801561021a573d6000803e3d6000fd5b505050506040513d601f19601f8201168201806040525081019061023e9190610502565b92915050565b33301461026c5760405162461bcd60e51b81526004016102639061051b565b60405180910390fd5b50565b6040516370a0823160e01b81526000906001600160a01b037f000000000000000000000000000000000000000000000000000000000000000016906370a08231906102be90309060040161047d565b602060405180830381865afa1580156102db573d6000803e3d6000fd5b505050506040513d601f19601f820116820180604052508101906102ff9190610502565b61023e9060001961053a565b600033301461032c5760405162461bcd60e51b81526004016102639061051b565b610334610339565b905090565b60007f00000000000000000000000000000000000000000000000000000000000000006001600160a01b031663529c21a06040518163ffffffff1660e01b81526004016020604051808303816000875af115801561039b573d6000803e3d6000fd5b505050506040513d601f19601f820116820180604052508101906103bf9190610502565b506040516370a0823160e01b81526001600160a01b037f000000000000000000000000000000000000000000000000000000000000000016906370a082319061040c90309060040161047d565b602060405180830381865afa158015610429573d6000803e3d6000fd5b505050506040513d601f19601f820116820180604052508101906103349190610502565b60006020828403121561045f57600080fd5b81356001600160a01b038116811461047657600080fd5b9392505050565b6001600160a01b0391909116815260200190565b6000602082840312156104a357600080fd5b5035919050565b821515815260006020604081840152835180604085015260005b818110156104e0578581018301518582016060015282016104c4565b506000606082860101526060601f19601f830116850101925050509392505050565b60006020828403121561051457600080fd5b5051919050565b60208082526005908201526410b9b2b63360d91b604082015260600190565b8181038181111561023e57634e487b7160e01b600052601160045260246000fdfea26469706673582212201c35c693e5dd8b28e3626ce49d3e1cd2943517759946720096277be2f673fecf64736f6c63430008130033",
  "devdoc": {
    "kind": "dev",
    "methods": {
      "availableDepositLimit(address)": {
        "details": "Defaults to an unlimited amount for any address. But can be overridden by strategists. This function will be called before any deposit or mints to enforce any limits desired by the strategist. This can be used for either a traditional deposit limit or for implementing a whitelist etc.   EX:      if(isAllowed[_owner]) return super.availableDepositLimit(_owner); This does not need to take into account any conversion rates from shares to assets. But should know that any non max uint256 amounts may be converted to shares. So it is recommended to keep custom amounts low enough as not to cause overflow when multiplied by `totalSupply`.",
        "params": {
          "": ". The address that is depositing into the strategy."
        },
        "returns": {
          "_0": ". The available amount the `_owner` can deposit in terms of `asset`"
        }
      },
      "availableWithdrawLimit(address)": {
        "details": "Defaults to an unlimited amount for any address. But can be overridden by strategists. This function will be called before any withdraw or redeem to enforce any limits desired by the strategist. This can be used for illiquid or sandwichable strategies. It should never be lower than `totalIdle`.   EX:       return TokenIzedStrategy.totalIdle(); This does not need to take into account the `_owner`'s share balance or conversion rates from shares to assets.",
        "params": {
          "": ". The address that is withdrawing from the strategy."
        },
        "returns": {
          "_0": ". The available amount that can be withdrawn in terms of `asset`"
        }
      },
      "deployFunds(uint256)": {
        "details": "Callback for the TokenizedStrategy to call during a {deposit} or {mint} to tell the strategy it can deploy funds. Since this can only be called after a {deposit} or {mint} delegateCall to the TokenizedStrategy msg.sender == address(this). Unless a whitelist is implemented this will be entirely permissionless and thus can be sandwiched or otherwise manipulated.",
        "params": {
          "_amount": "The amount of 'asset' that the strategy should attempt to deposit in the yield source."
        }
      },
      "freeFunds(uint256)": {
        "details": "Callback for the TokenizedStrategy to call during a withdraw or redeem to free the needed funds to service the withdraw. This can only be called after a 'withdraw' or 'redeem' delegateCall to the TokenizedStrategy so msg.sender == address(this).",
        "params": {
          "_amount": "The amount of 'asset' that the strategy should attempt to free up."
        }
      },
      "harvestAndReport()": {
        "details": "Callback for the TokenizedStrategy to call during a report to get an accurate accounting of assets the strategy controls. This can only be called after a report() delegateCall to the TokenizedStrategy so msg.sender == address(this).",
        "returns": {
          "_0": ". A trusted and accurate account for the total amount of 'asset' the strategy currently holds including idle funds."
        }
      },
      "shutdownWithdraw(uint256)": {
        "details": "Callback for the TokenizedStrategy during an emergency withdraw. This can only be called after a emergencyWithdraw() delegateCall to the TokenizedStrategy so msg.sender == address(this). We name the function `shutdownWithdraw` so that `emergencyWithdraw` calls are forwarded to the TokenizedStrategy so it can do the necessary accounting after the withdraw.",
        "params": {
          "_amount": "The amount of asset to attempt to free."
        }
      },
      "tendThis(uint256)": {
        "details": "Callback for the TokenizedStrategy to initiate a _tend call in the strategy. This can only be called after a tend() delegateCall to the TokenizedStrategy so msg.sender == address(this). We name the function `tendThis` so that `tend` calls are forwarded to the TokenizedStrategy so it can do the necessary accounting.",
        "params": {
          "_totalIdle": "The amount of current idle funds that can be deployed during the tend"
        }
      },
      "tendTrigger()": {
        "returns": {
          "_0": ". Should return true if tend() should be called by keeper or false if not.",
          "_1": ". Calldata for the tend call."
        }
      }
    },
    "version": 1
  },
  "userdoc": {
    "kind": "user",
    "methods": {
      "availableDepositLimit(address)": {
        "notice": "Gets the max amount of `asset` that an address can deposit."
      },
      "availableWithdrawLimit(address)": {
        "notice": "Gets the max amount of `asset` that can be withdrawn."
      },
      "deployFunds(uint256)": {
        "notice": "Should deploy up to '_amount' of 'asset' in yield source."
      },
      "freeFunds(uint256)": {
        "notice": "Will attempt to free the '_amount' of 'asset'."
      },
      "harvestAndReport()": {
        "notice": "Returns the accurate amount of all funds currently held by the Strategy."
      },
      "shutdownWithdraw(uint256)": {
        "notice": "Will call the internal '_emergencyWithdraw' function."
      },
      "tendThis(uint256)": {
        "notice": "Will call the internal '_tend' when a keeper tends the strategy."
      },
      "tendTrigger()": {
        "notice": "Returns if tend() should be called by a keeper."
      },
      "tokenizedStrategyAddress()": {
        "notice": "This is the address of the TokenizedStrategy implementation contract that will be used by all strategies to handle the accounting, logic, storage etc. Any external calls to the that don't hit one of the functions defined in this base or the strategy will end up being forwarded through the fallback function, which will delegateCall this address. This address should be the same for every strategy, never be adjusted and always be checked before any integration with the Strategy."
      }
    },
    "version": 1
  },
  "storageLayout": {
    "storage": [],
    "types": null
  }
}