{
  "_format": "hh-sol-artifact-1",
  "contractName": "Token",
  "sourceName": "contracts/test/mocks/Token.sol",
  "abi": [
    {
      "inputs": [
        {
          "internalType": "string",
          "name": "_name",
          "type": "string"
        },
        {
          "internalType": "uint8",
          "name": "_decimals",
          "type": "uint8"
        }
      ],
      "stateMutability": "nonpayable",
      "type": "constructor"
    },
    {
      "anonymous": false,
      "inputs": [
        {
          "indexed": true,
          "internalType": "address",
          "name": "owner",
          "type": "address"
        },
        {
          "indexed": true,
          "internalType": "address",
          "name": "spender",
          "type": "address"
        },
        {
          "indexed": false,
          "internalType": "uint256",
          "name": "value",
          "type": "uint256"
        }
      ],
      "name": "Approval",
      "type": "event"
    },
    {
      "anonymous": false,
      "inputs": [
        {
          "indexed": true,
          "internalType": "address",
          "name": "from",
          "type": "address"
        },
        {
          "indexed": true,
          "internalType": "address",
          "name": "to",
          "type": "address"
        },
        {
          "indexed": false,
          "internalType": "uint256",
          "name": "value",
          "type": "uint256"
        }
      ],
      "name": "Transfer",
      "type": "event"
    },
    {
      "inputs": [
        {
          "internalType": "address",
          "name": "owner",
          "type": "address"
        },
        {
          "internalType": "address",
          "name": "spender",
          "type": "address"
        }
      ],
      "name": "allowance",
      "outputs": [
        {
          "internalType": "uint256",
          "name": "",
          "type": "uint256"
        }
      ],
      "stateMutability": "view",
      "type": "function"
    },
    {
      "inputs": [
        {
          "internalType": "address",
          "name": "spender",
          "type": "address"
        },
        {
          "internalType": "uint256",
          "name": "amount",
          "type": "uint256"
        }
      ],
      "name": "approve",
      "outputs": [
        {
          "internalType": "bool",
          "name": "",
          "type": "bool"
        }
      ],
      "stateMutability": "nonpayable",
      "type": "function"
    },
    {
      "inputs": [
        {
          "internalType": "address",
          "name": "account",
          "type": "address"
        }
      ],
      "name": "balanceOf",
      "outputs": [
        {
          "internalType": "uint256",
          "name": "",
          "type": "uint256"
        }
      ],
      "stateMutability": "view",
      "type": "function"
    },
    {
      "inputs": [],
      "name": "decimals",
      "outputs": [
        {
          "internalType": "uint8",
          "name": "",
          "type": "uint8"
        }
      ],
      "stateMutability": "view",
      "type": "function"
    },
    {
      "inputs": [],
      "name": "decimals_",
      "outputs": [
        {
          "internalType": "uint8",
          "name": "",
          "type": "uint8"
        }
      ],
      "stateMutability": "view",
      "type": "function"
    },
    {
      "inputs": [
        {
          "internalType": "address",
          "name": "spender",
          "type": "address"
        },
        {
          "internalType": "uint256",
          "name": "subtractedValue",
          "type": "uint256"
        }
      ],
      "name": "decreaseAllowance",
      "outputs": [
        {
          "internalType": "bool",
          "name": "",
          "type": "bool"
        }
      ],
      "stateMutability": "nonpayable",
      "type": "function"
    },
    {
      "inputs": [
        {
          "internalType": "address",
          "name": "spender",
          "type": "address"
        },
        {
          "internalType": "uint256",
          "name": "addedValue",
          "type": "uint256"
        }
      ],
      "name": "increaseAllowance",
      "outputs": [
        {
          "internalType": "bool",
          "name": "",
          "type": "bool"
        }
      ],
      "stateMutability": "nonpayable",
      "type": "function"
    },
    {
      "inputs": [
        {
          "internalType": "address",
          "name": "_to",
          "type": "address"
        },
        {
          "internalType": "uint256",
          "name": "_amount",
          "type": "uint256"
        }
      ],
      "name": "mint",
      "outputs": [],
      "stateMutability": "nonpayable",
      "type": "function"
    },
    {
      "inputs": [],
      "name": "name",
      "outputs": [
        {
          "internalType": "string",
          "name": "",
          "type": "string"
        }
      ],
      "stateMutability": "view",
      "type": "function"
    },
    {
      "inputs": [],
      "name": "symbol",
      "outputs": [
        {
          "internalType": "string",
          "name": "",
          "type": "string"
        }
      ],
      "stateMutability": "view",
      "type": "function"
    },
    {
      "inputs": [],
      "name": "totalSupply",
      "outputs": [
        {
          "internalType": "uint256",
          "name": "",
          "type": "uint256"
        }
      ],
      "stateMutability": "view",
      "type": "function"
    },
    {
      "inputs": [
        {
          "internalType": "address",
          "name": "to",
          "type": "address"
        },
        {
          "internalType": "uint256",
          "name": "amount",
          "type": "uint256"
        }
      ],
      "name": "transfer",
      "outputs": [
        {
          "internalType": "bool",
          "name": "",
          "type": "bool"
        }
      ],
      "stateMutability": "nonpayable",
      "type": "function"
    },
    {
      "inputs": [
        {
          "internalType": "address",
          "name": "from",
          "type": "address"
        },
        {
          "internalType": "address",
          "name": "to",
          "type": "address"
        },
        {
          "internalType": "uint256",
          "name": "amount",
          "type": "uint256"
        }
      ],
      "name": "transferFrom",
      "outputs": [
        {
          "internalType": "bool",
          "name": "",
          "type": "bool"
        }
      ],
      "stateMutability": "nonpayable",
      "type": "function"
    }
  ],
  "bytecode": "0x60806040523480156200001157600080fd5b5060405162000c4038038062000c408339810160408190526200003491620000a0565b8180600362000044828262000217565b50600462000053828262000217565b50506005805460ff191660ff939093169290921790915550620002e39050565b634e487b7160e01b600052604160045260246000fd5b805160ff811681146200009b57600080fd5b919050565b60008060408385031215620000b457600080fd5b82516001600160401b0380821115620000cc57600080fd5b818501915085601f830112620000e157600080fd5b815181811115620000f657620000f662000073565b604051601f8201601f19908116603f0116810190838211818310171562000121576200012162000073565b816040528281526020935088848487010111156200013e57600080fd5b600091505b8282101562000162578482018401518183018501529083019062000143565b60008484830101528096505050506200017d81860162000089565b925050509250929050565b600181811c908216806200019d57607f821691505b602082108103620001be57634e487b7160e01b600052602260045260246000fd5b50919050565b601f8211156200021257600081815260208120601f850160051c81016020861015620001ed5750805b601f850160051c820191505b818110156200020e57828155600101620001f9565b5050505b505050565b81516001600160401b0381111562000233576200023362000073565b6200024b8162000244845462000188565b84620001c4565b602080601f8311600181146200028357600084156200026a5750858301515b600019600386901b1c1916600185901b1785556200020e565b600085815260208120601f198616915b82811015620002b45788860151825594840194600190910190840162000293565b5085821015620002d35787850151600019600388901b60f8161c191681555b5050505050600190811b01905550565b61094d80620002f36000396000f3fe608060405234801561001057600080fd5b50600436106100af5760003560e01c806306fdde03146100b4578063095ea7b3146100d257806318160ddd146100f557806323b872dd14610107578063313ce5671461011a578063395093511461013357806340c10f191461014657806370a082311461015b57806395d89b4114610184578063a457c2d71461018c578063a9059cbb1461019f578063dd62ed3e146101b2578063f785ef72146101c5575b600080fd5b6100bc6101d2565b6040516100c99190610777565b60405180910390f35b6100e56100e03660046107e1565b610264565b60405190151581526020016100c9565b6002545b6040519081526020016100c9565b6100e561011536600461080b565b61027e565b60055460ff165b60405160ff90911681526020016100c9565b6100e56101413660046107e1565b6102a2565b6101596101543660046107e1565b6102c4565b005b6100f9610169366004610847565b6001600160a01b031660009081526020819052604090205490565b6100bc6102d2565b6100e561019a3660046107e1565b6102e1565b6100e56101ad3660046107e1565b610361565b6100f96101c0366004610869565b61036f565b6005546101219060ff1681565b6060600380546101e19061089c565b80601f016020809104026020016040519081016040528092919081815260200182805461020d9061089c565b801561025a5780601f1061022f5761010080835404028352916020019161025a565b820191906000526020600020905b81548152906001019060200180831161023d57829003601f168201915b5050505050905090565b60003361027281858561039a565b60019150505b92915050565b60003361028c8582856104be565b610297858585610538565b506001949350505050565b6000336102728185856102b5838361036f565b6102bf91906108d6565b61039a565b6102ce82826106ca565b5050565b6060600480546101e19061089c565b600033816102ef828661036f565b9050838110156103545760405162461bcd60e51b815260206004820152602560248201527f45524332303a2064656372656173656420616c6c6f77616e63652062656c6f77604482015264207a65726f60d81b60648201526084015b60405180910390fd5b610297828686840361039a565b600033610272818585610538565b6001600160a01b03918216600090815260016020908152604080832093909416825291909152205490565b6001600160a01b0383166103fc5760405162461bcd60e51b8152602060048201526024808201527f45524332303a20617070726f76652066726f6d20746865207a65726f206164646044820152637265737360e01b606482015260840161034b565b6001600160a01b03821661045d5760405162461bcd60e51b815260206004820152602260248201527f45524332303a20617070726f766520746f20746865207a65726f206164647265604482015261737360f01b606482015260840161034b565b6001600160a01b0383811660008181526001602090815260408083209487168084529482529182902085905590518481527f8c5be1e5ebec7d5bd14f71427d1e84f3dd0314c0f7b2291e5b200ac8c7c3b925910160405180910390a3505050565b60006104ca848461036f565b9050600019811461053257818110156105255760405162461bcd60e51b815260206004820152601d60248201527f45524332303a20696e73756666696369656e7420616c6c6f77616e6365000000604482015260640161034b565b610532848484840361039a565b50505050565b6001600160a01b03831661059c5760405162461bcd60e51b815260206004820152602560248201527f45524332303a207472616e736665722066726f6d20746865207a65726f206164604482015264647265737360d81b606482015260840161034b565b6001600160a01b0382166105fe5760405162461bcd60e51b815260206004820152602360248201527f45524332303a207472616e7366657220746f20746865207a65726f206164647260448201526265737360e81b606482015260840161034b565b6001600160a01b038316600090815260208190526040902054818110156106765760405162461bcd60e51b815260206004820152602660248201527f45524332303a207472616e7366657220616d6f756e7420657863656564732062604482015265616c616e636560d01b606482015260840161034b565b6001600160a01b03848116600081815260208181526040808320878703905593871680835291849020805487019055925185815290926000805160206108f8833981519152910160405180910390a3610532565b6001600160a01b0382166107205760405162461bcd60e51b815260206004820152601f60248201527f45524332303a206d696e7420746f20746865207a65726f206164647265737300604482015260640161034b565b806002600082825461073291906108d6565b90915550506001600160a01b038216600081815260208181526040808320805486019055518481526000805160206108f8833981519152910160405180910390a35050565b600060208083528351808285015260005b818110156107a457858101830151858201604001528201610788565b506000604082860101526040601f19601f8301168501019250505092915050565b80356001600160a01b03811681146107dc57600080fd5b919050565b600080604083850312156107f457600080fd5b6107fd836107c5565b946020939093013593505050565b60008060006060848603121561082057600080fd5b610829846107c5565b9250610837602085016107c5565b9150604084013590509250925092565b60006020828403121561085957600080fd5b610862826107c5565b9392505050565b6000806040838503121561087c57600080fd5b610885836107c5565b9150610893602084016107c5565b90509250929050565b600181811c908216806108b057607f821691505b6020821081036108d057634e487b7160e01b600052602260045260246000fd5b50919050565b8082018082111561027857634e487b7160e01b600052601160045260246000fdfeddf252ad1be2c89b69c2b068fc378daa952ba7f163c4a11628f55a4df523b3efa26469706673582212205c0ca07d1211107640c3b3bbf377c8474ea26d5c2c99a96fbb877e8fd803325964736f6c63430008130033",
  "linkReferences": {},
  "deployedLinkReferences": {}
}