{
  "_format": "hh-sol-artifact-1",
  "contractName": "VaultPackage",
  "sourceName": "contracts/vault/packages/VaultPackage.sol",
  "abi": [
    {
      "inputs": [],
      "name": "AlreadyInitialized",
      "type": "error"
    },
    {
      "inputs": [],
      "name": "AmountTooHigh",
      "type": "error"
    },
    {
      "inputs": [],
      "name": "DebtDidntChange",
      "type": "error"
    },
    {
      "inputs": [
        {
          "internalType": "address",
          "name": "strategy",
          "type": "address"
        }
      ],
      "name": "DuplicateStrategy",
      "type": "error"
    },
    {
      "inputs": [
        {
          "internalType": "uint256",
          "name": "currentAllowance",
          "type": "uint256"
        }
      ],
      "name": "ERC20InsufficientAllowance",
      "type": "error"
    },
    {
      "inputs": [],
      "name": "ERC20PermitExpired",
      "type": "error"
    },
    {
      "inputs": [
        {
          "internalType": "address",
          "name": "recoveredAddress",
          "type": "address"
        }
      ],
      "name": "ERC20PermitInvalidSignature",
      "type": "error"
    },
    {
      "inputs": [
        {
          "internalType": "uint256",
          "name": "recipientMaxDeposit",
          "type": "uint256"
        }
      ],
      "name": "ExceedDepositLimit",
      "type": "error"
    },
    {
      "inputs": [
        {
          "internalType": "uint256",
          "name": "recipientMaxWithdraw",
          "type": "uint256"
        }
      ],
      "name": "ExceedWithdrawLimit",
      "type": "error"
    },
    {
      "inputs": [
        {
          "internalType": "address",
          "name": "strategy",
          "type": "address"
        }
      ],
      "name": "InactiveStrategy",
      "type": "error"
    },
    {
      "inputs": [],
      "name": "InactiveVault",
      "type": "error"
    },
    {
      "inputs": [
        {
          "internalType": "uint256",
          "name": "currTotalIdle",
          "type": "uint256"
        },
        {
          "internalType": "uint256",
          "name": "requestedAssets",
          "type": "uint256"
        }
      ],
      "name": "InsufficientAssets",
      "type": "error"
    },
    {
      "inputs": [],
      "name": "InsufficientFunds",
      "type": "error"
    },
    {
      "inputs": [
        {
          "internalType": "uint256",
          "name": "balanceOfOwner",
          "type": "uint256"
        }
      ],
      "name": "InsufficientShares",
      "type": "error"
    },
    {
      "inputs": [
        {
          "internalType": "address",
          "name": "asset",
          "type": "address"
        }
      ],
      "name": "InvalidAsset",
      "type": "error"
    },
    {
      "inputs": [],
      "name": "MinDepositNotReached",
      "type": "error"
    },
    {
      "inputs": [],
      "name": "NonCompliantDeposit",
      "type": "error"
    },
    {
      "inputs": [],
      "name": "ProfitUnlockTimeTooLong",
      "type": "error"
    },
    {
      "inputs": [],
      "name": "QueueTooLong",
      "type": "error"
    },
    {
      "inputs": [],
      "name": "SameAccountant",
      "type": "error"
    },
    {
      "inputs": [],
      "name": "SelfApprove",
      "type": "error"
    },
    {
      "inputs": [],
      "name": "SelfTransfer",
      "type": "error"
    },
    {
      "inputs": [],
      "name": "StrategyAlreadyActive",
      "type": "error"
    },
    {
      "inputs": [
        {
          "internalType": "uint256",
          "name": "strageyCurrentDebt",
          "type": "uint256"
        }
      ],
      "name": "StrategyDebtIsLessThanAssetsNeeded",
      "type": "error"
    },
    {
      "inputs": [
        {
          "internalType": "uint256",
          "name": "debt",
          "type": "uint256"
        }
      ],
      "name": "StrategyHasDebt",
      "type": "error"
    },
    {
      "inputs": [],
      "name": "TooMuchLoss",
      "type": "error"
    },
    {
      "inputs": [],
      "name": "UsingDepositLimit",
      "type": "error"
    },
    {
      "inputs": [],
      "name": "UsingModule",
      "type": "error"
    },
    {
      "inputs": [],
      "name": "VaultReceiver",
      "type": "error"
    },
    {
      "inputs": [],
      "name": "ZeroAddress",
      "type": "error"
    },
    {
      "inputs": [],
      "name": "ZeroValue",
      "type": "error"
    },
    {
      "anonymous": false,
      "inputs": [
        {
          "indexed": true,
          "internalType": "address",
          "name": "owner",
          "type": "address"
        },
        {
          "indexed": true,
          "internalType": "address",
          "name": "spender",
          "type": "address"
        },
        {
          "indexed": false,
          "internalType": "uint256",
          "name": "value",
          "type": "uint256"
        }
      ],
      "name": "Approval",
      "type": "event"
    },
    {
      "anonymous": false,
      "inputs": [
        {
          "indexed": true,
          "internalType": "address",
          "name": "strategy",
          "type": "address"
        },
        {
          "indexed": false,
          "internalType": "uint256",
          "name": "amount",
          "type": "uint256"
        }
      ],
      "name": "DebtPurchased",
      "type": "event"
    },
    {
      "anonymous": false,
      "inputs": [
        {
          "indexed": true,
          "internalType": "address",
          "name": "strategy",
          "type": "address"
        },
        {
          "indexed": false,
          "internalType": "uint256",
          "name": "currentDebt",
          "type": "uint256"
        },
        {
          "indexed": false,
          "internalType": "uint256",
          "name": "newDebt",
          "type": "uint256"
        }
      ],
      "name": "DebtUpdated",
      "type": "event"
    },
    {
      "anonymous": false,
      "inputs": [
        {
          "indexed": true,
          "internalType": "address",
          "name": "sender",
          "type": "address"
        },
        {
          "indexed": true,
          "internalType": "address",
          "name": "owner",
          "type": "address"
        },
        {
          "indexed": false,
          "internalType": "uint256",
          "name": "assets",
          "type": "uint256"
        },
        {
          "indexed": false,
          "internalType": "uint256",
          "name": "shares",
          "type": "uint256"
        }
      ],
      "name": "Deposit",
      "type": "event"
    },
    {
      "anonymous": false,
      "inputs": [
        {
          "indexed": true,
          "internalType": "bytes32",
          "name": "role",
          "type": "bytes32"
        },
        {
          "indexed": true,
          "internalType": "bytes32",
          "name": "previousAdminRole",
          "type": "bytes32"
        },
        {
          "indexed": true,
          "internalType": "bytes32",
          "name": "newAdminRole",
          "type": "bytes32"
        }
      ],
      "name": "RoleAdminChanged",
      "type": "event"
    },
    {
      "anonymous": false,
      "inputs": [
        {
          "indexed": true,
          "internalType": "bytes32",
          "name": "role",
          "type": "bytes32"
        },
        {
          "indexed": true,
          "internalType": "address",
          "name": "account",
          "type": "address"
        },
        {
          "indexed": true,
          "internalType": "address",
          "name": "sender",
          "type": "address"
        }
      ],
      "name": "RoleGranted",
      "type": "event"
    },
    {
      "anonymous": false,
      "inputs": [
        {
          "indexed": true,
          "internalType": "bytes32",
          "name": "role",
          "type": "bytes32"
        },
        {
          "indexed": true,
          "internalType": "address",
          "name": "account",
          "type": "address"
        },
        {
          "indexed": true,
          "internalType": "address",
          "name": "sender",
          "type": "address"
        }
      ],
      "name": "RoleRevoked",
      "type": "event"
    },
    {
      "anonymous": false,
      "inputs": [],
      "name": "Shutdown",
      "type": "event"
    },
    {
      "anonymous": false,
      "inputs": [
        {
          "indexed": true,
          "internalType": "address",
          "name": "strategy",
          "type": "address"
        },
        {
          "indexed": false,
          "internalType": "enum StrategyChangeType",
          "name": "changeType",
          "type": "uint8"
        }
      ],
      "name": "StrategyChanged",
      "type": "event"
    },
    {
      "anonymous": false,
      "inputs": [
        {
          "indexed": true,
          "internalType": "address",
          "name": "strategy",
          "type": "address"
        },
        {
          "indexed": false,
          "internalType": "uint256",
          "name": "gain",
          "type": "uint256"
        },
        {
          "indexed": false,
          "internalType": "uint256",
          "name": "loss",
          "type": "uint256"
        },
        {
          "indexed": false,
          "internalType": "uint256",
          "name": "currentDebt",
          "type": "uint256"
        },
        {
          "indexed": false,
          "internalType": "uint256",
          "name": "protocolFees",
          "type": "uint256"
        },
        {
          "indexed": false,
          "internalType": "uint256",
          "name": "totalFees",
          "type": "uint256"
        },
        {
          "indexed": false,
          "internalType": "uint256",
          "name": "totalRefunds",
          "type": "uint256"
        }
      ],
      "name": "StrategyReported",
      "type": "event"
    },
    {
      "anonymous": false,
      "inputs": [
        {
          "indexed": true,
          "internalType": "address",
          "name": "from",
          "type": "address"
        },
        {
          "indexed": true,
          "internalType": "address",
          "name": "to",
          "type": "address"
        },
        {
          "indexed": false,
          "internalType": "uint256",
          "name": "value",
          "type": "uint256"
        }
      ],
      "name": "Transfer",
      "type": "event"
    },
    {
      "anonymous": false,
      "inputs": [
        {
          "indexed": false,
          "internalType": "address",
          "name": "accountant",
          "type": "address"
        }
      ],
      "name": "UpdatedAccountant",
      "type": "event"
    },
    {
      "anonymous": false,
      "inputs": [
        {
          "indexed": false,
          "internalType": "address[]",
          "name": "newDefaultQueue",
          "type": "address[]"
        }
      ],
      "name": "UpdatedDefaultQueue",
      "type": "event"
    },
    {
      "anonymous": false,
      "inputs": [
        {
          "indexed": false,
          "internalType": "uint256",
          "name": "depositLimit",
          "type": "uint256"
        }
      ],
      "name": "UpdatedDepositLimit",
      "type": "event"
    },
    {
      "anonymous": false,
      "inputs": [
        {
          "indexed": false,
          "internalType": "address",
          "name": "depositLimitModule",
          "type": "address"
        }
      ],
      "name": "UpdatedDepositLimitModule",
      "type": "event"
    },
    {
      "anonymous": false,
      "inputs": [
        {
          "indexed": true,
          "internalType": "address",
          "name": "sender",
          "type": "address"
        },
        {
          "indexed": true,
          "internalType": "address",
          "name": "strategy",
          "type": "address"
        },
        {
          "indexed": false,
          "internalType": "uint256",
          "name": "newDebt",
          "type": "uint256"
        }
      ],
      "name": "UpdatedMaxDebtForStrategy",
      "type": "event"
    },
    {
      "anonymous": false,
      "inputs": [
        {
          "indexed": false,
          "internalType": "uint256",
          "name": "minUserDeposit",
          "type": "uint256"
        }
      ],
      "name": "UpdatedMinUserDeposit",
      "type": "event"
    },
    {
      "anonymous": false,
      "inputs": [
        {
          "indexed": false,
          "internalType": "uint256",
          "name": "minimumTotalIdle",
          "type": "uint256"
        }
      ],
      "name": "UpdatedMinimumTotalIdle",
      "type": "event"
    },
    {
      "anonymous": false,
      "inputs": [
        {
          "indexed": false,
          "internalType": "uint256",
          "name": "profitMaxUnlockTime",
          "type": "uint256"
        }
      ],
      "name": "UpdatedProfitMaxUnlockTime",
      "type": "event"
    },
    {
      "anonymous": false,
      "inputs": [
        {
          "indexed": false,
          "internalType": "bool",
          "name": "useDefaultQueue",
          "type": "bool"
        }
      ],
      "name": "UpdatedUseDefaultQueue",
      "type": "event"
    },
    {
      "anonymous": false,
      "inputs": [
        {
          "indexed": false,
          "internalType": "address",
          "name": "withdrawLimitModule",
          "type": "address"
        }
      ],
      "name": "UpdatedWithdrawLimitModule",
      "type": "event"
    },
    {
      "anonymous": false,
      "inputs": [
        {
          "indexed": true,
          "internalType": "address",
          "name": "sender",
          "type": "address"
        },
        {
          "indexed": true,
          "internalType": "address",
          "name": "receiver",
          "type": "address"
        },
        {
          "indexed": true,
          "internalType": "address",
          "name": "owner",
          "type": "address"
        },
        {
          "indexed": false,
          "internalType": "uint256",
          "name": "assets",
          "type": "uint256"
        },
        {
          "indexed": false,
          "internalType": "uint256",
          "name": "shares",
          "type": "uint256"
        }
      ],
      "name": "Withdraw",
      "type": "event"
    },
    {
      "inputs": [],
      "name": "DEBT_PURCHASER",
      "outputs": [
        {
          "internalType": "bytes32",
          "name": "",
          "type": "bytes32"
        }
      ],
      "stateMutability": "view",
      "type": "function"
    },
    {
      "inputs": [],
      "name": "DEFAULT_ADMIN_ROLE",
      "outputs": [
        {
          "internalType": "bytes32",
          "name": "",
          "type": "bytes32"
        }
      ],
      "stateMutability": "view",
      "type": "function"
    },
    {
      "inputs": [],
      "name": "DOMAIN_SEPARATOR",
      "outputs": [
        {
          "internalType": "bytes32",
          "name": "",
          "type": "bytes32"
        }
      ],
      "stateMutability": "view",
      "type": "function"
    },
    {
      "inputs": [],
      "name": "DOMAIN_TYPE_HASH",
      "outputs": [
        {
          "internalType": "bytes32",
          "name": "",
          "type": "bytes32"
        }
      ],
      "stateMutability": "view",
      "type": "function"
    },
    {
      "inputs": [],
      "name": "MAX_BPS",
      "outputs": [
        {
          "internalType": "uint256",
          "name": "",
          "type": "uint256"
        }
      ],
      "stateMutability": "view",
      "type": "function"
    },
    {
      "inputs": [],
      "name": "MAX_BPS_EXTENDED",
      "outputs": [
        {
          "internalType": "uint256",
          "name": "",
          "type": "uint256"
        }
      ],
      "stateMutability": "view",
      "type": "function"
    },
    {
      "inputs": [],
      "name": "MAX_QUEUE",
      "outputs": [
        {
          "internalType": "uint256",
          "name": "",
          "type": "uint256"
        }
      ],
      "stateMutability": "view",
      "type": "function"
    },
    {
      "inputs": [],
      "name": "ONE_YEAR",
      "outputs": [
        {
          "internalType": "uint256",
          "name": "",
          "type": "uint256"
        }
      ],
      "stateMutability": "view",
      "type": "function"
    },
    {
      "inputs": [],
      "name": "PERMIT_TYPE_HASH",
      "outputs": [
        {
          "internalType": "bytes32",
          "name": "",
          "type": "bytes32"
        }
      ],
      "stateMutability": "view",
      "type": "function"
    },
    {
      "inputs": [],
      "name": "REPORTING_MANAGER",
      "outputs": [
        {
          "internalType": "bytes32",
          "name": "",
          "type": "bytes32"
        }
      ],
      "stateMutability": "view",
      "type": "function"
    },
    {
      "inputs": [],
      "name": "STRATEGY_MANAGER",
      "outputs": [
        {
          "internalType": "bytes32",
          "name": "",
          "type": "bytes32"
        }
      ],
      "stateMutability": "view",
      "type": "function"
    },
    {
      "inputs": [],
      "name": "accountant",
      "outputs": [
        {
          "internalType": "address",
          "name": "",
          "type": "address"
        }
      ],
      "stateMutability": "view",
      "type": "function"
    },
    {
      "inputs": [
        {
          "internalType": "address",
          "name": "newStrategy",
          "type": "address"
        }
      ],
      "name": "addStrategy",
      "outputs": [],
      "stateMutability": "nonpayable",
      "type": "function"
    },
    {
      "inputs": [
        {
          "internalType": "address",
          "name": "owner",
          "type": "address"
        },
        {
          "internalType": "address",
          "name": "spender",
          "type": "address"
        }
      ],
      "name": "allowance",
      "outputs": [
        {
          "internalType": "uint256",
          "name": "",
          "type": "uint256"
        }
      ],
      "stateMutability": "view",
      "type": "function"
    },
    {
      "inputs": [],
      "name": "apiVersion",
      "outputs": [
        {
          "internalType": "string",
          "name": "",
          "type": "string"
        }
      ],
      "stateMutability": "pure",
      "type": "function"
    },
    {
      "inputs": [
        {
          "internalType": "address",
          "name": "spender",
          "type": "address"
        },
        {
          "internalType": "uint256",
          "name": "amount",
          "type": "uint256"
        }
      ],
      "name": "approve",
      "outputs": [
        {
          "internalType": "bool",
          "name": "",
          "type": "bool"
        }
      ],
      "stateMutability": "nonpayable",
      "type": "function"
    },
    {
      "inputs": [
        {
          "internalType": "address",
          "name": "strategy",
          "type": "address"
        },
        {
          "internalType": "uint256",
          "name": "assetsNeeded",
          "type": "uint256"
        }
      ],
      "name": "assessShareOfUnrealisedLosses",
      "outputs": [
        {
          "internalType": "uint256",
          "name": "",
          "type": "uint256"
        }
      ],
      "stateMutability": "view",
      "type": "function"
    },
    {
      "inputs": [],
      "name": "asset",
      "outputs": [
        {
          "internalType": "address",
          "name": "",
          "type": "address"
        }
      ],
      "stateMutability": "view",
      "type": "function"
    },
    {
      "inputs": [],
      "name": "assetType",
      "outputs": [
        {
          "internalType": "uint256",
          "name": "",
          "type": "uint256"
        }
      ],
      "stateMutability": "view",
      "type": "function"
    },
    {
      "inputs": [
        {
          "internalType": "address",
          "name": "addr",
          "type": "address"
        }
      ],
      "name": "balanceOf",
      "outputs": [
        {
          "internalType": "uint256",
          "name": "",
          "type": "uint256"
        }
      ],
      "stateMutability": "view",
      "type": "function"
    },
    {
      "inputs": [
        {
          "internalType": "address",
          "name": "strategy",
          "type": "address"
        },
        {
          "internalType": "uint256",
          "name": "amount",
          "type": "uint256"
        }
      ],
      "name": "buyDebt",
      "outputs": [],
      "stateMutability": "nonpayable",
      "type": "function"
    },
    {
      "inputs": [
        {
          "internalType": "uint256",
          "name": "shares",
          "type": "uint256"
        }
      ],
      "name": "convertToAssets",
      "outputs": [
        {
          "internalType": "uint256",
          "name": "",
          "type": "uint256"
        }
      ],
      "stateMutability": "view",
      "type": "function"
    },
    {
      "inputs": [
        {
          "internalType": "uint256",
          "name": "assets",
          "type": "uint256"
        }
      ],
      "name": "convertToShares",
      "outputs": [
        {
          "internalType": "uint256",
          "name": "",
          "type": "uint256"
        }
      ],
      "stateMutability": "view",
      "type": "function"
    },
    {
      "inputs": [],
      "name": "decimals",
      "outputs": [
        {
          "internalType": "uint8",
          "name": "",
          "type": "uint8"
        }
      ],
      "stateMutability": "view",
      "type": "function"
    },
    {
      "inputs": [
        {
          "internalType": "uint256",
          "name": "",
          "type": "uint256"
        }
      ],
      "name": "defaultQueue",
      "outputs": [
        {
          "internalType": "address",
          "name": "",
          "type": "address"
        }
      ],
      "stateMutability": "view",
      "type": "function"
    },
    {
      "inputs": [
        {
          "internalType": "uint256",
          "name": "assets",
          "type": "uint256"
        },
        {
          "internalType": "address",
          "name": "receiver",
          "type": "address"
        }
      ],
      "name": "deposit",
      "outputs": [
        {
          "internalType": "uint256",
          "name": "",
          "type": "uint256"
        }
      ],
      "stateMutability": "nonpayable",
      "type": "function"
    },
    {
      "inputs": [],
      "name": "depositLimit",
      "outputs": [
        {
          "internalType": "uint256",
          "name": "",
          "type": "uint256"
        }
      ],
      "stateMutability": "view",
      "type": "function"
    },
    {
      "inputs": [],
      "name": "depositLimitModule",
      "outputs": [
        {
          "internalType": "address",
          "name": "",
          "type": "address"
        }
      ],
      "stateMutability": "view",
      "type": "function"
    },
    {
      "inputs": [],
      "name": "factory",
      "outputs": [
        {
          "internalType": "address",
          "name": "",
          "type": "address"
        }
      ],
      "stateMutability": "view",
      "type": "function"
    },
    {
      "inputs": [],
      "name": "fullProfitUnlockDate",
      "outputs": [
        {
          "internalType": "uint256",
          "name": "",
          "type": "uint256"
        }
      ],
      "stateMutability": "view",
      "type": "function"
    },
    {
      "inputs": [
        {
          "internalType": "address",
          "name": "strategy",
          "type": "address"
        }
      ],
      "name": "getDebt",
      "outputs": [
        {
          "internalType": "uint256",
          "name": "",
          "type": "uint256"
        }
      ],
      "stateMutability": "view",
      "type": "function"
    },
    {
      "inputs": [],
      "name": "getDefaultQueue",
      "outputs": [
        {
          "internalType": "address[]",
          "name": "",
          "type": "address[]"
        }
      ],
      "stateMutability": "view",
      "type": "function"
    },
    {
      "inputs": [],
      "name": "getDefaultQueueLength",
      "outputs": [
        {
          "internalType": "uint256",
          "name": "length",
          "type": "uint256"
        }
      ],
      "stateMutability": "view",
      "type": "function"
    },
    {
      "inputs": [
        {
          "internalType": "bytes32",
          "name": "role",
          "type": "bytes32"
        }
      ],
      "name": "getRoleAdmin",
      "outputs": [
        {
          "internalType": "bytes32",
          "name": "",
          "type": "bytes32"
        }
      ],
      "stateMutability": "view",
      "type": "function"
    },
    {
      "inputs": [
        {
          "internalType": "bytes32",
          "name": "role",
          "type": "bytes32"
        },
        {
          "internalType": "address",
          "name": "account",
          "type": "address"
        }
      ],
      "name": "grantRole",
      "outputs": [],
      "stateMutability": "nonpayable",
      "type": "function"
    },
    {
      "inputs": [
        {
          "internalType": "bytes32",
          "name": "role",
          "type": "bytes32"
        },
        {
          "internalType": "address",
          "name": "account",
          "type": "address"
        }
      ],
      "name": "hasRole",
      "outputs": [
        {
          "internalType": "bool",
          "name": "",
          "type": "bool"
        }
      ],
      "stateMutability": "view",
      "type": "function"
    },
    {
      "inputs": [
        {
          "internalType": "uint256",
          "name": "_profitMaxUnlockTime",
          "type": "uint256"
        },
        {
          "internalType": "uint256",
          "name": "_assetType",
          "type": "uint256"
        },
        {
          "internalType": "address",
          "name": "_asset",
          "type": "address"
        },
        {
          "internalType": "string",
          "name": "_name",
          "type": "string"
        },
        {
          "internalType": "string",
          "name": "_symbol",
          "type": "string"
        },
        {
          "internalType": "address",
          "name": "_accountant",
          "type": "address"
        },
        {
          "internalType": "address",
          "name": "_admin",
          "type": "address"
        }
      ],
      "name": "initialize",
      "outputs": [],
      "stateMutability": "nonpayable",
      "type": "function"
    },
    {
      "inputs": [],
      "name": "initialized",
      "outputs": [
        {
          "internalType": "bool",
          "name": "",
          "type": "bool"
        }
      ],
      "stateMutability": "view",
      "type": "function"
    },
    {
      "inputs": [],
      "name": "lastProfitUpdate",
      "outputs": [
        {
          "internalType": "uint256",
          "name": "",
          "type": "uint256"
        }
      ],
      "stateMutability": "view",
      "type": "function"
    },
    {
      "inputs": [
        {
          "internalType": "address",
          "name": "receiver",
          "type": "address"
        }
      ],
      "name": "maxDeposit",
      "outputs": [
        {
          "internalType": "uint256",
          "name": "",
          "type": "uint256"
        }
      ],
      "stateMutability": "view",
      "type": "function"
    },
    {
      "inputs": [
        {
          "internalType": "address",
          "name": "receiver",
          "type": "address"
        }
      ],
      "name": "maxMint",
      "outputs": [
        {
          "internalType": "uint256",
          "name": "",
          "type": "uint256"
        }
      ],
      "stateMutability": "view",
      "type": "function"
    },
    {
      "inputs": [
        {
          "internalType": "address",
          "name": "owner",
          "type": "address"
        },
        {
          "internalType": "uint256",
          "name": "maxLoss",
          "type": "uint256"
        },
        {
          "internalType": "address[]",
          "name": "_strategies",
          "type": "address[]"
        }
      ],
      "name": "maxRedeem",
      "outputs": [
        {
          "internalType": "uint256",
          "name": "",
          "type": "uint256"
        }
      ],
      "stateMutability": "view",
      "type": "function"
    },
    {
      "inputs": [
        {
          "internalType": "address",
          "name": "owner",
          "type": "address"
        },
        {
          "internalType": "uint256",
          "name": "maxLoss",
          "type": "uint256"
        },
        {
          "internalType": "address[]",
          "name": "_strategies",
          "type": "address[]"
        }
      ],
      "name": "maxWithdraw",
      "outputs": [
        {
          "internalType": "uint256",
          "name": "",
          "type": "uint256"
        }
      ],
      "stateMutability": "view",
      "type": "function"
    },
    {
      "inputs": [],
      "name": "minUserDeposit",
      "outputs": [
        {
          "internalType": "uint256",
          "name": "",
          "type": "uint256"
        }
      ],
      "stateMutability": "view",
      "type": "function"
    },
    {
      "inputs": [],
      "name": "minimumTotalIdle",
      "outputs": [
        {
          "internalType": "uint256",
          "name": "",
          "type": "uint256"
        }
      ],
      "stateMutability": "view",
      "type": "function"
    },
    {
      "inputs": [
        {
          "internalType": "uint256",
          "name": "shares",
          "type": "uint256"
        },
        {
          "internalType": "address",
          "name": "receiver",
          "type": "address"
        }
      ],
      "name": "mint",
      "outputs": [
        {
          "internalType": "uint256",
          "name": "",
          "type": "uint256"
        }
      ],
      "stateMutability": "nonpayable",
      "type": "function"
    },
    {
      "inputs": [],
      "name": "name",
      "outputs": [
        {
          "internalType": "string",
          "name": "",
          "type": "string"
        }
      ],
      "stateMutability": "view",
      "type": "function"
    },
    {
      "inputs": [
        {
          "internalType": "address",
          "name": "",
          "type": "address"
        }
      ],
      "name": "nonces",
      "outputs": [
        {
          "internalType": "uint256",
          "name": "",
          "type": "uint256"
        }
      ],
      "stateMutability": "view",
      "type": "function"
    },
    {
      "inputs": [
        {
          "internalType": "address",
          "name": "owner",
          "type": "address"
        },
        {
          "internalType": "address",
          "name": "spender",
          "type": "address"
        },
        {
          "internalType": "uint256",
          "name": "amount",
          "type": "uint256"
        },
        {
          "internalType": "uint256",
          "name": "deadline",
          "type": "uint256"
        },
        {
          "internalType": "uint8",
          "name": "v",
          "type": "uint8"
        },
        {
          "internalType": "bytes32",
          "name": "r",
          "type": "bytes32"
        },
        {
          "internalType": "bytes32",
          "name": "s",
          "type": "bytes32"
        }
      ],
      "name": "permit",
      "outputs": [
        {
          "internalType": "bool",
          "name": "",
          "type": "bool"
        }
      ],
      "stateMutability": "nonpayable",
      "type": "function"
    },
    {
      "inputs": [
        {
          "internalType": "uint256",
          "name": "assets",
          "type": "uint256"
        }
      ],
      "name": "previewDeposit",
      "outputs": [
        {
          "internalType": "uint256",
          "name": "",
          "type": "uint256"
        }
      ],
      "stateMutability": "view",
      "type": "function"
    },
    {
      "inputs": [
        {
          "internalType": "uint256",
          "name": "shares",
          "type": "uint256"
        }
      ],
      "name": "previewMint",
      "outputs": [
        {
          "internalType": "uint256",
          "name": "",
          "type": "uint256"
        }
      ],
      "stateMutability": "view",
      "type": "function"
    },
    {
      "inputs": [
        {
          "internalType": "uint256",
          "name": "shares",
          "type": "uint256"
        }
      ],
      "name": "previewRedeem",
      "outputs": [
        {
          "internalType": "uint256",
          "name": "",
          "type": "uint256"
        }
      ],
      "stateMutability": "view",
      "type": "function"
    },
    {
      "inputs": [
        {
          "internalType": "uint256",
          "name": "assets",
          "type": "uint256"
        }
      ],
      "name": "previewWithdraw",
      "outputs": [
        {
          "internalType": "uint256",
          "name": "",
          "type": "uint256"
        }
      ],
      "stateMutability": "view",
      "type": "function"
    },
    {
      "inputs": [],
      "name": "pricePerShare",
      "outputs": [
        {
          "internalType": "uint256",
          "name": "",
          "type": "uint256"
        }
      ],
      "stateMutability": "view",
      "type": "function"
    },
    {
      "inputs": [
        {
          "internalType": "address",
          "name": "strategy",
          "type": "address"
        }
      ],
      "name": "processReport",
      "outputs": [
        {
          "internalType": "uint256",
          "name": "",
          "type": "uint256"
        },
        {
          "internalType": "uint256",
          "name": "",
          "type": "uint256"
        }
      ],
      "stateMutability": "nonpayable",
      "type": "function"
    },
    {
      "inputs": [],
      "name": "profitMaxUnlockTime",
      "outputs": [
        {
          "internalType": "uint256",
          "name": "",
          "type": "uint256"
        }
      ],
      "stateMutability": "view",
      "type": "function"
    },
    {
      "inputs": [],
      "name": "profitUnlockingRate",
      "outputs": [
        {
          "internalType": "uint256",
          "name": "",
          "type": "uint256"
        }
      ],
      "stateMutability": "view",
      "type": "function"
    },
    {
      "inputs": [
        {
          "internalType": "uint256",
          "name": "shares",
          "type": "uint256"
        },
        {
          "internalType": "address",
          "name": "receiver",
          "type": "address"
        },
        {
          "internalType": "address",
          "name": "owner",
          "type": "address"
        },
        {
          "internalType": "uint256",
          "name": "maxLoss",
          "type": "uint256"
        },
        {
          "internalType": "address[]",
          "name": "_strategies",
          "type": "address[]"
        }
      ],
      "name": "redeem",
      "outputs": [
        {
          "internalType": "uint256",
          "name": "",
          "type": "uint256"
        }
      ],
      "stateMutability": "nonpayable",
      "type": "function"
    },
    {
      "inputs": [
        {
          "internalType": "bytes32",
          "name": "role",
          "type": "bytes32"
        },
        {
          "internalType": "address",
          "name": "account",
          "type": "address"
        }
      ],
      "name": "renounceRole",
      "outputs": [],
      "stateMutability": "nonpayable",
      "type": "function"
    },
    {
      "inputs": [
        {
          "internalType": "bytes32",
          "name": "role",
          "type": "bytes32"
        },
        {
          "internalType": "address",
          "name": "account",
          "type": "address"
        }
      ],
      "name": "revokeRole",
      "outputs": [],
      "stateMutability": "nonpayable",
      "type": "function"
    },
    {
      "inputs": [
        {
          "internalType": "address",
          "name": "strategy",
          "type": "address"
        },
        {
          "internalType": "bool",
          "name": "force",
          "type": "bool"
        }
      ],
      "name": "revokeStrategy",
      "outputs": [],
      "stateMutability": "nonpayable",
      "type": "function"
    },
    {
      "inputs": [
        {
          "internalType": "address",
          "name": "newAccountant",
          "type": "address"
        }
      ],
      "name": "setAccountant",
      "outputs": [],
      "stateMutability": "nonpayable",
      "type": "function"
    },
    {
      "inputs": [
        {
          "internalType": "address[]",
          "name": "newDefaultQueue",
          "type": "address[]"
        }
      ],
      "name": "setDefaultQueue",
      "outputs": [],
      "stateMutability": "nonpayable",
      "type": "function"
    },
    {
      "inputs": [
        {
          "internalType": "uint256",
          "name": "_depositLimit",
          "type": "uint256"
        }
      ],
      "name": "setDepositLimit",
      "outputs": [],
      "stateMutability": "nonpayable",
      "type": "function"
    },
    {
      "inputs": [
        {
          "internalType": "address",
          "name": "_depositLimitModule",
          "type": "address"
        }
      ],
      "name": "setDepositLimitModule",
      "outputs": [],
      "stateMutability": "nonpayable",
      "type": "function"
    },
    {
      "inputs": [
        {
          "internalType": "uint256",
          "name": "_minUserDeposit",
          "type": "uint256"
        }
      ],
      "name": "setMinUserDeposit",
      "outputs": [],
      "stateMutability": "nonpayable",
      "type": "function"
    },
    {
      "inputs": [
        {
          "internalType": "uint256",
          "name": "_minimumTotalIdle",
          "type": "uint256"
        }
      ],
      "name": "setMinimumTotalIdle",
      "outputs": [],
      "stateMutability": "nonpayable",
      "type": "function"
    },
    {
      "inputs": [
        {
          "internalType": "uint256",
          "name": "_newProfitMaxUnlockTime",
          "type": "uint256"
        }
      ],
      "name": "setProfitMaxUnlockTime",
      "outputs": [],
      "stateMutability": "nonpayable",
      "type": "function"
    },
    {
      "inputs": [
        {
          "internalType": "bool",
          "name": "_useDefaultQueue",
          "type": "bool"
        }
      ],
      "name": "setUseDefaultQueue",
      "outputs": [],
      "stateMutability": "nonpayable",
      "type": "function"
    },
    {
      "inputs": [
        {
          "internalType": "address",
          "name": "_withdrawLimitModule",
          "type": "address"
        }
      ],
      "name": "setWithdrawLimitModule",
      "outputs": [],
      "stateMutability": "nonpayable",
      "type": "function"
    },
    {
      "inputs": [],
      "name": "shutdown",
      "outputs": [
        {
          "internalType": "bool",
          "name": "",
          "type": "bool"
        }
      ],
      "stateMutability": "view",
      "type": "function"
    },
    {
      "inputs": [],
      "name": "shutdownVault",
      "outputs": [],
      "stateMutability": "nonpayable",
      "type": "function"
    },
    {
      "inputs": [
        {
          "internalType": "address",
          "name": "",
          "type": "address"
        }
      ],
      "name": "strategies",
      "outputs": [
        {
          "internalType": "uint256",
          "name": "activation",
          "type": "uint256"
        },
        {
          "internalType": "uint256",
          "name": "lastReport",
          "type": "uint256"
        },
        {
          "internalType": "uint256",
          "name": "currentDebt",
          "type": "uint256"
        },
        {
          "internalType": "uint256",
          "name": "maxDebt",
          "type": "uint256"
        }
      ],
      "stateMutability": "view",
      "type": "function"
    },
    {
      "inputs": [
        {
          "internalType": "bytes4",
          "name": "interfaceId",
          "type": "bytes4"
        }
      ],
      "name": "supportsInterface",
      "outputs": [
        {
          "internalType": "bool",
          "name": "",
          "type": "bool"
        }
      ],
      "stateMutability": "view",
      "type": "function"
    },
    {
      "inputs": [],
      "name": "symbol",
      "outputs": [
        {
          "internalType": "string",
          "name": "",
          "type": "string"
        }
      ],
      "stateMutability": "view",
      "type": "function"
    },
    {
      "inputs": [],
      "name": "totalAssets",
      "outputs": [
        {
          "internalType": "uint256",
          "name": "",
          "type": "uint256"
        }
      ],
      "stateMutability": "view",
      "type": "function"
    },
    {
      "inputs": [],
      "name": "totalDebt",
      "outputs": [
        {
          "internalType": "uint256",
          "name": "",
          "type": "uint256"
        }
      ],
      "stateMutability": "view",
      "type": "function"
    },
    {
      "inputs": [],
      "name": "totalIdle",
      "outputs": [
        {
          "internalType": "uint256",
          "name": "",
          "type": "uint256"
        }
      ],
      "stateMutability": "view",
      "type": "function"
    },
    {
      "inputs": [],
      "name": "totalSupply",
      "outputs": [
        {
          "internalType": "uint256",
          "name": "",
          "type": "uint256"
        }
      ],
      "stateMutability": "view",
      "type": "function"
    },
    {
      "inputs": [],
      "name": "totalSupplyAmount",
      "outputs": [
        {
          "internalType": "uint256",
          "name": "",
          "type": "uint256"
        }
      ],
      "stateMutability": "view",
      "type": "function"
    },
    {
      "inputs": [
        {
          "internalType": "address",
          "name": "receiver",
          "type": "address"
        },
        {
          "internalType": "uint256",
          "name": "amount",
          "type": "uint256"
        }
      ],
      "name": "transfer",
      "outputs": [
        {
          "internalType": "bool",
          "name": "",
          "type": "bool"
        }
      ],
      "stateMutability": "nonpayable",
      "type": "function"
    },
    {
      "inputs": [
        {
          "internalType": "address",
          "name": "sender",
          "type": "address"
        },
        {
          "internalType": "address",
          "name": "receiver",
          "type": "address"
        },
        {
          "internalType": "uint256",
          "name": "amount",
          "type": "uint256"
        }
      ],
      "name": "transferFrom",
      "outputs": [
        {
          "internalType": "bool",
          "name": "",
          "type": "bool"
        }
      ],
      "stateMutability": "nonpayable",
      "type": "function"
    },
    {
      "inputs": [],
      "name": "unlockedShares",
      "outputs": [
        {
          "internalType": "uint256",
          "name": "",
          "type": "uint256"
        }
      ],
      "stateMutability": "view",
      "type": "function"
    },
    {
      "inputs": [
        {
          "internalType": "address",
          "name": "strategy",
          "type": "address"
        },
        {
          "internalType": "uint256",
          "name": "newDebt",
          "type": "uint256"
        }
      ],
      "name": "updateDebt",
      "outputs": [
        {
          "internalType": "uint256",
          "name": "",
          "type": "uint256"
        }
      ],
      "stateMutability": "nonpayable",
      "type": "function"
    },
    {
      "inputs": [
        {
          "internalType": "address",
          "name": "strategy",
          "type": "address"
        },
        {
          "internalType": "uint256",
          "name": "newMaxDebt",
          "type": "uint256"
        }
      ],
      "name": "updateMaxDebtForStrategy",
      "outputs": [],
      "stateMutability": "nonpayable",
      "type": "function"
    },
    {
      "inputs": [],
      "name": "useDefaultQueue",
      "outputs": [
        {
          "internalType": "bool",
          "name": "",
          "type": "bool"
        }
      ],
      "stateMutability": "view",
      "type": "function"
    },
    {
      "inputs": [
        {
          "internalType": "uint256",
          "name": "assets",
          "type": "uint256"
        },
        {
          "internalType": "address",
          "name": "receiver",
          "type": "address"
        },
        {
          "internalType": "address",
          "name": "owner",
          "type": "address"
        },
        {
          "internalType": "uint256",
          "name": "maxLoss",
          "type": "uint256"
        },
        {
          "internalType": "address[]",
          "name": "_strategies",
          "type": "address[]"
        }
      ],
      "name": "withdraw",
      "outputs": [
        {
          "internalType": "uint256",
          "name": "",
          "type": "uint256"
        }
      ],
      "stateMutability": "nonpayable",
      "type": "function"
    },
    {
      "inputs": [],
      "name": "withdrawLimitModule",
      "outputs": [
        {
          "internalType": "address",
          "name": "",
          "type": "address"
        }
      ],
      "stateMutability": "view",
      "type": "function"
    }
  ],
  "bytecode": "0x608060405234801561001057600080fd5b5060018055615f6680620000256000396000f3fe608060405234801561001057600080fd5b50600436106103e85760003560e01c8063019303ea146103ed57806301e1d1141461040257806301ffc9a71461041d57806303dcd12c1461044057806306580f2d1461045557806306fdde031461046857806307a2d13a1461047d5780630835a3fc146104905780630952864e14610499578063095ea7b3146104a25780630a28a477146104b5578063158ef93e146104c857806316d3bfbb146104dc57806318160ddd146104e7578063223e5479146104ef57806323b872dd14610502578063248a9ca314610515578063258294101461052857806329f3cef5146105305780632d632692146105455780632d7721681461054e5780632f2ff15d14610561578063313ce5671461057457806334b5fab6146105935780633644e515146105a657806336568abe146105ae57806336fba084146105c157806338d52e0f146105cd57806339ebf823146105e75780633f7b5e401461063c5780633fe3347a14610644578063402d267d1461064d578063405977e71461066057806346e6ac491461067357806348ea7127146106865780634bbd71e9146106995780634cdad5061461047d5780634d4bb197146106ac5780634fb3ccc5146106c15780635141eebb146106d45780635a569099146106dd578063633f228c146106f057806365cb6765146107035780636e553f651461071657806370a08231146107295780637ecebe001461073c5780638212fd431461075c5780638afca8f01461076f578063919860031461077857806391d148541461078b57806394bf804d1461079e57806395d89b41146107b157806399530b06146107b95780639a78e72e146107c15780639aa7df94146107ed5780639bbca884146107f65780639e34e348146108095780639fc2c4761461081c578063a217fddf14610831578063a9059cbb14610839578063ab5b4d491461084c578063b1880bd514610861578063b3d7f6b914610874578063b6cc2d1f14610887578063ba71ecd4146108a8578063bbe4eb49146108b0578063bdc8144b146108c4578063c0993eea146108d7578063c45a0155146108ec578063c63d75b6146108ff578063c6e6f59214610912578063d505accf14610925578063d547741f14610938578063d5a2ab531461094b578063d81a09f614610954578063d9a0e97a14610967578063dd62ed3e1461096f578063df69b22a146109a8578063e5236cc9146109bb578063ecf70858146109c3578063ef8b30f714610912578063f42c77ae146109cc578063f6d7bfa0146109df578063f828f50b146109f2578063fc0e74d1146109fb578063fc7b9c1814610a0f578063fd967f4714610a18578063ff1e7f0814610a21575b600080fd5b6104006103fb366004615153565b610a34565b005b61040a610bed565b6040519081526020015b60405180910390f35b61043061042b36600461520d565b610bfc565b6040519015158152602001610414565b61040a600080516020615db183398151915281565b61040a61046336600461527b565b610c33565b610470610d20565b604051610414919061531a565b61040a61048b36600461534d565b610db2565b61040a60055481565b61040a60075481565b6104306104b0366004615366565b610e41565b61040a6104c336600461534d565b610e55565b60105461043090600160b01b900460ff1681565b61040a6301e1855881565b61040a610ea3565b6104006104fd366004615392565b610ead565b6104306105103660046153af565b6110b9565b61040a61052336600461534d565b611104565b610470611119565b610538611138565b6040516104149190615434565b61040a60085481565b61040061055c366004615392565b611199565b61040061056f366004615447565b61123c565b601054600160b81b900460ff1660405160ff9091168152602001610414565b61040a6105a1366004615477565b61125d565b61040a61135d565b6104006105bc366004615447565b6113d9565b61040a64e8d4a5100081565b6010546001600160a01b03165b60405161041491906154d2565b61061c6105f5366004615392565b60146020526000908152604090208054600182015460028301546003909301549192909184565b604080519485526020850193909352918301526060820152608001610414565b61040a600a81565b61040a600b5481565b61040a61065b366004615392565b611457565b61040061066e366004615366565b611462565b61040a610681366004615366565b6116c2565b610400610694366004615392565b6119a7565b6104006106a7366004615392565b611a2c565b61040a600080516020615e7183398151915281565b600c546105da906001600160a01b031681565b61040a60095481565b61040a6106eb366004615366565b611a82565b6104006106fe3660046154e6565b611b3e565b61040a610711366004615477565b611ccf565b61040a610724366004615447565b611d18565b61040a610737366004615392565b611d38565b61040a61074a366004615392565b60176020526000908152604090205481565b61040061076a36600461534d565b611d91565b61040a600a5481565b600e546105da906001600160a01b031681565b610430610799366004615447565b611dd1565b61040a6107ac366004615447565b611dfa565b610470611e0f565b61040a611e1e565b61040a6107cf366004615392565b6001600160a01b031660009081526014602052604090206002015490565b61040a60045481565b610400610804366004615535565b611ec7565b600d546105da906001600160a01b031681565b61040a600080516020615df183398151915281565b61040a600081565b610430610847366004615366565b611f2c565b61040a600080516020615eb183398151915281565b61040061086f36600461534d565b611f6b565b61040a61088236600461534d565b611fab565b61089a610895366004615392565b611fd0565b604051610414929190615552565b60135461040a565b60105461043090600160a01b900460ff1681565b6104006108d236600461534d565b6121b1565b61040a600080516020615ed183398151915281565b600f546105da906001600160a01b031681565b61040a61090d366004615392565b612259565b61040a61092036600461534d565b612286565b61043061093336600461556f565b6122ab565b610400610946366004615447565b6124c3565b61040a60185481565b61040a61096236600461527b565b6124df565b61040a6125c8565b61040a61097d3660046155e0565b6001600160a01b03918216600090815260166020908152604080832093909416825291909152205490565b6104006109b636600461534d565b6125d2565b610400612663565b61040a60065481565b6104006109da36600461560e565b61274d565b6104006109ed366004615366565b61276f565b61040a60025481565b60105461043090600160a81b900460ff1681565b61040a60035481565b61040a61271081565b6105da610a2f36600461534d565b612820565b6000610a3f8161284a565b601054600160b01b900460ff161515600103610a6d5760405162dc149f60e41b815260040160405180910390fd5b6001600160a01b0382161580610a8a57506001600160a01b038816155b15610aa85760405163d92e233d60e01b815260040160405180910390fd5b6301e185588a1115610acd5760405163fdfbb0b760e01b815260040160405180910390fd5b60078a9055601080546001600160a01b0319166001600160a01b038a169081179091556040805163313ce56760e01b8152905163313ce567916004808201926020929091908290030181865afa158015610b2b573d6000803e3d6000fd5b505050506040513d601f19601f82011682018060405250810190610b4f919061563c565b6010805460ff92909216600160b81b0260ff60b81b199092169190911790556011610b7b8789836156f7565b506012610b898587836156f7565b50600f8054336001600160a01b031991821617909155600c80549091166001600160a01b038516179055600b899055610bc3600083612857565b610bce6000336128db565b50506010805460ff60b01b1916600160b01b1790555050505050505050565b6000610bf7612940565b905090565b60006001600160e01b03198216637965db0b60e01b1480610c2d57506301ffc9a760e01b6001600160e01b03198316145b92915050565b6000610c3d612952565b610d0b33878773__$d50903c848ecc9d194abffd4b8b117b8ad$__630bb1d0158c610c666129ab565b610c6e612940565b60006040518563ffffffff1660e01b8152600401610c8f94939291906157d4565b602060405180830381865af4158015610cac573d6000803e3d6000fd5b505050506040513d601f19601f82011682018060405250810190610cd09190615801565b8b898989808060200260200160405190810160405280939291908181526020018383602002808284376000920191909152506129c292505050565b9050610d1660018055565b9695505050505050565b606060118054610d2f9061566f565b80601f0160208091040260200160405190810160405280929190818152602001828054610d5b9061566f565b8015610da85780601f10610d7d57610100808354040283529160200191610da8565b820191906000526020600020905b815481529060010190602001808311610d8b57829003601f168201915b5050505050905090565b600073__$d50903c848ecc9d194abffd4b8b117b8ad$__630bb1d01583610dd76129ab565b610ddf612940565b60006040518563ffffffff1660e01b8152600401610e0094939291906157d4565b602060405180830381865af4158015610e1d573d6000803e3d6000fd5b505050506040513d601f19601f82011682018060405250810190610c2d9190615801565b6000610e4e338484612c09565b9392505050565b600073__$d50903c848ecc9d194abffd4b8b117b8ad$__63789a3d8883610e7a6129ab565b610e82612940565b60016040518563ffffffff1660e01b8152600401610e0094939291906157d4565b6000610bf76129ab565b600080516020615df1833981519152610ec58161284a565b6001600160a01b0382161580610ee357506001600160a01b03821630145b15610f015760405163d92e233d60e01b815260040160405180910390fd5b6000826001600160a01b03166338d52e0f6040518163ffffffff1660e01b8152600401602060405180830381865afa158015610f41573d6000803e3d6000fd5b505050506040513d601f19601f82011682018060405250810190610f65919061581a565b6010549091506001600160a01b03808316911614610fa157806040516337bce3c560e11b8152600401610f9891906154d2565b60405180910390fd5b6001600160a01b03831660009081526014602052604090205415610fd85760405163c976754d60e01b815260040160405180910390fd5b604080516080810182524280825260208083019182526000838501818152606085018281526001600160a01b038a16835260149093529490209251835590516001830155915160028201559051600390910155601354600a81101561108357601380546001810182556000919091527f66de8ffda797e3de9c05e8fc57b3bf0ec28a930d40b0d285d93c06501cf6a0900180546001600160a01b0319166001600160a01b0386161790555b836001600160a01b0316600080516020615e1183398151915260006040516110ab9190615837565b60405180910390a250505050565b6000306001600160a01b038416036110e45760405163ea9054fb60e01b815260040160405180910390fd5b6110ef843384612ccc565b6110fa848484612d3c565b5060019392505050565b60009081526020819052604090206001015490565b6040805180820190915260058152640312e302e360dc1b602082015290565b60606013805480602002602001604051908101604052809291908181526020018280548015610da857602002820191906000526020600020905b81546001600160a01b03168152600190910190602001808311611172575050505050905090565b60006111a48161284a565b601054600160a81b900460ff1615156001036111d35760405163036882cf60e41b815260040160405180910390fd5b600019600654146111f757604051634e41418560e11b815260040160405180910390fd5b600d80546001600160a01b0319166001600160a01b038416179055604051600080516020615dd1833981519152906112309084906154d2565b60405180910390a15050565b61124582611104565b61124e8161284a565b6112588383612857565b505050565b60008073__$d50903c848ecc9d194abffd4b8b117b8ad$__63789a3d886112b88888888880806020026020016040519081016040528093929190818152602001838360200280828437600092019190915250612e7192505050565b6112c06129ab565b6112c8612940565b60006040518563ffffffff1660e01b81526004016112e994939291906157d4565b602060405180830381865af4158015611306573d6000803e3d6000fd5b505050506040513d601f19601f8201168201806040525081019061132a9190615801565b6001600160a01b03871660009081526015602052604090205490915061135190829061331d565b9150505b949350505050565b6000600080516020615ed1833981519152601160405161137d919061584a565b604051809103902061138d611119565b805160209182012060408051928301949094529281019190915260608101919091524660808201523060a082015260c00160405160208183030381529060405280519060200120905090565b6001600160a01b03811633146114495760405162461bcd60e51b815260206004820152602f60248201527f416363657373436f6e74726f6c3a2063616e206f6e6c792072656e6f756e636560448201526e103937b632b9903337b91039b2b63360891b6064820152608401610f98565b61145382826128db565b5050565b6000610c2d82613333565b600080516020615eb183398151915261147a8161284a565b611482612952565b6001600160a01b03831660009081526014602052604081205490036114bc578260405163489d081b60e11b8152600401610f9891906154d2565b6001600160a01b0383166000908152601460205260409020600201548015806114e3575082155b1561150157604051637c946ed760e01b815260040160405180910390fd5b8083111561150d578092505b60008184866001600160a01b03166370a08231306040518263ffffffff1660e01b815260040161153d91906154d2565b602060405180830381865afa15801561155a573d6000803e3d6000fd5b505050506040513d601f19601f8201168201806040525081019061157e9190615801565b61158891906158d6565b61159291906158ed565b9050806000036115b557604051637c946ed760e01b815260040160405180910390fd5b6010546115cd906001600160a01b031633308761340c565b6001600160a01b038516600090815260146020526040812060020180548692906115f890849061590f565b925050819055508360036000828254611611919061590f565b92505081905550836004600082825461162a9190615922565b90915550506001600160a01b038516600080516020615f1183398151915283611653878261590f565b604051611661929190615552565b60405180910390a261167485338361346e565b846001600160a01b03167fe94e7f88819f66c19b097748cb754149f63b1a176ed425dee1f1ee933e6d09b0856040516116af91815260200190565b60405180910390a2505061125860018055565b6000600080516020615df18339815191526116dc8161284a565b6116e4612952565b6001600160a01b038416600090815260146020526040902060020154601054600160a81b900460ff16151560010361171b57600093505b80840361173b5760405163084df06b60e41b815260040160405180910390fd5b8381111561183f5760048054600554601054604051632b23e3e760e01b81526001600160a01b03808b16958201959095526024810189905260448101869052606481019390935260848301919091529190911660a4820152600090819073__$d50903c848ecc9d194abffd4b8b117b8ad$__90632b23e3e79060c4016040805180830381865af41580156117d3573d6000803e3d6000fd5b505050506040513d601f19601f820116820180604052508101906117f79190615935565b91509150816004600082825461180d9190615922565b925050819055508060036000828254611826919061590f565b909155506118369050818461590f565b9550505061194d565b6001600160a01b0385166000818152601460205260408082206003015460048054600554935163a964ff6d60e01b81529182019590955260248101919091526044810188905260648101859052608481019390935260a48301529073__$d50903c848ecc9d194abffd4b8b117b8ad$__9063a964ff6d9060c401602060405180830381865af41580156118d6573d6000803e3d6000fd5b505050506040513d601f19601f820116820180604052508101906118fa9190615801565b9050801561193f5761190c86826134bd565b90508060046000828254611920919061590f565b9250508190555080600360008282546119399190615922565b90915550505b6119498183615922565b9450505b6001600160a01b0385166000818152601460205260409081902060020186905551600080516020615f118339815191529061198b9084908890615552565b60405180910390a2839250506119a060018055565b5092915050565b60006119b28161284a565b600c546001600160a01b03908116908316036119e157604051630b515de360e21b815260040160405180910390fd5b600c80546001600160a01b0319166001600160a01b0384161790556040517f7421df9bb5aa804486a873c3f79b4bda8b65888cb4ceb1ce73ab3415f479adea906112309084906154d2565b6000611a378161284a565b600e80546001600160a01b0319166001600160a01b0384161790556040517fb02c7aec2b89901bc7caa8b5cd2ed1ede10b5dd3d3c15f2a249ef51a76a3fc94906112309084906154d2565b6001600160a01b03821660009081526014602052604081206002015482811015611ac257604051633327137b60e21b815260048101829052602401610f98565b604051631654761360e11b815273__$d50903c848ecc9d194abffd4b8b117b8ad$__90632ca8ec2690611afd90879087908690600401615959565b602060405180830381865af4158015611b1a573d6000803e3d6000fd5b505050506040513d601f19601f820116820180604052508101906113559190615801565b600080516020615df1833981519152611b568161284a565b81600a811115611b795760405163b6e8f80d60e01b815260040160405180910390fd5b60005b81811015611c82576000858583818110611b9857611b9861597a565b9050602002016020810190611bad9190615392565b6001600160a01b03811660009081526014602052604081205491925003611be9578060405163489d081b60e11b8152600401610f9891906154d2565b6000611bf6836001615922565b90505b83811015611c6d57868682818110611c1357611c1361597a565b9050602002016020810190611c289190615392565b6001600160a01b0316826001600160a01b031603611c5b578160405163766e2a2760e01b8152600401610f9891906154d2565b80611c6581615990565b915050611bf9565b50508080611c7a90615990565b915050611b7c565b50611c8f60138585615085565b507f3adf0cd8b4427265ab8cb9118d0b9c61b811c637fe87c5be9f2f4d91ce17cfbc8484604051611cc19291906159a9565b60405180910390a150505050565b6000611d0f8585858580806020026020016040519081016040528093929190818152602001838360200280828437600092019190915250612e7192505050565b95945050505050565b6000611d22612952565b611d2d338385613655565b9050610c2d60018055565b6000306001600160a01b03831603611d7557611d5261387a565b6001600160a01b038316600090815260156020526040902054610c2d919061590f565b506001600160a01b031660009081526015602052604090205490565b6000611d9c8161284a565b60058290556040518281527f3c79c9aaa553ffa63df7f68d233487e697a31db07a59fb73fbab634e1871202090602001611230565b6000918252602082815260408084206001600160a01b0393909316845291905290205460ff1690565b6000611e04612952565b611d2d3383856138d1565b606060128054610d2f9061566f565b60105460009073__$d50903c848ecc9d194abffd4b8b117b8ad$__90630bb1d01590611e5590600160b81b900460ff16600a615adb565b611e5d6129ab565b611e65612940565b60006040518563ffffffff1660e01b8152600401611e8694939291906157d4565b602060405180830381865af4158015611ea3573d6000803e3d6000fd5b505050506040513d601f19601f82011682018060405250810190610bf79190615801565b600080516020615df1833981519152611edf8161284a565b60108054831515600160a01b0260ff60a01b199091161790556040517fa9cd3583c5278952720fbec6b769ae08cbab1491fd69ae1edeb07ed07c9432f99061123090841515815260200190565b6000306001600160a01b03841603611f575760405163ea9054fb60e01b815260040160405180910390fd5b611f62338484612d3c565b50600192915050565b6000611f768161284a565b60188290556040518281527f73aace3764a26c5c6a10b6cecff17ff6853767a18ab551225a637f485c66a3cb90602001611230565b600073__$d50903c848ecc9d194abffd4b8b117b8ad$__630bb1d01583610e7a6129ab565b600080600080516020615db1833981519152611feb8161284a565b611ff3612952565b6001600160a01b038416600090815260146020526040812054900361202d578360405163489d081b60e11b8152600401610f9891906154d2565b612035613a63565b600061203f6129ab565b9050600061204b612940565b6001600160a01b0387811660008181526014602052604080822060020154600c54600f5492516306272c9560e21b81526004810195909552602485019190915260448401889052606484018690528416608484015290921660a48201529192509073__$d50903c848ecc9d194abffd4b8b117b8ad$__9063189cb2549060c40161016060405180830381865af41580156120e9573d6000803e3d6000fd5b505050506040513d601f19601f8201168201806040525081019061210d9190615b8f565b905061212c816000015182602001518360a0015184608001518b613a93565b6001600160a01b0387166000818152601460209081526040918290204260018201558451858301516002909201548685015160608801516080890151909501519551600080516020615e518339815191529661218b9694959491615c39565b60405180910390a28051602090910151909550935050506121ab60018055565b50915091565b60006121bc8161284a565b601054600160a81b900460ff1615156001036121eb5760405163036882cf60e41b815260040160405180910390fd5b600d546001600160a01b031615612215576040516364b9991160e11b815260040160405180910390fd5b8160000361223657604051637c946ed760e01b815260040160405180910390fd5b6006829055604051828152600080516020615d9183398151915290602001611230565b600073__$d50903c848ecc9d194abffd4b8b117b8ad$__63789a3d8861227e84613333565b610dd76129ab565b600073__$d50903c848ecc9d194abffd4b8b117b8ad$__63789a3d8883610dd76129ab565b60006001600160a01b0388166122d45760405163d92e233d60e01b815260040160405180910390fd5b428510156122f5576040516363bef56160e11b815260040160405180910390fd5b6001600160a01b038816600090815260176020526040812080549182919061231c83615990565b909155505060408051600080516020615e718339815191526020808301919091526001600160a01b038c8116838501528b166060830152608082018a905260a0820184905260c08083018a90528351808403909101815260e09092019092528051910120600061238a61135d565b60405161190160f01b602082015260228101919091526042810183905260620160408051601f198184030181528282528051602091820120600080855291840180845281905260ff8b169284019290925260608301899052608083018890529092509060019060a0016020604051602081039080840390855afa158015612415573d6000803e3d6000fd5b5050604051601f1901519150506001600160a01b038116158061244a57508b6001600160a01b0316816001600160a01b031614155b1561246a5780604051633934136760e01b8152600401610f9891906154d2565b6124758c8c8c612c09565b508a6001600160a01b03168c6001600160a01b0316600080516020615e918339815191528c6040516124a991815260200190565b60405180910390a35060019b9a5050505050505050505050565b6124cc82611104565b6124d58161284a565b61125883836128db565b60006124e9612952565b600073__$d50903c848ecc9d194abffd4b8b117b8ad$__63789a3d888961250e6129ab565b612516612940565b60016040518563ffffffff1660e01b815260040161253794939291906157d4565b602060405180830381865af4158015612554573d6000803e3d6000fd5b505050506040513d601f19601f820116820180604052508101906125789190615801565b90506125bc3388888b858a8a8a808060200260200160405190810160405280939291908181526020018383602002808284376000920191909152506129c292505050565b509050610d1660018055565b6000610bf761387a565b60006125dd8161284a565b6301e185588211156126025760405163fdfbb0b760e01b815260040160405180910390fd5b8160000361262e573060008181526015602052604090205461262391613d93565b600060098190556008555b60078290556040518281527fc464d502702beac6615fdfda7756f59ccaf253cb2591db454c8def44d03bddd990602001611230565b600061266e8161284a565b601054600160a81b900460ff16151560010361269d5760405163036882cf60e41b815260040160405180910390fd5b6010805460ff60a81b1916600160a81b179055600d546001600160a01b0316156126f957600d80546001600160a01b0319169055604051600080516020615dd1833981519152906126f0906000906154d2565b60405180910390a15b60006006819055604051908152600080516020615d918339815191529060200160405180910390a16040517f4426aa1fb73e391071491fcfe21a88b5c38a0a0333a1f6e77161470439704cf890600090a150565b600080516020615df18339815191526127658161284a565b6112588383613e64565b600080516020615df18339815191526127878161284a565b6001600160a01b03831660009081526014602052604081205490036127c1578260405163489d081b60e11b8152600401610f9891906154d2565b6001600160a01b038316600081815260146020526040908190206003018490555133907fb3eef2123fec1523a6bbc90aceb203000154c1a4974335fe06b544c7534d4b89906128139086815260200190565b60405180910390a3505050565b6013818154811061283057600080fd5b6000918252602090912001546001600160a01b0316905081565b612854813361411d565b50565b6128618282611dd1565b611453576000828152602081815260408083206001600160a01b03851684529091529020805460ff191660011790556128973390565b6001600160a01b0316816001600160a01b0316837f2f8788117e7eff1d82e926ec794901d17c78024a50270940304540a733656f0d60405160405180910390a45050565b6128e58282611dd1565b15611453576000828152602081815260408083206001600160a01b0385168085529252808320805460ff1916905551339285917ff6391f5c32d9c69d2a47ea670b442974b53935d1edc7fd64eb21e047a839171b9190a45050565b6000600354600454610bf79190615922565b6002600154036129a45760405162461bcd60e51b815260206004820152601f60248201527f5265656e7472616e637947756172643a207265656e7472616e742063616c6c006044820152606401610f98565b6002600155565b60006129b561387a565b600254610bf7919061590f565b6001600160a01b0385811660009081526015602052604080822054905163ca3dcc5560e01b815292891660048401526024830186905260448301859052612710606484015260848301529073__$d50903c848ecc9d194abffd4b8b117b8ad$__9063ca3dcc559060a40160006040518083038186803b158015612a4457600080fd5b505af4158015612a58573d6000803e3d6000fd5b505050506000612a69878585612e71565b905080861115612a8f57604051631a05c12360e11b815260048101829052602401610f98565b6018546001600160a01b03881660009081526015602052604081205473__$d50903c848ecc9d194abffd4b8b117b8ad$__90630bb1d01590612acf6129ab565b612ad7612940565b60006040518563ffffffff1660e01b8152600401612af894939291906157d4565b602060405180830381865af4158015612b15573d6000803e3d6000fd5b505050506040513d601f19601f82011682018060405250810190612b399190615801565b90506000612b47898361590f565b9050600081118015612b5857508281105b15612b76576040516362e4214360e11b815260040160405180910390fd5b612b818a8d8a614176565b600080612b8e8b8961419a565b91509150612ba18d8d8c8e86868f614895565b8b6001600160a01b03168d6001600160a01b03168f6001600160a01b03167ffbde797d201c681b91056529119e0b02407c7bb96a4a2c75c01fc9667232c8db858e604051612bf0929190615552565b60405180910390a4509c9b505050505050505050505050565b60006001600160a01b0384161580612c2857506001600160a01b038316155b15612c465760405163d92e233d60e01b815260040160405180910390fd5b826001600160a01b0316846001600160a01b031603612c78576040516332db50d960e01b815260040160405180910390fd5b6001600160a01b038481166000818152601660209081526040808320948816808452948252918290208690559051858152600080516020615e91833981519152910160405180910390a35060019392505050565b6001600160a01b03808416600090815260166020908152604080832093861683529290522054600019811015612d365781811015612d2057604051631649cee760e01b815260048101829052602401610f98565b612d348484612d2f858561590f565b612c09565b505b50505050565b6001600160a01b038316600090815260156020526040902054811115612d755760405163356680b760e01b815260040160405180910390fd5b6001600160a01b0383161580612d9257506001600160a01b038216155b15612db05760405163d92e233d60e01b815260040160405180910390fd5b816001600160a01b0316836001600160a01b031603612de257604051634d9ecd9160e01b815260040160405180910390fd5b6001600160a01b03831660009081526015602052604081208054839290612e0a90849061590f565b90915550506001600160a01b03821660009081526015602052604081208054839290612e37908490615922565b92505081905550816001600160a01b0316836001600160a01b0316600080516020615e318339815191528360405161281391815260200190565b6001600160a01b038316600090815260156020526040812054819073__$d50903c848ecc9d194abffd4b8b117b8ad$__90630bb1d01590612eb06129ab565b612eb8612940565b60006040518563ffffffff1660e01b8152600401612ed994939291906157d4565b602060405180830381865af4158015612ef6573d6000803e3d6000fd5b505050506040513d601f19601f82011682018060405250810190612f1a9190615801565b600e549091506001600160a01b031615612fba57600e54604051632319b8cf60e01b81526000916001600160a01b031690632319b8cf90612f6390899089908990600401615c61565b602060405180830381865afa158015612f80573d6000803e3d6000fd5b505050506040513d601f19601f82011682018060405250810190612fa49190615801565b905081811015612fb2578091505b509050610e4e565b600454808211156133145783518190600090819015801590612fe65750601054600160a01b900460ff16155b61304a57601380548060200260200160405190810160405280929190818152602001828054801561304057602002820191906000526020600020905b81546001600160a01b03168152600190910190602001808311613022575b505050505061304c565b865b905060005b815181101561330d57600082828151811061306e5761306e61597a565b6020908102919091018101516001600160a01b03811660009081526014909252604082206002810154905491935091036130bd578160405163489d081b60e11b8152600401610f9891906154d2565b60006130d26130cc888b61590f565b8361331d565b9050600073__$d50903c848ecc9d194abffd4b8b117b8ad$__632ca8ec268584866040518463ffffffff1660e01b815260040161311193929190615959565b602060405180830381865af415801561312e573d6000803e3d6000fd5b505050506040513d601f19601f820116820180604052508101906131529190615801565b90506000846001600160a01b03166307a2d13a866001600160a01b031663d905777e306040518263ffffffff1660e01b815260040161319191906154d2565b602060405180830381865afa1580156131ae573d6000803e3d6000fd5b505050506040513d601f19601f820116820180604052508101906131d29190615801565b6040518263ffffffff1660e01b81526004016131f091815260200190565b602060405180830381865afa15801561320d573d6000803e3d6000fd5b505050506040513d601f19601f820116820180604052508101906132319190615801565b905061323d828461590f565b811015613268578261324f82846158d6565b61325991906158ed565b91506132658282615922565b92505b8260000361327a5750505050506132fb565b60008211801561328b57506127108e105b156132cc576127108e61329e858c615922565b6132a891906158d6565b6132b291906158ed565b6132bc838a615922565b11156132cc57505050505061330d565b6132d6838a615922565b98508a89106132e957505050505061330d565b6132f38289615922565b975050505050505b8061330581615990565b915050613051565b5091935050505b50949350505050565b600081831061332c5781610e4e565b5090919050565b60006001600160a01b03821630148061335357506001600160a01b038216155b1561336057506000919050565b600d546001600160a01b031680156133df57604051632355178960e11b81526001600160a01b038216906346aa2f129061339e9086906004016154d2565b602060405180830381865afa1580156133bb573d6000803e3d6000fd5b505050506040513d601f19601f82011682018060405250810190610e4e9190615801565b60006133e9612940565b905060065481106133fe575060009392505050565b80600654611355919061590f565b6001600160a01b038416158061342957506001600160a01b038316155b8061343b57506001600160a01b038216155b156134595760405163d92e233d60e01b815260040160405180910390fd5b612d366001600160a01b038516848484614918565b6001600160a01b038316158061348b57506001600160a01b038216155b156134a95760405163d92e233d60e01b815260040160405180910390fd5b6112586001600160a01b0384168383614983565b6010546000906134d7906001600160a01b031684846149a2565b6010546040516370a0823160e01b81526000916001600160a01b0316906370a08231906135089030906004016154d2565b602060405180830381865afa158015613525573d6000803e3d6000fd5b505050506040513d601f19601f820116820180604052508101906135499190615801565b604051636e553f6560e01b8152600481018590523060248201529091506001600160a01b03851690636e553f65906044016020604051808303816000875af1158015613599573d6000803e3d6000fd5b505050506040513d601f19601f820116820180604052508101906135bd9190615801565b506010546040516370a0823160e01b81526000916001600160a01b0316906370a08231906135ef9030906004016154d2565b602060405180830381865afa15801561360c573d6000803e3d6000fd5b505050506040513d601f19601f820116820180604052508101906136309190615801565b60105490915061364b906001600160a01b03168660006149a2565b611d0f818361590f565b6018546001600160a01b038316600090815260156020526040812054909190829073__$d50903c848ecc9d194abffd4b8b117b8ad$__90630bb1d0159061369a6129ab565b6136a2612940565b60006040518563ffffffff1660e01b81526004016136c394939291906157d4565b602060405180830381865af41580156136e0573d6000803e3d6000fd5b505050506040513d601f19601f820116820180604052508101906137049190615801565b9050816137118583615922565b1015613730576040516362e4214360e11b815260040160405180910390fd5b600061373b86613333565b601054909150600160a81b900460ff16151560010361376d5760405163036882cf60e41b815260040160405180910390fd5b8460000361378e57604051637c946ed760e01b815260040160405180910390fd5b808511156137b257604051630ee7300760e11b815260048101829052602401610f98565b600b54600103613861576010546137d4906001600160a01b031688308861340c565b84600460008282546137e69190615922565b90915550600090506137f886886149f1565b90508060000361381b57604051637c946ed760e01b815260040160405180910390fd5b866001600160a01b0316886001600160a01b0316600080516020615ef1833981519152888460405161384e929190615552565b60405180910390a39350610e4e92505050565b604051630438f2ed60e11b815260040160405180910390fd5b6000804260085411156138b25764e8d4a51000600a544261389b919061590f565b6009546138a891906158d6565b610c2d91906158ed565b600854156138cc5750306000908152601560205260409020545b919050565b6000806138dd84613333565b601054909150600160a81b900460ff16151560010361390f5760405163036882cf60e41b815260040160405180910390fd5b600073__$d50903c848ecc9d194abffd4b8b117b8ad$__630bb1d015856139346129ab565b61393c612940565b60016040518563ffffffff1660e01b815260040161395d94939291906157d4565b602060405180830381865af415801561397a573d6000803e3d6000fd5b505050506040513d601f19601f8201168201806040525081019061399e9190615801565b9050806000036139c157604051637c946ed760e01b815260040160405180910390fd5b818111156139e557604051630ee7300760e11b815260048101839052602401610f98565b6010546139fd906001600160a01b031687308461340c565b8060046000828254613a0f9190615922565b90915550613a1f90508486614aa3565b846001600160a01b0316866001600160a01b0316600080516020615ef18339815191528387604051613a52929190615552565b60405180910390a395945050505050565b6000613a6d61387a565b905080600003613a7a5750565b426008541115613a895742600a555b6128548130613d93565b602082015160009015613be2576020830151601054600c546040516370a0823160e01b8152613b9e9392613b99926001600160a01b03918216926370a0823192613ae19216906004016154d2565b602060405180830381865afa158015613afe573d6000803e3d6000fd5b505050506040513d601f19601f82011682018060405250810190613b229190615801565b601054600c54604051636eb1769f60e11b81526001600160a01b039283169263dd62ed3e92613b58929116903090600401615c88565b602060405180830381865afa158015613b75573d6000803e3d6000fd5b505050506040513d601f19601f82011682018060405250810190613b999190615801565b61331d565b60208401819052601054600c54613bc6926001600160a01b039283169290911690309061340c565b826020015160046000828254613bdc9190615922565b90915550505b8515613c32576001600160a01b03821660009081526014602052604081206002018054889290613c13908490615922565b925050819055508560036000828254613c2c9190615922565b90915550505b6000836020015187613c449190615922565b118015613c52575060075415155b15613c7357613c70836020015187613c6a9190615922565b306149f1565b90505b8415613cc3576001600160a01b03821660009081526014602052604081206002018054879290613ca490849061590f565b925050819055508460036000828254613cbd919061590f565b90915550505b30600090815260156020526040812054613cde90839061590f565b855190915015613d3f578451613cf890613b998484615922565b808652613d059030613d93565b6000613d1586600001518461331d565b9050613d21818461590f565b8651909350613d3190829061590f565b613d3b908361590f565b9150505b602085015115613d64576020850151600c54613d6491906001600160a01b0316614aa3565b604085015115613d8057613d8085604001518560600151614aa3565b613d8a8183614b3c565b50505050505050565b6001600160a01b038116600090815260156020526040902054821115613dea576001600160a01b038116600090815260156020526040908190205490516307f885ff60e21b81526004810191909152602401610f98565b6001600160a01b03811660009081526015602052604081208054849290613e1290849061590f565b925050819055508160026000828254613e2b919061590f565b90915550506040518281526000906001600160a01b03831690600080516020615e31833981519152906020015b60405180910390a35050565b6001600160a01b0382166000908152601460205260408120549003613e9e578160405163489d081b60e11b8152600401610f9891906154d2565b6001600160a01b03821660009081526014602052604081206002015415613f725781613efe576001600160a01b038316600090815260146020526040908190206002015490516357d8a97560e11b81526004810191909152602401610f98565b506001600160a01b0382166000908152601460205260408120600201546003805491928392613f2e90849061590f565b92505081905550826001600160a01b0316600080516020615e51833981519152600083600080600080604051613f6996959493929190615c39565b60405180910390a25b6040805160808101825260008082526020808301828152838501838152606085018481526001600160a01b038a168552601490935294909220925183559051600183015591516002820155905160039091015560135480156140f55760005b818110156140f357846001600160a01b031660138281548110613ff657613ff661597a565b6000918252602090912001546001600160a01b0316036140e157805b61401d60018461590f565b8110156140a8576013614031826001615922565b815481106140415761404161597a565b600091825260209091200154601380546001600160a01b03909216918390811061406d5761406d61597a565b600091825260209091200180546001600160a01b0319166001600160a01b0392909216919091179055806140a081615990565b915050614012565b5060138054806140ba576140ba615ca2565b600082815260209020810160001990810180546001600160a01b03191690550190556140f3565b806140eb81615990565b915050613fd1565b505b836001600160a01b0316600080516020615e1183398151915260016040516110ab9190615837565b6141278282611dd1565b6114535761413481614bdd565b61413f836020614bef565b604051602001614150929190615cb8565b60408051601f198184030181529082905262461bcd60e51b8252610f989160040161531a565b826001600160a01b0316826001600160a01b03161461125857611258838383612ccc565b6040805160c0810182528381526004805460208301526003548284015260006060830181905260105493516370a0823160e01b8152909384938493909260808401926001600160a01b0316916370a08231916141f8913091016154d2565b602060405180830381865afa158015614215573d6000803e3d6000fd5b505050506040513d601f19601f820116820180604052508101906142399190615801565b8152600060209182015281015181519192501015614880576000845160001415801561426f5750601054600160a01b900460ff16155b6142d35760138054806020026020016040519081016040528092919081815260200182805480156142c957602002820191906000526020600020905b81546001600160a01b031681526001909101906020018083116142ab575b50505050506142d5565b845b602083015183519192506142e89161590f565b606083015260005b815181101561484657600082828151811061430d5761430d61597a565b6020908102919091018101516001600160a01b03811660009081526014909252604082205490925090819003614358578160405163489d081b60e11b8152600401610f9891906154d2565b6001600160a01b0382166000908152601460205260408120600201546060870151909190614386908361331d565b90506000846001600160a01b03166307a2d13a866001600160a01b031663d905777e306040518263ffffffff1660e01b81526004016143c591906154d2565b602060405180830381865afa1580156143e2573d6000803e3d6000fd5b505050506040513d601f19601f820116820180604052508101906144069190615801565b6040518263ffffffff1660e01b815260040161442491815260200190565b602060405180830381865afa158015614441573d6000803e3d6000fd5b505050506040513d601f19601f820116820180604052508101906144659190615801565b9050600073__$d50903c848ecc9d194abffd4b8b117b8ad$__632ca8ec268785876040518463ffffffff1660e01b81526004016144a493929190615959565b602060405180830381865af41580156144c1573d6000803e3d6000fd5b505050506040513d601f19601f820116820180604052508101906144e59190615801565b905080156145eb576144f7818461590f565b82101561453157600061450a828561590f565b90508061451784846158d6565b61452191906158ed565b915061452d8284615922565b9350505b61453b818461590f565b9250808960000181815161454f919061590f565b90525060608901805182919061456690839061590f565b90525060408901805182919061457d90839061590f565b9052508115801561458e5750600081115b156145eb57600061459f828661590f565b6001600160a01b038816600081815260146020526040908190206002018390555191925090600080516020615f11833981519152906145e19088908590615552565b60405180910390a2505b6145f5838361331d565b92508260000361460a57505050505050614834565b6040516316a7a12b60e31b815273__$d50903c848ecc9d194abffd4b8b117b8ad$__9063b53d0958906146439089908790600401615d27565b60006040518083038186803b15801561465b57600080fd5b505af415801561466f573d6000803e3d6000fd5b50506010546040516370a0823160e01b8152600093506001600160a01b0390911691506370a08231906146a69030906004016154d2565b602060405180830381865afa1580156146c3573d6000803e3d6000fd5b505050506040513d601f19601f820116820180604052508101906146e79190615801565b905060008a60800151826146fb919061590f565b9050600085821115614732578682111561471757869550614747565b614721868361590f565b61472b9087615922565b9550614747565b8582101561474757614744828761590f565b90505b614751818761590f565b8c6020018181516147629190615922565b9052508b5181908d9061477690839061590f565b90525060408c01805187919061478d90839061590f565b905250600061479c8588615922565b6147a6908961590f565b6001600160a01b038b16600081815260146020526040908190206002018390555191925090600080516020615f11833981519152906147e8908b908590615552565b60405180910390a260208d01518d511161480b5750505050505050505050614846565b60808d0184905260608d01805188919061482690839061590f565b905250505050505050505050505b8061483e81615990565b9150506142f0565b50815160208301511015614876576020820151825160405163b97fded160e01b8152610f98929190600401615552565b5060408101516003555b805160209091015190925090505b9250929050565b82841180156148a5575061271081105b156148ea576127106148b782866158d6565b6148c191906158ed565b6148cb848661590f565b11156148ea576040516307f65e3960e11b815260040160405180910390fd5b6148f48587613d93565b6148fe838361590f565b600455601054613d8a906001600160a01b0316888561346e565b6040516001600160a01b0380851660248301528316604482015260648101829052612d369085906323b872dd60e01b906084015b60408051601f198184030181529190526020810180516001600160e01b03166001600160e01b031990931692909217909152614d8a565b6112588363a9059cbb60e01b848460405160240161494c929190615d27565b6001600160a01b03831615806149bf57506001600160a01b038216155b156149dd5760405163d92e233d60e01b815260040160405180910390fd5b6112586001600160a01b0384168383614e5f565b60006001600160a01b038216614a1a5760405163d92e233d60e01b815260040160405180910390fd5b6000614a246129ab565b90506000614a30612940565b9050600082600003614a43575084614a89565b85821115614a7057614a55868361590f565b614a5f84886158d6565b614a6991906158ed565b9050614a89565b60405163fd7850ad60e01b815260040160405180910390fd5b80600003614a9d5760009350505050610c2d565b611d0f81865b6001600160a01b038116614aca5760405163d92e233d60e01b815260040160405180910390fd5b6001600160a01b03811660009081526015602052604081208054849290614af2908490615922565b925050819055508160026000828254614b0b9190615922565b90915550506040518281526001600160a01b03821690600090600080516020615e3183398151915290602001613e58565b6000614b488284615922565b90508015614bd3576000426008541115614b775742600854614b6a919061590f565b614b7490856158d6565b90505b60008260075485614b8891906158d6565b614b929084615922565b614b9c91906158ed565b905080614bae64e8d4a51000856158d6565b614bb891906158ed565b600955614bc58142615922565b600855505042600a55505050565b6000600955505050565b6060610c2d6001600160a01b03831660145b60606000614bfe8360026158d6565b614c09906002615922565b6001600160401b03811115614c2057614c20615659565b6040519080825280601f01601f191660200182016040528015614c4a576020820181803683370190505b509050600360fc1b81600081518110614c6557614c6561597a565b60200101906001600160f81b031916908160001a905350600f60fb1b81600181518110614c9457614c9461597a565b60200101906001600160f81b031916908160001a9053506000614cb88460026158d6565b614cc3906001615922565b90505b6001811115614d3b576f181899199a1a9b1b9c1cb0b131b232b360811b85600f1660108110614cf757614cf761597a565b1a60f81b828281518110614d0d57614d0d61597a565b60200101906001600160f81b031916908160001a90535060049490941c93614d3481615d40565b9050614cc6565b508315610e4e5760405162461bcd60e51b815260206004820181905260248201527f537472696e67733a20686578206c656e67746820696e73756666696369656e746044820152606401610f98565b6000614ddf826040518060400160405280602081526020017f5361666545524332303a206c6f772d6c6576656c2063616c6c206661696c6564815250856001600160a01b0316614f629092919063ffffffff16565b9050805160001480614e00575080806020019051810190614e009190615d57565b6112585760405162461bcd60e51b815260206004820152602a60248201527f5361666545524332303a204552433230206f7065726174696f6e20646964206e6044820152691bdd081cdd58d8d9595960b21b6064820152608401610f98565b801580614ed85750604051636eb1769f60e11b81526001600160a01b0384169063dd62ed3e90614e959030908690600401615c88565b602060405180830381865afa158015614eb2573d6000803e3d6000fd5b505050506040513d601f19601f82011682018060405250810190614ed69190615801565b155b614f435760405162461bcd60e51b815260206004820152603660248201527f5361666545524332303a20617070726f76652066726f6d206e6f6e2d7a65726f60448201527520746f206e6f6e2d7a65726f20616c6c6f77616e636560501b6064820152608401610f98565b6112588363095ea7b360e01b848460405160240161494c929190615d27565b6060611355848460008585600080866001600160a01b03168587604051614f899190615d74565b60006040518083038185875af1925050503d8060008114614fc6576040519150601f19603f3d011682016040523d82523d6000602084013e614fcb565b606091505b5091509150614fdc87838387614fe7565b979650505050505050565b6060831561505657825160000361504f576001600160a01b0385163b61504f5760405162461bcd60e51b815260206004820152601d60248201527f416464726573733a2063616c6c20746f206e6f6e2d636f6e74726163740000006044820152606401610f98565b5081611355565b611355838381511561506b5781518083602001fd5b8060405162461bcd60e51b8152600401610f98919061531a565b8280548282559060005260206000209081019282156150d8579160200282015b828111156150d85781546001600160a01b0319166001600160a01b038435161782556020909201916001909101906150a5565b506150e49291506150e8565b5090565b5b808211156150e457600081556001016150e9565b6001600160a01b038116811461285457600080fd5b60008083601f84011261512457600080fd5b5081356001600160401b0381111561513b57600080fd5b60208301915083602082850101111561488e57600080fd5b600080600080600080600080600060e08a8c03121561517157600080fd5b8935985060208a0135975060408a013561518a816150fd565b965060608a01356001600160401b03808211156151a657600080fd5b6151b28d838e01615112565b909850965060808c01359150808211156151cb57600080fd5b506151d88c828d01615112565b90955093505060a08a01356151ec816150fd565b915060c08a01356151fc816150fd565b809150509295985092959850929598565b60006020828403121561521f57600080fd5b81356001600160e01b031981168114610e4e57600080fd5b60008083601f84011261524957600080fd5b5081356001600160401b0381111561526057600080fd5b6020830191508360208260051b850101111561488e57600080fd5b60008060008060008060a0878903121561529457600080fd5b8635955060208701356152a6816150fd565b945060408701356152b6816150fd565b93506060870135925060808701356001600160401b038111156152d857600080fd5b6152e489828a01615237565b979a9699509497509295939492505050565b60005b838110156153115781810151838201526020016152f9565b50506000910152565b60208152600082518060208401526153398160408501602087016152f6565b601f01601f19169190910160400192915050565b60006020828403121561535f57600080fd5b5035919050565b6000806040838503121561537957600080fd5b8235615384816150fd565b946020939093013593505050565b6000602082840312156153a457600080fd5b8135610e4e816150fd565b6000806000606084860312156153c457600080fd5b83356153cf816150fd565b925060208401356153df816150fd565b929592945050506040919091013590565b600081518084526020808501945080840160005b838110156154295781516001600160a01b031687529582019590820190600101615404565b509495945050505050565b602081526000610e4e60208301846153f0565b6000806040838503121561545a57600080fd5b82359150602083013561546c816150fd565b809150509250929050565b6000806000806060858703121561548d57600080fd5b8435615498816150fd565b93506020850135925060408501356001600160401b038111156154ba57600080fd5b6154c687828801615237565b95989497509550505050565b6001600160a01b0391909116815260200190565b600080602083850312156154f957600080fd5b82356001600160401b0381111561550f57600080fd5b61551b85828601615237565b90969095509350505050565b801515811461285457600080fd5b60006020828403121561554757600080fd5b8135610e4e81615527565b918252602082015260400190565b60ff8116811461285457600080fd5b600080600080600080600060e0888a03121561558a57600080fd5b8735615595816150fd565b965060208801356155a5816150fd565b9550604088013594506060880135935060808801356155c381615560565b9699959850939692959460a0840135945060c09093013592915050565b600080604083850312156155f357600080fd5b82356155fe816150fd565b9150602083013561546c816150fd565b6000806040838503121561562157600080fd5b823561562c816150fd565b9150602083013561546c81615527565b60006020828403121561564e57600080fd5b8151610e4e81615560565b634e487b7160e01b600052604160045260246000fd5b600181811c9082168061568357607f821691505b6020821081036156a357634e487b7160e01b600052602260045260246000fd5b50919050565b601f82111561125857600081815260208120601f850160051c810160208610156156d05750805b601f850160051c820191505b818110156156ef578281556001016156dc565b505050505050565b6001600160401b0383111561570e5761570e615659565b6157228361571c835461566f565b836156a9565b6000601f841160018114615756576000851561573e5750838201355b600019600387901b1c1916600186901b178355612d34565b600083815260209020601f19861690835b828110156157875786850135825560209485019460019092019101615767565b50868210156157a45760001960f88860031b161c19848701351681555b505060018560011b0183555050505050565b6002811061285457634e487b7160e01b600052602160045260246000fd5b8481526020810184905260408101839052608081016157f2836157b6565b82606083015295945050505050565b60006020828403121561581357600080fd5b5051919050565b60006020828403121561582c57600080fd5b8151610e4e816150fd565b60208101615844836157b6565b91905290565b60008083546158588161566f565b600182811680156158705760018114615885576158b4565b60ff19841687528215158302870194506158b4565b8760005260208060002060005b858110156158ab5781548a820152908401908201615892565b50505082870194505b50929695505050505050565b634e487b7160e01b600052601160045260246000fd5b8082028115828204841417610c2d57610c2d6158c0565b60008261590a57634e487b7160e01b600052601260045260246000fd5b500490565b81810381811115610c2d57610c2d6158c0565b80820180821115610c2d57610c2d6158c0565b6000806040838503121561594857600080fd5b505080516020909101519092909150565b6001600160a01b039390931683526020830191909152604082015260600190565b634e487b7160e01b600052603260045260246000fd5b6000600182016159a2576159a26158c0565b5060010190565b60208082528181018390526000908460408401835b868110156159ec5782356159d1816150fd565b6001600160a01b0316825291830191908301906001016159be565b509695505050505050565b600181815b80851115615a32578160001904821115615a1857615a186158c0565b80851615615a2557918102915b93841c93908002906159fc565b509250929050565b600082615a4957506001610c2d565b81615a5657506000610c2d565b8160018114615a6c5760028114615a7657615a92565b6001915050610c2d565b60ff841115615a8757615a876158c0565b50506001821b610c2d565b5060208310610133831016604e8410600b8410161715615ab5575081810a610c2d565b615abf83836159f7565b8060001904821115615ad357615ad36158c0565b029392505050565b6000610e4e60ff841683615a3a565b60405160c081016001600160401b0381118282101715615b0c57615b0c615659565b60405290565b604051608081016001600160401b0381118282101715615b0c57615b0c615659565b600060608284031215615b4657600080fd5b604051606081016001600160401b0381118282101715615b6857615b68615659565b80604052508091508251815260208301516020820152604083015160408201525092915050565b6000818303610160811215615ba357600080fd5b615bab615aea565b835181526020840151602082015260408401516040820152606084015160608201526080607f1983011215615bdf57600080fd5b615be7615b12565b91506080840151825260a0840151602083015260c0840151604083015260e0840151615c12816150fd565b606083015260808101829052615c2c856101008601615b34565b60a0820152949350505050565b958652602086019490945260408501929092526060840152608083015260a082015260c00190565b60018060a01b0384168152826020820152606060408201526000611d0f60608301846153f0565b6001600160a01b0392831681529116602082015260400190565b634e487b7160e01b600052603160045260246000fd5b76020b1b1b2b9b9a1b7b73a3937b61d1030b1b1b7bab73a1604d1b815260008351615cea8160178501602088016152f6565b7001034b99036b4b9b9b4b733903937b6329607d1b6017918401918201528351615d1b8160288401602088016152f6565b01602801949350505050565b6001600160a01b03929092168252602082015260400190565b600081615d4f57615d4f6158c0565b506000190190565b600060208284031215615d6957600080fd5b8151610e4e81615527565b60008251615d868184602087016152f6565b919091019291505056fed5c8971839cd457e3e7008c5010f80fdfb8dbe466e9eff20c25d5d7c1e93d3fb633076a97f32ae349b28772e7b1483f67a926f150cbc501d02bdbd77389325ab1e92f04e56f08d7fc631d317720ce6c1392414dbf052f01c99b4d50ccc494c091893e1a169e79f2fe8aa327b1bceb2fede7a1b76a54824f95ea0e737720954aebcf55f13710eed7eda89416c2984da5475fcff67e96fe85e56eed808559a5222ddf252ad1be2c89b69c2b068fc378daa952ba7f163c4a11628f55a4df523b3ef7f2ad1d3ba35276f35ef140f83e3e0f17b23064fd710113d3f7a5ab30d2678116e71edae12b1b97f4d1f60370fef10105fa2faae0126114a169c64845d6126c98c5be1e5ebec7d5bd14f71427d1e84f3dd0314c0f7b2291e5b200ac8c7c3b925900d80def0427daac599092fcb16b21808ec68dd9a2e1eae89d1e8db213573758b73c3c69bb8fe3d512ecc4cf759cc79239f7b179b0ffacaa9a75d522b39400fdcbc1c05240f31ff3ad067ef1ee35ce4997762752e3a095284754544f4c709d75e2b8821ad6e0e26207e0cb4d242d07eeb1cbb1cfd853e645bdcd27cc5484f95a264697066735822122001db2539d5bfa5414c3a9f36524ccb2df76ecf05a0225ffa995e3759dd8693d464736f6c63430008130033",
  "linkReferences": {
    "contracts/vault/libs/VaultLogic.sol": {
      "VaultLogic": [
        {
          "length": 20,
          "start": 3178
        },
        {
          "length": 20,
          "start": 3547
        },
        {
          "length": 20,
          "start": 3710
        },
        {
          "length": 20,
          "start": 4743
        },
        {
          "length": 20,
          "start": 6079
        },
        {
          "length": 20,
          "start": 6337
        },
        {
          "length": 20,
          "start": 6902
        },
        {
          "length": 20,
          "start": 7755
        },
        {
          "length": 20,
          "start": 8148
        },
        {
          "length": 20,
          "start": 8403
        },
        {
          "length": 20,
          "start": 8834
        },
        {
          "length": 20,
          "start": 8879
        },
        {
          "length": 20,
          "start": 9490
        },
        {
          "length": 20,
          "start": 10804
        },
        {
          "length": 20,
          "start": 10962
        },
        {
          "length": 20,
          "start": 11955
        },
        {
          "length": 20,
          "start": 12541
        },
        {
          "length": 20,
          "start": 13981
        },
        {
          "length": 20,
          "start": 14648
        },
        {
          "length": 20,
          "start": 17552
        },
        {
          "length": 20,
          "start": 17982
        }
      ]
    }
  },
  "deployedLinkReferences": {
    "contracts/vault/libs/VaultLogic.sol": {
      "VaultLogic": [
        {
          "length": 20,
          "start": 3141
        },
        {
          "length": 20,
          "start": 3510
        },
        {
          "length": 20,
          "start": 3673
        },
        {
          "length": 20,
          "start": 4706
        },
        {
          "length": 20,
          "start": 6042
        },
        {
          "length": 20,
          "start": 6300
        },
        {
          "length": 20,
          "start": 6865
        },
        {
          "length": 20,
          "start": 7718
        },
        {
          "length": 20,
          "start": 8111
        },
        {
          "length": 20,
          "start": 8366
        },
        {
          "length": 20,
          "start": 8797
        },
        {
          "length": 20,
          "start": 8842
        },
        {
          "length": 20,
          "start": 9453
        },
        {
          "length": 20,
          "start": 10767
        },
        {
          "length": 20,
          "start": 10925
        },
        {
          "length": 20,
          "start": 11918
        },
        {
          "length": 20,
          "start": 12504
        },
        {
          "length": 20,
          "start": 13944
        },
        {
          "length": 20,
          "start": 14611
        },
        {
          "length": 20,
          "start": 17515
        },
        {
          "length": 20,
          "start": 17945
        }
      ]
    }
  }
}