{
  "address": "0x7AcB02A0f04F1A202A0197347a2B31CAC16D8448",
  "abi": [
    {
      "inputs": [],
      "name": "AlreadyInitialized",
      "type": "error"
    },
    {
      "inputs": [],
      "name": "AmountTooHigh",
      "type": "error"
    },
    {
      "inputs": [],
      "name": "DebtDidntChange",
      "type": "error"
    },
    {
      "inputs": [
        {
          "internalType": "uint256",
          "name": "newDebt",
          "type": "uint256"
        },
        {
          "internalType": "uint256",
          "name": "maxDebt",
          "type": "uint256"
        }
      ],
      "name": "DebtHigherThanMaxDebt",
      "type": "error"
    },
    {
      "inputs": [
        {
          "internalType": "uint256",
          "name": "currentAllowance",
          "type": "uint256"
        }
      ],
      "name": "ERC20InsufficientAllowance",
      "type": "error"
    },
    {
      "inputs": [],
      "name": "ERC20PermitExpired",
      "type": "error"
    },
    {
      "inputs": [
        {
          "internalType": "address",
          "name": "recoveredAddress",
          "type": "address"
        }
      ],
      "name": "ERC20PermitInvalidSignature",
      "type": "error"
    },
    {
      "inputs": [
        {
          "internalType": "uint256",
          "name": "recipientMaxDeposit",
          "type": "uint256"
        }
      ],
      "name": "ExceedDepositLimit",
      "type": "error"
    },
    {
      "inputs": [
        {
          "internalType": "uint256",
          "name": "recipientMaxWithdraw",
          "type": "uint256"
        }
      ],
      "name": "ExceedWithdrawLimit",
      "type": "error"
    },
    {
      "inputs": [],
      "name": "FeeExceedsMax",
      "type": "error"
    },
    {
      "inputs": [
        {
          "internalType": "address",
          "name": "strategy",
          "type": "address"
        }
      ],
      "name": "InactiveStrategy",
      "type": "error"
    },
    {
      "inputs": [],
      "name": "InactiveVault",
      "type": "error"
    },
    {
      "inputs": [
        {
          "internalType": "uint256",
          "name": "currTotalIdle",
          "type": "uint256"
        },
        {
          "internalType": "uint256",
          "name": "requestedAssets",
          "type": "uint256"
        }
      ],
      "name": "InsufficientAssets",
      "type": "error"
    },
    {
      "inputs": [],
      "name": "InsufficientFunds",
      "type": "error"
    },
    {
      "inputs": [
        {
          "internalType": "uint256",
          "name": "balanceOfOwner",
          "type": "uint256"
        }
      ],
      "name": "InsufficientShares",
      "type": "error"
    },
    {
      "inputs": [
        {
          "internalType": "address",
          "name": "asset",
          "type": "address"
        }
      ],
      "name": "InvalidAsset",
      "type": "error"
    },
    {
      "inputs": [],
      "name": "InvalidAssetDecimals",
      "type": "error"
    },
    {
      "inputs": [],
      "name": "MaxLoss",
      "type": "error"
    },
    {
      "inputs": [],
      "name": "ProfitUnlockTimeTooLong",
      "type": "error"
    },
    {
      "inputs": [],
      "name": "SelfApprove",
      "type": "error"
    },
    {
      "inputs": [],
      "name": "SelfTransfer",
      "type": "error"
    },
    {
      "inputs": [],
      "name": "StrategyAlreadyActive",
      "type": "error"
    },
    {
      "inputs": [
        {
          "internalType": "uint256",
          "name": "strageyCurrentDebt",
          "type": "uint256"
        }
      ],
      "name": "StrategyDebtIsLessThanAssetsNeeded",
      "type": "error"
    },
    {
      "inputs": [
        {
          "internalType": "uint256",
          "name": "debt",
          "type": "uint256"
        }
      ],
      "name": "StrategyHasDebt",
      "type": "error"
    },
    {
      "inputs": [
        {
          "internalType": "uint256",
          "name": "unrealisedLosses",
          "type": "uint256"
        }
      ],
      "name": "StrategyHasUnrealisedLosses",
      "type": "error"
    },
    {
      "inputs": [],
      "name": "TooMuchLoss",
      "type": "error"
    },
    {
      "inputs": [],
      "name": "UsingDepositLimit",
      "type": "error"
    },
    {
      "inputs": [],
      "name": "UsingModule",
      "type": "error"
    },
    {
      "inputs": [],
      "name": "VaultReceiver",
      "type": "error"
    },
    {
      "inputs": [],
      "name": "ZeroAddress",
      "type": "error"
    },
    {
      "inputs": [],
      "name": "ZeroValue",
      "type": "error"
    },
    {
      "anonymous": false,
      "inputs": [
        {
          "indexed": true,
          "internalType": "address",
          "name": "owner",
          "type": "address"
        },
        {
          "indexed": true,
          "internalType": "address",
          "name": "spender",
          "type": "address"
        },
        {
          "indexed": false,
          "internalType": "uint256",
          "name": "value",
          "type": "uint256"
        }
      ],
      "name": "Approval",
      "type": "event"
    },
    {
      "anonymous": false,
      "inputs": [
        {
          "indexed": true,
          "internalType": "address",
          "name": "strategy",
          "type": "address"
        },
        {
          "indexed": false,
          "internalType": "uint256",
          "name": "amount",
          "type": "uint256"
        }
      ],
      "name": "DebtPurchased",
      "type": "event"
    },
    {
      "anonymous": false,
      "inputs": [
        {
          "indexed": true,
          "internalType": "address",
          "name": "strategy",
          "type": "address"
        },
        {
          "indexed": false,
          "internalType": "uint256",
          "name": "currentDebt",
          "type": "uint256"
        },
        {
          "indexed": false,
          "internalType": "uint256",
          "name": "newDebt",
          "type": "uint256"
        }
      ],
      "name": "DebtUpdated",
      "type": "event"
    },
    {
      "anonymous": false,
      "inputs": [
        {
          "indexed": true,
          "internalType": "address",
          "name": "sender",
          "type": "address"
        },
        {
          "indexed": true,
          "internalType": "address",
          "name": "owner",
          "type": "address"
        },
        {
          "indexed": false,
          "internalType": "uint256",
          "name": "assets",
          "type": "uint256"
        },
        {
          "indexed": false,
          "internalType": "uint256",
          "name": "shares",
          "type": "uint256"
        }
      ],
      "name": "Deposit",
      "type": "event"
    },
    {
      "anonymous": false,
      "inputs": [
        {
          "indexed": true,
          "internalType": "bytes32",
          "name": "role",
          "type": "bytes32"
        },
        {
          "indexed": true,
          "internalType": "bytes32",
          "name": "previousAdminRole",
          "type": "bytes32"
        },
        {
          "indexed": true,
          "internalType": "bytes32",
          "name": "newAdminRole",
          "type": "bytes32"
        }
      ],
      "name": "RoleAdminChanged",
      "type": "event"
    },
    {
      "anonymous": false,
      "inputs": [
        {
          "indexed": true,
          "internalType": "bytes32",
          "name": "role",
          "type": "bytes32"
        },
        {
          "indexed": true,
          "internalType": "address",
          "name": "account",
          "type": "address"
        },
        {
          "indexed": true,
          "internalType": "address",
          "name": "sender",
          "type": "address"
        }
      ],
      "name": "RoleGranted",
      "type": "event"
    },
    {
      "anonymous": false,
      "inputs": [
        {
          "indexed": true,
          "internalType": "bytes32",
          "name": "role",
          "type": "bytes32"
        },
        {
          "indexed": true,
          "internalType": "address",
          "name": "account",
          "type": "address"
        },
        {
          "indexed": true,
          "internalType": "address",
          "name": "sender",
          "type": "address"
        }
      ],
      "name": "RoleRevoked",
      "type": "event"
    },
    {
      "anonymous": false,
      "inputs": [
        {
          "indexed": true,
          "internalType": "address",
          "name": "account",
          "type": "address"
        },
        {
          "indexed": false,
          "internalType": "bytes32",
          "name": "role",
          "type": "bytes32"
        }
      ],
      "name": "RoleSet",
      "type": "event"
    },
    {
      "anonymous": false,
      "inputs": [
        {
          "indexed": true,
          "internalType": "bytes32",
          "name": "role",
          "type": "bytes32"
        },
        {
          "indexed": false,
          "internalType": "enum RoleStatusChange",
          "name": "status",
          "type": "uint8"
        }
      ],
      "name": "RoleStatusChanged",
      "type": "event"
    },
    {
      "anonymous": false,
      "inputs": [],
      "name": "Shutdown",
      "type": "event"
    },
    {
      "anonymous": false,
      "inputs": [
        {
          "indexed": true,
          "internalType": "address",
          "name": "strategy",
          "type": "address"
        },
        {
          "indexed": false,
          "internalType": "enum StrategyChangeType",
          "name": "changeType",
          "type": "uint8"
        }
      ],
      "name": "StrategyChanged",
      "type": "event"
    },
    {
      "anonymous": false,
      "inputs": [
        {
          "indexed": true,
          "internalType": "address",
          "name": "strategy",
          "type": "address"
        },
        {
          "indexed": false,
          "internalType": "uint256",
          "name": "gain",
          "type": "uint256"
        },
        {
          "indexed": false,
          "internalType": "uint256",
          "name": "loss",
          "type": "uint256"
        },
        {
          "indexed": false,
          "internalType": "uint256",
          "name": "currentDebt",
          "type": "uint256"
        },
        {
          "indexed": false,
          "internalType": "uint256",
          "name": "protocolFees",
          "type": "uint256"
        },
        {
          "indexed": false,
          "internalType": "uint256",
          "name": "totalFees",
          "type": "uint256"
        },
        {
          "indexed": false,
          "internalType": "uint256",
          "name": "totalRefunds",
          "type": "uint256"
        }
      ],
      "name": "StrategyReported",
      "type": "event"
    },
    {
      "anonymous": false,
      "inputs": [
        {
          "indexed": true,
          "internalType": "address",
          "name": "from",
          "type": "address"
        },
        {
          "indexed": true,
          "internalType": "address",
          "name": "to",
          "type": "address"
        },
        {
          "indexed": false,
          "internalType": "uint256",
          "name": "value",
          "type": "uint256"
        }
      ],
      "name": "Transfer",
      "type": "event"
    },
    {
      "anonymous": false,
      "inputs": [
        {
          "indexed": false,
          "internalType": "address",
          "name": "accountant",
          "type": "address"
        }
      ],
      "name": "UpdatedAccountant",
      "type": "event"
    },
    {
      "anonymous": false,
      "inputs": [
        {
          "indexed": false,
          "internalType": "address[]",
          "name": "newDefaultQueue",
          "type": "address[]"
        }
      ],
      "name": "UpdatedDefaultQueue",
      "type": "event"
    },
    {
      "anonymous": false,
      "inputs": [
        {
          "indexed": false,
          "internalType": "uint256",
          "name": "depositLimit",
          "type": "uint256"
        }
      ],
      "name": "UpdatedDepositLimit",
      "type": "event"
    },
    {
      "anonymous": false,
      "inputs": [
        {
          "indexed": false,
          "internalType": "address",
          "name": "depositLimitModule",
          "type": "address"
        }
      ],
      "name": "UpdatedDepositLimitModule",
      "type": "event"
    },
    {
      "anonymous": false,
      "inputs": [
        {
          "indexed": false,
          "internalType": "uint256",
          "name": "totalFees",
          "type": "uint256"
        },
        {
          "indexed": false,
          "internalType": "uint256",
          "name": "totalRefunds",
          "type": "uint256"
        },
        {
          "indexed": false,
          "internalType": "uint256",
          "name": "protocolFees",
          "type": "uint256"
        },
        {
          "indexed": false,
          "internalType": "address",
          "name": "protocolFeeRecipient",
          "type": "address"
        }
      ],
      "name": "UpdatedFees",
      "type": "event"
    },
    {
      "anonymous": false,
      "inputs": [
        {
          "indexed": true,
          "internalType": "address",
          "name": "sender",
          "type": "address"
        },
        {
          "indexed": true,
          "internalType": "address",
          "name": "strategy",
          "type": "address"
        },
        {
          "indexed": false,
          "internalType": "uint256",
          "name": "newDebt",
          "type": "uint256"
        }
      ],
      "name": "UpdatedMaxDebtForStrategy",
      "type": "event"
    },
    {
      "anonymous": false,
      "inputs": [
        {
          "indexed": false,
          "internalType": "uint256",
          "name": "minimumTotalIdle",
          "type": "uint256"
        }
      ],
      "name": "UpdatedMinimumTotalIdle",
      "type": "event"
    },
    {
      "anonymous": false,
      "inputs": [
        {
          "indexed": false,
          "internalType": "uint256",
          "name": "profitMaxUnlockTime",
          "type": "uint256"
        }
      ],
      "name": "UpdatedProfitMaxUnlockTime",
      "type": "event"
    },
    {
      "anonymous": false,
      "inputs": [
        {
          "indexed": false,
          "internalType": "bool",
          "name": "useDefaultQueue",
          "type": "bool"
        }
      ],
      "name": "UpdatedUseDefaultQueue",
      "type": "event"
    },
    {
      "anonymous": false,
      "inputs": [
        {
          "indexed": false,
          "internalType": "address",
          "name": "withdrawLimitModule",
          "type": "address"
        }
      ],
      "name": "UpdatedWithdrawLimitModule",
      "type": "event"
    },
    {
      "anonymous": false,
      "inputs": [
        {
          "indexed": true,
          "internalType": "address",
          "name": "sender",
          "type": "address"
        },
        {
          "indexed": true,
          "internalType": "address",
          "name": "receiver",
          "type": "address"
        },
        {
          "indexed": true,
          "internalType": "address",
          "name": "owner",
          "type": "address"
        },
        {
          "indexed": false,
          "internalType": "uint256",
          "name": "assets",
          "type": "uint256"
        },
        {
          "indexed": false,
          "internalType": "uint256",
          "name": "shares",
          "type": "uint256"
        }
      ],
      "name": "Withdraw",
      "type": "event"
    },
    {
      "inputs": [],
      "name": "DEBT_PURCHASER",
      "outputs": [
        {
          "internalType": "bytes32",
          "name": "",
          "type": "bytes32"
        }
      ],
      "stateMutability": "view",
      "type": "function"
    },
    {
      "inputs": [],
      "name": "DEFAULT_ADMIN_ROLE",
      "outputs": [
        {
          "internalType": "bytes32",
          "name": "",
          "type": "bytes32"
        }
      ],
      "stateMutability": "view",
      "type": "function"
    },
    {
      "inputs": [],
      "name": "DOMAIN_SEPARATOR",
      "outputs": [
        {
          "internalType": "bytes32",
          "name": "",
          "type": "bytes32"
        }
      ],
      "stateMutability": "view",
      "type": "function"
    },
    {
      "inputs": [],
      "name": "DOMAIN_TYPE_HASH",
      "outputs": [
        {
          "internalType": "bytes32",
          "name": "",
          "type": "bytes32"
        }
      ],
      "stateMutability": "view",
      "type": "function"
    },
    {
      "inputs": [],
      "name": "MAX_BPS",
      "outputs": [
        {
          "internalType": "uint256",
          "name": "",
          "type": "uint256"
        }
      ],
      "stateMutability": "view",
      "type": "function"
    },
    {
      "inputs": [],
      "name": "MAX_BPS_EXTENDED",
      "outputs": [
        {
          "internalType": "uint256",
          "name": "",
          "type": "uint256"
        }
      ],
      "stateMutability": "view",
      "type": "function"
    },
    {
      "inputs": [],
      "name": "MAX_QUEUE",
      "outputs": [
        {
          "internalType": "uint256",
          "name": "",
          "type": "uint256"
        }
      ],
      "stateMutability": "view",
      "type": "function"
    },
    {
      "inputs": [],
      "name": "ONE_YEAR",
      "outputs": [
        {
          "internalType": "uint256",
          "name": "",
          "type": "uint256"
        }
      ],
      "stateMutability": "view",
      "type": "function"
    },
    {
      "inputs": [],
      "name": "PERMIT_TYPE_HASH",
      "outputs": [
        {
          "internalType": "bytes32",
          "name": "",
          "type": "bytes32"
        }
      ],
      "stateMutability": "view",
      "type": "function"
    },
    {
      "inputs": [],
      "name": "REPORTING_MANAGER",
      "outputs": [
        {
          "internalType": "bytes32",
          "name": "",
          "type": "bytes32"
        }
      ],
      "stateMutability": "view",
      "type": "function"
    },
    {
      "inputs": [],
      "name": "STRATEGY_MANAGER",
      "outputs": [
        {
          "internalType": "bytes32",
          "name": "",
          "type": "bytes32"
        }
      ],
      "stateMutability": "view",
      "type": "function"
    },
    {
      "inputs": [],
      "name": "accountant",
      "outputs": [
        {
          "internalType": "address",
          "name": "",
          "type": "address"
        }
      ],
      "stateMutability": "view",
      "type": "function"
    },
    {
      "inputs": [
        {
          "internalType": "address",
          "name": "newStrategy",
          "type": "address"
        }
      ],
      "name": "addStrategy",
      "outputs": [],
      "stateMutability": "nonpayable",
      "type": "function"
    },
    {
      "inputs": [
        {
          "internalType": "address",
          "name": "owner",
          "type": "address"
        },
        {
          "internalType": "address",
          "name": "spender",
          "type": "address"
        }
      ],
      "name": "allowance",
      "outputs": [
        {
          "internalType": "uint256",
          "name": "",
          "type": "uint256"
        }
      ],
      "stateMutability": "view",
      "type": "function"
    },
    {
      "inputs": [],
      "name": "apiVersion",
      "outputs": [
        {
          "internalType": "string",
          "name": "",
          "type": "string"
        }
      ],
      "stateMutability": "pure",
      "type": "function"
    },
    {
      "inputs": [
        {
          "internalType": "address",
          "name": "spender",
          "type": "address"
        },
        {
          "internalType": "uint256",
          "name": "amount",
          "type": "uint256"
        }
      ],
      "name": "approve",
      "outputs": [
        {
          "internalType": "bool",
          "name": "",
          "type": "bool"
        }
      ],
      "stateMutability": "nonpayable",
      "type": "function"
    },
    {
      "inputs": [
        {
          "internalType": "address",
          "name": "strategy",
          "type": "address"
        },
        {
          "internalType": "uint256",
          "name": "assetsNeeded",
          "type": "uint256"
        }
      ],
      "name": "assessShareOfUnrealisedLosses",
      "outputs": [
        {
          "internalType": "uint256",
          "name": "",
          "type": "uint256"
        }
      ],
      "stateMutability": "view",
      "type": "function"
    },
    {
      "inputs": [],
      "name": "asset",
      "outputs": [
        {
          "internalType": "address",
          "name": "",
          "type": "address"
        }
      ],
      "stateMutability": "view",
      "type": "function"
    },
    {
      "inputs": [
        {
          "internalType": "address",
          "name": "addr",
          "type": "address"
        }
      ],
      "name": "balanceOf",
      "outputs": [
        {
          "internalType": "uint256",
          "name": "",
          "type": "uint256"
        }
      ],
      "stateMutability": "view",
      "type": "function"
    },
    {
      "inputs": [
        {
          "internalType": "address",
          "name": "strategy",
          "type": "address"
        },
        {
          "internalType": "uint256",
          "name": "amount",
          "type": "uint256"
        }
      ],
      "name": "buyDebt",
      "outputs": [],
      "stateMutability": "nonpayable",
      "type": "function"
    },
    {
      "inputs": [
        {
          "internalType": "uint256",
          "name": "shares",
          "type": "uint256"
        }
      ],
      "name": "convertToAssets",
      "outputs": [
        {
          "internalType": "uint256",
          "name": "",
          "type": "uint256"
        }
      ],
      "stateMutability": "view",
      "type": "function"
    },
    {
      "inputs": [
        {
          "internalType": "uint256",
          "name": "assets",
          "type": "uint256"
        }
      ],
      "name": "convertToShares",
      "outputs": [
        {
          "internalType": "uint256",
          "name": "",
          "type": "uint256"
        }
      ],
      "stateMutability": "view",
      "type": "function"
    },
    {
      "inputs": [],
      "name": "decimals",
      "outputs": [
        {
          "internalType": "uint8",
          "name": "",
          "type": "uint8"
        }
      ],
      "stateMutability": "view",
      "type": "function"
    },
    {
      "inputs": [
        {
          "internalType": "uint256",
          "name": "",
          "type": "uint256"
        }
      ],
      "name": "defaultQueue",
      "outputs": [
        {
          "internalType": "address",
          "name": "",
          "type": "address"
        }
      ],
      "stateMutability": "view",
      "type": "function"
    },
    {
      "inputs": [
        {
          "internalType": "uint256",
          "name": "assets",
          "type": "uint256"
        },
        {
          "internalType": "address",
          "name": "receiver",
          "type": "address"
        }
      ],
      "name": "deposit",
      "outputs": [
        {
          "internalType": "uint256",
          "name": "",
          "type": "uint256"
        }
      ],
      "stateMutability": "nonpayable",
      "type": "function"
    },
    {
      "inputs": [],
      "name": "depositLimit",
      "outputs": [
        {
          "internalType": "uint256",
          "name": "",
          "type": "uint256"
        }
      ],
      "stateMutability": "view",
      "type": "function"
    },
    {
      "inputs": [],
      "name": "depositLimitModule",
      "outputs": [
        {
          "internalType": "address",
          "name": "",
          "type": "address"
        }
      ],
      "stateMutability": "view",
      "type": "function"
    },
    {
      "inputs": [],
      "name": "factory",
      "outputs": [
        {
          "internalType": "address",
          "name": "",
          "type": "address"
        }
      ],
      "stateMutability": "view",
      "type": "function"
    },
    {
      "inputs": [
        {
          "internalType": "address",
          "name": "strategy",
          "type": "address"
        }
      ],
      "name": "forceRevokeStrategy",
      "outputs": [],
      "stateMutability": "nonpayable",
      "type": "function"
    },
    {
      "inputs": [],
      "name": "fullProfitUnlockDate",
      "outputs": [
        {
          "internalType": "uint256",
          "name": "",
          "type": "uint256"
        }
      ],
      "stateMutability": "view",
      "type": "function"
    },
    {
      "inputs": [
        {
          "internalType": "address",
          "name": "strategy",
          "type": "address"
        }
      ],
      "name": "getDebt",
      "outputs": [
        {
          "internalType": "uint256",
          "name": "",
          "type": "uint256"
        }
      ],
      "stateMutability": "view",
      "type": "function"
    },
    {
      "inputs": [],
      "name": "getDefaultQueue",
      "outputs": [
        {
          "internalType": "address[]",
          "name": "",
          "type": "address[]"
        }
      ],
      "stateMutability": "view",
      "type": "function"
    },
    {
      "inputs": [],
      "name": "getDefaultQueueLength",
      "outputs": [
        {
          "internalType": "uint256",
          "name": "length",
          "type": "uint256"
        }
      ],
      "stateMutability": "view",
      "type": "function"
    },
    {
      "inputs": [
        {
          "internalType": "bytes32",
          "name": "role",
          "type": "bytes32"
        }
      ],
      "name": "getRoleAdmin",
      "outputs": [
        {
          "internalType": "bytes32",
          "name": "",
          "type": "bytes32"
        }
      ],
      "stateMutability": "view",
      "type": "function"
    },
    {
      "inputs": [
        {
          "internalType": "bytes32",
          "name": "role",
          "type": "bytes32"
        },
        {
          "internalType": "address",
          "name": "account",
          "type": "address"
        }
      ],
      "name": "grantRole",
      "outputs": [],
      "stateMutability": "nonpayable",
      "type": "function"
    },
    {
      "inputs": [
        {
          "internalType": "bytes32",
          "name": "role",
          "type": "bytes32"
        },
        {
          "internalType": "address",
          "name": "account",
          "type": "address"
        }
      ],
      "name": "hasRole",
      "outputs": [
        {
          "internalType": "bool",
          "name": "",
          "type": "bool"
        }
      ],
      "stateMutability": "view",
      "type": "function"
    },
    {
      "inputs": [
        {
          "internalType": "uint256",
          "name": "_profitMaxUnlockTime",
          "type": "uint256"
        },
        {
          "internalType": "address",
          "name": "_asset",
          "type": "address"
        },
        {
          "internalType": "string",
          "name": "_name",
          "type": "string"
        },
        {
          "internalType": "string",
          "name": "_symbol",
          "type": "string"
        },
        {
          "internalType": "address",
          "name": "_accountant",
          "type": "address"
        },
        {
          "internalType": "address",
          "name": "_admin",
          "type": "address"
        }
      ],
      "name": "initialize",
      "outputs": [],
      "stateMutability": "nonpayable",
      "type": "function"
    },
    {
      "inputs": [],
      "name": "initialized",
      "outputs": [
        {
          "internalType": "bool",
          "name": "",
          "type": "bool"
        }
      ],
      "stateMutability": "view",
      "type": "function"
    },
    {
      "inputs": [],
      "name": "lastProfitUpdate",
      "outputs": [
        {
          "internalType": "uint256",
          "name": "",
          "type": "uint256"
        }
      ],
      "stateMutability": "view",
      "type": "function"
    },
    {
      "inputs": [
        {
          "internalType": "address",
          "name": "receiver",
          "type": "address"
        }
      ],
      "name": "maxDeposit",
      "outputs": [
        {
          "internalType": "uint256",
          "name": "",
          "type": "uint256"
        }
      ],
      "stateMutability": "view",
      "type": "function"
    },
    {
      "inputs": [
        {
          "internalType": "address",
          "name": "receiver",
          "type": "address"
        }
      ],
      "name": "maxMint",
      "outputs": [
        {
          "internalType": "uint256",
          "name": "",
          "type": "uint256"
        }
      ],
      "stateMutability": "view",
      "type": "function"
    },
    {
      "inputs": [
        {
          "internalType": "address",
          "name": "owner",
          "type": "address"
        },
        {
          "internalType": "uint256",
          "name": "maxLoss",
          "type": "uint256"
        },
        {
          "internalType": "address[]",
          "name": "_strategies",
          "type": "address[]"
        }
      ],
      "name": "maxRedeem",
      "outputs": [
        {
          "internalType": "uint256",
          "name": "",
          "type": "uint256"
        }
      ],
      "stateMutability": "view",
      "type": "function"
    },
    {
      "inputs": [
        {
          "internalType": "address",
          "name": "owner",
          "type": "address"
        },
        {
          "internalType": "uint256",
          "name": "maxLoss",
          "type": "uint256"
        },
        {
          "internalType": "address[]",
          "name": "_strategies",
          "type": "address[]"
        }
      ],
      "name": "maxWithdraw",
      "outputs": [
        {
          "internalType": "uint256",
          "name": "",
          "type": "uint256"
        }
      ],
      "stateMutability": "view",
      "type": "function"
    },
    {
      "inputs": [],
      "name": "minimumTotalIdle",
      "outputs": [
        {
          "internalType": "uint256",
          "name": "",
          "type": "uint256"
        }
      ],
      "stateMutability": "view",
      "type": "function"
    },
    {
      "inputs": [
        {
          "internalType": "uint256",
          "name": "shares",
          "type": "uint256"
        },
        {
          "internalType": "address",
          "name": "receiver",
          "type": "address"
        }
      ],
      "name": "mint",
      "outputs": [
        {
          "internalType": "uint256",
          "name": "",
          "type": "uint256"
        }
      ],
      "stateMutability": "nonpayable",
      "type": "function"
    },
    {
      "inputs": [],
      "name": "name",
      "outputs": [
        {
          "internalType": "string",
          "name": "",
          "type": "string"
        }
      ],
      "stateMutability": "view",
      "type": "function"
    },
    {
      "inputs": [
        {
          "internalType": "address",
          "name": "",
          "type": "address"
        }
      ],
      "name": "nonces",
      "outputs": [
        {
          "internalType": "uint256",
          "name": "",
          "type": "uint256"
        }
      ],
      "stateMutability": "view",
      "type": "function"
    },
    {
      "inputs": [
        {
          "internalType": "address",
          "name": "owner",
          "type": "address"
        },
        {
          "internalType": "address",
          "name": "spender",
          "type": "address"
        },
        {
          "internalType": "uint256",
          "name": "amount",
          "type": "uint256"
        },
        {
          "internalType": "uint256",
          "name": "deadline",
          "type": "uint256"
        },
        {
          "internalType": "uint8",
          "name": "v",
          "type": "uint8"
        },
        {
          "internalType": "bytes32",
          "name": "r",
          "type": "bytes32"
        },
        {
          "internalType": "bytes32",
          "name": "s",
          "type": "bytes32"
        }
      ],
      "name": "permit",
      "outputs": [
        {
          "internalType": "bool",
          "name": "",
          "type": "bool"
        }
      ],
      "stateMutability": "nonpayable",
      "type": "function"
    },
    {
      "inputs": [
        {
          "internalType": "uint256",
          "name": "assets",
          "type": "uint256"
        }
      ],
      "name": "previewDeposit",
      "outputs": [
        {
          "internalType": "uint256",
          "name": "",
          "type": "uint256"
        }
      ],
      "stateMutability": "view",
      "type": "function"
    },
    {
      "inputs": [
        {
          "internalType": "uint256",
          "name": "shares",
          "type": "uint256"
        }
      ],
      "name": "previewMint",
      "outputs": [
        {
          "internalType": "uint256",
          "name": "",
          "type": "uint256"
        }
      ],
      "stateMutability": "view",
      "type": "function"
    },
    {
      "inputs": [
        {
          "internalType": "uint256",
          "name": "shares",
          "type": "uint256"
        }
      ],
      "name": "previewRedeem",
      "outputs": [
        {
          "internalType": "uint256",
          "name": "",
          "type": "uint256"
        }
      ],
      "stateMutability": "view",
      "type": "function"
    },
    {
      "inputs": [
        {
          "internalType": "uint256",
          "name": "assets",
          "type": "uint256"
        }
      ],
      "name": "previewWithdraw",
      "outputs": [
        {
          "internalType": "uint256",
          "name": "",
          "type": "uint256"
        }
      ],
      "stateMutability": "view",
      "type": "function"
    },
    {
      "inputs": [],
      "name": "pricePerShare",
      "outputs": [
        {
          "internalType": "uint256",
          "name": "",
          "type": "uint256"
        }
      ],
      "stateMutability": "view",
      "type": "function"
    },
    {
      "inputs": [
        {
          "internalType": "address",
          "name": "strategy",
          "type": "address"
        }
      ],
      "name": "processReport",
      "outputs": [
        {
          "internalType": "uint256",
          "name": "",
          "type": "uint256"
        },
        {
          "internalType": "uint256",
          "name": "",
          "type": "uint256"
        }
      ],
      "stateMutability": "nonpayable",
      "type": "function"
    },
    {
      "inputs": [],
      "name": "profitMaxUnlockTime",
      "outputs": [
        {
          "internalType": "uint256",
          "name": "",
          "type": "uint256"
        }
      ],
      "stateMutability": "view",
      "type": "function"
    },
    {
      "inputs": [],
      "name": "profitUnlockingRate",
      "outputs": [
        {
          "internalType": "uint256",
          "name": "",
          "type": "uint256"
        }
      ],
      "stateMutability": "view",
      "type": "function"
    },
    {
      "inputs": [
        {
          "internalType": "uint256",
          "name": "shares",
          "type": "uint256"
        },
        {
          "internalType": "address",
          "name": "receiver",
          "type": "address"
        },
        {
          "internalType": "address",
          "name": "owner",
          "type": "address"
        },
        {
          "internalType": "uint256",
          "name": "maxLoss",
          "type": "uint256"
        },
        {
          "internalType": "address[]",
          "name": "_strategies",
          "type": "address[]"
        }
      ],
      "name": "redeem",
      "outputs": [
        {
          "internalType": "uint256",
          "name": "",
          "type": "uint256"
        }
      ],
      "stateMutability": "nonpayable",
      "type": "function"
    },
    {
      "inputs": [
        {
          "internalType": "bytes32",
          "name": "role",
          "type": "bytes32"
        },
        {
          "internalType": "address",
          "name": "account",
          "type": "address"
        }
      ],
      "name": "renounceRole",
      "outputs": [],
      "stateMutability": "nonpayable",
      "type": "function"
    },
    {
      "inputs": [
        {
          "internalType": "bytes32",
          "name": "role",
          "type": "bytes32"
        },
        {
          "internalType": "address",
          "name": "account",
          "type": "address"
        }
      ],
      "name": "revokeRole",
      "outputs": [],
      "stateMutability": "nonpayable",
      "type": "function"
    },
    {
      "inputs": [
        {
          "internalType": "address",
          "name": "strategy",
          "type": "address"
        }
      ],
      "name": "revokeStrategy",
      "outputs": [],
      "stateMutability": "nonpayable",
      "type": "function"
    },
    {
      "inputs": [
        {
          "internalType": "address",
          "name": "newAccountant",
          "type": "address"
        }
      ],
      "name": "setAccountant",
      "outputs": [],
      "stateMutability": "nonpayable",
      "type": "function"
    },
    {
      "inputs": [
        {
          "internalType": "address[]",
          "name": "newDefaultQueue",
          "type": "address[]"
        }
      ],
      "name": "setDefaultQueue",
      "outputs": [],
      "stateMutability": "nonpayable",
      "type": "function"
    },
    {
      "inputs": [
        {
          "internalType": "uint256",
          "name": "_depositLimit",
          "type": "uint256"
        }
      ],
      "name": "setDepositLimit",
      "outputs": [],
      "stateMutability": "nonpayable",
      "type": "function"
    },
    {
      "inputs": [
        {
          "internalType": "address",
          "name": "_depositLimitModule",
          "type": "address"
        }
      ],
      "name": "setDepositLimitModule",
      "outputs": [],
      "stateMutability": "nonpayable",
      "type": "function"
    },
    {
      "inputs": [
        {
          "internalType": "uint256",
          "name": "_minimumTotalIdle",
          "type": "uint256"
        }
      ],
      "name": "setMinimumTotalIdle",
      "outputs": [],
      "stateMutability": "nonpayable",
      "type": "function"
    },
    {
      "inputs": [
        {
          "internalType": "uint256",
          "name": "_newProfitMaxUnlockTime",
          "type": "uint256"
        }
      ],
      "name": "setProfitMaxUnlockTime",
      "outputs": [],
      "stateMutability": "nonpayable",
      "type": "function"
    },
    {
      "inputs": [
        {
          "internalType": "bool",
          "name": "_useDefaultQueue",
          "type": "bool"
        }
      ],
      "name": "setUseDefaultQueue",
      "outputs": [],
      "stateMutability": "nonpayable",
      "type": "function"
    },
    {
      "inputs": [
        {
          "internalType": "address",
          "name": "_withdrawLimitModule",
          "type": "address"
        }
      ],
      "name": "setWithdrawLimitModule",
      "outputs": [],
      "stateMutability": "nonpayable",
      "type": "function"
    },
    {
      "inputs": [],
      "name": "shutdown",
      "outputs": [
        {
          "internalType": "bool",
          "name": "",
          "type": "bool"
        }
      ],
      "stateMutability": "view",
      "type": "function"
    },
    {
      "inputs": [],
      "name": "shutdownVault",
      "outputs": [],
      "stateMutability": "nonpayable",
      "type": "function"
    },
    {
      "inputs": [
        {
          "internalType": "address",
          "name": "",
          "type": "address"
        }
      ],
      "name": "strategies",
      "outputs": [
        {
          "internalType": "uint256",
          "name": "activation",
          "type": "uint256"
        },
        {
          "internalType": "uint256",
          "name": "lastReport",
          "type": "uint256"
        },
        {
          "internalType": "uint256",
          "name": "currentDebt",
          "type": "uint256"
        },
        {
          "internalType": "uint256",
          "name": "maxDebt",
          "type": "uint256"
        }
      ],
      "stateMutability": "view",
      "type": "function"
    },
    {
      "inputs": [
        {
          "internalType": "bytes4",
          "name": "interfaceId",
          "type": "bytes4"
        }
      ],
      "name": "supportsInterface",
      "outputs": [
        {
          "internalType": "bool",
          "name": "",
          "type": "bool"
        }
      ],
      "stateMutability": "view",
      "type": "function"
    },
    {
      "inputs": [],
      "name": "symbol",
      "outputs": [
        {
          "internalType": "string",
          "name": "",
          "type": "string"
        }
      ],
      "stateMutability": "view",
      "type": "function"
    },
    {
      "inputs": [],
      "name": "totalAssets",
      "outputs": [
        {
          "internalType": "uint256",
          "name": "",
          "type": "uint256"
        }
      ],
      "stateMutability": "view",
      "type": "function"
    },
    {
      "inputs": [],
      "name": "totalDebt",
      "outputs": [
        {
          "internalType": "uint256",
          "name": "",
          "type": "uint256"
        }
      ],
      "stateMutability": "view",
      "type": "function"
    },
    {
      "inputs": [],
      "name": "totalIdle",
      "outputs": [
        {
          "internalType": "uint256",
          "name": "",
          "type": "uint256"
        }
      ],
      "stateMutability": "view",
      "type": "function"
    },
    {
      "inputs": [],
      "name": "totalSupply",
      "outputs": [
        {
          "internalType": "uint256",
          "name": "",
          "type": "uint256"
        }
      ],
      "stateMutability": "view",
      "type": "function"
    },
    {
      "inputs": [],
      "name": "totalSupplyAmount",
      "outputs": [
        {
          "internalType": "uint256",
          "name": "",
          "type": "uint256"
        }
      ],
      "stateMutability": "view",
      "type": "function"
    },
    {
      "inputs": [
        {
          "internalType": "address",
          "name": "receiver",
          "type": "address"
        },
        {
          "internalType": "uint256",
          "name": "amount",
          "type": "uint256"
        }
      ],
      "name": "transfer",
      "outputs": [
        {
          "internalType": "bool",
          "name": "",
          "type": "bool"
        }
      ],
      "stateMutability": "nonpayable",
      "type": "function"
    },
    {
      "inputs": [
        {
          "internalType": "address",
          "name": "sender",
          "type": "address"
        },
        {
          "internalType": "address",
          "name": "receiver",
          "type": "address"
        },
        {
          "internalType": "uint256",
          "name": "amount",
          "type": "uint256"
        }
      ],
      "name": "transferFrom",
      "outputs": [
        {
          "internalType": "bool",
          "name": "",
          "type": "bool"
        }
      ],
      "stateMutability": "nonpayable",
      "type": "function"
    },
    {
      "inputs": [],
      "name": "unlockedShares",
      "outputs": [
        {
          "internalType": "uint256",
          "name": "",
          "type": "uint256"
        }
      ],
      "stateMutability": "view",
      "type": "function"
    },
    {
      "inputs": [
        {
          "internalType": "address",
          "name": "strategy",
          "type": "address"
        },
        {
          "internalType": "uint256",
          "name": "targetDebt",
          "type": "uint256"
        }
      ],
      "name": "updateDebt",
      "outputs": [
        {
          "internalType": "uint256",
          "name": "",
          "type": "uint256"
        }
      ],
      "stateMutability": "nonpayable",
      "type": "function"
    },
    {
      "inputs": [
        {
          "internalType": "address",
          "name": "strategy",
          "type": "address"
        },
        {
          "internalType": "uint256",
          "name": "newMaxDebt",
          "type": "uint256"
        }
      ],
      "name": "updateMaxDebtForStrategy",
      "outputs": [],
      "stateMutability": "nonpayable",
      "type": "function"
    },
    {
      "inputs": [],
      "name": "useDefaultQueue",
      "outputs": [
        {
          "internalType": "bool",
          "name": "",
          "type": "bool"
        }
      ],
      "stateMutability": "view",
      "type": "function"
    },
    {
      "inputs": [
        {
          "internalType": "uint256",
          "name": "assets",
          "type": "uint256"
        },
        {
          "internalType": "address",
          "name": "receiver",
          "type": "address"
        },
        {
          "internalType": "address",
          "name": "owner",
          "type": "address"
        },
        {
          "internalType": "uint256",
          "name": "maxLoss",
          "type": "uint256"
        },
        {
          "internalType": "address[]",
          "name": "_strategies",
          "type": "address[]"
        }
      ],
      "name": "withdraw",
      "outputs": [
        {
          "internalType": "uint256",
          "name": "",
          "type": "uint256"
        }
      ],
      "stateMutability": "nonpayable",
      "type": "function"
    },
    {
      "inputs": [],
      "name": "withdrawLimitModule",
      "outputs": [
        {
          "internalType": "address",
          "name": "",
          "type": "address"
        }
      ],
      "stateMutability": "view",
      "type": "function"
    }
  ],
  "transactionHash": "0x14ebdebd1514b3b42913b73a668efb9774f4aa23e8284bed6055c39b37cd76d3",
  "args": [],
  "numDeployments": 1,
  "solcInputHash": "b36301af17a50cb55e79eb3ddc2b4854",
  "bytecode": "0x608060405234801561001057600080fd5b5060018055615f9580620000256000396000f3fe608060405234801561001057600080fd5b50600436106103e25760003560e01c806370a082311161020857806370a082311461071a5780637ecebe001461072d5780638212fd431461074d5780638afca8f014610760578063919860031461076957806391d148541461077c57806394bf804d1461078f57806395d89b41146107a257806397e958d9146107aa57806399530b06146107bd5780639a78e72e146107c55780639aa7df94146107f15780639bbca884146107fa5780639e34e3481461080d5780639fc2c47614610820578063a217fddf14610835578063a9059cbb1461083d578063ab5b4d4914610850578063b3d7f6b914610865578063b6cc2d1f14610878578063ba71ecd414610899578063bb994d48146108a1578063bbe4eb49146108b4578063bdc8144b146108c8578063c0993eea146108db578063c45a0155146108f0578063c63d75b614610903578063c6e6f59214610916578063d505accf14610929578063d547741f1461093c578063d81a09f61461094f578063d9a0e97a14610962578063dd62ed3e1461096a578063df69b22a146109a3578063e5236cc9146109b6578063ecf70858146109be578063ef8b30f714610916578063f6d7bfa0146109c7578063f828f50b146109da578063fc0e74d1146109e3578063fc7b9c18146109f7578063fd967f4714610a00578063ff1e7f0814610a0957600080fd5b806301e1d114146103e757806301ffc9a71461040257806303dcd12c1461042557806306580f2d1461043a57806306fdde031461044d57806307a2d13a146104625780630835a3fc146104755780630952864e1461047e578063095ea7b3146104875780630a28a4771461049a578063158ef93e146104ad57806316b87ac0146104c157806316d3bfbb146104d657806318160ddd146104e1578063223e5479146104e957806323b872dd146104fc578063248a9ca31461050f578063258294101461052257806329f3cef51461052a5780632d6326921461053f5780632d772168146105485780632f2ff15d1461055b578063313ce5671461056e57806334b5fab61461058d5780633644e515146105a057806336568abe146105a857806336fba084146105bb57806338d52e0f146105c757806339ebf823146105e15780633f7b5e4014610636578063402d267d1461063e578063405977e71461065157806346e6ac491461066457806348ea7127146106775780634bbd71e91461068a5780634cdad506146104625780634d4bb1971461069d5780634fb3ccc5146106b25780635141eebb146106c55780635a569099146106ce578063633f228c146106e157806365cb6765146106f45780636e553f6514610707575b600080fd5b6103ef610a1c565b6040519081526020015b60405180910390f35b6104156104103660046152b7565b610a2b565b60405190151581526020016103f9565b6103ef600080516020615de083398151915281565b6103ef61044836600461533a565b610a62565b610455610ad3565b6040516103f991906153d9565b6103ef61047036600461540c565b610b65565b6103ef60055481565b6103ef60075481565b610415610495366004615425565b610b72565b6103ef6104a836600461540c565b610b86565b600f5461041590600160b01b900460ff1681565b6104d46104cf366004615451565b610b93565b005b6103ef6301e1855881565b6103ef610bad565b6104d46104f7366004615451565b610bb7565b61041561050a36600461546e565b610dc3565b6103ef61051d36600461540c565b610e0e565b610455610e23565b610532610e42565b6040516103f991906154f3565b6103ef60085481565b6104d4610556366004615451565b610ea3565b6104d4610569366004615506565b610f46565b600f54600160b81b900460ff1660405160ff90911681526020016103f9565b6103ef61059b366004615536565b610f67565b6103ef610feb565b6104d46105b6366004615506565b611067565b6103ef64e8d4a5100081565b600f546001600160a01b03165b6040516103f99190615591565b6106166105ef366004615451565b60136020526000908152604090208054600182015460028301546003909301549192909184565b6040805194855260208501939093529183015260608201526080016103f9565b6103ef600a81565b6103ef61064c366004615451565b6110e1565b6104d461065f366004615425565b6110ec565b6103ef610672366004615425565b61134c565b6104d4610685366004615451565b6119c0565b6104d4610698366004615451565b611a16565b6103ef600080516020615ea083398151915281565b600b546105d4906001600160a01b031681565b6103ef60095481565b6103ef6106dc366004615425565b611a6c565b6104d46106ef3660046155a5565b611ab6565b6103ef610702366004615536565b611b9d565b6103ef610715366004615506565b611be6565b6103ef610728366004615451565b611c06565b6103ef61073b366004615451565b60166020526000908152604090205481565b6104d461075b36600461540c565b611c5f565b6103ef600a5481565b600d546105d4906001600160a01b031681565b61041561078a366004615506565b611c9f565b6103ef61079d366004615506565b611cc8565b610455611cdd565b6104d46107b8366004615627565b611cec565b6103ef611f20565b6103ef6107d3366004615451565b6001600160a01b031660009081526013602052604090206002015490565b6103ef60045481565b6104d46108083660046156e6565b611f46565b600c546105d4906001600160a01b031681565b6103ef600080516020615e2083398151915281565b6103ef600081565b61041561084b366004615425565b611fab565b6103ef600080516020615ee083398151915281565b6103ef61087336600461540c565b611fea565b61088b610886366004615451565b611ff7565b6040516103f9929190615703565b6012546103ef565b6104d46108af366004615451565b612146565b600f5461041590600160a01b900460ff1681565b6104d46108d636600461540c565b612169565b6103ef600080516020615f0083398151915281565b600e546105d4906001600160a01b031681565b6103ef610911366004615451565b6121f0565b6103ef61092436600461540c565b612209565b610415610937366004615720565b612216565b6104d461094a366004615506565b61242e565b6103ef61095d36600461533a565b61244a565b6103ef6124b1565b6103ef610978366004615791565b6001600160a01b03918216600090815260156020908152604080832093909416825291909152205490565b6104d46109b136600461540c565b6124bb565b6104d461254c565b6103ef60065481565b6104d46109d5366004615425565b61264e565b6103ef60025481565b600f5461041590600160a81b900460ff1681565b6103ef60035481565b6103ef61271081565b6105d4610a1736600461540c565b6126ff565b6000610a26612729565b905090565b60006001600160e01b03198216637965db0b60e01b1480610a5c57506301ffc9a760e01b6001600160e01b03198316145b92915050565b6000610a6c61273b565b6000610a79886000612794565b9050610abd338888848c8a8a8a8080602002602001604051908101604052809392919081815260200183836020028082843760009201919091525061282a92505050565b915050610ac960018055565b9695505050505050565b606060108054610ae2906157bf565b80601f0160208091040260200160405190810160405280929190818152602001828054610b0e906157bf565b8015610b5b5780601f10610b3057610100808354040283529160200191610b5b565b820191906000526020600020905b815481529060010190602001808311610b3e57829003601f168201915b5050505050905090565b6000610a5c826000612794565b6000610b7f33848461290d565b9392505050565b6000610a5c8260016129d0565b6000610b9e81612a89565b610ba9826001612a96565b5050565b6000610a26612d8b565b600080516020615e20833981519152610bcf81612a89565b6001600160a01b0382161580610bed57506001600160a01b03821630145b15610c0b5760405163d92e233d60e01b815260040160405180910390fd5b6000826001600160a01b03166338d52e0f6040518163ffffffff1660e01b8152600401602060405180830381865afa158015610c4b573d6000803e3d6000fd5b505050506040513d601f19601f82011682018060405250810190610c6f91906157f9565b600f549091506001600160a01b03808316911614610cab57806040516337bce3c560e11b8152600401610ca29190615591565b60405180910390fd5b6001600160a01b03831660009081526013602052604090205415610ce25760405163c976754d60e01b815260040160405180910390fd5b604080516080810182524280825260208083019182526000838501818152606085018281526001600160a01b038a16835260139093529490209251835590516001830155915160028201559051600390910155601254600a811015610d8d57601280546001810182556000919091527fbb8a6a4669ba250d26cd7a459eca9d215f8307e33aebe50379bc5a3617ec34440180546001600160a01b0319166001600160a01b0386161790555b836001600160a01b0316600080516020615e408339815191526000604051610db5919061582c565b60405180910390a250505050565b6000306001600160a01b03841603610dee5760405163ea9054fb60e01b815260040160405180910390fd5b610df9843384612da2565b610e04848484612e12565b5060019392505050565b60009081526020819052604090206001015490565b6040805180820190915260058152640312e302e360dc1b602082015290565b60606012805480602002602001604051908101604052809291908181526020018280548015610b5b57602002820191906000526020600020905b81546001600160a01b03168152600190910190602001808311610e7c575050505050905090565b6000610eae81612a89565b600f54600160a81b900460ff161515600103610edd5760405163036882cf60e41b815260040160405180910390fd5b60001960065414610f0157604051634e41418560e11b815260040160405180910390fd5b600c80546001600160a01b0319166001600160a01b038416179055604051600080516020615e0083398151915290610f3a908490615591565b60405180910390a15050565b610f4f82610e0e565b610f5881612a89565b610f628383612f43565b505050565b600080610fa88686868680806020026020016040519081016040528093929190818152602001838360200280828437600092019190915250612fc792505050565b90506000610fb78260016129d0565b6001600160a01b038816600090815260146020526040902054909150610fde90829061339a565b925050505b949350505050565b6000600080516020615f00833981519152601060405161100b9190615854565b604051809103902061101b610e23565b805160209182012060408051928301949094529281019190915260608101919091524660808201523060a082015260c00160405160208183030381529060405280519060200120905090565b6001600160a01b03811633146110d75760405162461bcd60e51b815260206004820152602f60248201527f416363657373436f6e74726f6c3a2063616e206f6e6c792072656e6f756e636560448201526e103937b632b9903337b91039b2b63360891b6064820152608401610ca2565b610ba982826133b0565b6000610a5c82613415565b600080516020615ee083398151915261110481612a89565b61110c61273b565b6001600160a01b0383166000908152601360205260408120549003611146578260405163489d081b60e11b8152600401610ca29190615591565b6001600160a01b03831660009081526013602052604090206002015480158061116d575082155b1561118b57604051637c946ed760e01b815260040160405180910390fd5b80831115611197578092505b60008184866001600160a01b03166370a08231306040518263ffffffff1660e01b81526004016111c79190615591565b602060405180830381865afa1580156111e4573d6000803e3d6000fd5b505050506040513d601f19601f8201168201806040525081019061120891906158ca565b61121291906158f9565b61121c9190615926565b90508060000361123f57604051637c946ed760e01b815260040160405180910390fd5b600f54611257906001600160a01b03163330876134ed565b6001600160a01b0385166000908152601360205260408120600201805486929061128290849061593a565b92505081905550836003600082825461129b919061593a565b9250508190555083600460008282546112b4919061594d565b90915550506001600160a01b038516600080516020615f40833981519152836112dd878261593a565b6040516112eb929190615703565b60405180910390a26112fe85338361354f565b846001600160a01b03167fe94e7f88819f66c19b097748cb754149f63b1a176ed425dee1f1ee933e6d09b08560405161133991815260200190565b60405180910390a25050610f6260018055565b6000600080516020615e2083398151915261136681612a89565b61136e61273b565b6001600160a01b038416600090815260136020526040902060020154600f54849190600160a81b900460ff1615156001036113a857600091505b8082036113c85760405163084df06b60e41b815260040160405180910390fd5b818111156116a55760006113dc838361593a565b9050600554816004546113ef919061594d565b101561141257600454600554611405919061593a565b9050818111156114125750805b604051636c82bbbf60e11b81526000906001600160a01b038916906307a2d13a90829063d905777e90611449903090600401615591565b602060405180830381865afa158015611466573d6000803e3d6000fd5b505050506040513d601f19601f8201168201806040525081019061148a91906158ca565b6040518263ffffffff1660e01b81526004016114a891815260200190565b602060405180830381865afa1580156114c5573d6000803e3d6000fd5b505050506040513d601f19601f820116820180604052508101906114e991906158ca565b90508060000361150c57604051637c946ed760e01b815260040160405180910390fd5b81811015611518578091505b6000611524898461359e565b905080156115485760405163311d104160e01b815260048101829052602401610ca2565b600f546040516370a0823160e01b81526000916001600160a01b0316906370a0823190611579903090600401615591565b602060405180830381865afa158015611596573d6000803e3d6000fd5b505050506040513d601f19601f820116820180604052508101906115ba91906158ca565b90506115c68a856136fe565b600f546040516370a0823160e01b81526000916001600160a01b0316906370a08231906115f7903090600401615591565b602060405180830381865afa158015611614573d6000803e3d6000fd5b505050506040513d601f19601f8201168201806040525081019061163891906158ca565b9050600061164f611649848461593a565b8861339a565b90508581111561165d578095505b806004600082825461166f919061594d565b925050819055508560036000828254611688919061593a565b909155506116989050868861593a565b9750505050505050611967565b6001600160a01b038616600090815260136020526040902060030154821115611700576001600160a01b03861660009081526013602052604090819020600301549051638f55f52760e01b8152610ca2918491600401615703565b60405163402d267d60e01b81526000906001600160a01b0388169063402d267d9061172f903090600401615591565b602060405180830381865afa15801561174c573d6000803e3d6000fd5b505050506040513d601f19601f8201168201806040525081019061177091906158ca565b90508060000361179357604051637c946ed760e01b815260040160405180910390fd5b600061179f838561593a565b9050818111156117ac5750805b600554600454116117d05760405163356680b760e01b815260040160405180910390fd5b60006005546004546117e2919061593a565b9050808211156117f0578091505b811561195757600f5461180d906001600160a01b03168a8461385b565b600f546040516370a0823160e01b81526000916001600160a01b0316906370a082319061183e903090600401615591565b602060405180830381865afa15801561185b573d6000803e3d6000fd5b505050506040513d601f19601f8201168201806040525081019061187f91906158ca565b905061188b8a846138aa565b600f546040516370a0823160e01b81526000916001600160a01b0316906370a08231906118bc903090600401615591565b602060405180830381865afa1580156118d9573d6000803e3d6000fd5b505050506040513d601f19601f820116820180604052508101906118fd91906158ca565b600f54909150611918906001600160a01b03168c600061385b565b611922818361593a565b93508360046000828254611936919061593a565b92505081905550836003600082825461194f919061594d565b909155505050505b611961828561594d565b94505050505b6001600160a01b0386166000818152601360205260409081902060020184905551600080516020615f40833981519152906119a59084908690615703565b60405180910390a25091506119b960018055565b5092915050565b60006119cb81612a89565b600b80546001600160a01b0319166001600160a01b0384161790556040517f7421df9bb5aa804486a873c3f79b4bda8b65888cb4ceb1ce73ab3415f479adea90610f3a908490615591565b6000611a2181612a89565b600d80546001600160a01b0319166001600160a01b0384161790556040517fb02c7aec2b89901bc7caa8b5cd2ed1ede10b5dd3d3c15f2a249ef51a76a3fc9490610f3a908490615591565b6001600160a01b03821660009081526013602052604081206002015482811015611aac57604051633327137b60e21b815260048101829052602401610ca2565b610fe3848461359e565b600080516020615e20833981519152611ace81612a89565b60005b82811015611b51576000848483818110611aed57611aed615960565b9050602002016020810190611b029190615451565b6001600160a01b03811660009081526013602052604081205491925003611b3e578060405163489d081b60e11b8152600401610ca29190615591565b5080611b4981615976565b915050611ad1565b50611b5e601284846151c9565b507f3adf0cd8b4427265ab8cb9118d0b9c61b811c637fe87c5be9f2f4d91ce17cfbc8383604051611b9092919061598f565b60405180910390a1505050565b6000611bdd8585858580806020026020016040519081016040528093929190818152602001838360200280828437600092019190915250612fc792505050565b95945050505050565b6000611bf061273b565b611bfb33838561391b565b9050610a5c60018055565b6000306001600160a01b03831603611c4357611c20613a45565b6001600160a01b038316600090815260146020526040902054610a5c919061593a565b506001600160a01b031660009081526014602052604090205490565b6000611c6a81612a89565b60058290556040518281527f3c79c9aaa553ffa63df7f68d233487e697a31db07a59fb73fbab634e1871202090602001610f3a565b6000918252602082815260408084206001600160a01b0393909316845291905290205460ff1690565b6000611cd261273b565b611bfb338385613aa3565b606060118054610ae2906157bf565b6000611cf781612a89565b600f54600160b01b900460ff161515600103611d255760405162dc149f60e41b815260040160405180910390fd5b6001600160a01b038216611d4c5760405163d92e233d60e01b815260040160405180910390fd5b6001600160a01b038216611d735760405163d92e233d60e01b815260040160405180910390fd5b6301e18558891115611d985760405163fdfbb0b760e01b815260040160405180910390fd5b6007899055600f80546001600160a01b0319166001600160a01b038a169081179091556040805163313ce56760e01b8152905163313ce567916004808201926020929091908290030181865afa158015611df6573d6000803e3d6000fd5b505050506040513d601f19601f82011682018060405250810190611e1a91906159dd565b600f805460ff60b81b1916600160b81b60ff93841681029190911791829055610100910490911610611e5f5760405163e236476560e01b815260040160405180910390fd5b6010611e6c878983615a5e565b506011611e7a858783615a5e565b50600e8054336001600160a01b031991821617909155600b80549091166001600160a01b038516179055611eaf600083612f43565b611ec7600080516020615e2083398151915283612f43565b611edf600080516020615de083398151915283612f43565b611ef7600080516020615ee083398151915283612f43565b611f026000336133b0565b5050600f805460ff60b01b1916600160b01b17905550505050505050565b600f54600090610a2690611f3f90600160b81b900460ff16600a615c01565b6000612794565b600080516020615e20833981519152611f5e81612a89565b600f8054831515600160a01b0260ff60a01b199091161790556040517fa9cd3583c5278952720fbec6b769ae08cbab1491fd69ae1edeb07ed07c9432f990610f3a90841515815260200190565b6000306001600160a01b03841603611fd65760405163ea9054fb60e01b815260040160405180910390fd5b611fe1338484612e12565b50600192915050565b6000610a5c826001612794565b600080600080516020615de083398151915261201281612a89565b61201a61273b565b6001600160a01b0384166000908152601360205260408120549003612054578360405163489d081b60e11b8152600401610ca29190615591565b61205c613b8b565b60008061206886613bbb565b915091506000612079878484613cef565b905060006120928484846000015185604001518c613eba565b90506000806120a2868486613fe1565b915091506120b082826141f7565b6001600160a01b038a166000818152601360205260408082204260018201556002015490860151600080516020615e80833981519152928a928a9290916120f79190612794565b61210e89602001518a60400151611f3f919061594d565b8a6020015160405161212596959493929190615c10565b60405180910390a25093965091945050505061214060018055565b50915091565b600080516020615e2083398151915261215e81612a89565b610ba9826000612a96565b600061217481612a89565b600f54600160a81b900460ff1615156001036121a35760405163036882cf60e41b815260040160405180910390fd5b600c546001600160a01b0316156121cd576040516364b9991160e11b815260040160405180910390fd5b6006829055604051828152600080516020615dc083398151915290602001610f3a565b6000806121fc83613415565b9050610b7f8160006129d0565b6000610a5c8260006129d0565b60006001600160a01b03881661223f5760405163d92e233d60e01b815260040160405180910390fd5b42851015612260576040516363bef56160e11b815260040160405180910390fd5b6001600160a01b038816600090815260166020526040812080549182919061228783615976565b909155505060408051600080516020615ea08339815191526020808301919091526001600160a01b038c8116838501528b166060830152608082018a905260a0820184905260c08083018a90528351808403909101815260e0909201909252805191012060006122f5610feb565b60405161190160f01b602082015260228101919091526042810183905260620160408051601f198184030181528282528051602091820120600080855291840180845281905260ff8b169284019290925260608301899052608083018890529092509060019060a0016020604051602081039080840390855afa158015612380573d6000803e3d6000fd5b5050604051601f1901519150506001600160a01b03811615806123b557508b6001600160a01b0316816001600160a01b031614155b156123d55780604051633934136760e01b8152600401610ca29190615591565b6123e08c8c8c61290d565b508a6001600160a01b03168c6001600160a01b0316600080516020615ec08339815191528c60405161241491815260200190565b60405180910390a35060019b9a5050505050505050505050565b61243782610e0e565b61244081612a89565b610f6283836133b0565b600061245461273b565b60006124618860016129d0565b90506124a53388888b858a8a8a8080602002602001604051908101604052809392919081815260200183836020028082843760009201919091525061282a92505050565b509050610ac960018055565b6000610a26613a45565b60006124c681612a89565b6301e185588211156124eb5760405163fdfbb0b760e01b815260040160405180910390fd5b81600003612517573060008181526014602052604090205461250c91614298565b600060098190556008555b60078290556040518281527fc464d502702beac6615fdfda7756f59ccaf253cb2591db454c8def44d03bddd990602001610f3a565b600061255781612a89565b600f54600160a81b900460ff1615156001036125865760405163036882cf60e41b815260040160405180910390fd5b600f805460ff60a81b1916600160a81b179055600c546001600160a01b0316156125e257600c80546001600160a01b0319169055604051600080516020615e00833981519152906125d990600090615591565b60405180910390a15b60006006819055604051908152600080516020615dc08339815191529060200160405180910390a1612622600080516020615e2083398151915233612f43565b6040517f4426aa1fb73e391071491fcfe21a88b5c38a0a0333a1f6e77161470439704cf890600090a150565b600080516020615e2083398151915261266681612a89565b6001600160a01b03831660009081526013602052604081205490036126a0578260405163489d081b60e11b8152600401610ca29190615591565b6001600160a01b038316600081815260136020526040908190206003018490555133907fb3eef2123fec1523a6bbc90aceb203000154c1a4974335fe06b544c7534d4b89906126f29086815260200190565b60405180910390a3505050565b6012818154811061270f57600080fd5b6000918252602090912001546001600160a01b0316905081565b6000600354600454610a26919061594d565b60026001540361278d5760405162461bcd60e51b815260206004820152601f60248201527f5265656e7472616e637947756172643a207265656e7472616e742063616c6c006044820152606401610ca2565b6002600155565b60006000198314806127a4575082155b156127b0575081610a5c565b60006127ba612d8b565b9050806000036127cd5783915050610a5c565b60006127d7612729565b6127e190866158f9565b905060006127ef8383615926565b9050600185600181111561280557612805615816565b14801561281a57506128178383615c38565b15155b15611bdd57610ac960018261594d565b600061283887878686614369565b600d546001600160a01b03161561287e576000612856878585612fc7565b90508086111561287c57604051631a05c12360e11b815260048101829052602401610ca2565b505b61288986898661442b565b600080612896878561444f565b915091506128a98989888a86868b614a77565b876001600160a01b0316896001600160a01b03168b6001600160a01b03167ffbde797d201c681b91056529119e0b02407c7bb96a4a2c75c01fc9667232c8db858a6040516128f8929190615703565b60405180910390a45098975050505050505050565b60006001600160a01b038416158061292c57506001600160a01b038316155b1561294a5760405163d92e233d60e01b815260040160405180910390fd5b826001600160a01b0316846001600160a01b03160361297c576040516332db50d960e01b815260040160405180910390fd5b6001600160a01b038481166000818152601560209081526040808320948816808452948252918290208690559051858152600080516020615ec0833981519152910160405180910390a35060019392505050565b60006000198314806129e0575082155b156129ec575081610a5c565b60006129f6612d8b565b90506000612a02612729565b905080600003612a295781600003612a1e578492505050610a5c565b600092505050610a5c565b6000612a3583876158f9565b90506000612a438383615926565b90506001866001811115612a5957612a59615816565b148015612a6e5750612a6b8383615c38565b15155b15610ac957612a7e60018261594d565b979650505050505050565b612a938133614b03565b50565b6001600160a01b0382166000908152601360205260408120549003612ad0578160405163489d081b60e11b8152600401610ca29190615591565b6001600160a01b03821660009081526013602052604081206002015415612ba45781612b30576001600160a01b038316600090815260136020526040908190206002015490516357d8a97560e11b81526004810191909152602401610ca2565b506001600160a01b0382166000908152601360205260408120600201546003805491928392612b6090849061593a565b92505081905550826001600160a01b0316600080516020615e80833981519152600083600080600080604051612b9b96959493929190615c10565b60405180910390a25b6040805160808101825260008082526020808301828152838501838152606085018481526001600160a01b038a16855260139093529490922092518355905160018301559151600282015590516003909101556012548015612d63578060005b82811015612c6757856001600160a01b031660128281548110612c2957612c29615960565b6000918252602090912001546001600160a01b031603612c555781612c4d81615c4c565b925050612c67565b80612c5f81615976565b915050612c04565b50818114612d61576000816001600160401b03811115612c8957612c896159fa565b604051908082528060200260200182016040528015612cb2578160200160208202803683370190505b5090506000805b84811015612d4957600060128281548110612cd657612cd6615960565b6000918252602090912001546001600160a01b03908116915089168114612d3657808484612d0381615976565b955081518110612d1557612d15615960565b60200260200101906001600160a01b031690816001600160a01b0316815250505b5080612d4181615976565b915050612cb9565b508151612d5d90601290602085019061522c565b5050505b505b836001600160a01b0316600080516020615e408339815191526001604051610db5919061582c565b6000612d95613a45565b600254610a26919061593a565b6001600160a01b03808416600090815260156020908152604080832093861683529290522054600019811015612e0c5781811015612df657604051631649cee760e01b815260048101829052602401610ca2565b612e0a8484612e05858561593a565b61290d565b505b50505050565b6001600160a01b03831660009081526014602052604090205481811015612e4c5760405163356680b760e01b815260040160405180910390fd5b6001600160a01b0384161580612e6957506001600160a01b038316155b15612e875760405163d92e233d60e01b815260040160405180910390fd5b826001600160a01b0316846001600160a01b031603612eb957604051634d9ecd9160e01b815260040160405180910390fd5b612ec3828261593a565b6001600160a01b038086166000908152601460205260408082209390935590851681522054612ef2838261594d565b6001600160a01b038086166000818152601460205260409081902093909355915190871690600080516020615e6083398151915290612f349087815260200190565b60405180910390a35050505050565b612f4d8282611c9f565b610ba9576000828152602081815260408083206001600160a01b03851684529091529020805460ff19166001179055612f833390565b6001600160a01b0316816001600160a01b0316837f2f8788117e7eff1d82e926ec794901d17c78024a50270940304540a733656f0d60405160405180910390a45050565b6001600160a01b0383166000908152601460205260408120548190612fec9082612794565b600d549091506001600160a01b03161561308c57600d54604051632319b8cf60e01b81526000916001600160a01b031690632319b8cf9061303590899089908990600401615c63565b602060405180830381865afa158015613052573d6000803e3d6000fd5b505050506040513d601f19601f8201168201806040525081019061307691906158ca565b905081811015613084578091505b509050610b7f565b6004548082111561339157835181906000908190158015906130b85750600f54600160a01b900460ff16155b61311c57601280548060200260200160405190810160405280929190818152602001828054801561311257602002820191906000526020600020905b81546001600160a01b031681526001909101906020018083116130f4575b505050505061311e565b865b905060005b815181101561338a57600082828151811061314057613140615960565b6020026020010151905060136000826001600160a01b03166001600160a01b0316815260200190815260200160002060000154600003613195578060405163489d081b60e11b8152600401610ca29190615591565b60006131c56131a4878a61593a565b6001600160a01b03841660009081526013602052604090206002015461339a565b905060006131d3838361359e565b90506000836001600160a01b03166307a2d13a856001600160a01b031663d905777e306040518263ffffffff1660e01b81526004016132129190615591565b602060405180830381865afa15801561322f573d6000803e3d6000fd5b505050506040513d601f19601f8201168201806040525081019061325391906158ca565b6040518263ffffffff1660e01b815260040161327191815260200190565b602060405180830381865afa15801561328e573d6000803e3d6000fd5b505050506040513d601f19601f820116820180604052508101906132b291906158ca565b90506132be828461593a565b8110156132e957826132d082846158f9565b6132da9190615926565b91506132e6828261594d565b92505b826000036132fa5750505050613378565b60008211801561330b57506127108d105b1561334b576127108d61331e858b61594d565b61332891906158f9565b6133329190615926565b61333c838961594d565b111561334b575050505061338a565b613355838961594d565b9750898810613367575050505061338a565b613371828861594d565b9650505050505b8061338281615976565b915050613123565b5091935050505b50949350505050565b60008183106133a95781610b7f565b5090919050565b6133ba8282611c9f565b15610ba9576000828152602081815260408083206001600160a01b0385168085529252808320805460ff1916905551339285917ff6391f5c32d9c69d2a47ea670b442974b53935d1edc7fd64eb21e047a839171b9190a45050565b60006001600160a01b03821630148061343557506001600160a01b038216155b1561344257506000919050565b600c546001600160a01b031680156134c157604051632355178960e11b81526001600160a01b038216906346aa2f1290613480908690600401615591565b602060405180830381865afa15801561349d573d6000803e3d6000fd5b505050506040513d601f19601f82011682018060405250810190610b7f91906158ca565b60006134cb612729565b6006549091508082106134e357506000949350505050565b611bdd828261593a565b6001600160a01b038416158061350a57506001600160a01b038316155b8061351c57506001600160a01b038216155b1561353a5760405163d92e233d60e01b815260040160405180910390fd5b612e0c6001600160a01b038516848484614b5c565b6001600160a01b038316158061356c57506001600160a01b038216155b1561358a5760405163d92e233d60e01b815260040160405180910390fd5b610f626001600160a01b0384168383614bc7565b6001600160a01b0382166000818152601360205260408082206002015490516370a0823160e01b8152919290918391906370a08231906135e2903090600401615591565b602060405180830381865afa1580156135ff573d6000803e3d6000fd5b505050506040513d601f19601f8201168201806040525081019061362391906158ca565b6040516303d1689d60e11b8152600481018290529091506000906001600160a01b038716906307a2d13a90602401602060405180830381865afa15801561366e573d6000803e3d6000fd5b505050506040513d601f19601f8201168201806040525081019061369291906158ca565b905082811015806136a1575082155b156136b25760009350505050610a5c565b60006136be82876158f9565b905060006136cc8583615926565b6136d6908861593a565b90506136e28583615c38565b15612a7e576136f260018261594d565b98975050505050505050565b604051630a28a47760e01b8152600481018290526000906137e0906001600160a01b03851690630a28a47790602401602060405180830381865afa15801561374a573d6000803e3d6000fd5b505050506040513d601f19601f8201168201806040525081019061376e91906158ca565b6040516370a0823160e01b81526001600160a01b038616906370a082319061379a903090600401615591565b602060405180830381865afa1580156137b7573d6000803e3d6000fd5b505050506040513d601f19601f820116820180604052508101906137db91906158ca565b61339a565b604051635d043b2960e11b815260048101829052306024820181905260448201529091506001600160a01b0384169063ba087652906064016020604051808303816000875af1158015613837573d6000803e3d6000fd5b505050506040513d601f19601f82011682018060405250810190612e0c91906158ca565b6001600160a01b038316158061387857506001600160a01b038216155b156138965760405163d92e233d60e01b815260040160405180910390fd5b610f626001600160a01b0384168383614be6565b604051636e553f6560e01b8152600481018290523060248201526001600160a01b03831690636e553f65906044016020604051808303816000875af11580156138f7573d6000803e3d6000fd5b505050506040513d601f19601f82011682018060405250810190610f6291906158ca565b600f54600090600160a81b900460ff16151560010361394d5760405163036882cf60e41b815260040160405180910390fd5b61395683613415565b8211156139825761396683613415565b604051630ee7300760e11b8152600401610ca291815260200190565b816000036139a357604051637c946ed760e01b815260040160405180910390fd5b600f546139bb906001600160a01b03163330856134ed565b81600460008282546139cd919061594d565b90915550600090506139df8385614ce9565b905080600003613a0257604051637c946ed760e01b815260040160405180910390fd5b836001600160a01b0316856001600160a01b0316600080516020615f208339815191528584604051613a35929190615703565b60405180910390a3949350505050565b6008546000908142821115613a865764e8d4a51000600a5442613a68919061593a565b600954613a7591906158f9565b613a7f9190615926565b9050610a5c565b8115610a5c57503060009081526014602052604090205492915050565b600f54600090600160a81b900460ff161515600103613ad55760405163036882cf60e41b815260040160405180910390fd5b6000613ae2836001612794565b905080600003613b0557604051637c946ed760e01b815260040160405180910390fd5b613b0e84613415565b811115613b1e5761396684613415565b600f54613b36906001600160a01b03168630846134ed565b8060046000828254613b48919061594d565b90915550613b5890508385614d9b565b836001600160a01b0316856001600160a01b0316600080516020615f208339815191528386604051613a35929190615703565b6000613b95613a45565b905080600003613ba25750565b426008541115613bb15742600a555b612a938130614298565b6000806000836001600160a01b03166370a08231306040518263ffffffff1660e01b8152600401613bec9190615591565b602060405180830381865afa158015613c09573d6000803e3d6000fd5b505050506040513d601f19601f82011682018060405250810190613c2d91906158ca565b6040516303d1689d60e11b8152600481018290529091506000906001600160a01b038616906307a2d13a90602401602060405180830381865afa158015613c78573d6000803e3d6000fd5b505050506040513d601f19601f82011682018060405250810190613c9c91906158ca565b6001600160a01b0386166000908152601360205260408120600201549192508082841115613cd557613cce838561593a565b9150613ce2565b613cdf848461593a565b90505b9097909650945050505050565b613d23604051806080016040528060008152602001600081526020016000815260200160006001600160a01b031681525090565b604080516080810182526000808252602082018190529181018290526060810191909152600b546001600160a01b031615610fe357600b5460405163921f8a8f60e01b81526001600160a01b03878116600483015260248201879052604482018690529091169063921f8a8f9060640160408051808303816000875af1158015613db1573d6000803e3d6000fd5b505050506040513d601f19601f82011682018060405250810190613dd59190615c8a565b602083015280825215610fe357600e54604080516307d3277f60e01b815281516000936001600160a01b0316926307d3277f92600480820193918290030181865afa158015613e28573d6000803e3d6000fd5b505050506040513d601f19601f82011682018060405250810190613e4c9190615cae565b6001600160a01b03166060840152905061ffff811615613391576127108161ffff161115613e8d57604051635ff85e3f60e01b815260040160405180910390fd5b815161271090613ea29061ffff8416906158f9565b613eac9190615926565b604083015250949350505050565b613ec2615281565b613eca615281565b8615613f1a576001600160a01b03831660009081526013602052604081206002018054899290613efb90849061594d565b925050819055508660036000828254613f14919061594d565b90915550505b8515613f6a576001600160a01b03831660009081526013602052604081206002018054889290613f4b90849061593a565b925050819055508560036000828254613f64919061593a565b90915550505b6000613f76868861594d565b1115610ac957613f90613f89868861594d565b60016129d0565b81518290613f9f90839061594d565b9052508415610ac957613fbc613fb5858761593a565b60006129d0565b60208201528315610ac957613fd28460006129d0565b60408201529695505050505050565b600080600080846020015111156140ee576020840151600f54600b546040516370a0823160e01b81526140aa93926137db926001600160a01b03918216926370a0823192614033921690600401615591565b602060405180830381865afa158015614050573d6000803e3d6000fd5b505050506040513d601f19601f8201168201806040525081019061407491906158ca565b600f54600b54604051636eb1769f60e11b81526001600160a01b039283169263dd62ed3e9261379a929116903090600401615ce4565b60208501819052600f54600b546140d2926001600160a01b03928316929091169030906134ed565b8360200151600460008282546140e8919061594d565b90915550505b6000846020015187614100919061594d565b11801561410e575060075415155b1561412f5761412c846020015187614126919061594d565b30614ce9565b90505b3060009081526014602052604081205461414a90839061593a565b8651909150156141ab578551614164906137db848461594d565b8087526141719030614298565b600061418187600001518461339a565b905061418d818461593a565b875190935061419d90829061593a565b6141a7908361593a565b9150505b6020860151156141d0576020860151600b546141d091906001600160a01b0316614d9b565b6040860151156141ec576141ec86604001518660600151614d9b565b969095509350505050565b6000614203828461594d565b9050801561428e5760004260085411156142325742600854614225919061593a565b61422f90856158f9565b90505b6000826007548561424391906158f9565b61424d908461594d565b6142579190615926565b90508061426964e8d4a51000856158f9565b6142739190615926565b600955614280814261594d565b600855505042600a55505050565b6000600955505050565b6001600160a01b0381166000908152601460205260409020548211156142ef576001600160a01b038116600090815260146020526040908190205490516307f885ff60e21b81526004810191909152602401610ca2565b6001600160a01b0381166000908152601460205260408120805484929061431790849061593a565b925050819055508160026000828254614330919061593a565b90915550506040518281526000906001600160a01b03831690600080516020615e60833981519152906020015b60405180910390a35050565b6001600160a01b0384166143905760405163d92e233d60e01b815260040160405180910390fd5b6127108111156143b357604051631a7ed0a160e31b815260040160405180910390fd5b816000036143d457604051637c946ed760e01b815260040160405180910390fd5b6001600160a01b038316600090815260146020526040902054821115612e0c576001600160a01b038316600090815260146020526040908190205490516307f885ff60e21b81526004810191909152602401610ca2565b826001600160a01b0316826001600160a01b031614610f6257610f62838383612da2565b6040805160c08101825283815260048054602083015260035482840152600060608301819052600f5493516370a0823160e01b8152909384938493909260808401926001600160a01b0316916370a08231916144ad91309101615591565b602060405180830381865afa1580156144ca573d6000803e3d6000fd5b505050506040513d601f19601f820116820180604052508101906144ee91906158ca565b8152600060209182015281015181519192501015614a6257600084516000141580156145245750600f54600160a01b900460ff16155b61458857601280548060200260200160405190810160405280929190818152602001828054801561457e57602002820191906000526020600020905b81546001600160a01b03168152600190910190602001808311614560575b505050505061458a565b845b6020830151835191925061459d9161593a565b606083015260005b8151811015614a285760008282815181106145c2576145c2615960565b6020908102919091018101516001600160a01b0381166000908152601390925260408220549092509081900361460d578160405163489d081b60e11b8152600401610ca29190615591565b6001600160a01b038216600090815260136020526040812060020154606087015190919061463b908361339a565b90506000846001600160a01b03166307a2d13a866001600160a01b031663d905777e306040518263ffffffff1660e01b815260040161467a9190615591565b602060405180830381865afa158015614697573d6000803e3d6000fd5b505050506040513d601f19601f820116820180604052508101906146bb91906158ca565b6040518263ffffffff1660e01b81526004016146d991815260200190565b602060405180830381865afa1580156146f6573d6000803e3d6000fd5b505050506040513d601f19601f8201168201806040525081019061471a91906158ca565b90506000614728868461359e565b9050801561482e5761473a818461593a565b82101561477457600061474d828561593a565b90508061475a84846158f9565b6147649190615926565b9150614770828461594d565b9350505b61477e818461593a565b92508089600001818151614792919061593a565b9052506060890180518291906147a990839061593a565b9052506040890180518291906147c090839061593a565b905250811580156147d15750600081115b1561482e5760006147e2828661593a565b6001600160a01b038816600081815260136020526040908190206002018390555191925090600080516020615f40833981519152906148249088908590615703565b60405180910390a2505b614838838361339a565b92508260000361484d57505050505050614a16565b61485786846136fe565b600f546040516370a0823160e01b81526000916001600160a01b0316906370a0823190614888903090600401615591565b602060405180830381865afa1580156148a5573d6000803e3d6000fd5b505050506040513d601f19601f820116820180604052508101906148c991906158ca565b905060008a60800151826148dd919061593a565b905060008582111561491457868211156148f957869550614929565b614903868361593a565b61490d908761594d565b9550614929565b8582101561492957614926828761593a565b90505b614933818761593a565b8c602001818151614944919061594d565b9052508b5181908d9061495890839061593a565b90525060408c01805187919061496f90839061593a565b905250600061497e858861594d565b614988908961593a565b6001600160a01b038b16600081815260136020526040908190206002018390555191925090600080516020615f40833981519152906149ca908b908590615703565b60405180910390a260208d01518d51116149ed5750505050505050505050614a28565b60808d0184905260608d018051889190614a0890839061593a565b905250505050505050505050505b80614a2081615976565b9150506145a5565b50815160208301511015614a58576020820151825160405163b97fded160e01b8152610ca2929190600401615703565b5060408101516003555b805160209091015190925090505b9250929050565b8284118015614a87575061271081105b15614acc57612710614a9982866158f9565b614aa39190615926565b614aad848661593a565b1115614acc576040516307f65e3960e11b815260040160405180910390fd5b614ad68587614298565b614ae0838361593a565b600455600f54614afa906001600160a01b0316888561354f565b50505050505050565b614b0d8282611c9f565b610ba957614b1a81614e34565b614b25836020614e46565b604051602001614b36929190615cfe565b60408051601f198184030181529082905262461bcd60e51b8252610ca2916004016153d9565b6040516001600160a01b0380851660248301528316604482015260648101829052612e0c9085906323b872dd60e01b906084015b60408051601f198184030181529190526020810180516001600160e01b03166001600160e01b031990931692909217909152614fe1565b610f628363a9059cbb60e01b8484604051602401614b90929190615d6d565b801580614c5f5750604051636eb1769f60e11b81526001600160a01b0384169063dd62ed3e90614c1c9030908690600401615ce4565b602060405180830381865afa158015614c39573d6000803e3d6000fd5b505050506040513d601f19601f82011682018060405250810190614c5d91906158ca565b155b614cca5760405162461bcd60e51b815260206004820152603660248201527f5361666545524332303a20617070726f76652066726f6d206e6f6e2d7a65726f60448201527520746f206e6f6e2d7a65726f20616c6c6f77616e636560501b6064820152608401610ca2565b610f628363095ea7b360e01b8484604051602401614b90929190615d6d565b60006001600160a01b038216614d125760405163d92e233d60e01b815260040160405180910390fd5b6000614d1c612d8b565b90506000614d28612729565b9050600082600003614d3b575084614d81565b85821115614d6857614d4d868361593a565b614d5784886158f9565b614d619190615926565b9050614d81565b60405163fd7850ad60e01b815260040160405180910390fd5b80600003614d955760009350505050610a5c565b611bdd81865b6001600160a01b038116614dc25760405163d92e233d60e01b815260040160405180910390fd5b6001600160a01b03811660009081526014602052604081208054849290614dea90849061594d565b925050819055508160026000828254614e03919061594d565b90915550506040518281526001600160a01b03821690600090600080516020615e608339815191529060200161435d565b6060610a5c6001600160a01b03831660145b60606000614e558360026158f9565b614e6090600261594d565b6001600160401b03811115614e7757614e776159fa565b6040519080825280601f01601f191660200182016040528015614ea1576020820181803683370190505b509050600360fc1b81600081518110614ebc57614ebc615960565b60200101906001600160f81b031916908160001a905350600f60fb1b81600181518110614eeb57614eeb615960565b60200101906001600160f81b031916908160001a9053506000614f0f8460026158f9565b614f1a90600161594d565b90505b6001811115614f92576f181899199a1a9b1b9c1cb0b131b232b360811b85600f1660108110614f4e57614f4e615960565b1a60f81b828281518110614f6457614f64615960565b60200101906001600160f81b031916908160001a90535060049490941c93614f8b81615c4c565b9050614f1d565b508315610b7f5760405162461bcd60e51b815260206004820181905260248201527f537472696e67733a20686578206c656e67746820696e73756666696369656e746044820152606401610ca2565b6000615036826040518060400160405280602081526020017f5361666545524332303a206c6f772d6c6576656c2063616c6c206661696c6564815250856001600160a01b03166150b69092919063ffffffff16565b90508051600014806150575750808060200190518101906150579190615d86565b610f625760405162461bcd60e51b815260206004820152602a60248201527f5361666545524332303a204552433230206f7065726174696f6e20646964206e6044820152691bdd081cdd58d8d9595960b21b6064820152608401610ca2565b6060610fe3848460008585600080866001600160a01b031685876040516150dd9190615da3565b60006040518083038185875af1925050503d806000811461511a576040519150601f19603f3d011682016040523d82523d6000602084013e61511f565b606091505b5091509150610fde878383876060831561519a578251600003615193576001600160a01b0385163b6151935760405162461bcd60e51b815260206004820152601d60248201527f416464726573733a2063616c6c20746f206e6f6e2d636f6e74726163740000006044820152606401610ca2565b5081610fe3565b610fe383838151156151af5781518083602001fd5b8060405162461bcd60e51b8152600401610ca291906153d9565b82805482825590600052602060002090810192821561521c579160200282015b8281111561521c5781546001600160a01b0319166001600160a01b038435161782556020909201916001909101906151e9565b506152289291506152a2565b5090565b82805482825590600052602060002090810192821561521c579160200282015b8281111561521c57825182546001600160a01b0319166001600160a01b0390911617825560209092019160019091019061524c565b60405180606001604052806000815260200160008152602001600081525090565b5b8082111561522857600081556001016152a3565b6000602082840312156152c957600080fd5b81356001600160e01b031981168114610b7f57600080fd5b6001600160a01b0381168114612a9357600080fd5b60008083601f84011261530857600080fd5b5081356001600160401b0381111561531f57600080fd5b6020830191508360208260051b8501011115614a7057600080fd5b60008060008060008060a0878903121561535357600080fd5b863595506020870135615365816152e1565b94506040870135615375816152e1565b93506060870135925060808701356001600160401b0381111561539757600080fd5b6153a389828a016152f6565b979a9699509497509295939492505050565b60005b838110156153d05781810151838201526020016153b8565b50506000910152565b60208152600082518060208401526153f88160408501602087016153b5565b601f01601f19169190910160400192915050565b60006020828403121561541e57600080fd5b5035919050565b6000806040838503121561543857600080fd5b8235615443816152e1565b946020939093013593505050565b60006020828403121561546357600080fd5b8135610b7f816152e1565b60008060006060848603121561548357600080fd5b833561548e816152e1565b9250602084013561549e816152e1565b929592945050506040919091013590565b600081518084526020808501945080840160005b838110156154e85781516001600160a01b0316875295820195908201906001016154c3565b509495945050505050565b602081526000610b7f60208301846154af565b6000806040838503121561551957600080fd5b82359150602083013561552b816152e1565b809150509250929050565b6000806000806060858703121561554c57600080fd5b8435615557816152e1565b93506020850135925060408501356001600160401b0381111561557957600080fd5b615585878288016152f6565b95989497509550505050565b6001600160a01b0391909116815260200190565b600080602083850312156155b857600080fd5b82356001600160401b038111156155ce57600080fd5b6155da858286016152f6565b90969095509350505050565b60008083601f8401126155f857600080fd5b5081356001600160401b0381111561560f57600080fd5b602083019150836020828501011115614a7057600080fd5b60008060008060008060008060c0898b03121561564357600080fd5b883597506020890135615655816152e1565b965060408901356001600160401b038082111561567157600080fd5b61567d8c838d016155e6565b909850965060608b013591508082111561569657600080fd5b506156a38b828c016155e6565b90955093505060808901356156b7816152e1565b915060a08901356156c7816152e1565b809150509295985092959890939650565b8015158114612a9357600080fd5b6000602082840312156156f857600080fd5b8135610b7f816156d8565b918252602082015260400190565b60ff81168114612a9357600080fd5b600080600080600080600060e0888a03121561573b57600080fd5b8735615746816152e1565b96506020880135615756816152e1565b95506040880135945060608801359350608088013561577481615711565b9699959850939692959460a0840135945060c09093013592915050565b600080604083850312156157a457600080fd5b82356157af816152e1565b9150602083013561552b816152e1565b600181811c908216806157d357607f821691505b6020821081036157f357634e487b7160e01b600052602260045260246000fd5b50919050565b60006020828403121561580b57600080fd5b8151610b7f816152e1565b634e487b7160e01b600052602160045260246000fd5b602081016002831061584e57634e487b7160e01b600052602160045260246000fd5b91905290565b6000808354615862816157bf565b6001828116801561587a576001811461588f576158be565b60ff19841687528215158302870194506158be565b8760005260208060002060005b858110156158b55781548a82015290840190820161589c565b50505082870194505b50929695505050505050565b6000602082840312156158dc57600080fd5b5051919050565b634e487b7160e01b600052601160045260246000fd5b8082028115828204841417610a5c57610a5c6158e3565b634e487b7160e01b600052601260045260246000fd5b60008261593557615935615910565b500490565b81810381811115610a5c57610a5c6158e3565b80820180821115610a5c57610a5c6158e3565b634e487b7160e01b600052603260045260246000fd5b600060018201615988576159886158e3565b5060010190565b60208082528181018390526000908460408401835b868110156159d25782356159b7816152e1565b6001600160a01b0316825291830191908301906001016159a4565b509695505050505050565b6000602082840312156159ef57600080fd5b8151610b7f81615711565b634e487b7160e01b600052604160045260246000fd5b601f821115610f6257600081815260208120601f850160051c81016020861015615a375750805b601f850160051c820191505b81811015615a5657828155600101615a43565b505050505050565b6001600160401b03831115615a7557615a756159fa565b615a8983615a8383546157bf565b83615a10565b6000601f841160018114615abd5760008515615aa55750838201355b600019600387901b1c1916600186901b178355612e0a565b600083815260209020601f19861690835b82811015615aee5786850135825560209485019460019092019101615ace565b5086821015615b0b5760001960f88860031b161c19848701351681555b505060018560011b0183555050505050565b600181815b80851115615b58578160001904821115615b3e57615b3e6158e3565b80851615615b4b57918102915b93841c9390800290615b22565b509250929050565b600082615b6f57506001610a5c565b81615b7c57506000610a5c565b8160018114615b925760028114615b9c57615bb8565b6001915050610a5c565b60ff841115615bad57615bad6158e3565b50506001821b610a5c565b5060208310610133831016604e8410600b8410161715615bdb575081810a610a5c565b615be58383615b1d565b8060001904821115615bf957615bf96158e3565b029392505050565b6000610b7f60ff841683615b60565b958652602086019490945260408501929092526060840152608083015260a082015260c00190565b600082615c4757615c47615910565b500690565b600081615c5b57615c5b6158e3565b506000190190565b60018060a01b0384168152826020820152606060408201526000611bdd60608301846154af565b60008060408385031215615c9d57600080fd5b505080516020909101519092909150565b60008060408385031215615cc157600080fd5b825161ffff81168114615cd357600080fd5b602084015190925061552b816152e1565b6001600160a01b0392831681529116602082015260400190565b76020b1b1b2b9b9a1b7b73a3937b61d1030b1b1b7bab73a1604d1b815260008351615d308160178501602088016153b5565b7001034b99036b4b9b9b4b733903937b6329607d1b6017918401918201528351615d618160288401602088016153b5565b01602801949350505050565b6001600160a01b03929092168252602082015260400190565b600060208284031215615d9857600080fd5b8151610b7f816156d8565b60008251615db58184602087016153b5565b919091019291505056fed5c8971839cd457e3e7008c5010f80fdfb8dbe466e9eff20c25d5d7c1e93d3fb633076a97f32ae349b28772e7b1483f67a926f150cbc501d02bdbd77389325ab1e92f04e56f08d7fc631d317720ce6c1392414dbf052f01c99b4d50ccc494c091893e1a169e79f2fe8aa327b1bceb2fede7a1b76a54824f95ea0e737720954aebcf55f13710eed7eda89416c2984da5475fcff67e96fe85e56eed808559a5222ddf252ad1be2c89b69c2b068fc378daa952ba7f163c4a11628f55a4df523b3ef7f2ad1d3ba35276f35ef140f83e3e0f17b23064fd710113d3f7a5ab30d2678116e71edae12b1b97f4d1f60370fef10105fa2faae0126114a169c64845d6126c98c5be1e5ebec7d5bd14f71427d1e84f3dd0314c0f7b2291e5b200ac8c7c3b925900d80def0427daac599092fcb16b21808ec68dd9a2e1eae89d1e8db213573758b73c3c69bb8fe3d512ecc4cf759cc79239f7b179b0ffacaa9a75d522b39400fdcbc1c05240f31ff3ad067ef1ee35ce4997762752e3a095284754544f4c709d75e2b8821ad6e0e26207e0cb4d242d07eeb1cbb1cfd853e645bdcd27cc5484f95a2646970667358221220ce2700853957dd71243f0946878027d0c9d6ea712467d40dee8a10a128555feb64736f6c63430008130033",
  "devdoc": {
    "events": {
      "Approval(address,address,uint256)": {
        "details": "Emitted when the allowance of a `spender` for an `owner` is set by a call to {approve}. `value` is the new allowance."
      },
      "RoleAdminChanged(bytes32,bytes32,bytes32)": {
        "details": "Emitted when `newAdminRole` is set as ``role``'s admin role, replacing `previousAdminRole` `DEFAULT_ADMIN_ROLE` is the starting admin for all roles, despite {RoleAdminChanged} not being emitted signaling this. _Available since v3.1._"
      },
      "RoleGranted(bytes32,address,address)": {
        "details": "Emitted when `account` is granted `role`. `sender` is the account that originated the contract call, an admin role bearer except when using {AccessControl-_setupRole}."
      },
      "RoleRevoked(bytes32,address,address)": {
        "details": "Emitted when `account` is revoked `role`. `sender` is the account that originated the contract call:   - if using `revokeRole`, it is the admin role bearer   - if using `renounceRole`, it is the role bearer (i.e. `account`)"
      },
      "Transfer(address,address,uint256)": {
        "details": "Emitted when `value` tokens are moved from one account (`from`) to another (`to`). Note that `value` may be zero."
      }
    },
    "kind": "dev",
    "methods": {
      "addStrategy(address)": {
        "params": {
          "newStrategy": "The new strategy to add."
        }
      },
      "allowance(address,address)": {
        "params": {
          "owner": "The address that owns the shares.",
          "spender": "The address that is allowed to spend the shares."
        }
      },
      "approve(address,uint256)": {
        "params": {
          "amount": "The amount of shares to approve.",
          "spender": "The address to approve."
        },
        "returns": {
          "_0": "True if the approval was successful."
        }
      },
      "assessShareOfUnrealisedLosses(address,uint256)": {
        "params": {
          "assetsNeeded": "The amount of assets needed by the strategy.",
          "strategy": "The strategy to assess the share of unrealised losses for."
        }
      },
      "asset()": {
        "returns": {
          "_0": "The address of the asset."
        }
      },
      "balanceOf(address)": {
        "params": {
          "addr": "The address to get the balance of."
        },
        "returns": {
          "_0": "The balance of the user."
        }
      },
      "buyDebt(address,uint256)": {
        "details": "This should only ever be used in an emergency in place of force revoking a strategy in order to not report a loss. It allows the DEBT_PURCHASER role to buy the strategies debt for an equal amount of `asset`.",
        "params": {
          "amount": "The amount of debt to buy from the vault.",
          "strategy": "The strategy to buy the debt for"
        }
      },
      "convertToAssets(uint256)": {
        "params": {
          "shares": "The amount of shares to convert."
        },
        "returns": {
          "_0": "The amount of assets."
        }
      },
      "convertToShares(uint256)": {
        "params": {
          "assets": "The amount of assets to convert."
        },
        "returns": {
          "_0": "The amount of shares."
        }
      },
      "decimals()": {
        "returns": {
          "_0": "The number of decimals of the asset/share."
        }
      },
      "deposit(uint256,address)": {
        "params": {
          "assets": "The amount of assets to deposit.",
          "receiver": "The address to receive the shares."
        },
        "returns": {
          "_0": "The amount of shares minted."
        }
      },
      "forceRevokeStrategy(address)": {
        "details": "The vault will remove the strategy and write off any debt left in it as a loss. This function is a dangerous function as it can force a strategy to take a loss. All possible assets should be removed from the strategy first via update_debt. If a strategy is removed erroneously it can be re-added and the loss will be credited as profit. Fees will apply.",
        "params": {
          "strategy": "The strategy to force revoke."
        }
      },
      "getDebt(address)": {
        "params": {
          "strategy": "The strategy to withdraw from."
        }
      },
      "getRoleAdmin(bytes32)": {
        "details": "Returns the admin role that controls `role`. See {grantRole} and {revokeRole}. To change a role's admin, use {_setRoleAdmin}."
      },
      "grantRole(bytes32,address)": {
        "details": "Grants `role` to `account`. If `account` had not been already granted `role`, emits a {RoleGranted} event. Requirements: - the caller must have ``role``'s admin role. May emit a {RoleGranted} event."
      },
      "hasRole(bytes32,address)": {
        "details": "Returns `true` if `account` has been granted `role`."
      },
      "maxDeposit(address)": {
        "params": {
          "receiver": "The address that will receive the shares."
        },
        "returns": {
          "_0": "The maximum amount of assets that can be deposited."
        }
      },
      "maxMint(address)": {
        "params": {
          "receiver": "The address that will receive the shares."
        },
        "returns": {
          "_0": "The maximum amount of shares that can be minted."
        }
      },
      "maxRedeem(address,uint256,address[])": {
        "details": "Complies to normal 4626 interface and takes custom params.",
        "params": {
          "_strategies": "Custom strategies queue if any.",
          "maxLoss": "Custom maxLoss if any.",
          "owner": "The address that owns the shares."
        },
        "returns": {
          "_0": "The maximum amount of shares that can be redeemed."
        }
      },
      "maxWithdraw(address,uint256,address[])": {
        "details": "Complies to normal 4626 interface and takes custom params.",
        "params": {
          "_strategies": "Custom strategies queue if any.",
          "maxLoss": "Custom maxLoss if any.",
          "owner": "The address that owns the shares."
        },
        "returns": {
          "_0": "The maximum amount of assets that can be withdrawn."
        }
      },
      "mint(uint256,address)": {
        "params": {
          "receiver": "The address to receive the shares.",
          "shares": "The amount of shares to mint."
        },
        "returns": {
          "_0": "The amount of assets deposited."
        }
      },
      "permit(address,address,uint256,uint256,uint8,bytes32,bytes32)": {
        "params": {
          "amount": "The amount of shares to approve.",
          "deadline": "The deadline for the permit.",
          "owner": "The address to approve.",
          "r": "The r component of the signature.",
          "s": "The s component of the signature.",
          "spender": "The address to approve.",
          "v": "The v component of the signature."
        },
        "returns": {
          "_0": "True if the approval was successful."
        }
      },
      "previewDeposit(uint256)": {
        "params": {
          "assets": "The amount of assets to deposit."
        },
        "returns": {
          "_0": "The amount of shares that would be minted."
        }
      },
      "previewMint(uint256)": {
        "params": {
          "shares": "The amount of shares to mint."
        },
        "returns": {
          "_0": "The amount of assets that would be deposited."
        }
      },
      "previewRedeem(uint256)": {
        "params": {
          "shares": "The amount of shares to redeem."
        },
        "returns": {
          "_0": "The amount of assets that would be withdrawn."
        }
      },
      "previewWithdraw(uint256)": {
        "params": {
          "assets": "The amount of assets to withdraw."
        },
        "returns": {
          "_0": "The amount of shares that would be redeemed."
        }
      },
      "pricePerShare()": {
        "details": "This value offers limited precision. Integrations that require exact precision should use convertToAssets or convertToShares instead.",
        "returns": {
          "_0": "The price per share."
        }
      },
      "processReport(address)": {
        "details": "Processing a report means comparing the debt that the strategy has taken with the current amount of funds it is reporting. If the strategy owes less than it currently has, it means it has had a profit, else (assets < debt) it has had a loss. Different strategies might choose different reporting strategies: pessimistic, only realised P&L, ... The best way to report depends on the strategy. The profit will be distributed following a smooth curve over the vaults profitMaxUnlockTime seconds. Losses will be taken immediately, first from the profit buffer (avoiding an impact in pps), then will reduce pps. Any applicable fees are charged and distributed during the report as well to the specified recipients.",
        "params": {
          "strategy": "The strategy to process the report for."
        },
        "returns": {
          "_0": "The gain and loss of the strategy."
        }
      },
      "redeem(uint256,address,address,uint256,address[])": {
        "details": "The default behavior is to allow losses to be realized.",
        "params": {
          "_strategies": "Optional array of strategies to withdraw from.",
          "maxLoss": "Optional amount of acceptable loss in Basis Points.",
          "owner": "The address who's shares are being burnt.",
          "receiver": "The address to receive the assets.",
          "shares": "The amount of shares to burn."
        },
        "returns": {
          "_0": "The amount of assets actually withdrawn."
        }
      },
      "renounceRole(bytes32,address)": {
        "details": "Revokes `role` from the calling account. Roles are often managed via {grantRole} and {revokeRole}: this function's purpose is to provide a mechanism for accounts to lose their privileges if they are compromised (such as when a trusted device is misplaced). If the calling account had been revoked `role`, emits a {RoleRevoked} event. Requirements: - the caller must be `account`. May emit a {RoleRevoked} event."
      },
      "revokeRole(bytes32,address)": {
        "details": "Revokes `role` from `account`. If `account` had been granted `role`, emits a {RoleRevoked} event. Requirements: - the caller must have ``role``'s admin role. May emit a {RoleRevoked} event."
      },
      "revokeStrategy(address)": {
        "params": {
          "strategy": "The strategy to revoke."
        }
      },
      "setAccountant(address)": {
        "params": {
          "newAccountant": "The new accountant address."
        }
      },
      "setDefaultQueue(address[])": {
        "details": "Will check each strategy to make sure it is active.",
        "params": {
          "newDefaultQueue": "The new default queue array."
        }
      },
      "setDepositLimit(uint256)": {
        "details": "Can not be changed if a depositLimitModule is set or if shutdown.",
        "params": {
          "_depositLimit": "The new deposit limit."
        }
      },
      "setDepositLimitModule(address)": {
        "details": "The default `depositLimit` will need to be set to max uint256 since the module will override it.",
        "params": {
          "_depositLimitModule": "Address of the module."
        }
      },
      "setMinimumTotalIdle(uint256)": {
        "params": {
          "_minimumTotalIdle": "The new minimum total idle."
        }
      },
      "setProfitMaxUnlockTime(uint256)": {
        "details": "The time is denominated in seconds and must be less than 1 year.  We only need to update locking period if setting to 0,  since the current period will use the old rate and on the next  report it will be reset with the new unlocking time.  Setting to 0 will cause any currently locked profit to instantly unlock and an immediate increase in the vaults Price Per Share.",
        "params": {
          "_newProfitMaxUnlockTime": "The new profit max unlock time."
        }
      },
      "setUseDefaultQueue(bool)": {
        "details": "If set `True` the default queue will always be used no matter whats passed in.",
        "params": {
          "_useDefaultQueue": "new value."
        }
      },
      "setWithdrawLimitModule(address)": {
        "details": "This will override the default `maxWithdraw`.",
        "params": {
          "_withdrawLimitModule": "Address of the module."
        }
      },
      "supportsInterface(bytes4)": {
        "details": "See {IERC165-supportsInterface}."
      },
      "totalAssets()": {
        "returns": {
          "_0": "The total assets held by the vault."
        }
      },
      "totalSupply()": {
        "returns": {
          "_0": "The total supply of shares."
        }
      },
      "transfer(address,uint256)": {
        "params": {
          "amount": "The amount of shares to transfer.",
          "receiver": "The address to transfer shares to."
        },
        "returns": {
          "_0": "True if the transfer was successful."
        }
      },
      "transferFrom(address,address,uint256)": {
        "params": {
          "amount": "The amount of shares to transfer.",
          "receiver": "The address to transfer shares to.",
          "sender": "The address to transfer shares from."
        },
        "returns": {
          "_0": "True if the transfer was successful."
        }
      },
      "unlockedShares()": {
        "returns": {
          "_0": "The amount of shares that are have been unlocked."
        }
      },
      "updateDebt(address,uint256)": {
        "params": {
          "strategy": "The strategy to update the debt for.",
          "targetDebt": "The target debt for the strategy."
        },
        "returns": {
          "_0": "The amount of debt added or removed."
        }
      },
      "updateMaxDebtForStrategy(address,uint256)": {
        "params": {
          "newMaxDebt": "The new max debt for the strategy.",
          "strategy": "The strategy to update the max debt for."
        }
      },
      "withdraw(uint256,address,address,uint256,address[])": {
        "details": "The default behavior is to not allow any loss.",
        "params": {
          "_strategies": "Optional array of strategies to withdraw from.",
          "assets": "The amount of asset to withdraw.",
          "maxLoss": "Optional amount of acceptable loss in Basis Points.",
          "owner": "The address who's shares are being burnt.",
          "receiver": "The address to receive the assets."
        },
        "returns": {
          "_0": "The amount of shares actually burnt."
        }
      }
    },
    "title": "Fathom Vault",
    "version": 1
  },
  "userdoc": {
    "kind": "user",
    "methods": {
      "DOMAIN_SEPARATOR()": {
        "notice": "EIP-2612 permit() domain separator."
      },
      "DOMAIN_TYPE_HASH()": {
        "notice": "EIP-2612 permit() typehashes"
      },
      "MAX_BPS()": {
        "notice": "100% in Basis Points."
      },
      "MAX_BPS_EXTENDED()": {
        "notice": "Extended for profit locking calculations."
      },
      "MAX_QUEUE()": {
        "notice": "The max length the withdrawal queue can be."
      },
      "ONE_YEAR()": {
        "notice": "One year constant for calculating the profit unlocking rate."
      },
      "STRATEGY_MANAGER()": {
        "notice": "Roles"
      },
      "accountant()": {
        "notice": "Contract that charges fees and can give refunds."
      },
      "addStrategy(address)": {
        "notice": "Add a new strategy."
      },
      "allowance(address,address)": {
        "notice": "Get the allowance for a spender."
      },
      "apiVersion()": {
        "notice": "The version of this vault."
      },
      "approve(address,uint256)": {
        "notice": "Approve an address to spend the vault's shares."
      },
      "assessShareOfUnrealisedLosses(address,uint256)": {
        "notice": "Assess the share of unrealised losses for a strategy."
      },
      "asset()": {
        "notice": "Get the address of the asset."
      },
      "balanceOf(address)": {
        "notice": "Get the balance of a user."
      },
      "buyDebt(address,uint256)": {
        "notice": "Used for governance to buy bad debt from the vault."
      },
      "convertToAssets(uint256)": {
        "notice": "Convert an amount of shares to assets."
      },
      "convertToShares(uint256)": {
        "notice": "Convert an amount of assets to shares."
      },
      "decimals()": {
        "notice": "Get the number of decimals of the asset/share."
      },
      "defaultQueue(uint256)": {
        "notice": "The current default withdrawal queue."
      },
      "deposit(uint256,address)": {
        "notice": "Deposit assets into the vault."
      },
      "depositLimit()": {
        "notice": "Maximum amount of tokens that the vault can accept. If totalAssets > deposit_limit, deposits will revert."
      },
      "depositLimitModule()": {
        "notice": "Contract to control the deposit limit."
      },
      "factory()": {
        "notice": "Factory address"
      },
      "forceRevokeStrategy(address)": {
        "notice": "Force revoke a strategy."
      },
      "fullProfitUnlockDate()": {
        "notice": "The timestamp of when the current unlocking period ends."
      },
      "getDebt(address)": {
        "notice": "Get debt for a strategy."
      },
      "getDefaultQueue()": {
        "notice": "Get default strategy queue."
      },
      "getDefaultQueueLength()": {
        "notice": "Get default strategy queue length."
      },
      "initialized()": {
        "notice": "Initialized state of the vault."
      },
      "lastProfitUpdate()": {
        "notice": "Last timestamp of the most recent profitable report."
      },
      "maxDeposit(address)": {
        "notice": "Get the maximum amount of assets that can be deposited."
      },
      "maxMint(address)": {
        "notice": "Get the maximum amount of shares that can be minted."
      },
      "maxRedeem(address,uint256,address[])": {
        "notice": "Get the maximum amount of shares that can be redeemed."
      },
      "maxWithdraw(address,uint256,address[])": {
        "notice": "Get the maximum amount of assets that can be withdrawn."
      },
      "minimumTotalIdle()": {
        "notice": "Minimum amount of assets that should be kept in the vault contract to allow for fast, cheap redeems."
      },
      "mint(uint256,address)": {
        "notice": "Mint shares for the receiver."
      },
      "name()": {
        "notice": "ERC20 - name of the vault's token"
      },
      "nonces(address)": {
        "notice": "EIP-2612 permit() nonces"
      },
      "permit(address,address,uint256,uint256,uint8,bytes32,bytes32)": {
        "notice": "Approve an address to spend the vault's shares."
      },
      "previewDeposit(uint256)": {
        "notice": "Preview the amount of shares that would be minted for a deposit."
      },
      "previewMint(uint256)": {
        "notice": "Preview the amount of assets that would be deposited for a mint."
      },
      "previewRedeem(uint256)": {
        "notice": "Preview the amount of assets that would be withdrawn for a redeem."
      },
      "previewWithdraw(uint256)": {
        "notice": "Preview the amount of shares that would be redeemed for a withdraw."
      },
      "pricePerShare()": {
        "notice": "Get the price per share (pps) of the vault."
      },
      "processReport(address)": {
        "notice": "Process the report of a strategy."
      },
      "profitMaxUnlockTime()": {
        "notice": "The amount of time profits will unlock over."
      },
      "profitUnlockingRate()": {
        "notice": "The per second rate at which profit will unlock."
      },
      "redeem(uint256,address,address,uint256,address[])": {
        "notice": "Redeems an amount of shares of `owners` shares sending funds to `receiver`."
      },
      "revokeStrategy(address)": {
        "notice": "Revoke a strategy."
      },
      "setAccountant(address)": {
        "notice": "Set the new accountant address."
      },
      "setDefaultQueue(address[])": {
        "notice": "Set the new default queue array."
      },
      "setDepositLimit(uint256)": {
        "notice": "Set the new deposit limit."
      },
      "setDepositLimitModule(address)": {
        "notice": "Set a contract to handle the deposit limit."
      },
      "setMinimumTotalIdle(uint256)": {
        "notice": "Set the new minimum total idle."
      },
      "setProfitMaxUnlockTime(uint256)": {
        "notice": "Set the new profit max unlock time."
      },
      "setUseDefaultQueue(bool)": {
        "notice": "Set a new value for `use_default_queue`."
      },
      "setWithdrawLimitModule(address)": {
        "notice": "Set a contract to handle the withdraw limit."
      },
      "shutdown()": {
        "notice": "State of the vault - if set to true, only withdrawals will be available. It can't be reverted."
      },
      "shutdownVault()": {
        "notice": "Shutdown the vault."
      },
      "strategies(address)": {
        "notice": "HashMap that records all the strategies that are allowed to receive assets from the vault."
      },
      "symbol()": {
        "notice": "ERC20 - symbol of the vault's token"
      },
      "totalAssets()": {
        "notice": "Get the total assets held by the vault."
      },
      "totalDebt()": {
        "notice": "Total amount of assets that has been deposited in strategies."
      },
      "totalIdle()": {
        "notice": "Current assets held in the vault contract. Replacing balanceOf(this) to avoid pricePerShare manipulation."
      },
      "totalSupply()": {
        "notice": "Get the total supply of shares."
      },
      "totalSupplyAmount()": {
        "notice": "Total amount of shares that are currently minted including those locked. NOTE: To get the ERC20 compliant version use totalSupply()."
      },
      "transfer(address,uint256)": {
        "notice": "Transfer shares to a receiver."
      },
      "transferFrom(address,address,uint256)": {
        "notice": "Transfer shares from a sender to a receiver."
      },
      "unlockedShares()": {
        "notice": "Get the amount of shares that have been unlocked."
      },
      "updateDebt(address,uint256)": {
        "notice": "Update the debt for a strategy."
      },
      "updateMaxDebtForStrategy(address,uint256)": {
        "notice": "Update the max debt for a strategy."
      },
      "useDefaultQueue()": {
        "notice": "Should the vault use the default_queue regardless whats passed in."
      },
      "withdraw(uint256,address,address,uint256,address[])": {
        "notice": "Withdraw an amount of asset to `receiver` burning `owner`s shares."
      },
      "withdrawLimitModule()": {
        "notice": "Contract to control the withdraw limit."
      }
    },
    "notice": "The Fathom Vault is designed as a non-opinionated system to distribute funds of depositors for a specific `asset` into different opportunities (aka Strategies) and manage accounting in a robust way.",
    "version": 1
  },
  "storageLayout": {
    "storage": [
      {
        "astId": 24,
        "contract": "contracts/vault/packages/VaultPackage.sol:VaultPackage",
        "label": "_roles",
        "offset": 0,
        "slot": "0",
        "type": "t_mapping(t_bytes32,t_struct(RoleData)19_storage)"
      },
      {
        "astId": 964,
        "contract": "contracts/vault/packages/VaultPackage.sol:VaultPackage",
        "label": "_status",
        "offset": 0,
        "slot": "1",
        "type": "t_uint256"
      },
      {
        "astId": 9946,
        "contract": "contracts/vault/packages/VaultPackage.sol:VaultPackage",
        "label": "totalSupplyAmount",
        "offset": 0,
        "slot": "2",
        "type": "t_uint256"
      },
      {
        "astId": 9949,
        "contract": "contracts/vault/packages/VaultPackage.sol:VaultPackage",
        "label": "totalDebt",
        "offset": 0,
        "slot": "3",
        "type": "t_uint256"
      },
      {
        "astId": 9952,
        "contract": "contracts/vault/packages/VaultPackage.sol:VaultPackage",
        "label": "totalIdle",
        "offset": 0,
        "slot": "4",
        "type": "t_uint256"
      },
      {
        "astId": 9955,
        "contract": "contracts/vault/packages/VaultPackage.sol:VaultPackage",
        "label": "minimumTotalIdle",
        "offset": 0,
        "slot": "5",
        "type": "t_uint256"
      },
      {
        "astId": 9958,
        "contract": "contracts/vault/packages/VaultPackage.sol:VaultPackage",
        "label": "depositLimit",
        "offset": 0,
        "slot": "6",
        "type": "t_uint256"
      },
      {
        "astId": 9961,
        "contract": "contracts/vault/packages/VaultPackage.sol:VaultPackage",
        "label": "profitMaxUnlockTime",
        "offset": 0,
        "slot": "7",
        "type": "t_uint256"
      },
      {
        "astId": 9964,
        "contract": "contracts/vault/packages/VaultPackage.sol:VaultPackage",
        "label": "fullProfitUnlockDate",
        "offset": 0,
        "slot": "8",
        "type": "t_uint256"
      },
      {
        "astId": 9967,
        "contract": "contracts/vault/packages/VaultPackage.sol:VaultPackage",
        "label": "profitUnlockingRate",
        "offset": 0,
        "slot": "9",
        "type": "t_uint256"
      },
      {
        "astId": 9970,
        "contract": "contracts/vault/packages/VaultPackage.sol:VaultPackage",
        "label": "lastProfitUpdate",
        "offset": 0,
        "slot": "10",
        "type": "t_uint256"
      },
      {
        "astId": 9973,
        "contract": "contracts/vault/packages/VaultPackage.sol:VaultPackage",
        "label": "accountant",
        "offset": 0,
        "slot": "11",
        "type": "t_address"
      },
      {
        "astId": 9976,
        "contract": "contracts/vault/packages/VaultPackage.sol:VaultPackage",
        "label": "depositLimitModule",
        "offset": 0,
        "slot": "12",
        "type": "t_address"
      },
      {
        "astId": 9979,
        "contract": "contracts/vault/packages/VaultPackage.sol:VaultPackage",
        "label": "withdrawLimitModule",
        "offset": 0,
        "slot": "13",
        "type": "t_address"
      },
      {
        "astId": 9982,
        "contract": "contracts/vault/packages/VaultPackage.sol:VaultPackage",
        "label": "factory",
        "offset": 0,
        "slot": "14",
        "type": "t_address"
      },
      {
        "astId": 9986,
        "contract": "contracts/vault/packages/VaultPackage.sol:VaultPackage",
        "label": "assetContract",
        "offset": 0,
        "slot": "15",
        "type": "t_contract(ERC20)1605"
      },
      {
        "astId": 9989,
        "contract": "contracts/vault/packages/VaultPackage.sol:VaultPackage",
        "label": "useDefaultQueue",
        "offset": 20,
        "slot": "15",
        "type": "t_bool"
      },
      {
        "astId": 9992,
        "contract": "contracts/vault/packages/VaultPackage.sol:VaultPackage",
        "label": "shutdown",
        "offset": 21,
        "slot": "15",
        "type": "t_bool"
      },
      {
        "astId": 9995,
        "contract": "contracts/vault/packages/VaultPackage.sol:VaultPackage",
        "label": "initialized",
        "offset": 22,
        "slot": "15",
        "type": "t_bool"
      },
      {
        "astId": 9998,
        "contract": "contracts/vault/packages/VaultPackage.sol:VaultPackage",
        "label": "decimalsValue",
        "offset": 23,
        "slot": "15",
        "type": "t_uint8"
      },
      {
        "astId": 10001,
        "contract": "contracts/vault/packages/VaultPackage.sol:VaultPackage",
        "label": "sharesName",
        "offset": 0,
        "slot": "16",
        "type": "t_string_storage"
      },
      {
        "astId": 10004,
        "contract": "contracts/vault/packages/VaultPackage.sol:VaultPackage",
        "label": "sharesSymbol",
        "offset": 0,
        "slot": "17",
        "type": "t_string_storage"
      },
      {
        "astId": 10008,
        "contract": "contracts/vault/packages/VaultPackage.sol:VaultPackage",
        "label": "defaultQueue",
        "offset": 0,
        "slot": "18",
        "type": "t_array(t_address)dyn_storage"
      },
      {
        "astId": 10014,
        "contract": "contracts/vault/packages/VaultPackage.sol:VaultPackage",
        "label": "strategies",
        "offset": 0,
        "slot": "19",
        "type": "t_mapping(t_address,t_struct(StrategyParams)10043_storage)"
      },
      {
        "astId": 10019,
        "contract": "contracts/vault/packages/VaultPackage.sol:VaultPackage",
        "label": "sharesBalanceOf",
        "offset": 0,
        "slot": "20",
        "type": "t_mapping(t_address,t_uint256)"
      },
      {
        "astId": 10026,
        "contract": "contracts/vault/packages/VaultPackage.sol:VaultPackage",
        "label": "sharesAllowance",
        "offset": 0,
        "slot": "21",
        "type": "t_mapping(t_address,t_mapping(t_address,t_uint256))"
      },
      {
        "astId": 10031,
        "contract": "contracts/vault/packages/VaultPackage.sol:VaultPackage",
        "label": "nonces",
        "offset": 0,
        "slot": "22",
        "type": "t_mapping(t_address,t_uint256)"
      }
    ],
    "types": {
      "t_address": {
        "encoding": "inplace",
        "label": "address",
        "numberOfBytes": "20"
      },
      "t_array(t_address)dyn_storage": {
        "base": "t_address",
        "encoding": "dynamic_array",
        "label": "address[]",
        "numberOfBytes": "32"
      },
      "t_bool": {
        "encoding": "inplace",
        "label": "bool",
        "numberOfBytes": "1"
      },
      "t_bytes32": {
        "encoding": "inplace",
        "label": "bytes32",
        "numberOfBytes": "32"
      },
      "t_contract(ERC20)1605": {
        "encoding": "inplace",
        "label": "contract ERC20",
        "numberOfBytes": "20"
      },
      "t_mapping(t_address,t_bool)": {
        "encoding": "mapping",
        "key": "t_address",
        "label": "mapping(address => bool)",
        "numberOfBytes": "32",
        "value": "t_bool"
      },
      "t_mapping(t_address,t_mapping(t_address,t_uint256))": {
        "encoding": "mapping",
        "key": "t_address",
        "label": "mapping(address => mapping(address => uint256))",
        "numberOfBytes": "32",
        "value": "t_mapping(t_address,t_uint256)"
      },
      "t_mapping(t_address,t_struct(StrategyParams)10043_storage)": {
        "encoding": "mapping",
        "key": "t_address",
        "label": "mapping(address => struct StrategyParams)",
        "numberOfBytes": "32",
        "value": "t_struct(StrategyParams)10043_storage"
      },
      "t_mapping(t_address,t_uint256)": {
        "encoding": "mapping",
        "key": "t_address",
        "label": "mapping(address => uint256)",
        "numberOfBytes": "32",
        "value": "t_uint256"
      },
      "t_mapping(t_bytes32,t_struct(RoleData)19_storage)": {
        "encoding": "mapping",
        "key": "t_bytes32",
        "label": "mapping(bytes32 => struct AccessControl.RoleData)",
        "numberOfBytes": "32",
        "value": "t_struct(RoleData)19_storage"
      },
      "t_string_storage": {
        "encoding": "bytes",
        "label": "string",
        "numberOfBytes": "32"
      },
      "t_struct(RoleData)19_storage": {
        "encoding": "inplace",
        "label": "struct AccessControl.RoleData",
        "members": [
          {
            "astId": 16,
            "contract": "contracts/vault/packages/VaultPackage.sol:VaultPackage",
            "label": "members",
            "offset": 0,
            "slot": "0",
            "type": "t_mapping(t_address,t_bool)"
          },
          {
            "astId": 18,
            "contract": "contracts/vault/packages/VaultPackage.sol:VaultPackage",
            "label": "adminRole",
            "offset": 0,
            "slot": "1",
            "type": "t_bytes32"
          }
        ],
        "numberOfBytes": "64"
      },
      "t_struct(StrategyParams)10043_storage": {
        "encoding": "inplace",
        "label": "struct StrategyParams",
        "members": [
          {
            "astId": 10036,
            "contract": "contracts/vault/packages/VaultPackage.sol:VaultPackage",
            "label": "activation",
            "offset": 0,
            "slot": "0",
            "type": "t_uint256"
          },
          {
            "astId": 10038,
            "contract": "contracts/vault/packages/VaultPackage.sol:VaultPackage",
            "label": "lastReport",
            "offset": 0,
            "slot": "1",
            "type": "t_uint256"
          },
          {
            "astId": 10040,
            "contract": "contracts/vault/packages/VaultPackage.sol:VaultPackage",
            "label": "currentDebt",
            "offset": 0,
            "slot": "2",
            "type": "t_uint256"
          },
          {
            "astId": 10042,
            "contract": "contracts/vault/packages/VaultPackage.sol:VaultPackage",
            "label": "maxDebt",
            "offset": 0,
            "slot": "3",
            "type": "t_uint256"
          }
        ],
        "numberOfBytes": "128"
      },
      "t_uint256": {
        "encoding": "inplace",
        "label": "uint256",
        "numberOfBytes": "32"
      },
      "t_uint8": {
        "encoding": "inplace",
        "label": "uint8",
        "numberOfBytes": "1"
      }
    }
  }
}