{
  "address": "0x6b517Ab891d861A23D71832A90bd0caF0A63e7e3",
  "abi": [
    {
      "inputs": [],
      "name": "AlreadyInitialized",
      "type": "error"
    },
    {
      "inputs": [],
      "name": "AmountTooHigh",
      "type": "error"
    },
    {
      "inputs": [],
      "name": "DebtDidntChange",
      "type": "error"
    },
    {
      "inputs": [
        {
          "internalType": "uint256",
          "name": "newDebt",
          "type": "uint256"
        },
        {
          "internalType": "uint256",
          "name": "maxDebt",
          "type": "uint256"
        }
      ],
      "name": "DebtHigherThanMaxDebt",
      "type": "error"
    },
    {
      "inputs": [],
      "name": "ERC20ApprovalFailed",
      "type": "error"
    },
    {
      "inputs": [
        {
          "internalType": "uint256",
          "name": "currentAllowance",
          "type": "uint256"
        }
      ],
      "name": "ERC20InsufficientAllowance",
      "type": "error"
    },
    {
      "inputs": [],
      "name": "ERC20PermitExpired",
      "type": "error"
    },
    {
      "inputs": [
        {
          "internalType": "address",
          "name": "recoveredAddress",
          "type": "address"
        }
      ],
      "name": "ERC20PermitInvalidSignature",
      "type": "error"
    },
    {
      "inputs": [],
      "name": "ERC20TransferFailed",
      "type": "error"
    },
    {
      "inputs": [
        {
          "internalType": "uint256",
          "name": "recipientMaxDeposit",
          "type": "uint256"
        }
      ],
      "name": "ExceedDepositLimit",
      "type": "error"
    },
    {
      "inputs": [
        {
          "internalType": "uint256",
          "name": "recipientMaxWithdraw",
          "type": "uint256"
        }
      ],
      "name": "ExceedWithdrawLimit",
      "type": "error"
    },
    {
      "inputs": [],
      "name": "FeeExceedsMax",
      "type": "error"
    },
    {
      "inputs": [
        {
          "internalType": "address",
          "name": "strategy",
          "type": "address"
        }
      ],
      "name": "InactiveStrategy",
      "type": "error"
    },
    {
      "inputs": [],
      "name": "InactiveVault",
      "type": "error"
    },
    {
      "inputs": [
        {
          "internalType": "uint256",
          "name": "currTotalIdle",
          "type": "uint256"
        },
        {
          "internalType": "uint256",
          "name": "requestedAssets",
          "type": "uint256"
        }
      ],
      "name": "InsufficientAssets",
      "type": "error"
    },
    {
      "inputs": [],
      "name": "InsufficientFunds",
      "type": "error"
    },
    {
      "inputs": [
        {
          "internalType": "uint256",
          "name": "balanceOfOwner",
          "type": "uint256"
        }
      ],
      "name": "InsufficientShares",
      "type": "error"
    },
    {
      "inputs": [
        {
          "internalType": "address",
          "name": "asset",
          "type": "address"
        }
      ],
      "name": "InvalidAsset",
      "type": "error"
    },
    {
      "inputs": [],
      "name": "InvalidAssetDecimals",
      "type": "error"
    },
    {
      "inputs": [],
      "name": "MaxLoss",
      "type": "error"
    },
    {
      "inputs": [],
      "name": "ProfitUnlockTimeTooLong",
      "type": "error"
    },
    {
      "inputs": [],
      "name": "StrategyAlreadyActive",
      "type": "error"
    },
    {
      "inputs": [
        {
          "internalType": "uint256",
          "name": "strageyCurrentDebt",
          "type": "uint256"
        }
      ],
      "name": "StrategyDebtIsLessThanAssetsNeeded",
      "type": "error"
    },
    {
      "inputs": [
        {
          "internalType": "uint256",
          "name": "debt",
          "type": "uint256"
        }
      ],
      "name": "StrategyHasDebt",
      "type": "error"
    },
    {
      "inputs": [
        {
          "internalType": "uint256",
          "name": "unrealisedLosses",
          "type": "uint256"
        }
      ],
      "name": "StrategyHasUnrealisedLosses",
      "type": "error"
    },
    {
      "inputs": [],
      "name": "TooMuchLoss",
      "type": "error"
    },
    {
      "inputs": [],
      "name": "UsingDepositLimit",
      "type": "error"
    },
    {
      "inputs": [],
      "name": "UsingModule",
      "type": "error"
    },
    {
      "inputs": [],
      "name": "ZeroAddress",
      "type": "error"
    },
    {
      "inputs": [],
      "name": "ZeroValue",
      "type": "error"
    },
    {
      "anonymous": false,
      "inputs": [
        {
          "indexed": true,
          "internalType": "address",
          "name": "owner",
          "type": "address"
        },
        {
          "indexed": true,
          "internalType": "address",
          "name": "spender",
          "type": "address"
        },
        {
          "indexed": false,
          "internalType": "uint256",
          "name": "value",
          "type": "uint256"
        }
      ],
      "name": "Approval",
      "type": "event"
    },
    {
      "anonymous": false,
      "inputs": [
        {
          "indexed": true,
          "internalType": "address",
          "name": "strategy",
          "type": "address"
        },
        {
          "indexed": false,
          "internalType": "uint256",
          "name": "amount",
          "type": "uint256"
        }
      ],
      "name": "DebtPurchased",
      "type": "event"
    },
    {
      "anonymous": false,
      "inputs": [
        {
          "indexed": true,
          "internalType": "address",
          "name": "strategy",
          "type": "address"
        },
        {
          "indexed": false,
          "internalType": "uint256",
          "name": "currentDebt",
          "type": "uint256"
        },
        {
          "indexed": false,
          "internalType": "uint256",
          "name": "newDebt",
          "type": "uint256"
        }
      ],
      "name": "DebtUpdated",
      "type": "event"
    },
    {
      "anonymous": false,
      "inputs": [
        {
          "indexed": true,
          "internalType": "address",
          "name": "sender",
          "type": "address"
        },
        {
          "indexed": true,
          "internalType": "address",
          "name": "owner",
          "type": "address"
        },
        {
          "indexed": false,
          "internalType": "uint256",
          "name": "assets",
          "type": "uint256"
        },
        {
          "indexed": false,
          "internalType": "uint256",
          "name": "shares",
          "type": "uint256"
        }
      ],
      "name": "Deposit",
      "type": "event"
    },
    {
      "anonymous": false,
      "inputs": [
        {
          "indexed": true,
          "internalType": "bytes32",
          "name": "role",
          "type": "bytes32"
        },
        {
          "indexed": true,
          "internalType": "bytes32",
          "name": "previousAdminRole",
          "type": "bytes32"
        },
        {
          "indexed": true,
          "internalType": "bytes32",
          "name": "newAdminRole",
          "type": "bytes32"
        }
      ],
      "name": "RoleAdminChanged",
      "type": "event"
    },
    {
      "anonymous": false,
      "inputs": [
        {
          "indexed": true,
          "internalType": "bytes32",
          "name": "role",
          "type": "bytes32"
        },
        {
          "indexed": true,
          "internalType": "address",
          "name": "account",
          "type": "address"
        },
        {
          "indexed": true,
          "internalType": "address",
          "name": "sender",
          "type": "address"
        }
      ],
      "name": "RoleGranted",
      "type": "event"
    },
    {
      "anonymous": false,
      "inputs": [
        {
          "indexed": true,
          "internalType": "bytes32",
          "name": "role",
          "type": "bytes32"
        },
        {
          "indexed": true,
          "internalType": "address",
          "name": "account",
          "type": "address"
        },
        {
          "indexed": true,
          "internalType": "address",
          "name": "sender",
          "type": "address"
        }
      ],
      "name": "RoleRevoked",
      "type": "event"
    },
    {
      "anonymous": false,
      "inputs": [
        {
          "indexed": true,
          "internalType": "address",
          "name": "account",
          "type": "address"
        },
        {
          "indexed": false,
          "internalType": "bytes32",
          "name": "role",
          "type": "bytes32"
        }
      ],
      "name": "RoleSet",
      "type": "event"
    },
    {
      "anonymous": false,
      "inputs": [
        {
          "indexed": true,
          "internalType": "bytes32",
          "name": "role",
          "type": "bytes32"
        },
        {
          "indexed": false,
          "internalType": "enum RoleStatusChange",
          "name": "status",
          "type": "uint8"
        }
      ],
      "name": "RoleStatusChanged",
      "type": "event"
    },
    {
      "anonymous": false,
      "inputs": [],
      "name": "Shutdown",
      "type": "event"
    },
    {
      "anonymous": false,
      "inputs": [
        {
          "indexed": true,
          "internalType": "address",
          "name": "strategy",
          "type": "address"
        },
        {
          "indexed": false,
          "internalType": "enum StrategyChangeType",
          "name": "changeType",
          "type": "uint8"
        }
      ],
      "name": "StrategyChanged",
      "type": "event"
    },
    {
      "anonymous": false,
      "inputs": [
        {
          "indexed": true,
          "internalType": "address",
          "name": "strategy",
          "type": "address"
        },
        {
          "indexed": false,
          "internalType": "uint256",
          "name": "gain",
          "type": "uint256"
        },
        {
          "indexed": false,
          "internalType": "uint256",
          "name": "loss",
          "type": "uint256"
        },
        {
          "indexed": false,
          "internalType": "uint256",
          "name": "currentDebt",
          "type": "uint256"
        },
        {
          "indexed": false,
          "internalType": "uint256",
          "name": "protocolFees",
          "type": "uint256"
        },
        {
          "indexed": false,
          "internalType": "uint256",
          "name": "totalFees",
          "type": "uint256"
        },
        {
          "indexed": false,
          "internalType": "uint256",
          "name": "totalRefunds",
          "type": "uint256"
        }
      ],
      "name": "StrategyReported",
      "type": "event"
    },
    {
      "anonymous": false,
      "inputs": [
        {
          "indexed": true,
          "internalType": "address",
          "name": "from",
          "type": "address"
        },
        {
          "indexed": true,
          "internalType": "address",
          "name": "to",
          "type": "address"
        },
        {
          "indexed": false,
          "internalType": "uint256",
          "name": "value",
          "type": "uint256"
        }
      ],
      "name": "Transfer",
      "type": "event"
    },
    {
      "anonymous": false,
      "inputs": [
        {
          "indexed": false,
          "internalType": "address",
          "name": "accountant",
          "type": "address"
        }
      ],
      "name": "UpdatedAccountant",
      "type": "event"
    },
    {
      "anonymous": false,
      "inputs": [
        {
          "indexed": false,
          "internalType": "address[]",
          "name": "newDefaultQueue",
          "type": "address[]"
        }
      ],
      "name": "UpdatedDefaultQueue",
      "type": "event"
    },
    {
      "anonymous": false,
      "inputs": [
        {
          "indexed": false,
          "internalType": "uint256",
          "name": "depositLimit",
          "type": "uint256"
        }
      ],
      "name": "UpdatedDepositLimit",
      "type": "event"
    },
    {
      "anonymous": false,
      "inputs": [
        {
          "indexed": false,
          "internalType": "address",
          "name": "depositLimitModule",
          "type": "address"
        }
      ],
      "name": "UpdatedDepositLimitModule",
      "type": "event"
    },
    {
      "anonymous": false,
      "inputs": [
        {
          "indexed": false,
          "internalType": "uint256",
          "name": "totalFees",
          "type": "uint256"
        },
        {
          "indexed": false,
          "internalType": "uint256",
          "name": "totalRefunds",
          "type": "uint256"
        },
        {
          "indexed": false,
          "internalType": "uint256",
          "name": "protocolFees",
          "type": "uint256"
        },
        {
          "indexed": false,
          "internalType": "address",
          "name": "protocolFeeRecipient",
          "type": "address"
        }
      ],
      "name": "UpdatedFees",
      "type": "event"
    },
    {
      "anonymous": false,
      "inputs": [
        {
          "indexed": true,
          "internalType": "address",
          "name": "sender",
          "type": "address"
        },
        {
          "indexed": true,
          "internalType": "address",
          "name": "strategy",
          "type": "address"
        },
        {
          "indexed": false,
          "internalType": "uint256",
          "name": "newDebt",
          "type": "uint256"
        }
      ],
      "name": "UpdatedMaxDebtForStrategy",
      "type": "event"
    },
    {
      "anonymous": false,
      "inputs": [
        {
          "indexed": false,
          "internalType": "uint256",
          "name": "minimumTotalIdle",
          "type": "uint256"
        }
      ],
      "name": "UpdatedMinimumTotalIdle",
      "type": "event"
    },
    {
      "anonymous": false,
      "inputs": [
        {
          "indexed": false,
          "internalType": "uint256",
          "name": "profitMaxUnlockTime",
          "type": "uint256"
        }
      ],
      "name": "UpdatedProfitMaxUnlockTime",
      "type": "event"
    },
    {
      "anonymous": false,
      "inputs": [
        {
          "indexed": false,
          "internalType": "address",
          "name": "roleManager",
          "type": "address"
        }
      ],
      "name": "UpdatedRoleManager",
      "type": "event"
    },
    {
      "anonymous": false,
      "inputs": [
        {
          "indexed": false,
          "internalType": "bool",
          "name": "useDefaultQueue",
          "type": "bool"
        }
      ],
      "name": "UpdatedUseDefaultQueue",
      "type": "event"
    },
    {
      "anonymous": false,
      "inputs": [
        {
          "indexed": false,
          "internalType": "address",
          "name": "withdrawLimitModule",
          "type": "address"
        }
      ],
      "name": "UpdatedWithdrawLimitModule",
      "type": "event"
    },
    {
      "anonymous": false,
      "inputs": [
        {
          "indexed": true,
          "internalType": "address",
          "name": "sender",
          "type": "address"
        },
        {
          "indexed": true,
          "internalType": "address",
          "name": "receiver",
          "type": "address"
        },
        {
          "indexed": true,
          "internalType": "address",
          "name": "owner",
          "type": "address"
        },
        {
          "indexed": false,
          "internalType": "uint256",
          "name": "assets",
          "type": "uint256"
        },
        {
          "indexed": false,
          "internalType": "uint256",
          "name": "shares",
          "type": "uint256"
        }
      ],
      "name": "Withdraw",
      "type": "event"
    },
    {
      "inputs": [],
      "name": "DEBT_PURCHASER",
      "outputs": [
        {
          "internalType": "bytes32",
          "name": "",
          "type": "bytes32"
        }
      ],
      "stateMutability": "view",
      "type": "function"
    },
    {
      "inputs": [],
      "name": "DEFAULT_ADMIN_ROLE",
      "outputs": [
        {
          "internalType": "bytes32",
          "name": "",
          "type": "bytes32"
        }
      ],
      "stateMutability": "view",
      "type": "function"
    },
    {
      "inputs": [],
      "name": "DOMAIN_SEPARATOR",
      "outputs": [
        {
          "internalType": "bytes32",
          "name": "",
          "type": "bytes32"
        }
      ],
      "stateMutability": "view",
      "type": "function"
    },
    {
      "inputs": [],
      "name": "DOMAIN_TYPE_HASH",
      "outputs": [
        {
          "internalType": "bytes32",
          "name": "",
          "type": "bytes32"
        }
      ],
      "stateMutability": "view",
      "type": "function"
    },
    {
      "inputs": [],
      "name": "MAX_BPS",
      "outputs": [
        {
          "internalType": "uint256",
          "name": "",
          "type": "uint256"
        }
      ],
      "stateMutability": "view",
      "type": "function"
    },
    {
      "inputs": [],
      "name": "MAX_BPS_EXTENDED",
      "outputs": [
        {
          "internalType": "uint256",
          "name": "",
          "type": "uint256"
        }
      ],
      "stateMutability": "view",
      "type": "function"
    },
    {
      "inputs": [],
      "name": "MAX_FEE_BPS",
      "outputs": [
        {
          "internalType": "uint16",
          "name": "",
          "type": "uint16"
        }
      ],
      "stateMutability": "view",
      "type": "function"
    },
    {
      "inputs": [],
      "name": "MAX_QUEUE",
      "outputs": [
        {
          "internalType": "uint256",
          "name": "",
          "type": "uint256"
        }
      ],
      "stateMutability": "view",
      "type": "function"
    },
    {
      "inputs": [],
      "name": "ONE_YEAR",
      "outputs": [
        {
          "internalType": "uint256",
          "name": "",
          "type": "uint256"
        }
      ],
      "stateMutability": "view",
      "type": "function"
    },
    {
      "inputs": [],
      "name": "PERMIT_TYPE_HASH",
      "outputs": [
        {
          "internalType": "bytes32",
          "name": "",
          "type": "bytes32"
        }
      ],
      "stateMutability": "view",
      "type": "function"
    },
    {
      "inputs": [],
      "name": "REPORTING_MANAGER",
      "outputs": [
        {
          "internalType": "bytes32",
          "name": "",
          "type": "bytes32"
        }
      ],
      "stateMutability": "view",
      "type": "function"
    },
    {
      "inputs": [],
      "name": "STRATEGY_MANAGER",
      "outputs": [
        {
          "internalType": "bytes32",
          "name": "",
          "type": "bytes32"
        }
      ],
      "stateMutability": "view",
      "type": "function"
    },
    {
      "inputs": [],
      "name": "accountant",
      "outputs": [
        {
          "internalType": "address",
          "name": "",
          "type": "address"
        }
      ],
      "stateMutability": "view",
      "type": "function"
    },
    {
      "inputs": [
        {
          "internalType": "address",
          "name": "newStrategy",
          "type": "address"
        }
      ],
      "name": "addStrategy",
      "outputs": [],
      "stateMutability": "nonpayable",
      "type": "function"
    },
    {
      "inputs": [
        {
          "internalType": "address",
          "name": "owner",
          "type": "address"
        },
        {
          "internalType": "address",
          "name": "spender",
          "type": "address"
        }
      ],
      "name": "allowance",
      "outputs": [
        {
          "internalType": "uint256",
          "name": "",
          "type": "uint256"
        }
      ],
      "stateMutability": "view",
      "type": "function"
    },
    {
      "inputs": [],
      "name": "apiVersion",
      "outputs": [
        {
          "internalType": "string",
          "name": "",
          "type": "string"
        }
      ],
      "stateMutability": "pure",
      "type": "function"
    },
    {
      "inputs": [
        {
          "internalType": "address",
          "name": "spender",
          "type": "address"
        },
        {
          "internalType": "uint256",
          "name": "amount",
          "type": "uint256"
        }
      ],
      "name": "approve",
      "outputs": [
        {
          "internalType": "bool",
          "name": "",
          "type": "bool"
        }
      ],
      "stateMutability": "nonpayable",
      "type": "function"
    },
    {
      "inputs": [
        {
          "internalType": "address",
          "name": "strategy",
          "type": "address"
        },
        {
          "internalType": "uint256",
          "name": "assetsNeeded",
          "type": "uint256"
        }
      ],
      "name": "assessShareOfUnrealisedLosses",
      "outputs": [
        {
          "internalType": "uint256",
          "name": "",
          "type": "uint256"
        }
      ],
      "stateMutability": "view",
      "type": "function"
    },
    {
      "inputs": [],
      "name": "asset",
      "outputs": [
        {
          "internalType": "address",
          "name": "",
          "type": "address"
        }
      ],
      "stateMutability": "view",
      "type": "function"
    },
    {
      "inputs": [
        {
          "internalType": "address",
          "name": "addr",
          "type": "address"
        }
      ],
      "name": "balanceOf",
      "outputs": [
        {
          "internalType": "uint256",
          "name": "",
          "type": "uint256"
        }
      ],
      "stateMutability": "view",
      "type": "function"
    },
    {
      "inputs": [
        {
          "internalType": "address",
          "name": "strategy",
          "type": "address"
        },
        {
          "internalType": "uint256",
          "name": "amount",
          "type": "uint256"
        }
      ],
      "name": "buyDebt",
      "outputs": [],
      "stateMutability": "nonpayable",
      "type": "function"
    },
    {
      "inputs": [
        {
          "internalType": "uint256",
          "name": "shares",
          "type": "uint256"
        }
      ],
      "name": "convertToAssets",
      "outputs": [
        {
          "internalType": "uint256",
          "name": "",
          "type": "uint256"
        }
      ],
      "stateMutability": "view",
      "type": "function"
    },
    {
      "inputs": [
        {
          "internalType": "uint256",
          "name": "assets",
          "type": "uint256"
        }
      ],
      "name": "convertToShares",
      "outputs": [
        {
          "internalType": "uint256",
          "name": "",
          "type": "uint256"
        }
      ],
      "stateMutability": "view",
      "type": "function"
    },
    {
      "inputs": [],
      "name": "customFeeBPS",
      "outputs": [
        {
          "internalType": "uint16",
          "name": "",
          "type": "uint16"
        }
      ],
      "stateMutability": "view",
      "type": "function"
    },
    {
      "inputs": [],
      "name": "customFeeRecipient",
      "outputs": [
        {
          "internalType": "address",
          "name": "",
          "type": "address"
        }
      ],
      "stateMutability": "view",
      "type": "function"
    },
    {
      "inputs": [],
      "name": "customFees",
      "outputs": [
        {
          "internalType": "uint256",
          "name": "totalFees",
          "type": "uint256"
        },
        {
          "internalType": "uint256",
          "name": "totalRefunds",
          "type": "uint256"
        },
        {
          "internalType": "uint256",
          "name": "protocolFees",
          "type": "uint256"
        },
        {
          "internalType": "address",
          "name": "protocolFeeRecipient",
          "type": "address"
        }
      ],
      "stateMutability": "view",
      "type": "function"
    },
    {
      "inputs": [],
      "name": "decimals",
      "outputs": [
        {
          "internalType": "uint8",
          "name": "",
          "type": "uint8"
        }
      ],
      "stateMutability": "view",
      "type": "function"
    },
    {
      "inputs": [
        {
          "internalType": "uint256",
          "name": "",
          "type": "uint256"
        }
      ],
      "name": "defaultQueue",
      "outputs": [
        {
          "internalType": "address",
          "name": "",
          "type": "address"
        }
      ],
      "stateMutability": "view",
      "type": "function"
    },
    {
      "inputs": [
        {
          "internalType": "uint256",
          "name": "assets",
          "type": "uint256"
        },
        {
          "internalType": "address",
          "name": "receiver",
          "type": "address"
        }
      ],
      "name": "deposit",
      "outputs": [
        {
          "internalType": "uint256",
          "name": "",
          "type": "uint256"
        }
      ],
      "stateMutability": "nonpayable",
      "type": "function"
    },
    {
      "inputs": [],
      "name": "depositLimit",
      "outputs": [
        {
          "internalType": "uint256",
          "name": "",
          "type": "uint256"
        }
      ],
      "stateMutability": "view",
      "type": "function"
    },
    {
      "inputs": [],
      "name": "depositLimitModule",
      "outputs": [
        {
          "internalType": "address",
          "name": "",
          "type": "address"
        }
      ],
      "stateMutability": "view",
      "type": "function"
    },
    {
      "inputs": [],
      "name": "factory",
      "outputs": [
        {
          "internalType": "address",
          "name": "",
          "type": "address"
        }
      ],
      "stateMutability": "view",
      "type": "function"
    },
    {
      "inputs": [],
      "name": "fees",
      "outputs": [
        {
          "components": [
            {
              "internalType": "uint256",
              "name": "totalFees",
              "type": "uint256"
            },
            {
              "internalType": "uint256",
              "name": "totalRefunds",
              "type": "uint256"
            },
            {
              "internalType": "uint256",
              "name": "protocolFees",
              "type": "uint256"
            },
            {
              "internalType": "address",
              "name": "protocolFeeRecipient",
              "type": "address"
            }
          ],
          "internalType": "struct FeeAssessment",
          "name": "",
          "type": "tuple"
        }
      ],
      "stateMutability": "view",
      "type": "function"
    },
    {
      "inputs": [
        {
          "internalType": "address",
          "name": "strategy",
          "type": "address"
        }
      ],
      "name": "forceRevokeStrategy",
      "outputs": [],
      "stateMutability": "nonpayable",
      "type": "function"
    },
    {
      "inputs": [],
      "name": "fullProfitUnlockDate",
      "outputs": [
        {
          "internalType": "uint256",
          "name": "",
          "type": "uint256"
        }
      ],
      "stateMutability": "view",
      "type": "function"
    },
    {
      "inputs": [],
      "name": "futureRoleManager",
      "outputs": [
        {
          "internalType": "address",
          "name": "",
          "type": "address"
        }
      ],
      "stateMutability": "view",
      "type": "function"
    },
    {
      "inputs": [
        {
          "internalType": "address",
          "name": "strategy",
          "type": "address"
        }
      ],
      "name": "getDebt",
      "outputs": [
        {
          "internalType": "uint256",
          "name": "",
          "type": "uint256"
        }
      ],
      "stateMutability": "view",
      "type": "function"
    },
    {
      "inputs": [],
      "name": "getDefaultQueueLength",
      "outputs": [
        {
          "internalType": "uint256",
          "name": "length",
          "type": "uint256"
        }
      ],
      "stateMutability": "view",
      "type": "function"
    },
    {
      "inputs": [
        {
          "internalType": "bytes32",
          "name": "role",
          "type": "bytes32"
        }
      ],
      "name": "getRoleAdmin",
      "outputs": [
        {
          "internalType": "bytes32",
          "name": "",
          "type": "bytes32"
        }
      ],
      "stateMutability": "view",
      "type": "function"
    },
    {
      "inputs": [
        {
          "internalType": "bytes32",
          "name": "role",
          "type": "bytes32"
        },
        {
          "internalType": "address",
          "name": "account",
          "type": "address"
        }
      ],
      "name": "grantRole",
      "outputs": [],
      "stateMutability": "nonpayable",
      "type": "function"
    },
    {
      "inputs": [
        {
          "internalType": "bytes32",
          "name": "role",
          "type": "bytes32"
        },
        {
          "internalType": "address",
          "name": "account",
          "type": "address"
        }
      ],
      "name": "hasRole",
      "outputs": [
        {
          "internalType": "bool",
          "name": "",
          "type": "bool"
        }
      ],
      "stateMutability": "view",
      "type": "function"
    },
    {
      "inputs": [
        {
          "internalType": "uint256",
          "name": "_profitMaxUnlockTime",
          "type": "uint256"
        },
        {
          "internalType": "address",
          "name": "_asset",
          "type": "address"
        },
        {
          "internalType": "string",
          "name": "_name",
          "type": "string"
        },
        {
          "internalType": "string",
          "name": "_symbol",
          "type": "string"
        },
        {
          "internalType": "address",
          "name": "_accountant",
          "type": "address"
        }
      ],
      "name": "initialize",
      "outputs": [],
      "stateMutability": "nonpayable",
      "type": "function"
    },
    {
      "inputs": [],
      "name": "lastProfitUpdate",
      "outputs": [
        {
          "internalType": "uint256",
          "name": "",
          "type": "uint256"
        }
      ],
      "stateMutability": "view",
      "type": "function"
    },
    {
      "inputs": [
        {
          "internalType": "address",
          "name": "receiver",
          "type": "address"
        }
      ],
      "name": "maxDeposit",
      "outputs": [
        {
          "internalType": "uint256",
          "name": "",
          "type": "uint256"
        }
      ],
      "stateMutability": "view",
      "type": "function"
    },
    {
      "inputs": [
        {
          "internalType": "address",
          "name": "receiver",
          "type": "address"
        }
      ],
      "name": "maxMint",
      "outputs": [
        {
          "internalType": "uint256",
          "name": "",
          "type": "uint256"
        }
      ],
      "stateMutability": "view",
      "type": "function"
    },
    {
      "inputs": [
        {
          "internalType": "address",
          "name": "owner",
          "type": "address"
        },
        {
          "internalType": "uint256",
          "name": "maxLoss",
          "type": "uint256"
        },
        {
          "internalType": "address[]",
          "name": "_strategies",
          "type": "address[]"
        }
      ],
      "name": "maxRedeem",
      "outputs": [
        {
          "internalType": "uint256",
          "name": "",
          "type": "uint256"
        }
      ],
      "stateMutability": "view",
      "type": "function"
    },
    {
      "inputs": [
        {
          "internalType": "address",
          "name": "owner",
          "type": "address"
        },
        {
          "internalType": "uint256",
          "name": "maxLoss",
          "type": "uint256"
        },
        {
          "internalType": "address[]",
          "name": "_strategies",
          "type": "address[]"
        }
      ],
      "name": "maxWithdraw",
      "outputs": [
        {
          "internalType": "uint256",
          "name": "",
          "type": "uint256"
        }
      ],
      "stateMutability": "view",
      "type": "function"
    },
    {
      "inputs": [],
      "name": "minimumTotalIdle",
      "outputs": [
        {
          "internalType": "uint256",
          "name": "",
          "type": "uint256"
        }
      ],
      "stateMutability": "view",
      "type": "function"
    },
    {
      "inputs": [
        {
          "internalType": "uint256",
          "name": "shares",
          "type": "uint256"
        },
        {
          "internalType": "address",
          "name": "receiver",
          "type": "address"
        }
      ],
      "name": "mint",
      "outputs": [
        {
          "internalType": "uint256",
          "name": "",
          "type": "uint256"
        }
      ],
      "stateMutability": "nonpayable",
      "type": "function"
    },
    {
      "inputs": [],
      "name": "name",
      "outputs": [
        {
          "internalType": "string",
          "name": "",
          "type": "string"
        }
      ],
      "stateMutability": "view",
      "type": "function"
    },
    {
      "inputs": [
        {
          "internalType": "address",
          "name": "",
          "type": "address"
        }
      ],
      "name": "nonces",
      "outputs": [
        {
          "internalType": "uint256",
          "name": "",
          "type": "uint256"
        }
      ],
      "stateMutability": "view",
      "type": "function"
    },
    {
      "inputs": [
        {
          "internalType": "address",
          "name": "owner",
          "type": "address"
        },
        {
          "internalType": "address",
          "name": "spender",
          "type": "address"
        },
        {
          "internalType": "uint256",
          "name": "amount",
          "type": "uint256"
        },
        {
          "internalType": "uint256",
          "name": "deadline",
          "type": "uint256"
        },
        {
          "internalType": "uint8",
          "name": "v",
          "type": "uint8"
        },
        {
          "internalType": "bytes32",
          "name": "r",
          "type": "bytes32"
        },
        {
          "internalType": "bytes32",
          "name": "s",
          "type": "bytes32"
        }
      ],
      "name": "permit",
      "outputs": [
        {
          "internalType": "bool",
          "name": "",
          "type": "bool"
        }
      ],
      "stateMutability": "nonpayable",
      "type": "function"
    },
    {
      "inputs": [
        {
          "internalType": "uint256",
          "name": "assets",
          "type": "uint256"
        }
      ],
      "name": "previewDeposit",
      "outputs": [
        {
          "internalType": "uint256",
          "name": "",
          "type": "uint256"
        }
      ],
      "stateMutability": "view",
      "type": "function"
    },
    {
      "inputs": [
        {
          "internalType": "uint256",
          "name": "shares",
          "type": "uint256"
        }
      ],
      "name": "previewMint",
      "outputs": [
        {
          "internalType": "uint256",
          "name": "",
          "type": "uint256"
        }
      ],
      "stateMutability": "view",
      "type": "function"
    },
    {
      "inputs": [
        {
          "internalType": "uint256",
          "name": "shares",
          "type": "uint256"
        }
      ],
      "name": "previewRedeem",
      "outputs": [
        {
          "internalType": "uint256",
          "name": "",
          "type": "uint256"
        }
      ],
      "stateMutability": "view",
      "type": "function"
    },
    {
      "inputs": [
        {
          "internalType": "uint256",
          "name": "assets",
          "type": "uint256"
        }
      ],
      "name": "previewWithdraw",
      "outputs": [
        {
          "internalType": "uint256",
          "name": "",
          "type": "uint256"
        }
      ],
      "stateMutability": "view",
      "type": "function"
    },
    {
      "inputs": [],
      "name": "pricePerShare",
      "outputs": [
        {
          "internalType": "uint256",
          "name": "",
          "type": "uint256"
        }
      ],
      "stateMutability": "view",
      "type": "function"
    },
    {
      "inputs": [
        {
          "internalType": "address",
          "name": "strategy",
          "type": "address"
        }
      ],
      "name": "processReport",
      "outputs": [
        {
          "internalType": "uint256",
          "name": "",
          "type": "uint256"
        },
        {
          "internalType": "uint256",
          "name": "",
          "type": "uint256"
        }
      ],
      "stateMutability": "nonpayable",
      "type": "function"
    },
    {
      "inputs": [],
      "name": "profitMaxUnlockTime",
      "outputs": [
        {
          "internalType": "uint256",
          "name": "",
          "type": "uint256"
        }
      ],
      "stateMutability": "view",
      "type": "function"
    },
    {
      "inputs": [],
      "name": "profitUnlockingRate",
      "outputs": [
        {
          "internalType": "uint256",
          "name": "",
          "type": "uint256"
        }
      ],
      "stateMutability": "view",
      "type": "function"
    },
    {
      "inputs": [
        {
          "internalType": "uint256",
          "name": "shares",
          "type": "uint256"
        },
        {
          "internalType": "address",
          "name": "receiver",
          "type": "address"
        },
        {
          "internalType": "address",
          "name": "owner",
          "type": "address"
        },
        {
          "internalType": "uint256",
          "name": "maxLoss",
          "type": "uint256"
        },
        {
          "internalType": "address[]",
          "name": "_strategies",
          "type": "address[]"
        }
      ],
      "name": "redeem",
      "outputs": [
        {
          "internalType": "uint256",
          "name": "",
          "type": "uint256"
        }
      ],
      "stateMutability": "nonpayable",
      "type": "function"
    },
    {
      "inputs": [
        {
          "internalType": "bytes32",
          "name": "role",
          "type": "bytes32"
        },
        {
          "internalType": "address",
          "name": "account",
          "type": "address"
        }
      ],
      "name": "renounceRole",
      "outputs": [],
      "stateMutability": "nonpayable",
      "type": "function"
    },
    {
      "inputs": [
        {
          "internalType": "bytes32",
          "name": "role",
          "type": "bytes32"
        },
        {
          "internalType": "address",
          "name": "account",
          "type": "address"
        }
      ],
      "name": "revokeRole",
      "outputs": [],
      "stateMutability": "nonpayable",
      "type": "function"
    },
    {
      "inputs": [
        {
          "internalType": "address",
          "name": "strategy",
          "type": "address"
        }
      ],
      "name": "revokeStrategy",
      "outputs": [],
      "stateMutability": "nonpayable",
      "type": "function"
    },
    {
      "inputs": [],
      "name": "roleManager",
      "outputs": [
        {
          "internalType": "address",
          "name": "",
          "type": "address"
        }
      ],
      "stateMutability": "view",
      "type": "function"
    },
    {
      "inputs": [
        {
          "internalType": "address",
          "name": "newAccountant",
          "type": "address"
        }
      ],
      "name": "setAccountant",
      "outputs": [],
      "stateMutability": "nonpayable",
      "type": "function"
    },
    {
      "inputs": [
        {
          "internalType": "address[]",
          "name": "newDefaultQueue",
          "type": "address[]"
        }
      ],
      "name": "setDefaultQueue",
      "outputs": [],
      "stateMutability": "nonpayable",
      "type": "function"
    },
    {
      "inputs": [
        {
          "internalType": "uint256",
          "name": "_depositLimit",
          "type": "uint256"
        }
      ],
      "name": "setDepositLimit",
      "outputs": [],
      "stateMutability": "nonpayable",
      "type": "function"
    },
    {
      "inputs": [
        {
          "internalType": "address",
          "name": "_depositLimitModule",
          "type": "address"
        }
      ],
      "name": "setDepositLimitModule",
      "outputs": [],
      "stateMutability": "nonpayable",
      "type": "function"
    },
    {
      "inputs": [
        {
          "internalType": "uint256",
          "name": "totalFees",
          "type": "uint256"
        },
        {
          "internalType": "uint256",
          "name": "totalRefunds",
          "type": "uint256"
        },
        {
          "internalType": "uint256",
          "name": "protocolFees",
          "type": "uint256"
        },
        {
          "internalType": "address",
          "name": "protocolFeeRecipient",
          "type": "address"
        }
      ],
      "name": "setFees",
      "outputs": [],
      "stateMutability": "nonpayable",
      "type": "function"
    },
    {
      "inputs": [
        {
          "internalType": "uint256",
          "name": "_minimumTotalIdle",
          "type": "uint256"
        }
      ],
      "name": "setMinimumTotalIdle",
      "outputs": [],
      "stateMutability": "nonpayable",
      "type": "function"
    },
    {
      "inputs": [
        {
          "internalType": "uint256",
          "name": "_newProfitMaxUnlockTime",
          "type": "uint256"
        }
      ],
      "name": "setProfitMaxUnlockTime",
      "outputs": [],
      "stateMutability": "nonpayable",
      "type": "function"
    },
    {
      "inputs": [
        {
          "internalType": "bool",
          "name": "_useDefaultQueue",
          "type": "bool"
        }
      ],
      "name": "setUseDefaultQueue",
      "outputs": [],
      "stateMutability": "nonpayable",
      "type": "function"
    },
    {
      "inputs": [
        {
          "internalType": "address",
          "name": "_withdrawLimitModule",
          "type": "address"
        }
      ],
      "name": "setWithdrawLimitModule",
      "outputs": [],
      "stateMutability": "nonpayable",
      "type": "function"
    },
    {
      "inputs": [],
      "name": "shutdown",
      "outputs": [
        {
          "internalType": "bool",
          "name": "",
          "type": "bool"
        }
      ],
      "stateMutability": "view",
      "type": "function"
    },
    {
      "inputs": [],
      "name": "shutdownVault",
      "outputs": [],
      "stateMutability": "nonpayable",
      "type": "function"
    },
    {
      "inputs": [
        {
          "internalType": "address",
          "name": "",
          "type": "address"
        }
      ],
      "name": "strategies",
      "outputs": [
        {
          "internalType": "uint256",
          "name": "activation",
          "type": "uint256"
        },
        {
          "internalType": "uint256",
          "name": "lastReport",
          "type": "uint256"
        },
        {
          "internalType": "uint256",
          "name": "currentDebt",
          "type": "uint256"
        },
        {
          "internalType": "uint256",
          "name": "maxDebt",
          "type": "uint256"
        }
      ],
      "stateMutability": "view",
      "type": "function"
    },
    {
      "inputs": [
        {
          "internalType": "bytes4",
          "name": "interfaceId",
          "type": "bytes4"
        }
      ],
      "name": "supportsInterface",
      "outputs": [
        {
          "internalType": "bool",
          "name": "",
          "type": "bool"
        }
      ],
      "stateMutability": "view",
      "type": "function"
    },
    {
      "inputs": [],
      "name": "symbol",
      "outputs": [
        {
          "internalType": "string",
          "name": "",
          "type": "string"
        }
      ],
      "stateMutability": "view",
      "type": "function"
    },
    {
      "inputs": [],
      "name": "totalAssets",
      "outputs": [
        {
          "internalType": "uint256",
          "name": "",
          "type": "uint256"
        }
      ],
      "stateMutability": "view",
      "type": "function"
    },
    {
      "inputs": [],
      "name": "totalDebt",
      "outputs": [
        {
          "internalType": "uint256",
          "name": "",
          "type": "uint256"
        }
      ],
      "stateMutability": "view",
      "type": "function"
    },
    {
      "inputs": [],
      "name": "totalIdle",
      "outputs": [
        {
          "internalType": "uint256",
          "name": "",
          "type": "uint256"
        }
      ],
      "stateMutability": "view",
      "type": "function"
    },
    {
      "inputs": [],
      "name": "totalSupply",
      "outputs": [
        {
          "internalType": "uint256",
          "name": "",
          "type": "uint256"
        }
      ],
      "stateMutability": "view",
      "type": "function"
    },
    {
      "inputs": [],
      "name": "totalSupplyAmount",
      "outputs": [
        {
          "internalType": "uint256",
          "name": "",
          "type": "uint256"
        }
      ],
      "stateMutability": "view",
      "type": "function"
    },
    {
      "inputs": [
        {
          "internalType": "address",
          "name": "receiver",
          "type": "address"
        },
        {
          "internalType": "uint256",
          "name": "amount",
          "type": "uint256"
        }
      ],
      "name": "transfer",
      "outputs": [
        {
          "internalType": "bool",
          "name": "",
          "type": "bool"
        }
      ],
      "stateMutability": "nonpayable",
      "type": "function"
    },
    {
      "inputs": [
        {
          "internalType": "address",
          "name": "sender",
          "type": "address"
        },
        {
          "internalType": "address",
          "name": "receiver",
          "type": "address"
        },
        {
          "internalType": "uint256",
          "name": "amount",
          "type": "uint256"
        }
      ],
      "name": "transferFrom",
      "outputs": [
        {
          "internalType": "bool",
          "name": "",
          "type": "bool"
        }
      ],
      "stateMutability": "nonpayable",
      "type": "function"
    },
    {
      "inputs": [],
      "name": "unlockedShares",
      "outputs": [
        {
          "internalType": "uint256",
          "name": "",
          "type": "uint256"
        }
      ],
      "stateMutability": "view",
      "type": "function"
    },
    {
      "inputs": [
        {
          "internalType": "address",
          "name": "sender",
          "type": "address"
        },
        {
          "internalType": "address",
          "name": "strategy",
          "type": "address"
        },
        {
          "internalType": "uint256",
          "name": "targetDebt",
          "type": "uint256"
        }
      ],
      "name": "updateDebt",
      "outputs": [
        {
          "internalType": "uint256",
          "name": "",
          "type": "uint256"
        }
      ],
      "stateMutability": "nonpayable",
      "type": "function"
    },
    {
      "inputs": [
        {
          "internalType": "address",
          "name": "strategy",
          "type": "address"
        },
        {
          "internalType": "uint256",
          "name": "newMaxDebt",
          "type": "uint256"
        }
      ],
      "name": "updateMaxDebtForStrategy",
      "outputs": [],
      "stateMutability": "nonpayable",
      "type": "function"
    },
    {
      "inputs": [],
      "name": "useDefaultQueue",
      "outputs": [
        {
          "internalType": "bool",
          "name": "",
          "type": "bool"
        }
      ],
      "stateMutability": "view",
      "type": "function"
    },
    {
      "inputs": [
        {
          "internalType": "uint256",
          "name": "assets",
          "type": "uint256"
        },
        {
          "internalType": "address",
          "name": "receiver",
          "type": "address"
        },
        {
          "internalType": "address",
          "name": "owner",
          "type": "address"
        },
        {
          "internalType": "uint256",
          "name": "maxLoss",
          "type": "uint256"
        },
        {
          "internalType": "address[]",
          "name": "_strategies",
          "type": "address[]"
        }
      ],
      "name": "withdraw",
      "outputs": [
        {
          "internalType": "uint256",
          "name": "",
          "type": "uint256"
        }
      ],
      "stateMutability": "nonpayable",
      "type": "function"
    },
    {
      "inputs": [],
      "name": "withdrawLimitModule",
      "outputs": [
        {
          "internalType": "address",
          "name": "",
          "type": "address"
        }
      ],
      "stateMutability": "view",
      "type": "function"
    }
  ],
  "transactionHash": "0x40e7875483b0da3c40fbb058963055c4b93de7b80d554a79c85e8b960f7d261f",
  "args": [],
  "numDeployments": 2,
  "solcInputHash": "643ffaa74155f4d2450efee494e3e0fd",
  "bytecode": "0x608060405234801561001057600080fd5b5060018055615e8880620000256000396000f3fe608060405234801561001057600080fd5b50600436106104235760003560e01c806389b893f11161022957806389b893f1146107c25780638afca8f0146107ea57806391986003146107f357806391d148541461080657806394bf804d1461081957806395d89b411461082c57806399530b06146108345780639a78e72e1461083c5780639aa7df94146108685780639af1d35a146108715780639bbca884146108b55780639e34e348146108c85780639fc2c476146108db578063a217fddf146108f0578063a835cd81146108f8578063a9059cbb1461090b578063ab5b4d491461091e578063b1c46c9f14610933578063b3c187f214610946578063b3d7f6b914610959578063b6cc2d1f1461096c578063ba71ecd41461098d578063bb994d4814610995578063bbe4eb49146109a8578063bdc8144b146109bc578063c0993eea146109cf578063c45a0155146109e4578063c63d75b6146109f7578063c6e6f59214610a0a578063d505accf14610a1d578063d547741f14610a30578063d55be8c614610a43578063d81a09f614610a4c578063d9a0e97a14610a5f578063dd62ed3e14610a67578063df69b22a14610a7a578063e5236cc914610a8d578063ecf7085814610a95578063ef8b30f714610a0a578063f2e3c4d314610a9e578063f6d7bfa014610ab1578063f828f50b14610ac4578063fc0e74d114610acd578063fc7b9c1814610ae1578063fd967f4714610aea578063ff1e7f0814610af357600080fd5b8062435da51461042857806301e1d1141461045157806301ffc9a71461046757806303dcd12c1461048a57806306580f2d1461049f57806306fdde03146104b257806307a2d13a146104c75780630835a3fc146104da5780630952864e146104e3578063095ea7b3146104ec5780630a28a477146104ff57806316b87ac01461051257806316d3bfbb1461052757806318160ddd14610532578063223e54791461053a57806323b872dd1461054d578063248a9ca31461056057806325829410146105735780632d6326921461057b5780632d772168146105845780632f2ff15d14610597578063313ce567146105aa57806334b5fab6146105c95780633644e515146105dc57806336568abe146105e457806336fba084146105f757806338d52e0f1461060357806339ebf823146106145780633f7b5e4014610669578063402d267d14610671578063405977e71461068457806341a5068f1461069757806348ea7127146106aa5780634bbd71e9146106bd5780634cdad506146104c75780634d08d131146106d05780634d4bb197146106ff5780634fb3ccc5146107145780635141eebb146107275780635a56909914610730578063633f228c1461074357806365cb6765146107565780636e553f651461076957806370a082311461077c5780637ecebe001461078f5780638212fd43146107af575b600080fd5b600e5461043b906001600160a01b031681565b60405161044891906151b3565b60405180910390f35b610459610b06565b604051908152602001610448565b61047a6104753660046151c7565b610b15565b6040519015158152602001610448565b610459600080516020615cd383398151915281565b6104596104ad36600461524a565b610b4c565b6104ba610bbd565b60405161044891906152e9565b6104596104d536600461531c565b610c4f565b61045960055481565b61045960075481565b61047a6104fa366004615335565b610c5c565b61045961050d36600461531c565b610c70565b610525610520366004615361565b610c7d565b005b6104596301e1855881565b610459610c97565b610525610548366004615361565b610ca1565b61047a61055b36600461537e565b610ead565b61045961056e36600461531c565b610f0b565b6104ba610f20565b61045960085481565b610525610592366004615361565b610f3f565b6105256105a53660046153bf565b610fe2565b601254600160c81b900460ff1660405160ff9091168152602001610448565b6104596105d73660046153ef565b611003565b610459611085565b6105256105f23660046153bf565b611101565b61045964e8d4a5100081565b6012546001600160a01b031661043b565b610649610622366004615361565b601a6020526000908152604090208054600182015460028301546003909301549192909184565b604080519485526020850193909352918301526060820152608001610448565b610459600a81565b61045961067f366004615361565b61117b565b610525610692366004615335565b611186565b6105256106a536600461548b565b6113da565b6105256106b8366004615361565b6115ef565b6105256106cb366004615361565b611645565b6016546017546018546019546106ef939291906001600160a01b031684565b604051610448949392919061552a565b610459600080516020615d9383398151915281565b600b5461043b906001600160a01b031681565b61045960095481565b61045961073e366004615335565b61169b565b61052561075136600461554e565b6116ed565b6104596107643660046153ef565b6117d4565b6104596107773660046153bf565b61181d565b61045961078a366004615361565b61183d565b61045961079d366004615361565b601d6020526000908152604090205481565b6105256107bd36600461531c565b611896565b6012546107d790600160a01b900461ffff1681565b60405161ffff9091168152602001610448565b610459600a5481565b600d5461043b906001600160a01b031681565b61047a6108143660046153bf565b6118d6565b6104596108273660046153bf565b6118ff565b6104ba611914565b610459611923565b61045961084a366004615361565b6001600160a01b03166000908152601a602052604090206002015490565b61045960045481565b610879611949565b60405161044891908151815260208083015190820152604080830151908201526060918201516001600160a01b03169181019190915260800190565b6105256108c336600461559d565b611987565b600c5461043b906001600160a01b031681565b610459600080516020615d1383398151915281565b610459600081565b61045961090636600461537e565b6119ec565b61047a610919366004615335565b61208a565b610459600080516020615dd383398151915281565b6105256109413660046155ba565b6120dc565b600f5461043b906001600160a01b031681565b61045961096736600461531c565b612156565b61097f61097a366004615361565b612163565b6040516104489291906155fb565b601554610459565b6105256109a3366004615361565b6122b2565b60125461047a90600160b01b900460ff1681565b6105256109ca36600461531c565b6122d5565b610459600080516020615df383398151915281565b60105461043b906001600160a01b031681565b610459610a05366004615361565b61235c565b610459610a1836600461531c565b612375565b61047a610a2b366004615618565b612382565b610525610a3e3660046153bf565b6125a7565b6107d761138881565b610459610a5a36600461524a565b6125c3565b61045961262a565b610459610a75366004615689565b612634565b610525610a8836600461531c565b61265f565b6105256126f0565b61045960065481565b60115461043b906001600160a01b031681565b610525610abf366004615335565b6127f2565b61045960025481565b60125461047a90600160b81b900460ff1681565b61045960035481565b61045961271081565b61043b610b0136600461531c565b6128a3565b6000610b106128cd565b905090565b60006001600160e01b03198216637965db0b60e01b1480610b4657506301ffc9a760e01b6001600160e01b03198316145b92915050565b6000610b566128df565b6000610b63886000612938565b9050610ba7338888848c8a8a8a808060200260200160405190810160405280939291908181526020018383602002808284376000920191909152506129ce92505050565b915050610bb360018055565b9695505050505050565b606060138054610bcc906156b7565b80601f0160208091040260200160405190810160405280929190818152602001828054610bf8906156b7565b8015610c455780601f10610c1a57610100808354040283529160200191610c45565b820191906000526020600020905b815481529060010190602001808311610c2857829003601f168201915b5050505050905090565b6000610b46826000612938565b6000610c69338484612ab1565b9392505050565b6000610b46826001612b42565b6000610c8881612bf0565b610c93826001612bfd565b5050565b6000610b10612e33565b600080516020615d13833981519152610cb981612bf0565b6001600160a01b0382161580610cd757506001600160a01b03821630145b15610cf55760405163d92e233d60e01b815260040160405180910390fd5b6000826001600160a01b03166338d52e0f6040518163ffffffff1660e01b8152600401602060405180830381865afa158015610d35573d6000803e3d6000fd5b505050506040513d601f19601f82011682018060405250810190610d5991906156f1565b6012549091506001600160a01b03808316911614610d9557806040516337bce3c560e11b8152600401610d8c91906151b3565b60405180910390fd5b6001600160a01b0383166000908152601a602052604090205415610dcc5760405163c976754d60e01b815260040160405180910390fd5b604080516080810182524280825260208083019182526000838501818152606085018281526001600160a01b038a168352601a9093529490209251835590516001830155915160028201559051600390910155601554600a811015610e7757601580546001810182556000919091527f55f448fdea98c4d29eb340757ef0a66cd03dbb9538908a6a81d96026b71ec4750180546001600160a01b0319166001600160a01b0386161790555b836001600160a01b0316600080516020615d338339815191526000604051610e9f9190615724565b60405180910390a250505050565b60006001600160a01b038316301480610ecd57506001600160a01b038316155b15610eeb5760405163d92e233d60e01b815260040160405180910390fd5b610ef6843384612e4a565b610f01848484612eba565b5060019392505050565b60009081526020819052604090206001015490565b6040805180820190915260058152640312e302e360dc1b602082015290565b6000610f4a81612bf0565b601254600160b81b900460ff161515600103610f795760405163036882cf60e41b815260040160405180910390fd5b60001960065414610f9d57604051634e41418560e11b815260040160405180910390fd5b600c80546001600160a01b0319166001600160a01b038416179055604051600080516020615cf383398151915290610fd69084906151b3565b60405180910390a15050565b610feb82610f0b565b610ff481612bf0565b610ffe8383612fb9565b505050565b600080611044868686868080602002602001604051908101604052809392919081815260200183836020028082843760009201919091525061303d92505050565b90506000611053826001612b42565b6001600160a01b0388166000908152601b602052604090205490915061107a908290613410565b979650505050505050565b6000600080516020615df383398151915260136040516110a5919061574c565b60405180910390206110b5610f20565b805160209182012060408051928301949094529281019190915260608101919091524660808201523060a082015260c00160405160208183030381529060405280519060200120905090565b6001600160a01b03811633146111715760405162461bcd60e51b815260206004820152602f60248201527f416363657373436f6e74726f6c3a2063616e206f6e6c792072656e6f756e636560448201526e103937b632b9903337b91039b2b63360891b6064820152608401610d8c565b610c938282613426565b6000610b468261348b565b600080516020615dd383398151915261119e81612bf0565b6111a66128df565b6001600160a01b0383166000908152601a602052604081205490036111e0578260405163489d081b60e11b8152600401610d8c91906151b3565b6001600160a01b0383166000908152601a6020526040902060020154801580611207575082155b1561122557604051637c946ed760e01b815260040160405180910390fd5b80831115611231578092505b60008184866001600160a01b03166370a08231306040518263ffffffff1660e01b815260040161126191906151b3565b602060405180830381865afa15801561127e573d6000803e3d6000fd5b505050506040513d601f19601f820116820180604052508101906112a291906157c2565b6112ac91906157f1565b6112b6919061581e565b9050806000036112d957604051637c946ed760e01b815260040160405180910390fd5b6112e530333087613563565b6001600160a01b0385166000908152601a602052604081206002018054869290611310908490615832565b9250508190555083600360008282546113299190615832565b9250508190555083600460008282546113429190615845565b90915550506001600160a01b038516600080516020615e338339815191528361136b8782615832565b6040516113799291906155fb565b60405180910390a261138c853383613648565b846001600160a01b03167fe94e7f88819f66c19b097748cb754149f63b1a176ed425dee1f1ee933e6d09b0856040516113c791815260200190565b60405180910390a25050610ffe60018055565b60006113e581612bf0565b601254600160c01b900460ff1615156001036114135760405162dc149f60e41b815260040160405180910390fd5b333b1561143157601080546001600160a01b03191633179055611467565b601080546001600160a01b03199081169091556012805461027160a31b61ffff60a01b1990911617905560118054909116331790555b600b80546001600160a01b0319166001600160a01b0384161790556301e185588811156114a75760405163fdfbb0b760e01b815260040160405180910390fd5b6007889055601280546001600160a01b0319166001600160a01b0389169081179091556040805163313ce56760e01b8152905163313ce567916004808201926020929091908290030181865afa158015611505573d6000803e3d6000fd5b505050506040513d601f19601f820116820180604052508101906115299190615858565b6012805460ff60c81b1916600160c81b60ff9384168102919091179182905561010091049091161061156e5760405163e236476560e01b815260040160405180910390fd5b601361157b8688836158d9565b5060146115898486836158d9565b506115a2600080516020615d1383398151915233612fb9565b6115ba600080516020615cd383398151915233612fb9565b6115d2600080516020615dd383398151915233612fb9565b50506012805460ff60c01b1916600160c01b179055505050505050565b60006115fa81612bf0565b600b80546001600160a01b0319166001600160a01b0384161790556040517f7421df9bb5aa804486a873c3f79b4bda8b65888cb4ceb1ce73ab3415f479adea90610fd69084906151b3565b600061165081612bf0565b600d80546001600160a01b0319166001600160a01b0384161790556040517fb02c7aec2b89901bc7caa8b5cd2ed1ede10b5dd3d3c15f2a249ef51a76a3fc9490610fd69084906151b3565b6001600160a01b0382166000908152601a6020526040812060020154828110156116db57604051633327137b60e21b815260048101829052602401610d8c565b6116e58484613711565b949350505050565b600080516020615d1383398151915261170581612bf0565b60005b8281101561178857600084848381811061172457611724615998565b90506020020160208101906117399190615361565b6001600160a01b0381166000908152601a602052604081205491925003611775578060405163489d081b60e11b8152600401610d8c91906151b3565b5080611780816159ae565b915050611708565b5061179560158484615094565b507f3adf0cd8b4427265ab8cb9118d0b9c61b811c637fe87c5be9f2f4d91ce17cfbc83836040516117c79291906159c7565b60405180910390a1505050565b6000611814858585858080602002602001604051908101604052809392919081815260200183836020028082843760009201919091525061303d92505050565b95945050505050565b60006118276128df565b611832338385613871565b9050610b4660018055565b6000306001600160a01b0383160361187a5761185761399b565b6001600160a01b0383166000908152601b6020526040902054610b469190615832565b506001600160a01b03166000908152601b602052604090205490565b60006118a181612bf0565b60058290556040518281527f3c79c9aaa553ffa63df7f68d233487e697a31db07a59fb73fbab634e1871202090602001610fd6565b6000918252602082815260408084206001600160a01b0393909316845291905290205460ff1690565b60006119096128df565b6118323383856139f9565b606060148054610bcc906156b7565b601254600090610b109061194290600160c81b900460ff16600a615aee565b6000612938565b6119516150f7565b506040805160808101825260165481526017546020820152601854918101919091526019546001600160a01b0316606082015290565b600080516020615d1383398151915261199f81612bf0565b60128054831515600160b01b0260ff60b01b199091161790556040517fa9cd3583c5278952720fbec6b769ae08cbab1491fd69ae1edeb07ed07c9432f990610fd690841515815260200190565b6000600080516020615d13833981519152611a0681612bf0565b611a0e6128df565b6001600160a01b0384166000908152601a60205260409020600201548314801590611a3d575060055460045411155b15611a5b5760405163356680b760e01b815260040160405180910390fd5b6001600160a01b0384166000908152601a6020526040902060020154601254849190600160b81b900460ff161515600103611a9557600091505b808203611ab55760405163084df06b60e41b815260040160405180910390fd5b81811115611d92576000611ac98383615832565b905060055481600454611adc9190615845565b1015611aff57600454600554611af29190615832565b905081811115611aff5750805b604051636c82bbbf60e11b81526000906001600160a01b038916906307a2d13a90829063d905777e90611b36908e906004016151b3565b602060405180830381865afa158015611b53573d6000803e3d6000fd5b505050506040513d601f19601f82011682018060405250810190611b7791906157c2565b6040518263ffffffff1660e01b8152600401611b9591815260200190565b602060405180830381865afa158015611bb2573d6000803e3d6000fd5b505050506040513d601f19601f82011682018060405250810190611bd691906157c2565b905080600003611bf957604051637c946ed760e01b815260040160405180910390fd5b81811015611c05578091505b6000611c118984613711565b90508015611c355760405163311d104160e01b815260048101829052602401610d8c565b6012546040516370a0823160e01b81526000916001600160a01b0316906370a0823190611c66908e906004016151b3565b602060405180830381865afa158015611c83573d6000803e3d6000fd5b505050506040513d601f19601f82011682018060405250810190611ca791906157c2565b9050611cb38a85613ae1565b6012546040516370a0823160e01b81526000916001600160a01b0316906370a0823190611ce4908f906004016151b3565b602060405180830381865afa158015611d01573d6000803e3d6000fd5b505050506040513d601f19601f82011682018060405250810190611d2591906157c2565b90506000611d3c611d368484615832565b88613410565b905085811115611d4a578095505b8060046000828254611d5c9190615845565b925050819055508560036000828254611d759190615832565b90915550611d8590508688615832565b9750505050505050612030565b6001600160a01b0386166000908152601a6020526040902060030154821115611ded576001600160a01b0386166000908152601a602052604090819020600301549051638f55f52760e01b8152610d8c9184916004016155fb565b60405163402d267d60e01b81526000906001600160a01b0388169063402d267d90611e1c908b906004016151b3565b602060405180830381865afa158015611e39573d6000803e3d6000fd5b505050506040513d601f19601f82011682018060405250810190611e5d91906157c2565b905080600003611e8057604051637c946ed760e01b815260040160405180910390fd5b6000611e8c8385615832565b905081811115611e995750805b6000600554600454611eab9190615832565b905080821115611eb9578091505b811561202057601254611ed6906001600160a01b03168a84613c3e565b6012546040516370a0823160e01b81526000916001600160a01b0316906370a0823190611f079030906004016151b3565b602060405180830381865afa158015611f24573d6000803e3d6000fd5b505050506040513d601f19601f82011682018060405250810190611f4891906157c2565b9050611f548a84613d07565b6012546040516370a0823160e01b81526000916001600160a01b0316906370a0823190611f859030906004016151b3565b602060405180830381865afa158015611fa2573d6000803e3d6000fd5b505050506040513d601f19601f82011682018060405250810190611fc691906157c2565b601254909150611fe1906001600160a01b03168c6000613c3e565b611feb8183615832565b93508360046000828254611fff9190615832565b9250508190555083600360008282546120189190615845565b909155505050505b61202a8285615845565b94505050505b6001600160a01b0386166000818152601a60205260409081902060020184905551600080516020615e338339815191529061206e90849086906155fb565b60405180910390a250915061208260018055565b509392505050565b60006001600160a01b0383163014806120aa57506001600160a01b038316155b156120c85760405163d92e233d60e01b815260040160405180910390fd5b6120d3338484612eba565b50600192915050565b60006120e781612bf0565b601685905560178490556018839055601980546001600160a01b0319166001600160a01b0384161790556040517f94aff052e386f7223093efb6183667af7a14a6d206ce5e9c66a9c064ebe945289061214790879087908790879061552a565b60405180910390a15050505050565b6000610b46826001612938565b600080600080516020615cd383398151915261217e81612bf0565b6121866128df565b6001600160a01b0384166000908152601a602052604081205490036121c0578360405163489d081b60e11b8152600401610d8c91906151b3565b6121c8613d78565b6000806121d486613da8565b9150915060006121e5878484613edc565b905060006121fe8484846000015185604001518c6140ec565b905060008061220e838588614200565b9150915061221c828261439f565b6001600160a01b038a166000818152601a60205260408082204260018201556002015490860151600080516020615d73833981519152928a928a9290916122639190612938565b61227a89602001518a604001516119429190615845565b8a6020015160405161229196959493929190615afd565b60405180910390a2509396509194505050506122ac60018055565b50915091565b600080516020615d138339815191526122ca81612bf0565b610c93826000612bfd565b60006122e081612bf0565b601254600160b81b900460ff16151560010361230f5760405163036882cf60e41b815260040160405180910390fd5b600c546001600160a01b031615612339576040516364b9991160e11b815260040160405180910390fd5b6006829055604051828152600080516020615cb383398151915290602001610fd6565b6000806123688361348b565b9050610c69816000612b42565b6000610b46826000612b42565b60006001600160a01b0388166123ab5760405163d92e233d60e01b815260040160405180910390fd5b428510156123cc576040516363bef56160e11b815260040160405180910390fd5b6001600160a01b038881166000818152601d60209081526040808320548151600080516020615d938339815191528185015280830195909552948c166060850152608084018b905260a0840185905260c08085018b90528151808603909101815260e09094019052825192019190912090612445611085565b60405161190160f01b602082015260228101919091526042810183905260620160408051601f198184030181528282528051602091820120600080855291840180845281905260ff8b169284019290925260608301899052608083018890529092509060019060a0016020604051602081039080840390855afa1580156124d0573d6000803e3d6000fd5b5050604051601f1901519150506001600160a01b038116158061250557508b6001600160a01b0316816001600160a01b031614155b156125255780604051633934136760e01b8152600401610d8c91906151b3565b6125308c8c8c612ab1565b506001600160a01b038c166000908152601d60205260408120805491612555836159ae565b91905055508a6001600160a01b03168c6001600160a01b0316600080516020615db38339815191528c60405161258d91815260200190565b60405180910390a35060019b9a5050505050505050505050565b6125b082610f0b565b6125b981612bf0565b610ffe8383613426565b60006125cd6128df565b60006125da886001612b42565b905061261e3388888b858a8a8a808060200260200160405190810160405280939291908181526020018383602002808284376000920191909152506129ce92505050565b509050610bb360018055565b6000610b1061399b565b6001600160a01b039182166000908152601c6020908152604080832093909416825291909152205490565b600061266a81612bf0565b6301e1855882111561268f5760405163fdfbb0b760e01b815260040160405180910390fd5b816000036126bb57306000818152601b60205260409020546126b091614440565b600060098190556008555b60078290556040518281527fc464d502702beac6615fdfda7756f59ccaf253cb2591db454c8def44d03bddd990602001610fd6565b60006126fb81612bf0565b601254600160b81b900460ff16151560010361272a5760405163036882cf60e41b815260040160405180910390fd5b6012805460ff60b81b1916600160b81b179055600c546001600160a01b03161561278657600c80546001600160a01b0319169055604051600080516020615cf38339815191529061277d906000906151b3565b60405180910390a15b60006006819055604051908152600080516020615cb38339815191529060200160405180910390a16127c6600080516020615d1383398151915233612fb9565b6040517f4426aa1fb73e391071491fcfe21a88b5c38a0a0333a1f6e77161470439704cf890600090a150565b600080516020615d1383398151915261280a81612bf0565b6001600160a01b0383166000908152601a60205260408120549003612844578260405163489d081b60e11b8152600401610d8c91906151b3565b6001600160a01b0383166000818152601a6020526040908190206003018490555133907fb3eef2123fec1523a6bbc90aceb203000154c1a4974335fe06b544c7534d4b89906128969086815260200190565b60405180910390a3505050565b601581815481106128b357600080fd5b6000918252602090912001546001600160a01b0316905081565b6000600354600454610b109190615845565b6002600154036129315760405162461bcd60e51b815260206004820152601f60248201527f5265656e7472616e637947756172643a207265656e7472616e742063616c6c006044820152606401610d8c565b6002600155565b6000600019831480612948575082155b15612954575081610b46565b600061295e612e33565b9050806000036129715783915050610b46565b600061297b6128cd565b61298590866157f1565b90506000612993838361581e565b905060018560018111156129a9576129a961570e565b1480156129be57506129bb8383615b25565b15155b1561181457610bb3600182615845565b60006129dc87878686614511565b600d546001600160a01b031615612a225760006129fa87858561303d565b905080861115612a2057604051631a05c12360e11b815260048101829052602401610d8c565b505b612a2d8689866145d3565b600080612a3a87856145f7565b91509150612a4d8989888a86868b614c98565b876001600160a01b0316896001600160a01b03168b6001600160a01b03167ffbde797d201c681b91056529119e0b02407c7bb96a4a2c75c01fc9667232c8db858a604051612a9c9291906155fb565b60405180910390a45098975050505050505050565b60006001600160a01b0384161580612ad057506001600160a01b038316155b15612aee5760405163d92e233d60e01b815260040160405180910390fd5b6001600160a01b038481166000818152601c60209081526040808320948816808452948252918290208690559051858152600080516020615db3833981519152910160405180910390a35060019392505050565b6000600019831480612b52575082155b15612b5e575081610b46565b6000612b68612e33565b90506000612b746128cd565b905080600003612b9b5781600003612b90578492505050610b46565b600092505050610b46565b6000612ba783876157f1565b90506000612bb5838361581e565b90506001866001811115612bcb57612bcb61570e565b148015612be05750612bdd8383615b25565b15155b15610bb35761107a600182615845565b612bfa8133614d24565b50565b6001600160a01b0382166000908152601a60205260408120549003612c37578160405163489d081b60e11b8152600401610d8c91906151b3565b6001600160a01b0382166000908152601a602052604081206002015415801590612c5f575081155b15612c9e576001600160a01b0383166000908152601a6020526040908190206002015490516357d8a97560e11b81526004810191909152602401610d8c565b506001600160a01b0382166000908152601a60205260408120600201546003805491928392612cce908490615832565b92505081905550826001600160a01b0316600080516020615d73833981519152600083600080600080604051612d0996959493929190615afd565b60405180910390a2604080516080810182526000808252602080830182815283850183815260608086018581526001600160a01b038b168652601a9094529590932093518455516001840155905160028301555160039091015560155415612df75760005b601554811015612df557600060158281548110612d8d57612d8d615998565b6000918252602090912001546001600160a01b03908116915086168114612de25780838381518110612dc157612dc1615998565b60200260200101906001600160a01b031690816001600160a01b0316815250505b5080612ded816159ae565b915050612d6e565b505b8051612e0a906015906020840190615128565b50836001600160a01b0316600080516020615d338339815191526001604051610e9f9190615724565b6000612e3d61399b565b600254610b109190615832565b6001600160a01b038084166000908152601c6020908152604080832093861683529290522054600019811015612eb45781811015612e9e57604051631649cee760e01b815260048101829052602401610d8c565b612eb28484612ead8585615832565b612ab1565b505b50505050565b6001600160a01b0383166000908152601b602052604090205481811015612ef45760405163356680b760e01b815260040160405180910390fd5b6001600160a01b0384161580612f1157506001600160a01b038316155b15612f2f5760405163d92e233d60e01b815260040160405180910390fd5b612f398282615832565b6001600160a01b038086166000908152601b60205260408082209390935590851681522054612f688382615845565b6001600160a01b038086166000818152601b60205260409081902093909355915190871690600080516020615d5383398151915290612faa9087815260200190565b60405180910390a35050505050565b612fc382826118d6565b610c93576000828152602081815260408083206001600160a01b03851684529091529020805460ff19166001179055612ff93390565b6001600160a01b0316816001600160a01b0316837f2f8788117e7eff1d82e926ec794901d17c78024a50270940304540a733656f0d60405160405180910390a45050565b6001600160a01b0383166000908152601b602052604081205481906130629082612938565b600d549091506001600160a01b03161561310257600d54604051632319b8cf60e01b81526000916001600160a01b031690632319b8cf906130ab90899089908990600401615b39565b602060405180830381865afa1580156130c8573d6000803e3d6000fd5b505050506040513d601f19601f820116820180604052508101906130ec91906157c2565b9050818110156130fa578091505b509050610c69565b60045480821115613407578351819060009081901580159061312e5750601254600160b01b900460ff16155b61319257601580548060200260200160405190810160405280929190818152602001828054801561318857602002820191906000526020600020905b81546001600160a01b0316815260019091019060200180831161316a575b5050505050613194565b865b905060005b81518110156134005760008282815181106131b6576131b6615998565b60200260200101519050601a6000826001600160a01b03166001600160a01b031681526020019081526020016000206000015460000361320b578060405163489d081b60e11b8152600401610d8c91906151b3565b600061323b61321a878a615832565b6001600160a01b0384166000908152601a6020526040902060020154613410565b905060006132498383613711565b90506000836001600160a01b03166307a2d13a856001600160a01b031663d905777e306040518263ffffffff1660e01b815260040161328891906151b3565b602060405180830381865afa1580156132a5573d6000803e3d6000fd5b505050506040513d601f19601f820116820180604052508101906132c991906157c2565b6040518263ffffffff1660e01b81526004016132e791815260200190565b602060405180830381865afa158015613304573d6000803e3d6000fd5b505050506040513d601f19601f8201168201806040525081019061332891906157c2565b90506133348284615832565b81101561335f578261334682846157f1565b613350919061581e565b915061335c8282615845565b92505b8260000361337057505050506133ee565b60008211801561338157506127108d105b156133c1576127108d613394858b615845565b61339e91906157f1565b6133a8919061581e565b6133b28389615845565b11156133c15750505050613400565b6133cb8389615845565b97508988106133dd5750505050613400565b6133e78288615845565b9650505050505b806133f8816159ae565b915050613199565b5091935050505b50949350505050565b600081831061341f5781610c69565b5090919050565b61343082826118d6565b15610c93576000828152602081815260408083206001600160a01b0385168085529252808320805460ff1916905551339285917ff6391f5c32d9c69d2a47ea670b442974b53935d1edc7fd64eb21e047a839171b9190a45050565b60006001600160a01b0382163014806134ab57506001600160a01b038216155b156134b857506000919050565b600c546001600160a01b0316801561353757604051632355178960e11b81526001600160a01b038216906346aa2f12906134f69086906004016151b3565b602060405180830381865afa158015613513573d6000803e3d6000fd5b505050506040513d601f19601f82011682018060405250810190610c6991906157c2565b60006135416128cd565b60065490915080821061355957506000949350505050565b6118148282615832565b6001600160a01b038416158061358057506001600160a01b038316155b8061359257506001600160a01b038216155b156135b05760405163d92e233d60e01b815260040160405180910390fd5b6040516323b872dd60e01b81526001600160a01b0384811660048301528381166024830152604482018390528516906323b872dd906064016020604051808303816000875af1158015613607573d6000803e3d6000fd5b505050506040513d601f19601f8201168201806040525081019061362b9190615b9c565b612eb457604051633c9fd93960e21b815260040160405180910390fd5b6001600160a01b038316158061366557506001600160a01b038216155b156136835760405163d92e233d60e01b815260040160405180910390fd5b60405163a9059cbb60e01b81526001600160a01b0384169063a9059cbb906136b19085908590600401615bb9565b6020604051808303816000875af11580156136d0573d6000803e3d6000fd5b505050506040513d601f19601f820116820180604052508101906136f49190615b9c565b610ffe57604051633c9fd93960e21b815260040160405180910390fd5b6001600160a01b0382166000818152601a60205260408082206002015490516370a0823160e01b8152919290918391906370a08231906137559030906004016151b3565b602060405180830381865afa158015613772573d6000803e3d6000fd5b505050506040513d601f19601f8201168201806040525081019061379691906157c2565b6040516303d1689d60e11b8152600481018290529091506000906001600160a01b038716906307a2d13a90602401602060405180830381865afa1580156137e1573d6000803e3d6000fd5b505050506040513d601f19601f8201168201806040525081019061380591906157c2565b90508281101580613814575082155b156138255760009350505050610b46565b600061383182876157f1565b9050600061383f858361581e565b6138499088615832565b90506138558583615b25565b1561107a57613865600182615845565b98975050505050505050565b601254600090600160b81b900460ff1615156001036138a35760405163036882cf60e41b815260040160405180910390fd5b6138ac8361348b565b8211156138d8576138bc8361348b565b604051630ee7300760e11b8152600401610d8c91815260200190565b816000036138f957604051637c946ed760e01b815260040160405180910390fd5b601254613911906001600160a01b0316333085613563565b81600460008282546139239190615845565b90915550600090506139358385614d7d565b90508060000361395857604051637c946ed760e01b815260040160405180910390fd5b836001600160a01b0316856001600160a01b0316600080516020615e13833981519152858460405161398b9291906155fb565b60405180910390a3949350505050565b60085460009081428211156139dc5764e8d4a51000600a54426139be9190615832565b6009546139cb91906157f1565b6139d5919061581e565b9050610b46565b8115610b465750306000908152601b602052604090205492915050565b601254600090600160b81b900460ff161515600103613a2b5760405163036882cf60e41b815260040160405180910390fd5b6000613a38836001612938565b905080600003613a5b57604051637c946ed760e01b815260040160405180910390fd5b613a648461348b565b811115613a74576138bc8461348b565b601254613a8c906001600160a01b0316863084613563565b8060046000828254613a9e9190615845565b90915550613aae90508385614e2f565b836001600160a01b0316856001600160a01b0316600080516020615e13833981519152838660405161398b9291906155fb565b604051630a28a47760e01b815260048101829052600090613bc3906001600160a01b03851690630a28a47790602401602060405180830381865afa158015613b2d573d6000803e3d6000fd5b505050506040513d601f19601f82011682018060405250810190613b5191906157c2565b6040516370a0823160e01b81526001600160a01b038616906370a0823190613b7d9030906004016151b3565b602060405180830381865afa158015613b9a573d6000803e3d6000fd5b505050506040513d601f19601f82011682018060405250810190613bbe91906157c2565b613410565b604051635d043b2960e11b815260048101829052306024820181905260448201529091506001600160a01b0384169063ba087652906064016020604051808303816000875af1158015613c1a573d6000803e3d6000fd5b505050506040513d601f19601f82011682018060405250810190612eb491906157c2565b6001600160a01b0383161580613c5b57506001600160a01b038216155b15613c795760405163d92e233d60e01b815260040160405180910390fd5b60405163095ea7b360e01b81526001600160a01b0384169063095ea7b390613ca79085908590600401615bb9565b6020604051808303816000875af1158015613cc6573d6000803e3d6000fd5b505050506040513d601f19601f82011682018060405250810190613cea9190615b9c565b610ffe57604051631946df2360e31b815260040160405180910390fd5b604051636e553f6560e01b8152600481018290523060248201526001600160a01b03831690636e553f65906044016020604051808303816000875af1158015613d54573d6000803e3d6000fd5b505050506040513d601f19601f82011682018060405250810190610ffe91906157c2565b6000613d8261399b565b905080600003613d8f5750565b426008541115613d9e5742600a555b612bfa8130614440565b6000806000836001600160a01b03166370a08231306040518263ffffffff1660e01b8152600401613dd991906151b3565b602060405180830381865afa158015613df6573d6000803e3d6000fd5b505050506040513d601f19601f82011682018060405250810190613e1a91906157c2565b6040516303d1689d60e11b8152600481018290529091506000906001600160a01b038616906307a2d13a90602401602060405180830381865afa158015613e65573d6000803e3d6000fd5b505050506040513d601f19601f82011682018060405250810190613e8991906157c2565b6001600160a01b0386166000908152601a60205260408120600201549192508082841115613ec257613ebb8385615832565b9150613ecf565b613ecc8484615832565b90505b9097909650945050505050565b613ee46150f7565b600b546001600160a01b0316156140b457604080516080810182526000808252602082018190528183018190526060820152600b54915163921f8a8f60e01b81526001600160a01b03878116600483015260248201879052604482018690529192919091169063921f8a8f9060640160408051808303816000875af1158015613f71573d6000803e3d6000fd5b505050506040513d601f19601f82011682018060405250810190613f959190615bd2565b6020830152808252156140ad576010546000906001600160a01b0316613fda57506012546011546001600160a01b03166060830152600160a01b900461ffff16614056565b601054604080516307d3277f60e01b815281516001600160a01b03909316926307d3277f926004808401939192918290030181865afa158015614021573d6000803e3d6000fd5b505050506040513d601f19601f820116820180604052508101906140459190615bf6565b6001600160a01b0316606084015290505b61ffff8116156130fa576127108161ffff16111561408757604051635ff85e3f60e01b815260040160405180910390fd5b81516127109061409c9061ffff8416906157f1565b6140a6919061581e565b6040830152505b9050610c69565b506040805160808101825260165481526017546020820152601854918101919091526019546001600160a01b03166060820152610c69565b6140f461517d565b6140fc61517d565b6001600160a01b0383166000908152601a60205260409020600201548715614149576141318461412c8a84615845565b614ec8565b87600360008282546141439190615845565b90915550505b86156141755761415d8461412c8984615832565b866003600082825461416f9190615832565b90915550505b60006141818789615845565b11156141f55761419b6141948789615845565b6001612b42565b825183906141aa908390615845565b90525085156141f5576141c76141c08688615832565b6000612b42565b602083015284156141f55760006141de89876157f1565b90506141ee6141c060648361581e565b6040840152505b509695505050505050565b600b54600090819081906001600160a01b0316614228576019546001600160a01b0316614235565b600b546001600160a01b03165b9050600080866020015111156142a2576142638660200151613bbe6142598561183d565b613bbe8630612634565b60208701819052601254614286916001600160a01b039091169084903090613563565b85602001516004600082825461429c9190615845565b90915550505b60008660200151866142b49190615845565b1180156142c2575060075415155b156142e3576142e08660200151866142da9190615845565b30614d7d565b90505b306000908152601b60205260408120546142fe908390615832565b88519091501561435f57875161431890613bbe8484615845565b8089526143259030614440565b6000614335896000015184613410565b90506143418184615832565b8951909350614351908290615832565b61435b9083615832565b9150505b60208801511561437757614377886020015184614e2f565b6040880151156143935761439388604001518860600151614e2f565b97909650945050505050565b60006143ab8284615845565b905080156144365760004260085411156143da57426008546143cd9190615832565b6143d790856157f1565b90505b600082600754856143eb91906157f1565b6143f59084615845565b6143ff919061581e565b90508061441164e8d4a51000856157f1565b61441b919061581e565b6009556144288142615845565b600855505042600a55505050565b6000600955505050565b6001600160a01b0381166000908152601b6020526040902054821115614497576001600160a01b0381166000908152601b6020526040908190205490516307f885ff60e21b81526004810191909152602401610d8c565b6001600160a01b0381166000908152601b6020526040812080548492906144bf908490615832565b9250508190555081600260008282546144d89190615832565b90915550506040518281526000906001600160a01b03831690600080516020615d53833981519152906020015b60405180910390a35050565b6001600160a01b0384166145385760405163d92e233d60e01b815260040160405180910390fd5b61271081111561455b57604051631a7ed0a160e31b815260040160405180910390fd5b8160000361457c57604051637c946ed760e01b815260040160405180910390fd5b6001600160a01b0383166000908152601b6020526040902054821115612eb4576001600160a01b0383166000908152601b6020526040908190205490516307f885ff60e21b81526004810191909152602401610d8c565b826001600160a01b0316826001600160a01b031614610ffe57610ffe838383612e4a565b6040805160c0810182528381526004805460208301526003548284015260006060830181905260125493516370a0823160e01b8152909384938493909260808401926001600160a01b0316916370a0823191614655913091016151b3565b602060405180830381865afa158015614672573d6000803e3d6000fd5b505050506040513d601f19601f8201168201806040525081019061469691906157c2565b8152600060209182015281015181519192501015614c83576060600085516000141580156146ce5750601254600160b01b900460ff16155b156146de5750508351849061473c565b601580548060200260200160405190810160405280929190818152602001828054801561473457602002820191906000526020600020905b81546001600160a01b03168152600190910190602001808311614716575b505050505091505b6020830151835161474d9190615832565b606084015260005b8251811015614c4857600083828151811061477257614772615998565b6020908102919091018101516001600160a01b0381166000908152601a9092526040822054909250908190036147bd578160405163489d081b60e11b8152600401610d8c91906151b3565b6001600160a01b0382166000908152601a602052604081206002015460608801519091906147eb9083613410565b90506000846001600160a01b03166307a2d13a866001600160a01b031663d905777e306040518263ffffffff1660e01b815260040161482a91906151b3565b602060405180830381865afa158015614847573d6000803e3d6000fd5b505050506040513d601f19601f8201168201806040525081019061486b91906157c2565b6040518263ffffffff1660e01b815260040161488991815260200190565b602060405180830381865afa1580156148a6573d6000803e3d6000fd5b505050506040513d601f19601f820116820180604052508101906148ca91906157c2565b905060006148d88684613711565b905080156149d1576148ea8184615832565b8210156149245760006148fd8285615832565b90508061490a84846157f1565b614914919061581e565b91506149208284615845565b9350505b61492e8184615832565b9250808a6000018181516149429190615832565b90525060608a018051829190614959908390615832565b90525060408a018051829190614970908390615832565b905250811580156149815750600081115b156149d15760006149928286615832565b905061499e8782614ec8565b866001600160a01b0316600080516020615e3383398151915286836040516149c79291906155fb565b60405180910390a2505b6149db8383613410565b9250826000036149f057505050505050614c36565b6149fa8684613ae1565b6012546040516370a0823160e01b81526000916001600160a01b0316906370a0823190614a2b9030906004016151b3565b602060405180830381865afa158015614a48573d6000803e3d6000fd5b505050506040513d601f19601f82011682018060405250810190614a6c91906157c2565b905060008b6080015182614a809190615832565b9050600085821115614ab75786821115614a9c57869550614acc565b614aa68683615832565b614ab09087615845565b9550614acc565b85821015614acc57614ac98287615832565b90505b80868e60200151614add9190615845565b614ae79190615832565b600003614afa57600060208e0152614b19565b614b048187615832565b8d602001818151614b159190615845565b9052505b8c51614b26908290615832565b600003614b365760008d52614b4c565b808d600001818151614b489190615832565b9052505b858d60400151614b5c9190615832565b600003614b6f57600060408e0152614b85565b858d604001818151614b819190615832565b9052505b6000614b918588615845565b881015614ba057506000614bb7565b614baa8588615845565b614bb49089615832565b90505b614bc18a82614ec8565b896001600160a01b0316600080516020615e338339815191528983604051614bea9291906155fb565b60405180910390a260208e01518e5111614c0d5750505050505050505050614c48565b60808e0184905260608e018051889190614c28908390615832565b905250505050505050505050505b80614c40816159ae565b915050614755565b50825160208401511015614c78576020830151835160405163b97fded160e01b8152610d8c9291906004016155fb565b505060408101516003555b805160209091015190925090505b9250929050565b8284118015614ca8575061271081105b15614ced57612710614cba82866157f1565b614cc4919061581e565b614cce8486615832565b1115614ced576040516307f65e3960e11b815260040160405180910390fd5b614cf78587614440565b614d018383615832565b600455601254614d1b906001600160a01b03168885613648565b50505050505050565b614d2e82826118d6565b610c9357614d3b81614ee7565b614d46836020614ef9565b604051602001614d57929190615c2c565b60408051601f198184030181529082905262461bcd60e51b8252610d8c916004016152e9565b60006001600160a01b038216614da65760405163d92e233d60e01b815260040160405180910390fd5b6000614db0612e33565b90506000614dbc6128cd565b9050600082600003614dcf575084614e15565b85821115614dfc57614de18683615832565b614deb84886157f1565b614df5919061581e565b9050614e15565b60405163fd7850ad60e01b815260040160405180910390fd5b80600003614e295760009350505050610b46565b61181481865b6001600160a01b038116614e565760405163d92e233d60e01b815260040160405180910390fd5b6001600160a01b0381166000908152601b602052604081208054849290614e7e908490615845565b925050819055508160026000828254614e979190615845565b90915550506040518281526001600160a01b03821690600090600080516020615d5383398151915290602001614505565b6001600160a01b039091166000908152601a6020526040902060020155565b6060610b466001600160a01b03831660145b60606000614f088360026157f1565b614f13906002615845565b6001600160401b03811115614f2a57614f2a615875565b6040519080825280601f01601f191660200182016040528015614f54576020820181803683370190505b509050600360fc1b81600081518110614f6f57614f6f615998565b60200101906001600160f81b031916908160001a905350600f60fb1b81600181518110614f9e57614f9e615998565b60200101906001600160f81b031916908160001a9053506000614fc28460026157f1565b614fcd906001615845565b90505b6001811115615045576f181899199a1a9b1b9c1cb0b131b232b360811b85600f166010811061500157615001615998565b1a60f81b82828151811061501757615017615998565b60200101906001600160f81b031916908160001a90535060049490941c9361503e81615c9b565b9050614fd0565b508315610c695760405162461bcd60e51b815260206004820181905260248201527f537472696e67733a20686578206c656e67746820696e73756666696369656e746044820152606401610d8c565b8280548282559060005260206000209081019282156150e7579160200282015b828111156150e75781546001600160a01b0319166001600160a01b038435161782556020909201916001909101906150b4565b506150f392915061519e565b5090565b604051806080016040528060008152602001600081526020016000815260200160006001600160a01b031681525090565b8280548282559060005260206000209081019282156150e7579160200282015b828111156150e757825182546001600160a01b0319166001600160a01b03909116178255602090920191600190910190615148565b60405180606001604052806000815260200160008152602001600081525090565b5b808211156150f3576000815560010161519f565b6001600160a01b0391909116815260200190565b6000602082840312156151d957600080fd5b81356001600160e01b031981168114610c6957600080fd5b6001600160a01b0381168114612bfa57600080fd5b60008083601f84011261521857600080fd5b5081356001600160401b0381111561522f57600080fd5b6020830191508360208260051b8501011115614c9157600080fd5b60008060008060008060a0878903121561526357600080fd5b863595506020870135615275816151f1565b94506040870135615285816151f1565b93506060870135925060808701356001600160401b038111156152a757600080fd5b6152b389828a01615206565b979a9699509497509295939492505050565b60005b838110156152e05781810151838201526020016152c8565b50506000910152565b60208152600082518060208401526153088160408501602087016152c5565b601f01601f19169190910160400192915050565b60006020828403121561532e57600080fd5b5035919050565b6000806040838503121561534857600080fd5b8235615353816151f1565b946020939093013593505050565b60006020828403121561537357600080fd5b8135610c69816151f1565b60008060006060848603121561539357600080fd5b833561539e816151f1565b925060208401356153ae816151f1565b929592945050506040919091013590565b600080604083850312156153d257600080fd5b8235915060208301356153e4816151f1565b809150509250929050565b6000806000806060858703121561540557600080fd5b8435615410816151f1565b93506020850135925060408501356001600160401b0381111561543257600080fd5b61543e87828801615206565b95989497509550505050565b60008083601f84011261545c57600080fd5b5081356001600160401b0381111561547357600080fd5b602083019150836020828501011115614c9157600080fd5b600080600080600080600060a0888a0312156154a657600080fd5b8735965060208801356154b8816151f1565b955060408801356001600160401b03808211156154d457600080fd5b6154e08b838c0161544a565b909750955060608a01359150808211156154f957600080fd5b506155068a828b0161544a565b909450925050608088013561551a816151f1565b8091505092959891949750929550565b938452602084019290925260408301526001600160a01b0316606082015260800190565b6000806020838503121561556157600080fd5b82356001600160401b0381111561557757600080fd5b61558385828601615206565b90969095509350505050565b8015158114612bfa57600080fd5b6000602082840312156155af57600080fd5b8135610c698161558f565b600080600080608085870312156155d057600080fd5b84359350602085013592506040850135915060608501356155f0816151f1565b939692955090935050565b918252602082015260400190565b60ff81168114612bfa57600080fd5b600080600080600080600060e0888a03121561563357600080fd5b873561563e816151f1565b9650602088013561564e816151f1565b95506040880135945060608801359350608088013561566c81615609565b9699959850939692959460a0840135945060c09093013592915050565b6000806040838503121561569c57600080fd5b82356156a7816151f1565b915060208301356153e4816151f1565b600181811c908216806156cb57607f821691505b6020821081036156eb57634e487b7160e01b600052602260045260246000fd5b50919050565b60006020828403121561570357600080fd5b8151610c69816151f1565b634e487b7160e01b600052602160045260246000fd5b602081016002831061574657634e487b7160e01b600052602160045260246000fd5b91905290565b600080835461575a816156b7565b600182811680156157725760018114615787576157b6565b60ff19841687528215158302870194506157b6565b8760005260208060002060005b858110156157ad5781548a820152908401908201615794565b50505082870194505b50929695505050505050565b6000602082840312156157d457600080fd5b5051919050565b634e487b7160e01b600052601160045260246000fd5b8082028115828204841417610b4657610b466157db565b634e487b7160e01b600052601260045260246000fd5b60008261582d5761582d615808565b500490565b81810381811115610b4657610b466157db565b80820180821115610b4657610b466157db565b60006020828403121561586a57600080fd5b8151610c6981615609565b634e487b7160e01b600052604160045260246000fd5b601f821115610ffe57600081815260208120601f850160051c810160208610156158b25750805b601f850160051c820191505b818110156158d1578281556001016158be565b505050505050565b6001600160401b038311156158f0576158f0615875565b615904836158fe83546156b7565b8361588b565b6000601f84116001811461593857600085156159205750838201355b600019600387901b1c1916600186901b178355612eb2565b600083815260209020601f19861690835b828110156159695786850135825560209485019460019092019101615949565b50868210156159865760001960f88860031b161c19848701351681555b505060018560011b0183555050505050565b634e487b7160e01b600052603260045260246000fd5b6000600182016159c0576159c06157db565b5060010190565b60208082528181018390526000908460408401835b868110156141f55782356159ef816151f1565b6001600160a01b0316825291830191908301906001016159dc565b600181815b80851115615a45578160001904821115615a2b57615a2b6157db565b80851615615a3857918102915b93841c9390800290615a0f565b509250929050565b600082615a5c57506001610b46565b81615a6957506000610b46565b8160018114615a7f5760028114615a8957615aa5565b6001915050610b46565b60ff841115615a9a57615a9a6157db565b50506001821b610b46565b5060208310610133831016604e8410600b8410161715615ac8575081810a610b46565b615ad28383615a0a565b8060001904821115615ae657615ae66157db565b029392505050565b6000610c6960ff841683615a4d565b958652602086019490945260408501929092526060840152608083015260a082015260c00190565b600082615b3457615b34615808565b500690565b6001600160a01b038481168252602080830185905260606040840181905284519084018190526000928583019290916080860190855b81811015615b8d578551851683529483019491830191600101615b6f565b50909998505050505050505050565b600060208284031215615bae57600080fd5b8151610c698161558f565b6001600160a01b03929092168252602082015260400190565b60008060408385031215615be557600080fd5b505080516020909101519092909150565b60008060408385031215615c0957600080fd5b825161ffff81168114615c1b57600080fd5b60208401519092506153e4816151f1565b76020b1b1b2b9b9a1b7b73a3937b61d1030b1b1b7bab73a1604d1b815260008351615c5e8160178501602088016152c5565b7001034b99036b4b9b9b4b733903937b6329607d1b6017918401918201528351615c8f8160288401602088016152c5565b01602801949350505050565b600081615caa57615caa6157db565b50600019019056fed5c8971839cd457e3e7008c5010f80fdfb8dbe466e9eff20c25d5d7c1e93d3fb633076a97f32ae349b28772e7b1483f67a926f150cbc501d02bdbd77389325ab1e92f04e56f08d7fc631d317720ce6c1392414dbf052f01c99b4d50ccc494c091893e1a169e79f2fe8aa327b1bceb2fede7a1b76a54824f95ea0e737720954aebcf55f13710eed7eda89416c2984da5475fcff67e96fe85e56eed808559a5222ddf252ad1be2c89b69c2b068fc378daa952ba7f163c4a11628f55a4df523b3ef7f2ad1d3ba35276f35ef140f83e3e0f17b23064fd710113d3f7a5ab30d2678116e71edae12b1b97f4d1f60370fef10105fa2faae0126114a169c64845d6126c98c5be1e5ebec7d5bd14f71427d1e84f3dd0314c0f7b2291e5b200ac8c7c3b925900d80def0427daac599092fcb16b21808ec68dd9a2e1eae89d1e8db213573758b73c3c69bb8fe3d512ecc4cf759cc79239f7b179b0ffacaa9a75d522b39400fdcbc1c05240f31ff3ad067ef1ee35ce4997762752e3a095284754544f4c709d75e2b8821ad6e0e26207e0cb4d242d07eeb1cbb1cfd853e645bdcd27cc5484f95a2646970667358221220eb7c75b0572b66721071b678fba33b6b756d13a637d48276d6b38bdb057fae7564736f6c63430008130033",
  "devdoc": {
    "events": {
      "Approval(address,address,uint256)": {
        "details": "Emitted when the allowance of a `spender` for an `owner` is set by a call to {approve}. `value` is the new allowance."
      },
      "RoleAdminChanged(bytes32,bytes32,bytes32)": {
        "details": "Emitted when `newAdminRole` is set as ``role``'s admin role, replacing `previousAdminRole` `DEFAULT_ADMIN_ROLE` is the starting admin for all roles, despite {RoleAdminChanged} not being emitted signaling this. _Available since v3.1._"
      },
      "RoleGranted(bytes32,address,address)": {
        "details": "Emitted when `account` is granted `role`. `sender` is the account that originated the contract call, an admin role bearer except when using {AccessControl-_setupRole}."
      },
      "RoleRevoked(bytes32,address,address)": {
        "details": "Emitted when `account` is revoked `role`. `sender` is the account that originated the contract call:   - if using `revokeRole`, it is the admin role bearer   - if using `renounceRole`, it is the role bearer (i.e. `account`)"
      },
      "Transfer(address,address,uint256)": {
        "details": "Emitted when `value` tokens are moved from one account (`from`) to another (`to`). Note that `value` may be zero."
      }
    },
    "kind": "dev",
    "methods": {
      "addStrategy(address)": {
        "params": {
          "newStrategy": "The new strategy to add."
        }
      },
      "allowance(address,address)": {
        "params": {
          "owner": "The address that owns the shares.",
          "spender": "The address that is allowed to spend the shares."
        }
      },
      "approve(address,uint256)": {
        "params": {
          "amount": "The amount of shares to approve.",
          "spender": "The address to approve."
        },
        "returns": {
          "_0": "True if the approval was successful."
        }
      },
      "assessShareOfUnrealisedLosses(address,uint256)": {
        "params": {
          "assetsNeeded": "The amount of assets needed by the strategy.",
          "strategy": "The strategy to assess the share of unrealised losses for."
        }
      },
      "asset()": {
        "returns": {
          "_0": "The address of the asset."
        }
      },
      "balanceOf(address)": {
        "params": {
          "addr": "The address to get the balance of."
        },
        "returns": {
          "_0": "The balance of the user."
        }
      },
      "buyDebt(address,uint256)": {
        "details": "This should only ever be used in an emergency in place of force revoking a strategy in order to not report a loss. It allows the DEBT_PURCHASER role to buy the strategies debt for an equal amount of `asset`.",
        "params": {
          "amount": "The amount of debt to buy from the vault.",
          "strategy": "The strategy to buy the debt for"
        }
      },
      "convertToAssets(uint256)": {
        "params": {
          "shares": "The amount of shares to convert."
        },
        "returns": {
          "_0": "The amount of assets."
        }
      },
      "convertToShares(uint256)": {
        "params": {
          "assets": "The amount of assets to convert."
        },
        "returns": {
          "_0": "The amount of shares."
        }
      },
      "decimals()": {
        "returns": {
          "_0": "The number of decimals of the asset/share."
        }
      },
      "deposit(uint256,address)": {
        "params": {
          "assets": "The amount of assets to deposit.",
          "receiver": "The address to receive the shares."
        },
        "returns": {
          "_0": "The amount of shares minted."
        }
      },
      "fees()": {
        "returns": {
          "_0": "The vault's fees."
        }
      },
      "forceRevokeStrategy(address)": {
        "details": "The vault will remove the strategy and write off any debt left in it as a loss. This function is a dangerous function as it can force a strategy to take a loss. All possible assets should be removed from the strategy first via update_debt. If a strategy is removed erroneously it can be re-added and the loss will be credited as profit. Fees will apply.",
        "params": {
          "strategy": "The strategy to force revoke."
        }
      },
      "getDebt(address)": {
        "params": {
          "strategy": "The strategy to withdraw from."
        }
      },
      "getRoleAdmin(bytes32)": {
        "details": "Returns the admin role that controls `role`. See {grantRole} and {revokeRole}. To change a role's admin, use {_setRoleAdmin}."
      },
      "grantRole(bytes32,address)": {
        "details": "Grants `role` to `account`. If `account` had not been already granted `role`, emits a {RoleGranted} event. Requirements: - the caller must have ``role``'s admin role. May emit a {RoleGranted} event."
      },
      "hasRole(bytes32,address)": {
        "details": "Returns `true` if `account` has been granted `role`."
      },
      "maxDeposit(address)": {
        "params": {
          "receiver": "The address that will receive the shares."
        },
        "returns": {
          "_0": "The maximum amount of assets that can be deposited."
        }
      },
      "maxMint(address)": {
        "params": {
          "receiver": "The address that will receive the shares."
        },
        "returns": {
          "_0": "The maximum amount of shares that can be minted."
        }
      },
      "maxRedeem(address,uint256,address[])": {
        "details": "Complies to normal 4626 interface and takes custom params.",
        "params": {
          "_strategies": "Custom strategies queue if any.",
          "maxLoss": "Custom maxLoss if any.",
          "owner": "The address that owns the shares."
        },
        "returns": {
          "_0": "The maximum amount of shares that can be redeemed."
        }
      },
      "maxWithdraw(address,uint256,address[])": {
        "details": "Complies to normal 4626 interface and takes custom params.",
        "params": {
          "_strategies": "Custom strategies queue if any.",
          "maxLoss": "Custom maxLoss if any.",
          "owner": "The address that owns the shares."
        },
        "returns": {
          "_0": "The maximum amount of assets that can be withdrawn."
        }
      },
      "mint(uint256,address)": {
        "params": {
          "receiver": "The address to receive the shares.",
          "shares": "The amount of shares to mint."
        },
        "returns": {
          "_0": "The amount of assets deposited."
        }
      },
      "permit(address,address,uint256,uint256,uint8,bytes32,bytes32)": {
        "params": {
          "amount": "The amount of shares to approve.",
          "deadline": "The deadline for the permit.",
          "owner": "The address to approve.",
          "r": "The r component of the signature.",
          "s": "The s component of the signature.",
          "spender": "The address to approve.",
          "v": "The v component of the signature."
        },
        "returns": {
          "_0": "True if the approval was successful."
        }
      },
      "previewDeposit(uint256)": {
        "params": {
          "assets": "The amount of assets to deposit."
        },
        "returns": {
          "_0": "The amount of shares that would be minted."
        }
      },
      "previewMint(uint256)": {
        "params": {
          "shares": "The amount of shares to mint."
        },
        "returns": {
          "_0": "The amount of assets that would be deposited."
        }
      },
      "previewRedeem(uint256)": {
        "params": {
          "shares": "The amount of shares to redeem."
        },
        "returns": {
          "_0": "The amount of assets that would be withdrawn."
        }
      },
      "previewWithdraw(uint256)": {
        "params": {
          "assets": "The amount of assets to withdraw."
        },
        "returns": {
          "_0": "The amount of shares that would be redeemed."
        }
      },
      "pricePerShare()": {
        "details": "This value offers limited precision. Integrations that require exact precision should use convertToAssets or convertToShares instead.",
        "returns": {
          "_0": "The price per share."
        }
      },
      "processReport(address)": {
        "details": "Processing a report means comparing the debt that the strategy has taken with the current amount of funds it is reporting. If the strategy owes less than it currently has, it means it has had a profit, else (assets < debt) it has had a loss. Different strategies might choose different reporting strategies: pessimistic, only realised P&L, ... The best way to report depends on the strategy. The profit will be distributed following a smooth curve over the vaults profitMaxUnlockTime seconds. Losses will be taken immediately, first from the profit buffer (avoiding an impact in pps), then will reduce pps. Any applicable fees are charged and distributed during the report as well to the specified recipients.",
        "params": {
          "strategy": "The strategy to process the report for."
        },
        "returns": {
          "_0": "The gain and loss of the strategy."
        }
      },
      "redeem(uint256,address,address,uint256,address[])": {
        "details": "The default behavior is to allow losses to be realized.",
        "params": {
          "_strategies": "Optional array of strategies to withdraw from.",
          "maxLoss": "Optional amount of acceptable loss in Basis Points.",
          "owner": "The address who's shares are being burnt.",
          "receiver": "The address to receive the assets.",
          "shares": "The amount of shares to burn."
        },
        "returns": {
          "_0": "The amount of assets actually withdrawn."
        }
      },
      "renounceRole(bytes32,address)": {
        "details": "Revokes `role` from the calling account. Roles are often managed via {grantRole} and {revokeRole}: this function's purpose is to provide a mechanism for accounts to lose their privileges if they are compromised (such as when a trusted device is misplaced). If the calling account had been revoked `role`, emits a {RoleRevoked} event. Requirements: - the caller must be `account`. May emit a {RoleRevoked} event."
      },
      "revokeRole(bytes32,address)": {
        "details": "Revokes `role` from `account`. If `account` had been granted `role`, emits a {RoleRevoked} event. Requirements: - the caller must have ``role``'s admin role. May emit a {RoleRevoked} event."
      },
      "revokeStrategy(address)": {
        "params": {
          "strategy": "The strategy to revoke."
        }
      },
      "setAccountant(address)": {
        "params": {
          "newAccountant": "The new accountant address."
        }
      },
      "setDefaultQueue(address[])": {
        "details": "Will check each strategy to make sure it is active.",
        "params": {
          "newDefaultQueue": "The new default queue array."
        }
      },
      "setDepositLimit(uint256)": {
        "details": "Can not be changed if a depositLimitModule is set or if shutdown.",
        "params": {
          "_depositLimit": "The new deposit limit."
        }
      },
      "setDepositLimitModule(address)": {
        "details": "The default `depositLimit` will need to be set to max uint256 since the module will override it.",
        "params": {
          "_depositLimitModule": "Address of the module."
        }
      },
      "setMinimumTotalIdle(uint256)": {
        "params": {
          "_minimumTotalIdle": "The new minimum total idle."
        }
      },
      "setProfitMaxUnlockTime(uint256)": {
        "details": "The time is denominated in seconds and must be less than 1 year.  We only need to update locking period if setting to 0,  since the current period will use the old rate and on the next  report it will be reset with the new unlocking time.  Setting to 0 will cause any currently locked profit to instantly unlock and an immediate increase in the vaults Price Per Share.",
        "params": {
          "_newProfitMaxUnlockTime": "The new profit max unlock time."
        }
      },
      "setUseDefaultQueue(bool)": {
        "details": "If set `True` the default queue will always be used no matter whats passed in.",
        "params": {
          "_useDefaultQueue": "new value."
        }
      },
      "setWithdrawLimitModule(address)": {
        "details": "This will override the default `maxWithdraw`.",
        "params": {
          "_withdrawLimitModule": "Address of the module."
        }
      },
      "supportsInterface(bytes4)": {
        "details": "See {IERC165-supportsInterface}."
      },
      "totalAssets()": {
        "returns": {
          "_0": "The total assets held by the vault."
        }
      },
      "totalSupply()": {
        "returns": {
          "_0": "The total supply of shares."
        }
      },
      "transfer(address,uint256)": {
        "params": {
          "amount": "The amount of shares to transfer.",
          "receiver": "The address to transfer shares to."
        },
        "returns": {
          "_0": "True if the transfer was successful."
        }
      },
      "transferFrom(address,address,uint256)": {
        "params": {
          "amount": "The amount of shares to transfer.",
          "receiver": "The address to transfer shares to.",
          "sender": "The address to transfer shares from."
        },
        "returns": {
          "_0": "True if the transfer was successful."
        }
      },
      "unlockedShares()": {
        "returns": {
          "_0": "The amount of shares that are have been unlocked."
        }
      },
      "updateDebt(address,address,uint256)": {
        "params": {
          "strategy": "The strategy to update the debt for.",
          "targetDebt": "The target debt for the strategy."
        },
        "returns": {
          "_0": "The amount of debt added or removed."
        }
      },
      "updateMaxDebtForStrategy(address,uint256)": {
        "params": {
          "newMaxDebt": "The new max debt for the strategy.",
          "strategy": "The strategy to update the max debt for."
        }
      },
      "withdraw(uint256,address,address,uint256,address[])": {
        "details": "The default behavior is to not allow any loss.",
        "params": {
          "_strategies": "Optional array of strategies to withdraw from.",
          "assets": "The amount of asset to withdraw.",
          "maxLoss": "Optional amount of acceptable loss in Basis Points.",
          "owner": "The address who's shares are being burnt.",
          "receiver": "The address to receive the assets."
        },
        "returns": {
          "_0": "The amount of shares actually burnt."
        }
      }
    },
    "title": "Fathom Vault",
    "version": 1
  },
  "userdoc": {
    "kind": "user",
    "methods": {
      "DOMAIN_SEPARATOR()": {
        "notice": "EIP-2612 permit() domain separator."
      },
      "DOMAIN_TYPE_HASH()": {
        "notice": "EIP-2612 permit() typehashes"
      },
      "MAX_BPS()": {
        "notice": "100% in Basis Points."
      },
      "MAX_BPS_EXTENDED()": {
        "notice": "Extended for profit locking calculations."
      },
      "MAX_FEE_BPS()": {
        "notice": "50% in BPS for fees."
      },
      "MAX_QUEUE()": {
        "notice": "The max length the withdrawal queue can be."
      },
      "ONE_YEAR()": {
        "notice": "One year constant for calculating the profit unlocking rate."
      },
      "STRATEGY_MANAGER()": {
        "notice": "Roles"
      },
      "accountant()": {
        "notice": "Contract that charges fees and can give refunds."
      },
      "addStrategy(address)": {
        "notice": "Add a new strategy."
      },
      "allowance(address,address)": {
        "notice": "Get the allowance for a spender."
      },
      "apiVersion()": {
        "notice": "The version of this vault."
      },
      "approve(address,uint256)": {
        "notice": "Approve an address to spend the vault's shares."
      },
      "assessShareOfUnrealisedLosses(address,uint256)": {
        "notice": "Assess the share of unrealised losses for a strategy."
      },
      "asset()": {
        "notice": "Get the address of the asset."
      },
      "balanceOf(address)": {
        "notice": "Get the balance of a user."
      },
      "buyDebt(address,uint256)": {
        "notice": "Used for governance to buy bad debt from the vault."
      },
      "convertToAssets(uint256)": {
        "notice": "Convert an amount of shares to assets."
      },
      "convertToShares(uint256)": {
        "notice": "Convert an amount of assets to shares."
      },
      "customFeeBPS()": {
        "notice": "The custom fee BPS charged for withdrawals."
      },
      "customFeeRecipient()": {
        "notice": "Address of the custom fee recipient."
      },
      "decimals()": {
        "notice": "Get the number of decimals of the asset/share."
      },
      "defaultQueue(uint256)": {
        "notice": "The current default withdrawal queue."
      },
      "deposit(uint256,address)": {
        "notice": "Deposit assets into the vault."
      },
      "depositLimit()": {
        "notice": "Maximum amount of tokens that the vault can accept. If totalAssets > deposit_limit, deposits will revert."
      },
      "depositLimitModule()": {
        "notice": "Contract to control the deposit limit."
      },
      "factory()": {
        "notice": "Factory address"
      },
      "fees()": {
        "notice": "Get the vault's fees."
      },
      "forceRevokeStrategy(address)": {
        "notice": "Force revoke a strategy."
      },
      "fullProfitUnlockDate()": {
        "notice": "The timestamp of when the current unlocking period ends."
      },
      "futureRoleManager()": {
        "notice": "Temporary variable to store the address of the next role_manager until the role is accepted."
      },
      "getDebt(address)": {
        "notice": "Get debt for a strategy."
      },
      "getDefaultQueueLength()": {
        "notice": "Get default strategy queue length."
      },
      "lastProfitUpdate()": {
        "notice": "Last timestamp of the most recent profitable report."
      },
      "maxDeposit(address)": {
        "notice": "Get the maximum amount of assets that can be deposited."
      },
      "maxMint(address)": {
        "notice": "Get the maximum amount of shares that can be minted."
      },
      "maxRedeem(address,uint256,address[])": {
        "notice": "Get the maximum amount of shares that can be redeemed."
      },
      "maxWithdraw(address,uint256,address[])": {
        "notice": "Get the maximum amount of assets that can be withdrawn."
      },
      "minimumTotalIdle()": {
        "notice": "Minimum amount of assets that should be kept in the vault contract to allow for fast, cheap redeems."
      },
      "mint(uint256,address)": {
        "notice": "Mint shares for the receiver."
      },
      "name()": {
        "notice": "ERC20 - name of the vault's token"
      },
      "nonces(address)": {
        "notice": "EIP-2612 permit() nonces"
      },
      "permit(address,address,uint256,uint256,uint8,bytes32,bytes32)": {
        "notice": "Approve an address to spend the vault's shares."
      },
      "previewDeposit(uint256)": {
        "notice": "Preview the amount of shares that would be minted for a deposit."
      },
      "previewMint(uint256)": {
        "notice": "Preview the amount of assets that would be deposited for a mint."
      },
      "previewRedeem(uint256)": {
        "notice": "Preview the amount of assets that would be withdrawn for a redeem."
      },
      "previewWithdraw(uint256)": {
        "notice": "Preview the amount of shares that would be redeemed for a withdraw."
      },
      "pricePerShare()": {
        "notice": "Get the price per share (pps) of the vault."
      },
      "processReport(address)": {
        "notice": "Process the report of a strategy."
      },
      "profitMaxUnlockTime()": {
        "notice": "The amount of time profits will unlock over."
      },
      "profitUnlockingRate()": {
        "notice": "The per second rate at which profit will unlock."
      },
      "redeem(uint256,address,address,uint256,address[])": {
        "notice": "Redeems an amount of shares of `owners` shares sending funds to `receiver`."
      },
      "revokeStrategy(address)": {
        "notice": "Revoke a strategy."
      },
      "roleManager()": {
        "notice": "Address that can add and remove roles to addresses."
      },
      "setAccountant(address)": {
        "notice": "Set the new accountant address."
      },
      "setDefaultQueue(address[])": {
        "notice": "Set the new default queue array."
      },
      "setDepositLimit(uint256)": {
        "notice": "Set the new deposit limit."
      },
      "setDepositLimitModule(address)": {
        "notice": "Set a contract to handle the deposit limit."
      },
      "setFees(uint256,uint256,uint256,address)": {
        "notice": "Set fees and refunds."
      },
      "setMinimumTotalIdle(uint256)": {
        "notice": "Set the new minimum total idle."
      },
      "setProfitMaxUnlockTime(uint256)": {
        "notice": "Set the new profit max unlock time."
      },
      "setUseDefaultQueue(bool)": {
        "notice": "Set a new value for `use_default_queue`."
      },
      "setWithdrawLimitModule(address)": {
        "notice": "Set a contract to handle the withdraw limit."
      },
      "shutdown()": {
        "notice": "State of the vault - if set to true, only withdrawals will be available. It can't be reverted."
      },
      "shutdownVault()": {
        "notice": "Shutdown the vault."
      },
      "strategies(address)": {
        "notice": "HashMap that records all the strategies that are allowed to receive assets from the vault."
      },
      "symbol()": {
        "notice": "ERC20 - symbol of the vault's token"
      },
      "totalAssets()": {
        "notice": "Get the total assets held by the vault."
      },
      "totalDebt()": {
        "notice": "Total amount of assets that has been deposited in strategies."
      },
      "totalIdle()": {
        "notice": "Current assets held in the vault contract. Replacing balanceOf(this) to avoid pricePerShare manipulation."
      },
      "totalSupply()": {
        "notice": "Get the total supply of shares."
      },
      "totalSupplyAmount()": {
        "notice": "Total amount of shares that are currently minted including those locked. NOTE: To get the ERC20 compliant version use totalSupply()."
      },
      "transfer(address,uint256)": {
        "notice": "Transfer shares to a receiver."
      },
      "transferFrom(address,address,uint256)": {
        "notice": "Transfer shares from a sender to a receiver."
      },
      "unlockedShares()": {
        "notice": "Get the amount of shares that have been unlocked."
      },
      "updateDebt(address,address,uint256)": {
        "notice": "Update the debt for a strategy."
      },
      "updateMaxDebtForStrategy(address,uint256)": {
        "notice": "Update the max debt for a strategy."
      },
      "useDefaultQueue()": {
        "notice": "Should the vault use the default_queue regardless whats passed in."
      },
      "withdraw(uint256,address,address,uint256,address[])": {
        "notice": "Withdraw an amount of asset to `receiver` burning `owner`s shares."
      },
      "withdrawLimitModule()": {
        "notice": "Contract to control the withdraw limit."
      }
    },
    "notice": "The Fathom Vault is designed as a non-opinionated system to distribute funds of depositors for a specific `asset` into different opportunities (aka Strategies) and manage accounting in a robust way.",
    "version": 1
  },
  "storageLayout": {
    "storage": [
      {
        "astId": 24,
        "contract": "contracts/packages/VaultPackage.sol:VaultPackage",
        "label": "_roles",
        "offset": 0,
        "slot": "0",
        "type": "t_mapping(t_bytes32,t_struct(RoleData)19_storage)"
      },
      {
        "astId": 399,
        "contract": "contracts/packages/VaultPackage.sol:VaultPackage",
        "label": "_status",
        "offset": 0,
        "slot": "1",
        "type": "t_uint256"
      },
      {
        "astId": 1973,
        "contract": "contracts/packages/VaultPackage.sol:VaultPackage",
        "label": "totalSupplyAmount",
        "offset": 0,
        "slot": "2",
        "type": "t_uint256"
      },
      {
        "astId": 1976,
        "contract": "contracts/packages/VaultPackage.sol:VaultPackage",
        "label": "totalDebt",
        "offset": 0,
        "slot": "3",
        "type": "t_uint256"
      },
      {
        "astId": 1979,
        "contract": "contracts/packages/VaultPackage.sol:VaultPackage",
        "label": "totalIdle",
        "offset": 0,
        "slot": "4",
        "type": "t_uint256"
      },
      {
        "astId": 1982,
        "contract": "contracts/packages/VaultPackage.sol:VaultPackage",
        "label": "minimumTotalIdle",
        "offset": 0,
        "slot": "5",
        "type": "t_uint256"
      },
      {
        "astId": 1985,
        "contract": "contracts/packages/VaultPackage.sol:VaultPackage",
        "label": "depositLimit",
        "offset": 0,
        "slot": "6",
        "type": "t_uint256"
      },
      {
        "astId": 1988,
        "contract": "contracts/packages/VaultPackage.sol:VaultPackage",
        "label": "profitMaxUnlockTime",
        "offset": 0,
        "slot": "7",
        "type": "t_uint256"
      },
      {
        "astId": 1991,
        "contract": "contracts/packages/VaultPackage.sol:VaultPackage",
        "label": "fullProfitUnlockDate",
        "offset": 0,
        "slot": "8",
        "type": "t_uint256"
      },
      {
        "astId": 1994,
        "contract": "contracts/packages/VaultPackage.sol:VaultPackage",
        "label": "profitUnlockingRate",
        "offset": 0,
        "slot": "9",
        "type": "t_uint256"
      },
      {
        "astId": 1997,
        "contract": "contracts/packages/VaultPackage.sol:VaultPackage",
        "label": "lastProfitUpdate",
        "offset": 0,
        "slot": "10",
        "type": "t_uint256"
      },
      {
        "astId": 2000,
        "contract": "contracts/packages/VaultPackage.sol:VaultPackage",
        "label": "accountant",
        "offset": 0,
        "slot": "11",
        "type": "t_address"
      },
      {
        "astId": 2003,
        "contract": "contracts/packages/VaultPackage.sol:VaultPackage",
        "label": "depositLimitModule",
        "offset": 0,
        "slot": "12",
        "type": "t_address"
      },
      {
        "astId": 2006,
        "contract": "contracts/packages/VaultPackage.sol:VaultPackage",
        "label": "withdrawLimitModule",
        "offset": 0,
        "slot": "13",
        "type": "t_address"
      },
      {
        "astId": 2009,
        "contract": "contracts/packages/VaultPackage.sol:VaultPackage",
        "label": "roleManager",
        "offset": 0,
        "slot": "14",
        "type": "t_address"
      },
      {
        "astId": 2012,
        "contract": "contracts/packages/VaultPackage.sol:VaultPackage",
        "label": "futureRoleManager",
        "offset": 0,
        "slot": "15",
        "type": "t_address"
      },
      {
        "astId": 2015,
        "contract": "contracts/packages/VaultPackage.sol:VaultPackage",
        "label": "factory",
        "offset": 0,
        "slot": "16",
        "type": "t_address"
      },
      {
        "astId": 2018,
        "contract": "contracts/packages/VaultPackage.sol:VaultPackage",
        "label": "customFeeRecipient",
        "offset": 0,
        "slot": "17",
        "type": "t_address"
      },
      {
        "astId": 2022,
        "contract": "contracts/packages/VaultPackage.sol:VaultPackage",
        "label": "assetContract",
        "offset": 0,
        "slot": "18",
        "type": "t_contract(IERC20Metadata)556"
      },
      {
        "astId": 2025,
        "contract": "contracts/packages/VaultPackage.sol:VaultPackage",
        "label": "customFeeBPS",
        "offset": 20,
        "slot": "18",
        "type": "t_uint16"
      },
      {
        "astId": 2028,
        "contract": "contracts/packages/VaultPackage.sol:VaultPackage",
        "label": "useDefaultQueue",
        "offset": 22,
        "slot": "18",
        "type": "t_bool"
      },
      {
        "astId": 2031,
        "contract": "contracts/packages/VaultPackage.sol:VaultPackage",
        "label": "shutdown",
        "offset": 23,
        "slot": "18",
        "type": "t_bool"
      },
      {
        "astId": 2034,
        "contract": "contracts/packages/VaultPackage.sol:VaultPackage",
        "label": "initialized",
        "offset": 24,
        "slot": "18",
        "type": "t_bool"
      },
      {
        "astId": 2037,
        "contract": "contracts/packages/VaultPackage.sol:VaultPackage",
        "label": "decimalsValue",
        "offset": 25,
        "slot": "18",
        "type": "t_uint8"
      },
      {
        "astId": 2040,
        "contract": "contracts/packages/VaultPackage.sol:VaultPackage",
        "label": "sharesName",
        "offset": 0,
        "slot": "19",
        "type": "t_string_storage"
      },
      {
        "astId": 2043,
        "contract": "contracts/packages/VaultPackage.sol:VaultPackage",
        "label": "sharesSymbol",
        "offset": 0,
        "slot": "20",
        "type": "t_string_storage"
      },
      {
        "astId": 2047,
        "contract": "contracts/packages/VaultPackage.sol:VaultPackage",
        "label": "defaultQueue",
        "offset": 0,
        "slot": "21",
        "type": "t_array(t_address)dyn_storage"
      },
      {
        "astId": 2050,
        "contract": "contracts/packages/VaultPackage.sol:VaultPackage",
        "label": "customFees",
        "offset": 0,
        "slot": "22",
        "type": "t_struct(FeeAssessment)2094_storage"
      },
      {
        "astId": 2056,
        "contract": "contracts/packages/VaultPackage.sol:VaultPackage",
        "label": "strategies",
        "offset": 0,
        "slot": "26",
        "type": "t_mapping(t_address,t_struct(StrategyParams)2085_storage)"
      },
      {
        "astId": 2061,
        "contract": "contracts/packages/VaultPackage.sol:VaultPackage",
        "label": "sharesBalanceOf",
        "offset": 0,
        "slot": "27",
        "type": "t_mapping(t_address,t_uint256)"
      },
      {
        "astId": 2068,
        "contract": "contracts/packages/VaultPackage.sol:VaultPackage",
        "label": "sharesAllowance",
        "offset": 0,
        "slot": "28",
        "type": "t_mapping(t_address,t_mapping(t_address,t_uint256))"
      },
      {
        "astId": 2073,
        "contract": "contracts/packages/VaultPackage.sol:VaultPackage",
        "label": "nonces",
        "offset": 0,
        "slot": "29",
        "type": "t_mapping(t_address,t_uint256)"
      }
    ],
    "types": {
      "t_address": {
        "encoding": "inplace",
        "label": "address",
        "numberOfBytes": "20"
      },
      "t_array(t_address)dyn_storage": {
        "base": "t_address",
        "encoding": "dynamic_array",
        "label": "address[]",
        "numberOfBytes": "32"
      },
      "t_bool": {
        "encoding": "inplace",
        "label": "bool",
        "numberOfBytes": "1"
      },
      "t_bytes32": {
        "encoding": "inplace",
        "label": "bytes32",
        "numberOfBytes": "32"
      },
      "t_contract(IERC20Metadata)556": {
        "encoding": "inplace",
        "label": "contract IERC20Metadata",
        "numberOfBytes": "20"
      },
      "t_mapping(t_address,t_bool)": {
        "encoding": "mapping",
        "key": "t_address",
        "label": "mapping(address => bool)",
        "numberOfBytes": "32",
        "value": "t_bool"
      },
      "t_mapping(t_address,t_mapping(t_address,t_uint256))": {
        "encoding": "mapping",
        "key": "t_address",
        "label": "mapping(address => mapping(address => uint256))",
        "numberOfBytes": "32",
        "value": "t_mapping(t_address,t_uint256)"
      },
      "t_mapping(t_address,t_struct(StrategyParams)2085_storage)": {
        "encoding": "mapping",
        "key": "t_address",
        "label": "mapping(address => struct StrategyParams)",
        "numberOfBytes": "32",
        "value": "t_struct(StrategyParams)2085_storage"
      },
      "t_mapping(t_address,t_uint256)": {
        "encoding": "mapping",
        "key": "t_address",
        "label": "mapping(address => uint256)",
        "numberOfBytes": "32",
        "value": "t_uint256"
      },
      "t_mapping(t_bytes32,t_struct(RoleData)19_storage)": {
        "encoding": "mapping",
        "key": "t_bytes32",
        "label": "mapping(bytes32 => struct AccessControl.RoleData)",
        "numberOfBytes": "32",
        "value": "t_struct(RoleData)19_storage"
      },
      "t_string_storage": {
        "encoding": "bytes",
        "label": "string",
        "numberOfBytes": "32"
      },
      "t_struct(FeeAssessment)2094_storage": {
        "encoding": "inplace",
        "label": "struct FeeAssessment",
        "members": [
          {
            "astId": 2087,
            "contract": "contracts/packages/VaultPackage.sol:VaultPackage",
            "label": "totalFees",
            "offset": 0,
            "slot": "0",
            "type": "t_uint256"
          },
          {
            "astId": 2089,
            "contract": "contracts/packages/VaultPackage.sol:VaultPackage",
            "label": "totalRefunds",
            "offset": 0,
            "slot": "1",
            "type": "t_uint256"
          },
          {
            "astId": 2091,
            "contract": "contracts/packages/VaultPackage.sol:VaultPackage",
            "label": "protocolFees",
            "offset": 0,
            "slot": "2",
            "type": "t_uint256"
          },
          {
            "astId": 2093,
            "contract": "contracts/packages/VaultPackage.sol:VaultPackage",
            "label": "protocolFeeRecipient",
            "offset": 0,
            "slot": "3",
            "type": "t_address"
          }
        ],
        "numberOfBytes": "128"
      },
      "t_struct(RoleData)19_storage": {
        "encoding": "inplace",
        "label": "struct AccessControl.RoleData",
        "members": [
          {
            "astId": 16,
            "contract": "contracts/packages/VaultPackage.sol:VaultPackage",
            "label": "members",
            "offset": 0,
            "slot": "0",
            "type": "t_mapping(t_address,t_bool)"
          },
          {
            "astId": 18,
            "contract": "contracts/packages/VaultPackage.sol:VaultPackage",
            "label": "adminRole",
            "offset": 0,
            "slot": "1",
            "type": "t_bytes32"
          }
        ],
        "numberOfBytes": "64"
      },
      "t_struct(StrategyParams)2085_storage": {
        "encoding": "inplace",
        "label": "struct StrategyParams",
        "members": [
          {
            "astId": 2078,
            "contract": "contracts/packages/VaultPackage.sol:VaultPackage",
            "label": "activation",
            "offset": 0,
            "slot": "0",
            "type": "t_uint256"
          },
          {
            "astId": 2080,
            "contract": "contracts/packages/VaultPackage.sol:VaultPackage",
            "label": "lastReport",
            "offset": 0,
            "slot": "1",
            "type": "t_uint256"
          },
          {
            "astId": 2082,
            "contract": "contracts/packages/VaultPackage.sol:VaultPackage",
            "label": "currentDebt",
            "offset": 0,
            "slot": "2",
            "type": "t_uint256"
          },
          {
            "astId": 2084,
            "contract": "contracts/packages/VaultPackage.sol:VaultPackage",
            "label": "maxDebt",
            "offset": 0,
            "slot": "3",
            "type": "t_uint256"
          }
        ],
        "numberOfBytes": "128"
      },
      "t_uint16": {
        "encoding": "inplace",
        "label": "uint16",
        "numberOfBytes": "2"
      },
      "t_uint256": {
        "encoding": "inplace",
        "label": "uint256",
        "numberOfBytes": "32"
      },
      "t_uint8": {
        "encoding": "inplace",
        "label": "uint8",
        "numberOfBytes": "1"
      }
    }
  }
}