{
  "_format": "hh-sol-artifact-1",
  "contractName": "VaultPackage",
  "sourceName": "contracts/packages/VaultPackage.sol",
  "abi": [
    {
      "inputs": [],
      "name": "AlreadyInitialized",
      "type": "error"
    },
    {
      "inputs": [],
      "name": "AmountTooHigh",
      "type": "error"
    },
    {
      "inputs": [],
      "name": "DebtDidntChange",
      "type": "error"
    },
    {
      "inputs": [
        {
          "internalType": "uint256",
          "name": "newDebt",
          "type": "uint256"
        },
        {
          "internalType": "uint256",
          "name": "maxDebt",
          "type": "uint256"
        }
      ],
      "name": "DebtHigherThanMaxDebt",
      "type": "error"
    },
    {
      "inputs": [],
      "name": "ERC20ApprovalFailed",
      "type": "error"
    },
    {
      "inputs": [
        {
          "internalType": "uint256",
          "name": "currentAllowance",
          "type": "uint256"
        }
      ],
      "name": "ERC20InsufficientAllowance",
      "type": "error"
    },
    {
      "inputs": [],
      "name": "ERC20PermitExpired",
      "type": "error"
    },
    {
      "inputs": [
        {
          "internalType": "address",
          "name": "recoveredAddress",
          "type": "address"
        }
      ],
      "name": "ERC20PermitInvalidSignature",
      "type": "error"
    },
    {
      "inputs": [],
      "name": "ERC20TransferFailed",
      "type": "error"
    },
    {
      "inputs": [
        {
          "internalType": "uint256",
          "name": "recipientMaxDeposit",
          "type": "uint256"
        }
      ],
      "name": "ExceedDepositLimit",
      "type": "error"
    },
    {
      "inputs": [
        {
          "internalType": "uint256",
          "name": "recipientMaxWithdraw",
          "type": "uint256"
        }
      ],
      "name": "ExceedWithdrawLimit",
      "type": "error"
    },
    {
      "inputs": [],
      "name": "FeeExceedsMax",
      "type": "error"
    },
    {
      "inputs": [
        {
          "internalType": "address",
          "name": "strategy",
          "type": "address"
        }
      ],
      "name": "InactiveStrategy",
      "type": "error"
    },
    {
      "inputs": [],
      "name": "InactiveVault",
      "type": "error"
    },
    {
      "inputs": [
        {
          "internalType": "uint256",
          "name": "currTotalIdle",
          "type": "uint256"
        },
        {
          "internalType": "uint256",
          "name": "requestedAssets",
          "type": "uint256"
        }
      ],
      "name": "InsufficientAssets",
      "type": "error"
    },
    {
      "inputs": [],
      "name": "InsufficientFunds",
      "type": "error"
    },
    {
      "inputs": [
        {
          "internalType": "uint256",
          "name": "balanceOfOwner",
          "type": "uint256"
        }
      ],
      "name": "InsufficientShares",
      "type": "error"
    },
    {
      "inputs": [
        {
          "internalType": "address",
          "name": "asset",
          "type": "address"
        }
      ],
      "name": "InvalidAsset",
      "type": "error"
    },
    {
      "inputs": [],
      "name": "InvalidAssetDecimals",
      "type": "error"
    },
    {
      "inputs": [],
      "name": "MaxLoss",
      "type": "error"
    },
    {
      "inputs": [],
      "name": "ProfitUnlockTimeTooLong",
      "type": "error"
    },
    {
      "inputs": [],
      "name": "SelfApprove",
      "type": "error"
    },
    {
      "inputs": [],
      "name": "SelfTransfer",
      "type": "error"
    },
    {
      "inputs": [],
      "name": "StrategyAlreadyActive",
      "type": "error"
    },
    {
      "inputs": [
        {
          "internalType": "uint256",
          "name": "strageyCurrentDebt",
          "type": "uint256"
        }
      ],
      "name": "StrategyDebtIsLessThanAssetsNeeded",
      "type": "error"
    },
    {
      "inputs": [
        {
          "internalType": "uint256",
          "name": "debt",
          "type": "uint256"
        }
      ],
      "name": "StrategyHasDebt",
      "type": "error"
    },
    {
      "inputs": [
        {
          "internalType": "uint256",
          "name": "unrealisedLosses",
          "type": "uint256"
        }
      ],
      "name": "StrategyHasUnrealisedLosses",
      "type": "error"
    },
    {
      "inputs": [],
      "name": "TooMuchLoss",
      "type": "error"
    },
    {
      "inputs": [],
      "name": "UsingDepositLimit",
      "type": "error"
    },
    {
      "inputs": [],
      "name": "UsingModule",
      "type": "error"
    },
    {
      "inputs": [],
      "name": "VaultReceiver",
      "type": "error"
    },
    {
      "inputs": [],
      "name": "ZeroAddress",
      "type": "error"
    },
    {
      "inputs": [],
      "name": "ZeroValue",
      "type": "error"
    },
    {
      "anonymous": false,
      "inputs": [
        {
          "indexed": true,
          "internalType": "address",
          "name": "owner",
          "type": "address"
        },
        {
          "indexed": true,
          "internalType": "address",
          "name": "spender",
          "type": "address"
        },
        {
          "indexed": false,
          "internalType": "uint256",
          "name": "value",
          "type": "uint256"
        }
      ],
      "name": "Approval",
      "type": "event"
    },
    {
      "anonymous": false,
      "inputs": [
        {
          "indexed": true,
          "internalType": "address",
          "name": "strategy",
          "type": "address"
        },
        {
          "indexed": false,
          "internalType": "uint256",
          "name": "amount",
          "type": "uint256"
        }
      ],
      "name": "DebtPurchased",
      "type": "event"
    },
    {
      "anonymous": false,
      "inputs": [
        {
          "indexed": true,
          "internalType": "address",
          "name": "strategy",
          "type": "address"
        },
        {
          "indexed": false,
          "internalType": "uint256",
          "name": "currentDebt",
          "type": "uint256"
        },
        {
          "indexed": false,
          "internalType": "uint256",
          "name": "newDebt",
          "type": "uint256"
        }
      ],
      "name": "DebtUpdated",
      "type": "event"
    },
    {
      "anonymous": false,
      "inputs": [
        {
          "indexed": true,
          "internalType": "address",
          "name": "sender",
          "type": "address"
        },
        {
          "indexed": true,
          "internalType": "address",
          "name": "owner",
          "type": "address"
        },
        {
          "indexed": false,
          "internalType": "uint256",
          "name": "assets",
          "type": "uint256"
        },
        {
          "indexed": false,
          "internalType": "uint256",
          "name": "shares",
          "type": "uint256"
        }
      ],
      "name": "Deposit",
      "type": "event"
    },
    {
      "anonymous": false,
      "inputs": [
        {
          "indexed": true,
          "internalType": "bytes32",
          "name": "role",
          "type": "bytes32"
        },
        {
          "indexed": true,
          "internalType": "bytes32",
          "name": "previousAdminRole",
          "type": "bytes32"
        },
        {
          "indexed": true,
          "internalType": "bytes32",
          "name": "newAdminRole",
          "type": "bytes32"
        }
      ],
      "name": "RoleAdminChanged",
      "type": "event"
    },
    {
      "anonymous": false,
      "inputs": [
        {
          "indexed": true,
          "internalType": "bytes32",
          "name": "role",
          "type": "bytes32"
        },
        {
          "indexed": true,
          "internalType": "address",
          "name": "account",
          "type": "address"
        },
        {
          "indexed": true,
          "internalType": "address",
          "name": "sender",
          "type": "address"
        }
      ],
      "name": "RoleGranted",
      "type": "event"
    },
    {
      "anonymous": false,
      "inputs": [
        {
          "indexed": true,
          "internalType": "bytes32",
          "name": "role",
          "type": "bytes32"
        },
        {
          "indexed": true,
          "internalType": "address",
          "name": "account",
          "type": "address"
        },
        {
          "indexed": true,
          "internalType": "address",
          "name": "sender",
          "type": "address"
        }
      ],
      "name": "RoleRevoked",
      "type": "event"
    },
    {
      "anonymous": false,
      "inputs": [
        {
          "indexed": true,
          "internalType": "address",
          "name": "account",
          "type": "address"
        },
        {
          "indexed": false,
          "internalType": "bytes32",
          "name": "role",
          "type": "bytes32"
        }
      ],
      "name": "RoleSet",
      "type": "event"
    },
    {
      "anonymous": false,
      "inputs": [
        {
          "indexed": true,
          "internalType": "bytes32",
          "name": "role",
          "type": "bytes32"
        },
        {
          "indexed": false,
          "internalType": "enum RoleStatusChange",
          "name": "status",
          "type": "uint8"
        }
      ],
      "name": "RoleStatusChanged",
      "type": "event"
    },
    {
      "anonymous": false,
      "inputs": [],
      "name": "Shutdown",
      "type": "event"
    },
    {
      "anonymous": false,
      "inputs": [
        {
          "indexed": true,
          "internalType": "address",
          "name": "strategy",
          "type": "address"
        },
        {
          "indexed": false,
          "internalType": "enum StrategyChangeType",
          "name": "changeType",
          "type": "uint8"
        }
      ],
      "name": "StrategyChanged",
      "type": "event"
    },
    {
      "anonymous": false,
      "inputs": [
        {
          "indexed": true,
          "internalType": "address",
          "name": "strategy",
          "type": "address"
        },
        {
          "indexed": false,
          "internalType": "uint256",
          "name": "gain",
          "type": "uint256"
        },
        {
          "indexed": false,
          "internalType": "uint256",
          "name": "loss",
          "type": "uint256"
        },
        {
          "indexed": false,
          "internalType": "uint256",
          "name": "currentDebt",
          "type": "uint256"
        },
        {
          "indexed": false,
          "internalType": "uint256",
          "name": "protocolFees",
          "type": "uint256"
        },
        {
          "indexed": false,
          "internalType": "uint256",
          "name": "totalFees",
          "type": "uint256"
        },
        {
          "indexed": false,
          "internalType": "uint256",
          "name": "totalRefunds",
          "type": "uint256"
        }
      ],
      "name": "StrategyReported",
      "type": "event"
    },
    {
      "anonymous": false,
      "inputs": [
        {
          "indexed": true,
          "internalType": "address",
          "name": "from",
          "type": "address"
        },
        {
          "indexed": true,
          "internalType": "address",
          "name": "to",
          "type": "address"
        },
        {
          "indexed": false,
          "internalType": "uint256",
          "name": "value",
          "type": "uint256"
        }
      ],
      "name": "Transfer",
      "type": "event"
    },
    {
      "anonymous": false,
      "inputs": [
        {
          "indexed": false,
          "internalType": "address",
          "name": "accountant",
          "type": "address"
        }
      ],
      "name": "UpdatedAccountant",
      "type": "event"
    },
    {
      "anonymous": false,
      "inputs": [
        {
          "indexed": false,
          "internalType": "address[]",
          "name": "newDefaultQueue",
          "type": "address[]"
        }
      ],
      "name": "UpdatedDefaultQueue",
      "type": "event"
    },
    {
      "anonymous": false,
      "inputs": [
        {
          "indexed": false,
          "internalType": "uint256",
          "name": "depositLimit",
          "type": "uint256"
        }
      ],
      "name": "UpdatedDepositLimit",
      "type": "event"
    },
    {
      "anonymous": false,
      "inputs": [
        {
          "indexed": false,
          "internalType": "address",
          "name": "depositLimitModule",
          "type": "address"
        }
      ],
      "name": "UpdatedDepositLimitModule",
      "type": "event"
    },
    {
      "anonymous": false,
      "inputs": [
        {
          "indexed": false,
          "internalType": "uint256",
          "name": "totalFees",
          "type": "uint256"
        },
        {
          "indexed": false,
          "internalType": "uint256",
          "name": "totalRefunds",
          "type": "uint256"
        },
        {
          "indexed": false,
          "internalType": "uint256",
          "name": "protocolFees",
          "type": "uint256"
        },
        {
          "indexed": false,
          "internalType": "address",
          "name": "protocolFeeRecipient",
          "type": "address"
        }
      ],
      "name": "UpdatedFees",
      "type": "event"
    },
    {
      "anonymous": false,
      "inputs": [
        {
          "indexed": true,
          "internalType": "address",
          "name": "sender",
          "type": "address"
        },
        {
          "indexed": true,
          "internalType": "address",
          "name": "strategy",
          "type": "address"
        },
        {
          "indexed": false,
          "internalType": "uint256",
          "name": "newDebt",
          "type": "uint256"
        }
      ],
      "name": "UpdatedMaxDebtForStrategy",
      "type": "event"
    },
    {
      "anonymous": false,
      "inputs": [
        {
          "indexed": false,
          "internalType": "uint256",
          "name": "minimumTotalIdle",
          "type": "uint256"
        }
      ],
      "name": "UpdatedMinimumTotalIdle",
      "type": "event"
    },
    {
      "anonymous": false,
      "inputs": [
        {
          "indexed": false,
          "internalType": "uint256",
          "name": "profitMaxUnlockTime",
          "type": "uint256"
        }
      ],
      "name": "UpdatedProfitMaxUnlockTime",
      "type": "event"
    },
    {
      "anonymous": false,
      "inputs": [
        {
          "indexed": false,
          "internalType": "bool",
          "name": "useDefaultQueue",
          "type": "bool"
        }
      ],
      "name": "UpdatedUseDefaultQueue",
      "type": "event"
    },
    {
      "anonymous": false,
      "inputs": [
        {
          "indexed": false,
          "internalType": "address",
          "name": "withdrawLimitModule",
          "type": "address"
        }
      ],
      "name": "UpdatedWithdrawLimitModule",
      "type": "event"
    },
    {
      "anonymous": false,
      "inputs": [
        {
          "indexed": true,
          "internalType": "address",
          "name": "sender",
          "type": "address"
        },
        {
          "indexed": true,
          "internalType": "address",
          "name": "receiver",
          "type": "address"
        },
        {
          "indexed": true,
          "internalType": "address",
          "name": "owner",
          "type": "address"
        },
        {
          "indexed": false,
          "internalType": "uint256",
          "name": "assets",
          "type": "uint256"
        },
        {
          "indexed": false,
          "internalType": "uint256",
          "name": "shares",
          "type": "uint256"
        }
      ],
      "name": "Withdraw",
      "type": "event"
    },
    {
      "inputs": [],
      "name": "DEBT_PURCHASER",
      "outputs": [
        {
          "internalType": "bytes32",
          "name": "",
          "type": "bytes32"
        }
      ],
      "stateMutability": "view",
      "type": "function"
    },
    {
      "inputs": [],
      "name": "DEFAULT_ADMIN_ROLE",
      "outputs": [
        {
          "internalType": "bytes32",
          "name": "",
          "type": "bytes32"
        }
      ],
      "stateMutability": "view",
      "type": "function"
    },
    {
      "inputs": [],
      "name": "DOMAIN_SEPARATOR",
      "outputs": [
        {
          "internalType": "bytes32",
          "name": "",
          "type": "bytes32"
        }
      ],
      "stateMutability": "view",
      "type": "function"
    },
    {
      "inputs": [],
      "name": "DOMAIN_TYPE_HASH",
      "outputs": [
        {
          "internalType": "bytes32",
          "name": "",
          "type": "bytes32"
        }
      ],
      "stateMutability": "view",
      "type": "function"
    },
    {
      "inputs": [],
      "name": "MAX_BPS",
      "outputs": [
        {
          "internalType": "uint256",
          "name": "",
          "type": "uint256"
        }
      ],
      "stateMutability": "view",
      "type": "function"
    },
    {
      "inputs": [],
      "name": "MAX_BPS_EXTENDED",
      "outputs": [
        {
          "internalType": "uint256",
          "name": "",
          "type": "uint256"
        }
      ],
      "stateMutability": "view",
      "type": "function"
    },
    {
      "inputs": [],
      "name": "MAX_QUEUE",
      "outputs": [
        {
          "internalType": "uint256",
          "name": "",
          "type": "uint256"
        }
      ],
      "stateMutability": "view",
      "type": "function"
    },
    {
      "inputs": [],
      "name": "ONE_YEAR",
      "outputs": [
        {
          "internalType": "uint256",
          "name": "",
          "type": "uint256"
        }
      ],
      "stateMutability": "view",
      "type": "function"
    },
    {
      "inputs": [],
      "name": "PERMIT_TYPE_HASH",
      "outputs": [
        {
          "internalType": "bytes32",
          "name": "",
          "type": "bytes32"
        }
      ],
      "stateMutability": "view",
      "type": "function"
    },
    {
      "inputs": [],
      "name": "REPORTING_MANAGER",
      "outputs": [
        {
          "internalType": "bytes32",
          "name": "",
          "type": "bytes32"
        }
      ],
      "stateMutability": "view",
      "type": "function"
    },
    {
      "inputs": [],
      "name": "STRATEGY_MANAGER",
      "outputs": [
        {
          "internalType": "bytes32",
          "name": "",
          "type": "bytes32"
        }
      ],
      "stateMutability": "view",
      "type": "function"
    },
    {
      "inputs": [],
      "name": "accountant",
      "outputs": [
        {
          "internalType": "address",
          "name": "",
          "type": "address"
        }
      ],
      "stateMutability": "view",
      "type": "function"
    },
    {
      "inputs": [
        {
          "internalType": "address",
          "name": "newStrategy",
          "type": "address"
        }
      ],
      "name": "addStrategy",
      "outputs": [],
      "stateMutability": "nonpayable",
      "type": "function"
    },
    {
      "inputs": [
        {
          "internalType": "address",
          "name": "owner",
          "type": "address"
        },
        {
          "internalType": "address",
          "name": "spender",
          "type": "address"
        }
      ],
      "name": "allowance",
      "outputs": [
        {
          "internalType": "uint256",
          "name": "",
          "type": "uint256"
        }
      ],
      "stateMutability": "view",
      "type": "function"
    },
    {
      "inputs": [],
      "name": "apiVersion",
      "outputs": [
        {
          "internalType": "string",
          "name": "",
          "type": "string"
        }
      ],
      "stateMutability": "pure",
      "type": "function"
    },
    {
      "inputs": [
        {
          "internalType": "address",
          "name": "spender",
          "type": "address"
        },
        {
          "internalType": "uint256",
          "name": "amount",
          "type": "uint256"
        }
      ],
      "name": "approve",
      "outputs": [
        {
          "internalType": "bool",
          "name": "",
          "type": "bool"
        }
      ],
      "stateMutability": "nonpayable",
      "type": "function"
    },
    {
      "inputs": [
        {
          "internalType": "address",
          "name": "strategy",
          "type": "address"
        },
        {
          "internalType": "uint256",
          "name": "assetsNeeded",
          "type": "uint256"
        }
      ],
      "name": "assessShareOfUnrealisedLosses",
      "outputs": [
        {
          "internalType": "uint256",
          "name": "",
          "type": "uint256"
        }
      ],
      "stateMutability": "view",
      "type": "function"
    },
    {
      "inputs": [],
      "name": "asset",
      "outputs": [
        {
          "internalType": "address",
          "name": "",
          "type": "address"
        }
      ],
      "stateMutability": "view",
      "type": "function"
    },
    {
      "inputs": [
        {
          "internalType": "address",
          "name": "addr",
          "type": "address"
        }
      ],
      "name": "balanceOf",
      "outputs": [
        {
          "internalType": "uint256",
          "name": "",
          "type": "uint256"
        }
      ],
      "stateMutability": "view",
      "type": "function"
    },
    {
      "inputs": [
        {
          "internalType": "address",
          "name": "strategy",
          "type": "address"
        },
        {
          "internalType": "uint256",
          "name": "amount",
          "type": "uint256"
        }
      ],
      "name": "buyDebt",
      "outputs": [],
      "stateMutability": "nonpayable",
      "type": "function"
    },
    {
      "inputs": [
        {
          "internalType": "uint256",
          "name": "shares",
          "type": "uint256"
        }
      ],
      "name": "convertToAssets",
      "outputs": [
        {
          "internalType": "uint256",
          "name": "",
          "type": "uint256"
        }
      ],
      "stateMutability": "view",
      "type": "function"
    },
    {
      "inputs": [
        {
          "internalType": "uint256",
          "name": "assets",
          "type": "uint256"
        }
      ],
      "name": "convertToShares",
      "outputs": [
        {
          "internalType": "uint256",
          "name": "",
          "type": "uint256"
        }
      ],
      "stateMutability": "view",
      "type": "function"
    },
    {
      "inputs": [],
      "name": "decimals",
      "outputs": [
        {
          "internalType": "uint8",
          "name": "",
          "type": "uint8"
        }
      ],
      "stateMutability": "view",
      "type": "function"
    },
    {
      "inputs": [
        {
          "internalType": "uint256",
          "name": "",
          "type": "uint256"
        }
      ],
      "name": "defaultQueue",
      "outputs": [
        {
          "internalType": "address",
          "name": "",
          "type": "address"
        }
      ],
      "stateMutability": "view",
      "type": "function"
    },
    {
      "inputs": [
        {
          "internalType": "uint256",
          "name": "assets",
          "type": "uint256"
        },
        {
          "internalType": "address",
          "name": "receiver",
          "type": "address"
        }
      ],
      "name": "deposit",
      "outputs": [
        {
          "internalType": "uint256",
          "name": "",
          "type": "uint256"
        }
      ],
      "stateMutability": "nonpayable",
      "type": "function"
    },
    {
      "inputs": [],
      "name": "depositLimit",
      "outputs": [
        {
          "internalType": "uint256",
          "name": "",
          "type": "uint256"
        }
      ],
      "stateMutability": "view",
      "type": "function"
    },
    {
      "inputs": [],
      "name": "depositLimitModule",
      "outputs": [
        {
          "internalType": "address",
          "name": "",
          "type": "address"
        }
      ],
      "stateMutability": "view",
      "type": "function"
    },
    {
      "inputs": [],
      "name": "factory",
      "outputs": [
        {
          "internalType": "address",
          "name": "",
          "type": "address"
        }
      ],
      "stateMutability": "view",
      "type": "function"
    },
    {
      "inputs": [
        {
          "internalType": "address",
          "name": "strategy",
          "type": "address"
        }
      ],
      "name": "forceRevokeStrategy",
      "outputs": [],
      "stateMutability": "nonpayable",
      "type": "function"
    },
    {
      "inputs": [],
      "name": "fullProfitUnlockDate",
      "outputs": [
        {
          "internalType": "uint256",
          "name": "",
          "type": "uint256"
        }
      ],
      "stateMutability": "view",
      "type": "function"
    },
    {
      "inputs": [
        {
          "internalType": "address",
          "name": "strategy",
          "type": "address"
        }
      ],
      "name": "getDebt",
      "outputs": [
        {
          "internalType": "uint256",
          "name": "",
          "type": "uint256"
        }
      ],
      "stateMutability": "view",
      "type": "function"
    },
    {
      "inputs": [],
      "name": "getDefaultQueue",
      "outputs": [
        {
          "internalType": "address[]",
          "name": "",
          "type": "address[]"
        }
      ],
      "stateMutability": "view",
      "type": "function"
    },
    {
      "inputs": [],
      "name": "getDefaultQueueLength",
      "outputs": [
        {
          "internalType": "uint256",
          "name": "length",
          "type": "uint256"
        }
      ],
      "stateMutability": "view",
      "type": "function"
    },
    {
      "inputs": [
        {
          "internalType": "bytes32",
          "name": "role",
          "type": "bytes32"
        }
      ],
      "name": "getRoleAdmin",
      "outputs": [
        {
          "internalType": "bytes32",
          "name": "",
          "type": "bytes32"
        }
      ],
      "stateMutability": "view",
      "type": "function"
    },
    {
      "inputs": [
        {
          "internalType": "bytes32",
          "name": "role",
          "type": "bytes32"
        },
        {
          "internalType": "address",
          "name": "account",
          "type": "address"
        }
      ],
      "name": "grantRole",
      "outputs": [],
      "stateMutability": "nonpayable",
      "type": "function"
    },
    {
      "inputs": [
        {
          "internalType": "bytes32",
          "name": "role",
          "type": "bytes32"
        },
        {
          "internalType": "address",
          "name": "account",
          "type": "address"
        }
      ],
      "name": "hasRole",
      "outputs": [
        {
          "internalType": "bool",
          "name": "",
          "type": "bool"
        }
      ],
      "stateMutability": "view",
      "type": "function"
    },
    {
      "inputs": [
        {
          "internalType": "uint256",
          "name": "_profitMaxUnlockTime",
          "type": "uint256"
        },
        {
          "internalType": "address",
          "name": "_asset",
          "type": "address"
        },
        {
          "internalType": "string",
          "name": "_name",
          "type": "string"
        },
        {
          "internalType": "string",
          "name": "_symbol",
          "type": "string"
        },
        {
          "internalType": "address",
          "name": "_accountant",
          "type": "address"
        },
        {
          "internalType": "address",
          "name": "_admin",
          "type": "address"
        }
      ],
      "name": "initialize",
      "outputs": [],
      "stateMutability": "nonpayable",
      "type": "function"
    },
    {
      "inputs": [],
      "name": "lastProfitUpdate",
      "outputs": [
        {
          "internalType": "uint256",
          "name": "",
          "type": "uint256"
        }
      ],
      "stateMutability": "view",
      "type": "function"
    },
    {
      "inputs": [
        {
          "internalType": "address",
          "name": "receiver",
          "type": "address"
        }
      ],
      "name": "maxDeposit",
      "outputs": [
        {
          "internalType": "uint256",
          "name": "",
          "type": "uint256"
        }
      ],
      "stateMutability": "view",
      "type": "function"
    },
    {
      "inputs": [
        {
          "internalType": "address",
          "name": "receiver",
          "type": "address"
        }
      ],
      "name": "maxMint",
      "outputs": [
        {
          "internalType": "uint256",
          "name": "",
          "type": "uint256"
        }
      ],
      "stateMutability": "view",
      "type": "function"
    },
    {
      "inputs": [
        {
          "internalType": "address",
          "name": "owner",
          "type": "address"
        },
        {
          "internalType": "uint256",
          "name": "maxLoss",
          "type": "uint256"
        },
        {
          "internalType": "address[]",
          "name": "_strategies",
          "type": "address[]"
        }
      ],
      "name": "maxRedeem",
      "outputs": [
        {
          "internalType": "uint256",
          "name": "",
          "type": "uint256"
        }
      ],
      "stateMutability": "view",
      "type": "function"
    },
    {
      "inputs": [
        {
          "internalType": "address",
          "name": "owner",
          "type": "address"
        },
        {
          "internalType": "uint256",
          "name": "maxLoss",
          "type": "uint256"
        },
        {
          "internalType": "address[]",
          "name": "_strategies",
          "type": "address[]"
        }
      ],
      "name": "maxWithdraw",
      "outputs": [
        {
          "internalType": "uint256",
          "name": "",
          "type": "uint256"
        }
      ],
      "stateMutability": "view",
      "type": "function"
    },
    {
      "inputs": [],
      "name": "minimumTotalIdle",
      "outputs": [
        {
          "internalType": "uint256",
          "name": "",
          "type": "uint256"
        }
      ],
      "stateMutability": "view",
      "type": "function"
    },
    {
      "inputs": [
        {
          "internalType": "uint256",
          "name": "shares",
          "type": "uint256"
        },
        {
          "internalType": "address",
          "name": "receiver",
          "type": "address"
        }
      ],
      "name": "mint",
      "outputs": [
        {
          "internalType": "uint256",
          "name": "",
          "type": "uint256"
        }
      ],
      "stateMutability": "nonpayable",
      "type": "function"
    },
    {
      "inputs": [],
      "name": "name",
      "outputs": [
        {
          "internalType": "string",
          "name": "",
          "type": "string"
        }
      ],
      "stateMutability": "view",
      "type": "function"
    },
    {
      "inputs": [
        {
          "internalType": "address",
          "name": "",
          "type": "address"
        }
      ],
      "name": "nonces",
      "outputs": [
        {
          "internalType": "uint256",
          "name": "",
          "type": "uint256"
        }
      ],
      "stateMutability": "view",
      "type": "function"
    },
    {
      "inputs": [
        {
          "internalType": "address",
          "name": "owner",
          "type": "address"
        },
        {
          "internalType": "address",
          "name": "spender",
          "type": "address"
        },
        {
          "internalType": "uint256",
          "name": "amount",
          "type": "uint256"
        },
        {
          "internalType": "uint256",
          "name": "deadline",
          "type": "uint256"
        },
        {
          "internalType": "uint8",
          "name": "v",
          "type": "uint8"
        },
        {
          "internalType": "bytes32",
          "name": "r",
          "type": "bytes32"
        },
        {
          "internalType": "bytes32",
          "name": "s",
          "type": "bytes32"
        }
      ],
      "name": "permit",
      "outputs": [
        {
          "internalType": "bool",
          "name": "",
          "type": "bool"
        }
      ],
      "stateMutability": "nonpayable",
      "type": "function"
    },
    {
      "inputs": [
        {
          "internalType": "uint256",
          "name": "assets",
          "type": "uint256"
        }
      ],
      "name": "previewDeposit",
      "outputs": [
        {
          "internalType": "uint256",
          "name": "",
          "type": "uint256"
        }
      ],
      "stateMutability": "view",
      "type": "function"
    },
    {
      "inputs": [
        {
          "internalType": "uint256",
          "name": "shares",
          "type": "uint256"
        }
      ],
      "name": "previewMint",
      "outputs": [
        {
          "internalType": "uint256",
          "name": "",
          "type": "uint256"
        }
      ],
      "stateMutability": "view",
      "type": "function"
    },
    {
      "inputs": [
        {
          "internalType": "uint256",
          "name": "shares",
          "type": "uint256"
        }
      ],
      "name": "previewRedeem",
      "outputs": [
        {
          "internalType": "uint256",
          "name": "",
          "type": "uint256"
        }
      ],
      "stateMutability": "view",
      "type": "function"
    },
    {
      "inputs": [
        {
          "internalType": "uint256",
          "name": "assets",
          "type": "uint256"
        }
      ],
      "name": "previewWithdraw",
      "outputs": [
        {
          "internalType": "uint256",
          "name": "",
          "type": "uint256"
        }
      ],
      "stateMutability": "view",
      "type": "function"
    },
    {
      "inputs": [],
      "name": "pricePerShare",
      "outputs": [
        {
          "internalType": "uint256",
          "name": "",
          "type": "uint256"
        }
      ],
      "stateMutability": "view",
      "type": "function"
    },
    {
      "inputs": [
        {
          "internalType": "address",
          "name": "strategy",
          "type": "address"
        }
      ],
      "name": "processReport",
      "outputs": [
        {
          "internalType": "uint256",
          "name": "",
          "type": "uint256"
        },
        {
          "internalType": "uint256",
          "name": "",
          "type": "uint256"
        }
      ],
      "stateMutability": "nonpayable",
      "type": "function"
    },
    {
      "inputs": [],
      "name": "profitMaxUnlockTime",
      "outputs": [
        {
          "internalType": "uint256",
          "name": "",
          "type": "uint256"
        }
      ],
      "stateMutability": "view",
      "type": "function"
    },
    {
      "inputs": [],
      "name": "profitUnlockingRate",
      "outputs": [
        {
          "internalType": "uint256",
          "name": "",
          "type": "uint256"
        }
      ],
      "stateMutability": "view",
      "type": "function"
    },
    {
      "inputs": [
        {
          "internalType": "uint256",
          "name": "shares",
          "type": "uint256"
        },
        {
          "internalType": "address",
          "name": "receiver",
          "type": "address"
        },
        {
          "internalType": "address",
          "name": "owner",
          "type": "address"
        },
        {
          "internalType": "uint256",
          "name": "maxLoss",
          "type": "uint256"
        },
        {
          "internalType": "address[]",
          "name": "_strategies",
          "type": "address[]"
        }
      ],
      "name": "redeem",
      "outputs": [
        {
          "internalType": "uint256",
          "name": "",
          "type": "uint256"
        }
      ],
      "stateMutability": "nonpayable",
      "type": "function"
    },
    {
      "inputs": [
        {
          "internalType": "bytes32",
          "name": "role",
          "type": "bytes32"
        },
        {
          "internalType": "address",
          "name": "account",
          "type": "address"
        }
      ],
      "name": "renounceRole",
      "outputs": [],
      "stateMutability": "nonpayable",
      "type": "function"
    },
    {
      "inputs": [
        {
          "internalType": "bytes32",
          "name": "role",
          "type": "bytes32"
        },
        {
          "internalType": "address",
          "name": "account",
          "type": "address"
        }
      ],
      "name": "revokeRole",
      "outputs": [],
      "stateMutability": "nonpayable",
      "type": "function"
    },
    {
      "inputs": [
        {
          "internalType": "address",
          "name": "strategy",
          "type": "address"
        }
      ],
      "name": "revokeStrategy",
      "outputs": [],
      "stateMutability": "nonpayable",
      "type": "function"
    },
    {
      "inputs": [
        {
          "internalType": "address",
          "name": "newAccountant",
          "type": "address"
        }
      ],
      "name": "setAccountant",
      "outputs": [],
      "stateMutability": "nonpayable",
      "type": "function"
    },
    {
      "inputs": [
        {
          "internalType": "address[]",
          "name": "newDefaultQueue",
          "type": "address[]"
        }
      ],
      "name": "setDefaultQueue",
      "outputs": [],
      "stateMutability": "nonpayable",
      "type": "function"
    },
    {
      "inputs": [
        {
          "internalType": "uint256",
          "name": "_depositLimit",
          "type": "uint256"
        }
      ],
      "name": "setDepositLimit",
      "outputs": [],
      "stateMutability": "nonpayable",
      "type": "function"
    },
    {
      "inputs": [
        {
          "internalType": "address",
          "name": "_depositLimitModule",
          "type": "address"
        }
      ],
      "name": "setDepositLimitModule",
      "outputs": [],
      "stateMutability": "nonpayable",
      "type": "function"
    },
    {
      "inputs": [
        {
          "internalType": "uint256",
          "name": "_minimumTotalIdle",
          "type": "uint256"
        }
      ],
      "name": "setMinimumTotalIdle",
      "outputs": [],
      "stateMutability": "nonpayable",
      "type": "function"
    },
    {
      "inputs": [
        {
          "internalType": "uint256",
          "name": "_newProfitMaxUnlockTime",
          "type": "uint256"
        }
      ],
      "name": "setProfitMaxUnlockTime",
      "outputs": [],
      "stateMutability": "nonpayable",
      "type": "function"
    },
    {
      "inputs": [
        {
          "internalType": "bool",
          "name": "_useDefaultQueue",
          "type": "bool"
        }
      ],
      "name": "setUseDefaultQueue",
      "outputs": [],
      "stateMutability": "nonpayable",
      "type": "function"
    },
    {
      "inputs": [
        {
          "internalType": "address",
          "name": "_withdrawLimitModule",
          "type": "address"
        }
      ],
      "name": "setWithdrawLimitModule",
      "outputs": [],
      "stateMutability": "nonpayable",
      "type": "function"
    },
    {
      "inputs": [],
      "name": "shutdown",
      "outputs": [
        {
          "internalType": "bool",
          "name": "",
          "type": "bool"
        }
      ],
      "stateMutability": "view",
      "type": "function"
    },
    {
      "inputs": [],
      "name": "shutdownVault",
      "outputs": [],
      "stateMutability": "nonpayable",
      "type": "function"
    },
    {
      "inputs": [
        {
          "internalType": "address",
          "name": "",
          "type": "address"
        }
      ],
      "name": "strategies",
      "outputs": [
        {
          "internalType": "uint256",
          "name": "activation",
          "type": "uint256"
        },
        {
          "internalType": "uint256",
          "name": "lastReport",
          "type": "uint256"
        },
        {
          "internalType": "uint256",
          "name": "currentDebt",
          "type": "uint256"
        },
        {
          "internalType": "uint256",
          "name": "maxDebt",
          "type": "uint256"
        }
      ],
      "stateMutability": "view",
      "type": "function"
    },
    {
      "inputs": [
        {
          "internalType": "bytes4",
          "name": "interfaceId",
          "type": "bytes4"
        }
      ],
      "name": "supportsInterface",
      "outputs": [
        {
          "internalType": "bool",
          "name": "",
          "type": "bool"
        }
      ],
      "stateMutability": "view",
      "type": "function"
    },
    {
      "inputs": [],
      "name": "symbol",
      "outputs": [
        {
          "internalType": "string",
          "name": "",
          "type": "string"
        }
      ],
      "stateMutability": "view",
      "type": "function"
    },
    {
      "inputs": [],
      "name": "totalAssets",
      "outputs": [
        {
          "internalType": "uint256",
          "name": "",
          "type": "uint256"
        }
      ],
      "stateMutability": "view",
      "type": "function"
    },
    {
      "inputs": [],
      "name": "totalDebt",
      "outputs": [
        {
          "internalType": "uint256",
          "name": "",
          "type": "uint256"
        }
      ],
      "stateMutability": "view",
      "type": "function"
    },
    {
      "inputs": [],
      "name": "totalIdle",
      "outputs": [
        {
          "internalType": "uint256",
          "name": "",
          "type": "uint256"
        }
      ],
      "stateMutability": "view",
      "type": "function"
    },
    {
      "inputs": [],
      "name": "totalSupply",
      "outputs": [
        {
          "internalType": "uint256",
          "name": "",
          "type": "uint256"
        }
      ],
      "stateMutability": "view",
      "type": "function"
    },
    {
      "inputs": [],
      "name": "totalSupplyAmount",
      "outputs": [
        {
          "internalType": "uint256",
          "name": "",
          "type": "uint256"
        }
      ],
      "stateMutability": "view",
      "type": "function"
    },
    {
      "inputs": [
        {
          "internalType": "address",
          "name": "receiver",
          "type": "address"
        },
        {
          "internalType": "uint256",
          "name": "amount",
          "type": "uint256"
        }
      ],
      "name": "transfer",
      "outputs": [
        {
          "internalType": "bool",
          "name": "",
          "type": "bool"
        }
      ],
      "stateMutability": "nonpayable",
      "type": "function"
    },
    {
      "inputs": [
        {
          "internalType": "address",
          "name": "sender",
          "type": "address"
        },
        {
          "internalType": "address",
          "name": "receiver",
          "type": "address"
        },
        {
          "internalType": "uint256",
          "name": "amount",
          "type": "uint256"
        }
      ],
      "name": "transferFrom",
      "outputs": [
        {
          "internalType": "bool",
          "name": "",
          "type": "bool"
        }
      ],
      "stateMutability": "nonpayable",
      "type": "function"
    },
    {
      "inputs": [],
      "name": "unlockedShares",
      "outputs": [
        {
          "internalType": "uint256",
          "name": "",
          "type": "uint256"
        }
      ],
      "stateMutability": "view",
      "type": "function"
    },
    {
      "inputs": [
        {
          "internalType": "address",
          "name": "strategy",
          "type": "address"
        },
        {
          "internalType": "uint256",
          "name": "targetDebt",
          "type": "uint256"
        }
      ],
      "name": "updateDebt",
      "outputs": [
        {
          "internalType": "uint256",
          "name": "",
          "type": "uint256"
        }
      ],
      "stateMutability": "nonpayable",
      "type": "function"
    },
    {
      "inputs": [
        {
          "internalType": "address",
          "name": "strategy",
          "type": "address"
        },
        {
          "internalType": "uint256",
          "name": "newMaxDebt",
          "type": "uint256"
        }
      ],
      "name": "updateMaxDebtForStrategy",
      "outputs": [],
      "stateMutability": "nonpayable",
      "type": "function"
    },
    {
      "inputs": [],
      "name": "useDefaultQueue",
      "outputs": [
        {
          "internalType": "bool",
          "name": "",
          "type": "bool"
        }
      ],
      "stateMutability": "view",
      "type": "function"
    },
    {
      "inputs": [
        {
          "internalType": "uint256",
          "name": "assets",
          "type": "uint256"
        },
        {
          "internalType": "address",
          "name": "receiver",
          "type": "address"
        },
        {
          "internalType": "address",
          "name": "owner",
          "type": "address"
        },
        {
          "internalType": "uint256",
          "name": "maxLoss",
          "type": "uint256"
        },
        {
          "internalType": "address[]",
          "name": "_strategies",
          "type": "address[]"
        }
      ],
      "name": "withdraw",
      "outputs": [
        {
          "internalType": "uint256",
          "name": "",
          "type": "uint256"
        }
      ],
      "stateMutability": "nonpayable",
      "type": "function"
    },
    {
      "inputs": [],
      "name": "withdrawLimitModule",
      "outputs": [
        {
          "internalType": "address",
          "name": "",
          "type": "address"
        }
      ],
      "stateMutability": "view",
      "type": "function"
    }
  ],
  "bytecode": "0x608060405234801561001057600080fd5b5060018055615d4180620000256000396000f3fe608060405234801561001057600080fd5b50600436106103d75760003560e01c806370a082311161020857806370a08231146106fb5780637ecebe001461070e5780638212fd431461072e5780638afca8f014610741578063919860031461074a57806391d148541461075d57806394bf804d1461077057806395d89b411461078357806397e958d91461078b57806399530b061461079e5780639a78e72e146107a65780639aa7df94146107d25780639bbca884146107db5780639e34e348146107ee5780639fc2c47614610801578063a217fddf14610816578063a9059cbb1461081e578063ab5b4d4914610831578063b3d7f6b914610846578063b6cc2d1f14610859578063ba71ecd41461087a578063bb994d4814610882578063bbe4eb4914610895578063bdc8144b146108a9578063c0993eea146108bc578063c45a0155146108d1578063c63d75b6146108e4578063c6e6f592146108f7578063d505accf1461090a578063d547741f1461091d578063d81a09f614610930578063d9a0e97a14610943578063dd62ed3e1461094b578063df69b22a14610984578063e5236cc914610997578063ecf708581461099f578063ef8b30f7146108f7578063f6d7bfa0146109a8578063f828f50b146109bb578063fc0e74d1146109c4578063fc7b9c18146109d8578063fd967f47146109e1578063ff1e7f08146109ea57600080fd5b806301e1d114146103dc57806301ffc9a7146103f757806303dcd12c1461041a57806306580f2d1461042f57806306fdde031461044257806307a2d13a146104575780630835a3fc1461046a5780630952864e14610473578063095ea7b31461047c5780630a28a4771461048f57806316b87ac0146104a257806316d3bfbb146104b757806318160ddd146104c2578063223e5479146104ca57806323b872dd146104dd578063248a9ca3146104f0578063258294101461050357806329f3cef51461050b5780632d632692146105205780632d772168146105295780632f2ff15d1461053c578063313ce5671461054f57806334b5fab61461056e5780633644e5151461058157806336568abe1461058957806336fba0841461059c57806338d52e0f146105a857806339ebf823146105c25780633f7b5e4014610617578063402d267d1461061f578063405977e71461063257806346e6ac491461064557806348ea7127146106585780634bbd71e91461066b5780634cdad506146104575780634d4bb1971461067e5780634fb3ccc5146106935780635141eebb146106a65780635a569099146106af578063633f228c146106c257806365cb6765146106d55780636e553f65146106e8575b600080fd5b6103e46109fd565b6040519081526020015b60405180910390f35b61040a610405366004615099565b610a0c565b60405190151581526020016103ee565b6103e4600080516020615b8c83398151915281565b6103e461043d36600461511c565b610a43565b61044a610ab4565b6040516103ee91906151bb565b6103e46104653660046151ee565b610b46565b6103e460055481565b6103e460075481565b61040a61048a366004615207565b610b53565b6103e461049d3660046151ee565b610b67565b6104b56104b0366004615233565b610b74565b005b6103e46301e1855881565b6103e4610b8e565b6104b56104d8366004615233565b610b98565b61040a6104eb366004615250565b610da4565b6103e46104fe3660046151ee565b610def565b61044a610e04565b610513610e23565b6040516103ee91906152d5565b6103e460085481565b6104b5610537366004615233565b610e84565b6104b561054a3660046152e8565b610f27565b600f54600160b81b900460ff1660405160ff90911681526020016103ee565b6103e461057c366004615318565b610f48565b6103e4610fca565b6104b56105973660046152e8565b611046565b6103e464e8d4a5100081565b600f546001600160a01b03165b6040516103ee9190615373565b6105f76105d0366004615233565b60136020526000908152604090208054600182015460028301546003909301549192909184565b6040805194855260208501939093529183015260608201526080016103ee565b6103e4600a81565b6103e461062d366004615233565b6110c0565b6104b5610640366004615207565b6110cb565b6103e4610653366004615207565b61132b565b6104b5610666366004615233565b61199f565b6104b5610679366004615233565b6119f5565b6103e4600080516020615c4c83398151915281565b600b546105b5906001600160a01b031681565b6103e460095481565b6103e46106bd366004615207565b611a4b565b6104b56106d0366004615387565b611a9d565b6103e46106e3366004615318565b611b84565b6103e46106f63660046152e8565b611bcd565b6103e4610709366004615233565b611bed565b6103e461071c366004615233565b60166020526000908152604090205481565b6104b561073c3660046151ee565b611c46565b6103e4600a5481565b600d546105b5906001600160a01b031681565b61040a61076b3660046152e8565b611c86565b6103e461077e3660046152e8565b611caf565b61044a611cc4565b6104b5610799366004615409565b611cd3565b6103e4611f07565b6103e46107b4366004615233565b6001600160a01b031660009081526013602052604090206002015490565b6103e460045481565b6104b56107e93660046154c8565b611f2d565b600c546105b5906001600160a01b031681565b6103e4600080516020615bcc83398151915281565b6103e4600081565b61040a61082c366004615207565b611f92565b6103e4600080516020615c8c83398151915281565b6103e46108543660046151ee565b611fd1565b61086c610867366004615233565b611fde565b6040516103ee9291906154e5565b6012546103e4565b6104b5610890366004615233565b61212d565b600f5461040a90600160a01b900460ff1681565b6104b56108b73660046151ee565b612150565b6103e4600080516020615cac83398151915281565b600e546105b5906001600160a01b031681565b6103e46108f2366004615233565b6121d7565b6103e46109053660046151ee565b6121f0565b61040a610918366004615502565b6121fd565b6104b561092b3660046152e8565b612415565b6103e461093e36600461511c565b612431565b6103e4612498565b6103e4610959366004615573565b6001600160a01b03918216600090815260156020908152604080832093909416825291909152205490565b6104b56109923660046151ee565b6124a2565b6104b5612533565b6103e460065481565b6104b56109b6366004615207565b612635565b6103e460025481565b600f5461040a90600160a81b900460ff1681565b6103e460035481565b6103e461271081565b6105b56109f83660046151ee565b6126e6565b6000610a07612710565b905090565b60006001600160e01b03198216637965db0b60e01b1480610a3d57506301ffc9a760e01b6001600160e01b03198316145b92915050565b6000610a4d612722565b6000610a5a88600061277b565b9050610a9e338888848c8a8a8a8080602002602001604051908101604052809392919081815260200183836020028082843760009201919091525061281192505050565b915050610aaa60018055565b9695505050505050565b606060108054610ac3906155a1565b80601f0160208091040260200160405190810160405280929190818152602001828054610aef906155a1565b8015610b3c5780601f10610b1157610100808354040283529160200191610b3c565b820191906000526020600020905b815481529060010190602001808311610b1f57829003601f168201915b5050505050905090565b6000610a3d82600061277b565b6000610b603384846128f4565b9392505050565b6000610a3d8260016129b7565b6000610b7f81612a65565b610b8a826001612a72565b5050565b6000610a07612d67565b600080516020615bcc833981519152610bb081612a65565b6001600160a01b0382161580610bce57506001600160a01b03821630145b15610bec5760405163d92e233d60e01b815260040160405180910390fd5b6000826001600160a01b03166338d52e0f6040518163ffffffff1660e01b8152600401602060405180830381865afa158015610c2c573d6000803e3d6000fd5b505050506040513d601f19601f82011682018060405250810190610c5091906155db565b600f549091506001600160a01b03808316911614610c8c57806040516337bce3c560e11b8152600401610c839190615373565b60405180910390fd5b6001600160a01b03831660009081526013602052604090205415610cc35760405163c976754d60e01b815260040160405180910390fd5b604080516080810182524280825260208083019182526000838501818152606085018281526001600160a01b038a16835260139093529490209251835590516001830155915160028201559051600390910155601254600a811015610d6e57601280546001810182556000919091527fbb8a6a4669ba250d26cd7a459eca9d215f8307e33aebe50379bc5a3617ec34440180546001600160a01b0319166001600160a01b0386161790555b836001600160a01b0316600080516020615bec8339815191526000604051610d96919061560e565b60405180910390a250505050565b6000306001600160a01b03841603610dcf5760405163ea9054fb60e01b815260040160405180910390fd5b610dda843384612d7e565b610de5848484612dee565b5060019392505050565b60009081526020819052604090206001015490565b6040805180820190915260058152640312e302e360dc1b602082015290565b60606012805480602002602001604051908101604052809291908181526020018280548015610b3c57602002820191906000526020600020905b81546001600160a01b03168152600190910190602001808311610e5d575050505050905090565b6000610e8f81612a65565b600f54600160a81b900460ff161515600103610ebe5760405163036882cf60e41b815260040160405180910390fd5b60001960065414610ee257604051634e41418560e11b815260040160405180910390fd5b600c80546001600160a01b0319166001600160a01b038416179055604051600080516020615bac83398151915290610f1b908490615373565b60405180910390a15050565b610f3082610def565b610f3981612a65565b610f438383612f1f565b505050565b600080610f898686868680806020026020016040519081016040528093929190818152602001838360200280828437600092019190915250612fa392505050565b90506000610f988260016129b7565b6001600160a01b038816600090815260146020526040902054909150610fbf908290613376565b979650505050505050565b6000600080516020615cac8339815191526010604051610fea9190615636565b6040518091039020610ffa610e04565b805160209182012060408051928301949094529281019190915260608101919091524660808201523060a082015260c00160405160208183030381529060405280519060200120905090565b6001600160a01b03811633146110b65760405162461bcd60e51b815260206004820152602f60248201527f416363657373436f6e74726f6c3a2063616e206f6e6c792072656e6f756e636560448201526e103937b632b9903337b91039b2b63360891b6064820152608401610c83565b610b8a828261338c565b6000610a3d826133f1565b600080516020615c8c8339815191526110e381612a65565b6110eb612722565b6001600160a01b0383166000908152601360205260408120549003611125578260405163489d081b60e11b8152600401610c839190615373565b6001600160a01b03831660009081526013602052604090206002015480158061114c575082155b1561116a57604051637c946ed760e01b815260040160405180910390fd5b80831115611176578092505b60008184866001600160a01b03166370a08231306040518263ffffffff1660e01b81526004016111a69190615373565b602060405180830381865afa1580156111c3573d6000803e3d6000fd5b505050506040513d601f19601f820116820180604052508101906111e791906156ac565b6111f191906156db565b6111fb9190615708565b90508060000361121e57604051637c946ed760e01b815260040160405180910390fd5b600f54611236906001600160a01b03163330876134c9565b6001600160a01b0385166000908152601360205260408120600201805486929061126190849061571c565b92505081905550836003600082825461127a919061571c565b925050819055508360046000828254611293919061572f565b90915550506001600160a01b038516600080516020615cec833981519152836112bc878261571c565b6040516112ca9291906154e5565b60405180910390a26112dd8533836135ae565b846001600160a01b03167fe94e7f88819f66c19b097748cb754149f63b1a176ed425dee1f1ee933e6d09b08560405161131891815260200190565b60405180910390a25050610f4360018055565b6000600080516020615bcc83398151915261134581612a65565b61134d612722565b6001600160a01b038416600090815260136020526040902060020154600f54849190600160a81b900460ff16151560010361138757600091505b8082036113a75760405163084df06b60e41b815260040160405180910390fd5b818111156116845760006113bb838361571c565b9050600554816004546113ce919061572f565b10156113f1576004546005546113e4919061571c565b9050818111156113f15750805b604051636c82bbbf60e11b81526000906001600160a01b038916906307a2d13a90829063d905777e90611428903090600401615373565b602060405180830381865afa158015611445573d6000803e3d6000fd5b505050506040513d601f19601f8201168201806040525081019061146991906156ac565b6040518263ffffffff1660e01b815260040161148791815260200190565b602060405180830381865afa1580156114a4573d6000803e3d6000fd5b505050506040513d601f19601f820116820180604052508101906114c891906156ac565b9050806000036114eb57604051637c946ed760e01b815260040160405180910390fd5b818110156114f7578091505b60006115038984613677565b905080156115275760405163311d104160e01b815260048101829052602401610c83565b600f546040516370a0823160e01b81526000916001600160a01b0316906370a0823190611558903090600401615373565b602060405180830381865afa158015611575573d6000803e3d6000fd5b505050506040513d601f19601f8201168201806040525081019061159991906156ac565b90506115a58a856137d7565b600f546040516370a0823160e01b81526000916001600160a01b0316906370a08231906115d6903090600401615373565b602060405180830381865afa1580156115f3573d6000803e3d6000fd5b505050506040513d601f19601f8201168201806040525081019061161791906156ac565b9050600061162e611628848461571c565b88613376565b90508581111561163c578095505b806004600082825461164e919061572f565b925050819055508560036000828254611667919061571c565b909155506116779050868861571c565b9750505050505050611946565b6001600160a01b0386166000908152601360205260409020600301548211156116df576001600160a01b03861660009081526013602052604090819020600301549051638f55f52760e01b8152610c839184916004016154e5565b60405163402d267d60e01b81526000906001600160a01b0388169063402d267d9061170e903090600401615373565b602060405180830381865afa15801561172b573d6000803e3d6000fd5b505050506040513d601f19601f8201168201806040525081019061174f91906156ac565b90508060000361177257604051637c946ed760e01b815260040160405180910390fd5b600061177e838561571c565b90508181111561178b5750805b600554600454116117af5760405163356680b760e01b815260040160405180910390fd5b60006005546004546117c1919061571c565b9050808211156117cf578091505b811561193657600f546117ec906001600160a01b03168a84613934565b600f546040516370a0823160e01b81526000916001600160a01b0316906370a082319061181d903090600401615373565b602060405180830381865afa15801561183a573d6000803e3d6000fd5b505050506040513d601f19601f8201168201806040525081019061185e91906156ac565b905061186a8a846139fd565b600f546040516370a0823160e01b81526000916001600160a01b0316906370a082319061189b903090600401615373565b602060405180830381865afa1580156118b8573d6000803e3d6000fd5b505050506040513d601f19601f820116820180604052508101906118dc91906156ac565b600f549091506118f7906001600160a01b03168c6000613934565b611901818361571c565b93508360046000828254611915919061571c565b92505081905550836003600082825461192e919061572f565b909155505050505b611940828561572f565b94505050505b6001600160a01b0386166000818152601360205260409081902060020184905551600080516020615cec8339815191529061198490849086906154e5565b60405180910390a250915061199860018055565b5092915050565b60006119aa81612a65565b600b80546001600160a01b0319166001600160a01b0384161790556040517f7421df9bb5aa804486a873c3f79b4bda8b65888cb4ceb1ce73ab3415f479adea90610f1b908490615373565b6000611a0081612a65565b600d80546001600160a01b0319166001600160a01b0384161790556040517fb02c7aec2b89901bc7caa8b5cd2ed1ede10b5dd3d3c15f2a249ef51a76a3fc9490610f1b908490615373565b6001600160a01b03821660009081526013602052604081206002015482811015611a8b57604051633327137b60e21b815260048101829052602401610c83565b611a958484613677565b949350505050565b600080516020615bcc833981519152611ab581612a65565b60005b82811015611b38576000848483818110611ad457611ad4615742565b9050602002016020810190611ae99190615233565b6001600160a01b03811660009081526013602052604081205491925003611b25578060405163489d081b60e11b8152600401610c839190615373565b5080611b3081615758565b915050611ab8565b50611b4560128484614fab565b507f3adf0cd8b4427265ab8cb9118d0b9c61b811c637fe87c5be9f2f4d91ce17cfbc8383604051611b77929190615771565b60405180910390a1505050565b6000611bc48585858580806020026020016040519081016040528093929190818152602001838360200280828437600092019190915250612fa392505050565b95945050505050565b6000611bd7612722565b611be2338385613a6e565b9050610a3d60018055565b6000306001600160a01b03831603611c2a57611c07613b98565b6001600160a01b038316600090815260146020526040902054610a3d919061571c565b506001600160a01b031660009081526014602052604090205490565b6000611c5181612a65565b60058290556040518281527f3c79c9aaa553ffa63df7f68d233487e697a31db07a59fb73fbab634e1871202090602001610f1b565b6000918252602082815260408084206001600160a01b0393909316845291905290205460ff1690565b6000611cb9612722565b611be2338385613bf6565b606060118054610ac3906155a1565b6000611cde81612a65565b600f54600160b01b900460ff161515600103611d0c5760405162dc149f60e41b815260040160405180910390fd5b6001600160a01b038216611d335760405163d92e233d60e01b815260040160405180910390fd5b6001600160a01b038216611d5a5760405163d92e233d60e01b815260040160405180910390fd5b6301e18558891115611d7f5760405163fdfbb0b760e01b815260040160405180910390fd5b6007899055600f80546001600160a01b0319166001600160a01b038a169081179091556040805163313ce56760e01b8152905163313ce567916004808201926020929091908290030181865afa158015611ddd573d6000803e3d6000fd5b505050506040513d601f19601f82011682018060405250810190611e0191906157bf565b600f805460ff60b81b1916600160b81b60ff93841681029190911791829055610100910490911610611e465760405163e236476560e01b815260040160405180910390fd5b6010611e53878983615840565b506011611e61858783615840565b50600e8054336001600160a01b031991821617909155600b80549091166001600160a01b038516179055611e96600083612f1f565b611eae600080516020615bcc83398151915283612f1f565b611ec6600080516020615b8c83398151915283612f1f565b611ede600080516020615c8c83398151915283612f1f565b611ee960003361338c565b5050600f805460ff60b01b1916600160b01b17905550505050505050565b600f54600090610a0790611f2690600160b81b900460ff16600a6159e3565b600061277b565b600080516020615bcc833981519152611f4581612a65565b600f8054831515600160a01b0260ff60a01b199091161790556040517fa9cd3583c5278952720fbec6b769ae08cbab1491fd69ae1edeb07ed07c9432f990610f1b90841515815260200190565b6000306001600160a01b03841603611fbd5760405163ea9054fb60e01b815260040160405180910390fd5b611fc8338484612dee565b50600192915050565b6000610a3d82600161277b565b600080600080516020615b8c833981519152611ff981612a65565b612001612722565b6001600160a01b038416600090815260136020526040812054900361203b578360405163489d081b60e11b8152600401610c839190615373565b612043613cde565b60008061204f86613d0e565b915091506000612060878484613e42565b905060006120798484846000015185604001518c61400d565b9050600080612089868486614134565b91509150612097828261434e565b6001600160a01b038a166000818152601360205260408082204260018201556002015490860151600080516020615c2c833981519152928a928a9290916120de919061277b565b6120f589602001518a60400151611f26919061572f565b8a6020015160405161210c969594939291906159f2565b60405180910390a25093965091945050505061212760018055565b50915091565b600080516020615bcc83398151915261214581612a65565b610b8a826000612a72565b600061215b81612a65565b600f54600160a81b900460ff16151560010361218a5760405163036882cf60e41b815260040160405180910390fd5b600c546001600160a01b0316156121b4576040516364b9991160e11b815260040160405180910390fd5b6006829055604051828152600080516020615b6c83398151915290602001610f1b565b6000806121e3836133f1565b9050610b608160006129b7565b6000610a3d8260006129b7565b60006001600160a01b0388166122265760405163d92e233d60e01b815260040160405180910390fd5b42851015612247576040516363bef56160e11b815260040160405180910390fd5b6001600160a01b038816600090815260166020526040812080549182919061226e83615758565b909155505060408051600080516020615c4c8339815191526020808301919091526001600160a01b038c8116838501528b166060830152608082018a905260a0820184905260c08083018a90528351808403909101815260e0909201909252805191012060006122dc610fca565b60405161190160f01b602082015260228101919091526042810183905260620160408051601f198184030181528282528051602091820120600080855291840180845281905260ff8b169284019290925260608301899052608083018890529092509060019060a0016020604051602081039080840390855afa158015612367573d6000803e3d6000fd5b5050604051601f1901519150506001600160a01b038116158061239c57508b6001600160a01b0316816001600160a01b031614155b156123bc5780604051633934136760e01b8152600401610c839190615373565b6123c78c8c8c6128f4565b508a6001600160a01b03168c6001600160a01b0316600080516020615c6c8339815191528c6040516123fb91815260200190565b60405180910390a35060019b9a5050505050505050505050565b61241e82610def565b61242781612a65565b610f43838361338c565b600061243b612722565b60006124488860016129b7565b905061248c3388888b858a8a8a8080602002602001604051908101604052809392919081815260200183836020028082843760009201919091525061281192505050565b509050610aaa60018055565b6000610a07613b98565b60006124ad81612a65565b6301e185588211156124d25760405163fdfbb0b760e01b815260040160405180910390fd5b816000036124fe57306000818152601460205260409020546124f3916143ef565b600060098190556008555b60078290556040518281527fc464d502702beac6615fdfda7756f59ccaf253cb2591db454c8def44d03bddd990602001610f1b565b600061253e81612a65565b600f54600160a81b900460ff16151560010361256d5760405163036882cf60e41b815260040160405180910390fd5b600f805460ff60a81b1916600160a81b179055600c546001600160a01b0316156125c957600c80546001600160a01b0319169055604051600080516020615bac833981519152906125c090600090615373565b60405180910390a15b60006006819055604051908152600080516020615b6c8339815191529060200160405180910390a1612609600080516020615bcc83398151915233612f1f565b6040517f4426aa1fb73e391071491fcfe21a88b5c38a0a0333a1f6e77161470439704cf890600090a150565b600080516020615bcc83398151915261264d81612a65565b6001600160a01b0383166000908152601360205260408120549003612687578260405163489d081b60e11b8152600401610c839190615373565b6001600160a01b038316600081815260136020526040908190206003018490555133907fb3eef2123fec1523a6bbc90aceb203000154c1a4974335fe06b544c7534d4b89906126d99086815260200190565b60405180910390a3505050565b601281815481106126f657600080fd5b6000918252602090912001546001600160a01b0316905081565b6000600354600454610a07919061572f565b6002600154036127745760405162461bcd60e51b815260206004820152601f60248201527f5265656e7472616e637947756172643a207265656e7472616e742063616c6c006044820152606401610c83565b6002600155565b600060001983148061278b575082155b15612797575081610a3d565b60006127a1612d67565b9050806000036127b45783915050610a3d565b60006127be612710565b6127c890866156db565b905060006127d68383615708565b905060018560018111156127ec576127ec6155f8565b14801561280157506127fe8383615a1a565b15155b15611bc457610aaa60018261572f565b600061281f878786866144c0565b600d546001600160a01b03161561286557600061283d878585612fa3565b90508086111561286357604051631a05c12360e11b815260048101829052602401610c83565b505b612870868986614582565b60008061287d87856145a6565b915091506128908989888a86868b614bce565b876001600160a01b0316896001600160a01b03168b6001600160a01b03167ffbde797d201c681b91056529119e0b02407c7bb96a4a2c75c01fc9667232c8db858a6040516128df9291906154e5565b60405180910390a45098975050505050505050565b60006001600160a01b038416158061291357506001600160a01b038316155b156129315760405163d92e233d60e01b815260040160405180910390fd5b826001600160a01b0316846001600160a01b031603612963576040516332db50d960e01b815260040160405180910390fd5b6001600160a01b038481166000818152601560209081526040808320948816808452948252918290208690559051858152600080516020615c6c833981519152910160405180910390a35060019392505050565b60006000198314806129c7575082155b156129d3575081610a3d565b60006129dd612d67565b905060006129e9612710565b905080600003612a105781600003612a05578492505050610a3d565b600092505050610a3d565b6000612a1c83876156db565b90506000612a2a8383615708565b90506001866001811115612a4057612a406155f8565b148015612a555750612a528383615a1a565b15155b15610aaa57610fbf60018261572f565b612a6f8133614c5a565b50565b6001600160a01b0382166000908152601360205260408120549003612aac578160405163489d081b60e11b8152600401610c839190615373565b6001600160a01b03821660009081526013602052604081206002015415612b805781612b0c576001600160a01b038316600090815260136020526040908190206002015490516357d8a97560e11b81526004810191909152602401610c83565b506001600160a01b0382166000908152601360205260408120600201546003805491928392612b3c90849061571c565b92505081905550826001600160a01b0316600080516020615c2c833981519152600083600080600080604051612b77969594939291906159f2565b60405180910390a25b6040805160808101825260008082526020808301828152838501838152606085018481526001600160a01b038a16855260139093529490922092518355905160018301559151600282015590516003909101556012548015612d3f578060005b82811015612c4357856001600160a01b031660128281548110612c0557612c05615742565b6000918252602090912001546001600160a01b031603612c315781612c2981615a2e565b925050612c43565b80612c3b81615758565b915050612be0565b50818114612d3d576000816001600160401b03811115612c6557612c656157dc565b604051908082528060200260200182016040528015612c8e578160200160208202803683370190505b5090506000805b84811015612d2557600060128281548110612cb257612cb2615742565b6000918252602090912001546001600160a01b03908116915089168114612d1257808484612cdf81615758565b955081518110612cf157612cf1615742565b60200260200101906001600160a01b031690816001600160a01b0316815250505b5080612d1d81615758565b915050612c95565b508151612d3990601290602085019061500e565b5050505b505b836001600160a01b0316600080516020615bec8339815191526001604051610d96919061560e565b6000612d71613b98565b600254610a07919061571c565b6001600160a01b03808416600090815260156020908152604080832093861683529290522054600019811015612de85781811015612dd257604051631649cee760e01b815260048101829052602401610c83565b612de68484612de1858561571c565b6128f4565b505b50505050565b6001600160a01b03831660009081526014602052604090205481811015612e285760405163356680b760e01b815260040160405180910390fd5b6001600160a01b0384161580612e4557506001600160a01b038316155b15612e635760405163d92e233d60e01b815260040160405180910390fd5b826001600160a01b0316846001600160a01b031603612e9557604051634d9ecd9160e01b815260040160405180910390fd5b612e9f828261571c565b6001600160a01b038086166000908152601460205260408082209390935590851681522054612ece838261572f565b6001600160a01b038086166000818152601460205260409081902093909355915190871690600080516020615c0c83398151915290612f109087815260200190565b60405180910390a35050505050565b612f298282611c86565b610b8a576000828152602081815260408083206001600160a01b03851684529091529020805460ff19166001179055612f5f3390565b6001600160a01b0316816001600160a01b0316837f2f8788117e7eff1d82e926ec794901d17c78024a50270940304540a733656f0d60405160405180910390a45050565b6001600160a01b0383166000908152601460205260408120548190612fc8908261277b565b600d549091506001600160a01b03161561306857600d54604051632319b8cf60e01b81526000916001600160a01b031690632319b8cf9061301190899089908990600401615a45565b602060405180830381865afa15801561302e573d6000803e3d6000fd5b505050506040513d601f19601f8201168201806040525081019061305291906156ac565b905081811015613060578091505b509050610b60565b6004548082111561336d57835181906000908190158015906130945750600f54600160a01b900460ff16155b6130f85760128054806020026020016040519081016040528092919081815260200182805480156130ee57602002820191906000526020600020905b81546001600160a01b031681526001909101906020018083116130d0575b50505050506130fa565b865b905060005b815181101561336657600082828151811061311c5761311c615742565b6020026020010151905060136000826001600160a01b03166001600160a01b0316815260200190815260200160002060000154600003613171578060405163489d081b60e11b8152600401610c839190615373565b60006131a1613180878a61571c565b6001600160a01b038416600090815260136020526040902060020154613376565b905060006131af8383613677565b90506000836001600160a01b03166307a2d13a856001600160a01b031663d905777e306040518263ffffffff1660e01b81526004016131ee9190615373565b602060405180830381865afa15801561320b573d6000803e3d6000fd5b505050506040513d601f19601f8201168201806040525081019061322f91906156ac565b6040518263ffffffff1660e01b815260040161324d91815260200190565b602060405180830381865afa15801561326a573d6000803e3d6000fd5b505050506040513d601f19601f8201168201806040525081019061328e91906156ac565b905061329a828461571c565b8110156132c557826132ac82846156db565b6132b69190615708565b91506132c2828261572f565b92505b826000036132d65750505050613354565b6000821180156132e757506127108d105b15613327576127108d6132fa858b61572f565b61330491906156db565b61330e9190615708565b613318838961572f565b11156133275750505050613366565b613331838961572f565b97508988106133435750505050613366565b61334d828861572f565b9650505050505b8061335e81615758565b9150506130ff565b5091935050505b50949350505050565b60008183106133855781610b60565b5090919050565b6133968282611c86565b15610b8a576000828152602081815260408083206001600160a01b0385168085529252808320805460ff1916905551339285917ff6391f5c32d9c69d2a47ea670b442974b53935d1edc7fd64eb21e047a839171b9190a45050565b60006001600160a01b03821630148061341157506001600160a01b038216155b1561341e57506000919050565b600c546001600160a01b0316801561349d57604051632355178960e11b81526001600160a01b038216906346aa2f129061345c908690600401615373565b602060405180830381865afa158015613479573d6000803e3d6000fd5b505050506040513d601f19601f82011682018060405250810190610b6091906156ac565b60006134a7612710565b6006549091508082106134bf57506000949350505050565b611bc4828261571c565b6001600160a01b03841615806134e657506001600160a01b038316155b806134f857506001600160a01b038216155b156135165760405163d92e233d60e01b815260040160405180910390fd5b6040516323b872dd60e01b81526001600160a01b0384811660048301528381166024830152604482018390528516906323b872dd906064016020604051808303816000875af115801561356d573d6000803e3d6000fd5b505050506040513d601f19601f820116820180604052508101906135919190615a6c565b612de857604051633c9fd93960e21b815260040160405180910390fd5b6001600160a01b03831615806135cb57506001600160a01b038216155b156135e95760405163d92e233d60e01b815260040160405180910390fd5b60405163a9059cbb60e01b81526001600160a01b0384169063a9059cbb906136179085908590600401615a89565b6020604051808303816000875af1158015613636573d6000803e3d6000fd5b505050506040513d601f19601f8201168201806040525081019061365a9190615a6c565b610f4357604051633c9fd93960e21b815260040160405180910390fd5b6001600160a01b0382166000818152601360205260408082206002015490516370a0823160e01b8152919290918391906370a08231906136bb903090600401615373565b602060405180830381865afa1580156136d8573d6000803e3d6000fd5b505050506040513d601f19601f820116820180604052508101906136fc91906156ac565b6040516303d1689d60e11b8152600481018290529091506000906001600160a01b038716906307a2d13a90602401602060405180830381865afa158015613747573d6000803e3d6000fd5b505050506040513d601f19601f8201168201806040525081019061376b91906156ac565b9050828110158061377a575082155b1561378b5760009350505050610a3d565b600061379782876156db565b905060006137a58583615708565b6137af908861571c565b90506137bb8583615a1a565b15610fbf576137cb60018261572f565b98975050505050505050565b604051630a28a47760e01b8152600481018290526000906138b9906001600160a01b03851690630a28a47790602401602060405180830381865afa158015613823573d6000803e3d6000fd5b505050506040513d601f19601f8201168201806040525081019061384791906156ac565b6040516370a0823160e01b81526001600160a01b038616906370a0823190613873903090600401615373565b602060405180830381865afa158015613890573d6000803e3d6000fd5b505050506040513d601f19601f820116820180604052508101906138b491906156ac565b613376565b604051635d043b2960e11b815260048101829052306024820181905260448201529091506001600160a01b0384169063ba087652906064016020604051808303816000875af1158015613910573d6000803e3d6000fd5b505050506040513d601f19601f82011682018060405250810190612de891906156ac565b6001600160a01b038316158061395157506001600160a01b038216155b1561396f5760405163d92e233d60e01b815260040160405180910390fd5b60405163095ea7b360e01b81526001600160a01b0384169063095ea7b39061399d9085908590600401615a89565b6020604051808303816000875af11580156139bc573d6000803e3d6000fd5b505050506040513d601f19601f820116820180604052508101906139e09190615a6c565b610f4357604051631946df2360e31b815260040160405180910390fd5b604051636e553f6560e01b8152600481018290523060248201526001600160a01b03831690636e553f65906044016020604051808303816000875af1158015613a4a573d6000803e3d6000fd5b505050506040513d601f19601f82011682018060405250810190610f4391906156ac565b600f54600090600160a81b900460ff161515600103613aa05760405163036882cf60e41b815260040160405180910390fd5b613aa9836133f1565b821115613ad557613ab9836133f1565b604051630ee7300760e11b8152600401610c8391815260200190565b81600003613af657604051637c946ed760e01b815260040160405180910390fd5b600f54613b0e906001600160a01b03163330856134c9565b8160046000828254613b20919061572f565b9091555060009050613b328385614cb3565b905080600003613b5557604051637c946ed760e01b815260040160405180910390fd5b836001600160a01b0316856001600160a01b0316600080516020615ccc8339815191528584604051613b889291906154e5565b60405180910390a3949350505050565b6008546000908142821115613bd95764e8d4a51000600a5442613bbb919061571c565b600954613bc891906156db565b613bd29190615708565b9050610a3d565b8115610a3d57503060009081526014602052604090205492915050565b600f54600090600160a81b900460ff161515600103613c285760405163036882cf60e41b815260040160405180910390fd5b6000613c3583600161277b565b905080600003613c5857604051637c946ed760e01b815260040160405180910390fd5b613c61846133f1565b811115613c7157613ab9846133f1565b600f54613c89906001600160a01b03168630846134c9565b8060046000828254613c9b919061572f565b90915550613cab90508385614d65565b836001600160a01b0316856001600160a01b0316600080516020615ccc8339815191528386604051613b889291906154e5565b6000613ce8613b98565b905080600003613cf55750565b426008541115613d045742600a555b612a6f81306143ef565b6000806000836001600160a01b03166370a08231306040518263ffffffff1660e01b8152600401613d3f9190615373565b602060405180830381865afa158015613d5c573d6000803e3d6000fd5b505050506040513d601f19601f82011682018060405250810190613d8091906156ac565b6040516303d1689d60e11b8152600481018290529091506000906001600160a01b038616906307a2d13a90602401602060405180830381865afa158015613dcb573d6000803e3d6000fd5b505050506040513d601f19601f82011682018060405250810190613def91906156ac565b6001600160a01b0386166000908152601360205260408120600201549192508082841115613e2857613e21838561571c565b9150613e35565b613e32848461571c565b90505b9097909650945050505050565b613e76604051806080016040528060008152602001600081526020016000815260200160006001600160a01b031681525090565b604080516080810182526000808252602082018190529181018290526060810191909152600b546001600160a01b031615611a9557600b5460405163921f8a8f60e01b81526001600160a01b03878116600483015260248201879052604482018690529091169063921f8a8f9060640160408051808303816000875af1158015613f04573d6000803e3d6000fd5b505050506040513d601f19601f82011682018060405250810190613f289190615aa2565b602083015280825215611a9557600e54604080516307d3277f60e01b815281516000936001600160a01b0316926307d3277f92600480820193918290030181865afa158015613f7b573d6000803e3d6000fd5b505050506040513d601f19601f82011682018060405250810190613f9f9190615ac6565b6001600160a01b03166060840152905061ffff81161561336d576127108161ffff161115613fe057604051635ff85e3f60e01b815260040160405180910390fd5b815161271090613ff59061ffff8416906156db565b613fff9190615708565b604083015250949350505050565b614015615063565b61401d615063565b861561406d576001600160a01b0383166000908152601360205260408120600201805489929061404e90849061572f565b925050819055508660036000828254614067919061572f565b90915550505b85156140bd576001600160a01b0383166000908152601360205260408120600201805488929061409e90849061571c565b9250508190555085600360008282546140b7919061571c565b90915550505b60006140c9868861572f565b1115610aaa576140e36140dc868861572f565b60016129b7565b815182906140f290839061572f565b9052508415610aaa5761410f614108858761571c565b60006129b7565b60208201528315610aaa576141258460006129b7565b60408201529695505050505050565b60008060008084602001511115614245576020840151600f54600b546040516370a0823160e01b815261420193926138b4926001600160a01b03918216926370a0823192614186921690600401615373565b602060405180830381865afa1580156141a3573d6000803e3d6000fd5b505050506040513d601f19601f820116820180604052508101906141c791906156ac565b600f54600b54604051636eb1769f60e11b81526001600160a01b03918216600482015230602482015291169063dd62ed3e90604401613873565b60208501819052600f54600b54614229926001600160a01b03928316929091169030906134c9565b83602001516004600082825461423f919061572f565b90915550505b6000846020015187614257919061572f565b118015614265575060075415155b156142865761428384602001518761427d919061572f565b30614cb3565b90505b306000908152601460205260408120546142a190839061571c565b8651909150156143025785516142bb906138b4848461572f565b8087526142c890306143ef565b60006142d8876000015184613376565b90506142e4818461571c565b87519093506142f490829061571c565b6142fe908361571c565b9150505b602086015115614327576020860151600b5461432791906001600160a01b0316614d65565b6040860151156143435761434386604001518660600151614d65565b969095509350505050565b600061435a828461572f565b905080156143e5576000426008541115614389574260085461437c919061571c565b61438690856156db565b90505b6000826007548561439a91906156db565b6143a4908461572f565b6143ae9190615708565b9050806143c064e8d4a51000856156db565b6143ca9190615708565b6009556143d7814261572f565b600855505042600a55505050565b6000600955505050565b6001600160a01b038116600090815260146020526040902054821115614446576001600160a01b038116600090815260146020526040908190205490516307f885ff60e21b81526004810191909152602401610c83565b6001600160a01b0381166000908152601460205260408120805484929061446e90849061571c565b925050819055508160026000828254614487919061571c565b90915550506040518281526000906001600160a01b03831690600080516020615c0c833981519152906020015b60405180910390a35050565b6001600160a01b0384166144e75760405163d92e233d60e01b815260040160405180910390fd5b61271081111561450a57604051631a7ed0a160e31b815260040160405180910390fd5b8160000361452b57604051637c946ed760e01b815260040160405180910390fd5b6001600160a01b038316600090815260146020526040902054821115612de8576001600160a01b038316600090815260146020526040908190205490516307f885ff60e21b81526004810191909152602401610c83565b826001600160a01b0316826001600160a01b031614610f4357610f43838383612d7e565b6040805160c08101825283815260048054602083015260035482840152600060608301819052600f5493516370a0823160e01b8152909384938493909260808401926001600160a01b0316916370a082319161460491309101615373565b602060405180830381865afa158015614621573d6000803e3d6000fd5b505050506040513d601f19601f8201168201806040525081019061464591906156ac565b8152600060209182015281015181519192501015614bb9576000845160001415801561467b5750600f54600160a01b900460ff16155b6146df5760128054806020026020016040519081016040528092919081815260200182805480156146d557602002820191906000526020600020905b81546001600160a01b031681526001909101906020018083116146b7575b50505050506146e1565b845b602083015183519192506146f49161571c565b606083015260005b8151811015614b7f57600082828151811061471957614719615742565b6020908102919091018101516001600160a01b03811660009081526013909252604082205490925090819003614764578160405163489d081b60e11b8152600401610c839190615373565b6001600160a01b03821660009081526013602052604081206002015460608701519091906147929083613376565b90506000846001600160a01b03166307a2d13a866001600160a01b031663d905777e306040518263ffffffff1660e01b81526004016147d19190615373565b602060405180830381865afa1580156147ee573d6000803e3d6000fd5b505050506040513d601f19601f8201168201806040525081019061481291906156ac565b6040518263ffffffff1660e01b815260040161483091815260200190565b602060405180830381865afa15801561484d573d6000803e3d6000fd5b505050506040513d601f19601f8201168201806040525081019061487191906156ac565b9050600061487f8684613677565b9050801561498557614891818461571c565b8210156148cb5760006148a4828561571c565b9050806148b184846156db565b6148bb9190615708565b91506148c7828461572f565b9350505b6148d5818461571c565b925080896000018181516148e9919061571c565b90525060608901805182919061490090839061571c565b90525060408901805182919061491790839061571c565b905250811580156149285750600081115b15614985576000614939828661571c565b6001600160a01b038816600081815260136020526040908190206002018390555191925090600080516020615cec8339815191529061497b90889085906154e5565b60405180910390a2505b61498f8383613376565b9250826000036149a457505050505050614b6d565b6149ae86846137d7565b600f546040516370a0823160e01b81526000916001600160a01b0316906370a08231906149df903090600401615373565b602060405180830381865afa1580156149fc573d6000803e3d6000fd5b505050506040513d601f19601f82011682018060405250810190614a2091906156ac565b905060008a6080015182614a34919061571c565b9050600085821115614a6b5786821115614a5057869550614a80565b614a5a868361571c565b614a64908761572f565b9550614a80565b85821015614a8057614a7d828761571c565b90505b614a8a818761571c565b8c602001818151614a9b919061572f565b9052508b5181908d90614aaf90839061571c565b90525060408c018051879190614ac690839061571c565b9052506000614ad5858861572f565b614adf908961571c565b6001600160a01b038b16600081815260136020526040908190206002018390555191925090600080516020615cec83398151915290614b21908b9085906154e5565b60405180910390a260208d01518d5111614b445750505050505050505050614b7f565b60808d0184905260608d018051889190614b5f90839061571c565b905250505050505050505050505b80614b7781615758565b9150506146fc565b50815160208301511015614baf576020820151825160405163b97fded160e01b8152610c839291906004016154e5565b5060408101516003555b805160209091015190925090505b9250929050565b8284118015614bde575061271081105b15614c2357612710614bf082866156db565b614bfa9190615708565b614c04848661571c565b1115614c23576040516307f65e3960e11b815260040160405180910390fd5b614c2d85876143ef565b614c37838361571c565b600455600f54614c51906001600160a01b031688856135ae565b50505050505050565b614c648282611c86565b610b8a57614c7181614dfe565b614c7c836020614e10565b604051602001614c8d929190615afc565b60408051601f198184030181529082905262461bcd60e51b8252610c83916004016151bb565b60006001600160a01b038216614cdc5760405163d92e233d60e01b815260040160405180910390fd5b6000614ce6612d67565b90506000614cf2612710565b9050600082600003614d05575084614d4b565b85821115614d3257614d17868361571c565b614d2184886156db565b614d2b9190615708565b9050614d4b565b60405163fd7850ad60e01b815260040160405180910390fd5b80600003614d5f5760009350505050610a3d565b611bc481865b6001600160a01b038116614d8c5760405163d92e233d60e01b815260040160405180910390fd5b6001600160a01b03811660009081526014602052604081208054849290614db490849061572f565b925050819055508160026000828254614dcd919061572f565b90915550506040518281526001600160a01b03821690600090600080516020615c0c833981519152906020016144b4565b6060610a3d6001600160a01b03831660145b60606000614e1f8360026156db565b614e2a90600261572f565b6001600160401b03811115614e4157614e416157dc565b6040519080825280601f01601f191660200182016040528015614e6b576020820181803683370190505b509050600360fc1b81600081518110614e8657614e86615742565b60200101906001600160f81b031916908160001a905350600f60fb1b81600181518110614eb557614eb5615742565b60200101906001600160f81b031916908160001a9053506000614ed98460026156db565b614ee490600161572f565b90505b6001811115614f5c576f181899199a1a9b1b9c1cb0b131b232b360811b85600f1660108110614f1857614f18615742565b1a60f81b828281518110614f2e57614f2e615742565b60200101906001600160f81b031916908160001a90535060049490941c93614f5581615a2e565b9050614ee7565b508315610b605760405162461bcd60e51b815260206004820181905260248201527f537472696e67733a20686578206c656e67746820696e73756666696369656e746044820152606401610c83565b828054828255906000526020600020908101928215614ffe579160200282015b82811115614ffe5781546001600160a01b0319166001600160a01b03843516178255602090920191600190910190614fcb565b5061500a929150615084565b5090565b828054828255906000526020600020908101928215614ffe579160200282015b82811115614ffe57825182546001600160a01b0319166001600160a01b0390911617825560209092019160019091019061502e565b60405180606001604052806000815260200160008152602001600081525090565b5b8082111561500a5760008155600101615085565b6000602082840312156150ab57600080fd5b81356001600160e01b031981168114610b6057600080fd5b6001600160a01b0381168114612a6f57600080fd5b60008083601f8401126150ea57600080fd5b5081356001600160401b0381111561510157600080fd5b6020830191508360208260051b8501011115614bc757600080fd5b60008060008060008060a0878903121561513557600080fd5b863595506020870135615147816150c3565b94506040870135615157816150c3565b93506060870135925060808701356001600160401b0381111561517957600080fd5b61518589828a016150d8565b979a9699509497509295939492505050565b60005b838110156151b257818101518382015260200161519a565b50506000910152565b60208152600082518060208401526151da816040850160208701615197565b601f01601f19169190910160400192915050565b60006020828403121561520057600080fd5b5035919050565b6000806040838503121561521a57600080fd5b8235615225816150c3565b946020939093013593505050565b60006020828403121561524557600080fd5b8135610b60816150c3565b60008060006060848603121561526557600080fd5b8335615270816150c3565b92506020840135615280816150c3565b929592945050506040919091013590565b600081518084526020808501945080840160005b838110156152ca5781516001600160a01b0316875295820195908201906001016152a5565b509495945050505050565b602081526000610b606020830184615291565b600080604083850312156152fb57600080fd5b82359150602083013561530d816150c3565b809150509250929050565b6000806000806060858703121561532e57600080fd5b8435615339816150c3565b93506020850135925060408501356001600160401b0381111561535b57600080fd5b615367878288016150d8565b95989497509550505050565b6001600160a01b0391909116815260200190565b6000806020838503121561539a57600080fd5b82356001600160401b038111156153b057600080fd5b6153bc858286016150d8565b90969095509350505050565b60008083601f8401126153da57600080fd5b5081356001600160401b038111156153f157600080fd5b602083019150836020828501011115614bc757600080fd5b60008060008060008060008060c0898b03121561542557600080fd5b883597506020890135615437816150c3565b965060408901356001600160401b038082111561545357600080fd5b61545f8c838d016153c8565b909850965060608b013591508082111561547857600080fd5b506154858b828c016153c8565b9095509350506080890135615499816150c3565b915060a08901356154a9816150c3565b809150509295985092959890939650565b8015158114612a6f57600080fd5b6000602082840312156154da57600080fd5b8135610b60816154ba565b918252602082015260400190565b60ff81168114612a6f57600080fd5b600080600080600080600060e0888a03121561551d57600080fd5b8735615528816150c3565b96506020880135615538816150c3565b955060408801359450606088013593506080880135615556816154f3565b9699959850939692959460a0840135945060c09093013592915050565b6000806040838503121561558657600080fd5b8235615591816150c3565b9150602083013561530d816150c3565b600181811c908216806155b557607f821691505b6020821081036155d557634e487b7160e01b600052602260045260246000fd5b50919050565b6000602082840312156155ed57600080fd5b8151610b60816150c3565b634e487b7160e01b600052602160045260246000fd5b602081016002831061563057634e487b7160e01b600052602160045260246000fd5b91905290565b6000808354615644816155a1565b6001828116801561565c5760018114615671576156a0565b60ff19841687528215158302870194506156a0565b8760005260208060002060005b858110156156975781548a82015290840190820161567e565b50505082870194505b50929695505050505050565b6000602082840312156156be57600080fd5b5051919050565b634e487b7160e01b600052601160045260246000fd5b8082028115828204841417610a3d57610a3d6156c5565b634e487b7160e01b600052601260045260246000fd5b600082615717576157176156f2565b500490565b81810381811115610a3d57610a3d6156c5565b80820180821115610a3d57610a3d6156c5565b634e487b7160e01b600052603260045260246000fd5b60006001820161576a5761576a6156c5565b5060010190565b60208082528181018390526000908460408401835b868110156157b4578235615799816150c3565b6001600160a01b031682529183019190830190600101615786565b509695505050505050565b6000602082840312156157d157600080fd5b8151610b60816154f3565b634e487b7160e01b600052604160045260246000fd5b601f821115610f4357600081815260208120601f850160051c810160208610156158195750805b601f850160051c820191505b8181101561583857828155600101615825565b505050505050565b6001600160401b03831115615857576158576157dc565b61586b8361586583546155a1565b836157f2565b6000601f84116001811461589f57600085156158875750838201355b600019600387901b1c1916600186901b178355612de6565b600083815260209020601f19861690835b828110156158d057868501358255602094850194600190920191016158b0565b50868210156158ed5760001960f88860031b161c19848701351681555b505060018560011b0183555050505050565b600181815b8085111561593a578160001904821115615920576159206156c5565b8085161561592d57918102915b93841c9390800290615904565b509250929050565b60008261595157506001610a3d565b8161595e57506000610a3d565b8160018114615974576002811461597e5761599a565b6001915050610a3d565b60ff84111561598f5761598f6156c5565b50506001821b610a3d565b5060208310610133831016604e8410600b84101617156159bd575081810a610a3d565b6159c783836158ff565b80600019048211156159db576159db6156c5565b029392505050565b6000610b6060ff841683615942565b958652602086019490945260408501929092526060840152608083015260a082015260c00190565b600082615a2957615a296156f2565b500690565b600081615a3d57615a3d6156c5565b506000190190565b60018060a01b0384168152826020820152606060408201526000611bc46060830184615291565b600060208284031215615a7e57600080fd5b8151610b60816154ba565b6001600160a01b03929092168252602082015260400190565b60008060408385031215615ab557600080fd5b505080516020909101519092909150565b60008060408385031215615ad957600080fd5b825161ffff81168114615aeb57600080fd5b602084015190925061530d816150c3565b76020b1b1b2b9b9a1b7b73a3937b61d1030b1b1b7bab73a1604d1b815260008351615b2e816017850160208801615197565b7001034b99036b4b9b9b4b733903937b6329607d1b6017918401918201528351615b5f816028840160208801615197565b0160280194935050505056fed5c8971839cd457e3e7008c5010f80fdfb8dbe466e9eff20c25d5d7c1e93d3fb633076a97f32ae349b28772e7b1483f67a926f150cbc501d02bdbd77389325ab1e92f04e56f08d7fc631d317720ce6c1392414dbf052f01c99b4d50ccc494c091893e1a169e79f2fe8aa327b1bceb2fede7a1b76a54824f95ea0e737720954aebcf55f13710eed7eda89416c2984da5475fcff67e96fe85e56eed808559a5222ddf252ad1be2c89b69c2b068fc378daa952ba7f163c4a11628f55a4df523b3ef7f2ad1d3ba35276f35ef140f83e3e0f17b23064fd710113d3f7a5ab30d2678116e71edae12b1b97f4d1f60370fef10105fa2faae0126114a169c64845d6126c98c5be1e5ebec7d5bd14f71427d1e84f3dd0314c0f7b2291e5b200ac8c7c3b925900d80def0427daac599092fcb16b21808ec68dd9a2e1eae89d1e8db213573758b73c3c69bb8fe3d512ecc4cf759cc79239f7b179b0ffacaa9a75d522b39400fdcbc1c05240f31ff3ad067ef1ee35ce4997762752e3a095284754544f4c709d75e2b8821ad6e0e26207e0cb4d242d07eeb1cbb1cfd853e645bdcd27cc5484f95a2646970667358221220353ad24076518e6bc74c7dd02657dfe54bca8705a081a75f88d14877749b903164736f6c63430008130033",
  "linkReferences": {},
  "deployedLinkReferences": {}
}