{
  "address": "0x1f2CDb546954290C23dC69c32100bAC35611f73b",
  "abi": [
    {
      "inputs": [],
      "name": "AlreadyInitialized",
      "type": "error"
    },
    {
      "inputs": [],
      "name": "AmountTooHigh",
      "type": "error"
    },
    {
      "inputs": [],
      "name": "DebtDidntChange",
      "type": "error"
    },
    {
      "inputs": [
        {
          "internalType": "uint256",
          "name": "newDebt",
          "type": "uint256"
        },
        {
          "internalType": "uint256",
          "name": "maxDebt",
          "type": "uint256"
        }
      ],
      "name": "DebtHigherThanMaxDebt",
      "type": "error"
    },
    {
      "inputs": [],
      "name": "ERC20ApprovalFailed",
      "type": "error"
    },
    {
      "inputs": [
        {
          "internalType": "uint256",
          "name": "currentAllowance",
          "type": "uint256"
        }
      ],
      "name": "ERC20InsufficientAllowance",
      "type": "error"
    },
    {
      "inputs": [],
      "name": "ERC20PermitExpired",
      "type": "error"
    },
    {
      "inputs": [
        {
          "internalType": "address",
          "name": "recoveredAddress",
          "type": "address"
        }
      ],
      "name": "ERC20PermitInvalidSignature",
      "type": "error"
    },
    {
      "inputs": [],
      "name": "ERC20TransferFailed",
      "type": "error"
    },
    {
      "inputs": [
        {
          "internalType": "uint256",
          "name": "recipientMaxDeposit",
          "type": "uint256"
        }
      ],
      "name": "ExceedDepositLimit",
      "type": "error"
    },
    {
      "inputs": [],
      "name": "FeeExceedsMax",
      "type": "error"
    },
    {
      "inputs": [
        {
          "internalType": "address",
          "name": "strategy",
          "type": "address"
        }
      ],
      "name": "InactiveStrategy",
      "type": "error"
    },
    {
      "inputs": [],
      "name": "InactiveVault",
      "type": "error"
    },
    {
      "inputs": [
        {
          "internalType": "uint256",
          "name": "currTotalIdle",
          "type": "uint256"
        },
        {
          "internalType": "uint256",
          "name": "requestedAssets",
          "type": "uint256"
        }
      ],
      "name": "InsufficientAssets",
      "type": "error"
    },
    {
      "inputs": [],
      "name": "InsufficientFunds",
      "type": "error"
    },
    {
      "inputs": [
        {
          "internalType": "uint256",
          "name": "balanceOfOwner",
          "type": "uint256"
        }
      ],
      "name": "InsufficientShares",
      "type": "error"
    },
    {
      "inputs": [
        {
          "internalType": "address",
          "name": "asset",
          "type": "address"
        }
      ],
      "name": "InvalidAsset",
      "type": "error"
    },
    {
      "inputs": [],
      "name": "InvalidAssetDecimals",
      "type": "error"
    },
    {
      "inputs": [],
      "name": "MaxLoss",
      "type": "error"
    },
    {
      "inputs": [],
      "name": "ProfitUnlockTimeTooLong",
      "type": "error"
    },
    {
      "inputs": [],
      "name": "StrategyAlreadyActive",
      "type": "error"
    },
    {
      "inputs": [
        {
          "internalType": "uint256",
          "name": "strageyCurrentDebt",
          "type": "uint256"
        }
      ],
      "name": "StrategyDebtIsLessThanAssetsNeeded",
      "type": "error"
    },
    {
      "inputs": [
        {
          "internalType": "uint256",
          "name": "debt",
          "type": "uint256"
        }
      ],
      "name": "StrategyHasDebt",
      "type": "error"
    },
    {
      "inputs": [
        {
          "internalType": "uint256",
          "name": "unrealisedLosses",
          "type": "uint256"
        }
      ],
      "name": "StrategyHasUnrealisedLosses",
      "type": "error"
    },
    {
      "inputs": [],
      "name": "TooMuchLoss",
      "type": "error"
    },
    {
      "inputs": [],
      "name": "UsingDepositLimit",
      "type": "error"
    },
    {
      "inputs": [],
      "name": "UsingModule",
      "type": "error"
    },
    {
      "inputs": [],
      "name": "ZeroAddress",
      "type": "error"
    },
    {
      "inputs": [],
      "name": "ZeroValue",
      "type": "error"
    },
    {
      "anonymous": false,
      "inputs": [
        {
          "indexed": true,
          "internalType": "address",
          "name": "owner",
          "type": "address"
        },
        {
          "indexed": true,
          "internalType": "address",
          "name": "spender",
          "type": "address"
        },
        {
          "indexed": false,
          "internalType": "uint256",
          "name": "value",
          "type": "uint256"
        }
      ],
      "name": "Approval",
      "type": "event"
    },
    {
      "anonymous": false,
      "inputs": [
        {
          "indexed": true,
          "internalType": "address",
          "name": "strategy",
          "type": "address"
        },
        {
          "indexed": false,
          "internalType": "uint256",
          "name": "amount",
          "type": "uint256"
        }
      ],
      "name": "DebtPurchased",
      "type": "event"
    },
    {
      "anonymous": false,
      "inputs": [
        {
          "indexed": true,
          "internalType": "address",
          "name": "strategy",
          "type": "address"
        },
        {
          "indexed": false,
          "internalType": "uint256",
          "name": "currentDebt",
          "type": "uint256"
        },
        {
          "indexed": false,
          "internalType": "uint256",
          "name": "newDebt",
          "type": "uint256"
        }
      ],
      "name": "DebtUpdated",
      "type": "event"
    },
    {
      "anonymous": false,
      "inputs": [
        {
          "indexed": true,
          "internalType": "address",
          "name": "sender",
          "type": "address"
        },
        {
          "indexed": true,
          "internalType": "address",
          "name": "owner",
          "type": "address"
        },
        {
          "indexed": false,
          "internalType": "uint256",
          "name": "assets",
          "type": "uint256"
        },
        {
          "indexed": false,
          "internalType": "uint256",
          "name": "shares",
          "type": "uint256"
        }
      ],
      "name": "Deposit",
      "type": "event"
    },
    {
      "anonymous": false,
      "inputs": [
        {
          "indexed": true,
          "internalType": "bytes32",
          "name": "role",
          "type": "bytes32"
        },
        {
          "indexed": true,
          "internalType": "bytes32",
          "name": "previousAdminRole",
          "type": "bytes32"
        },
        {
          "indexed": true,
          "internalType": "bytes32",
          "name": "newAdminRole",
          "type": "bytes32"
        }
      ],
      "name": "RoleAdminChanged",
      "type": "event"
    },
    {
      "anonymous": false,
      "inputs": [
        {
          "indexed": true,
          "internalType": "bytes32",
          "name": "role",
          "type": "bytes32"
        },
        {
          "indexed": true,
          "internalType": "address",
          "name": "account",
          "type": "address"
        },
        {
          "indexed": true,
          "internalType": "address",
          "name": "sender",
          "type": "address"
        }
      ],
      "name": "RoleGranted",
      "type": "event"
    },
    {
      "anonymous": false,
      "inputs": [
        {
          "indexed": true,
          "internalType": "bytes32",
          "name": "role",
          "type": "bytes32"
        },
        {
          "indexed": true,
          "internalType": "address",
          "name": "account",
          "type": "address"
        },
        {
          "indexed": true,
          "internalType": "address",
          "name": "sender",
          "type": "address"
        }
      ],
      "name": "RoleRevoked",
      "type": "event"
    },
    {
      "anonymous": false,
      "inputs": [
        {
          "indexed": true,
          "internalType": "address",
          "name": "account",
          "type": "address"
        },
        {
          "indexed": false,
          "internalType": "bytes32",
          "name": "role",
          "type": "bytes32"
        }
      ],
      "name": "RoleSet",
      "type": "event"
    },
    {
      "anonymous": false,
      "inputs": [
        {
          "indexed": true,
          "internalType": "bytes32",
          "name": "role",
          "type": "bytes32"
        },
        {
          "indexed": false,
          "internalType": "enum RoleStatusChange",
          "name": "status",
          "type": "uint8"
        }
      ],
      "name": "RoleStatusChanged",
      "type": "event"
    },
    {
      "anonymous": false,
      "inputs": [],
      "name": "Shutdown",
      "type": "event"
    },
    {
      "anonymous": false,
      "inputs": [
        {
          "indexed": true,
          "internalType": "address",
          "name": "strategy",
          "type": "address"
        },
        {
          "indexed": false,
          "internalType": "enum StrategyChangeType",
          "name": "changeType",
          "type": "uint8"
        }
      ],
      "name": "StrategyChanged",
      "type": "event"
    },
    {
      "anonymous": false,
      "inputs": [
        {
          "indexed": true,
          "internalType": "address",
          "name": "strategy",
          "type": "address"
        },
        {
          "indexed": false,
          "internalType": "uint256",
          "name": "gain",
          "type": "uint256"
        },
        {
          "indexed": false,
          "internalType": "uint256",
          "name": "loss",
          "type": "uint256"
        },
        {
          "indexed": false,
          "internalType": "uint256",
          "name": "currentDebt",
          "type": "uint256"
        },
        {
          "indexed": false,
          "internalType": "uint256",
          "name": "protocolFees",
          "type": "uint256"
        },
        {
          "indexed": false,
          "internalType": "uint256",
          "name": "totalFees",
          "type": "uint256"
        },
        {
          "indexed": false,
          "internalType": "uint256",
          "name": "totalRefunds",
          "type": "uint256"
        }
      ],
      "name": "StrategyReported",
      "type": "event"
    },
    {
      "anonymous": false,
      "inputs": [
        {
          "indexed": true,
          "internalType": "address",
          "name": "from",
          "type": "address"
        },
        {
          "indexed": true,
          "internalType": "address",
          "name": "to",
          "type": "address"
        },
        {
          "indexed": false,
          "internalType": "uint256",
          "name": "value",
          "type": "uint256"
        }
      ],
      "name": "Transfer",
      "type": "event"
    },
    {
      "anonymous": false,
      "inputs": [
        {
          "indexed": false,
          "internalType": "address",
          "name": "accountant",
          "type": "address"
        }
      ],
      "name": "UpdatedAccountant",
      "type": "event"
    },
    {
      "anonymous": false,
      "inputs": [
        {
          "indexed": false,
          "internalType": "address[]",
          "name": "newDefaultQueue",
          "type": "address[]"
        }
      ],
      "name": "UpdatedDefaultQueue",
      "type": "event"
    },
    {
      "anonymous": false,
      "inputs": [
        {
          "indexed": false,
          "internalType": "uint256",
          "name": "depositLimit",
          "type": "uint256"
        }
      ],
      "name": "UpdatedDepositLimit",
      "type": "event"
    },
    {
      "anonymous": false,
      "inputs": [
        {
          "indexed": false,
          "internalType": "address",
          "name": "depositLimitModule",
          "type": "address"
        }
      ],
      "name": "UpdatedDepositLimitModule",
      "type": "event"
    },
    {
      "anonymous": false,
      "inputs": [
        {
          "indexed": false,
          "internalType": "uint256",
          "name": "totalFees",
          "type": "uint256"
        },
        {
          "indexed": false,
          "internalType": "uint256",
          "name": "totalRefunds",
          "type": "uint256"
        },
        {
          "indexed": false,
          "internalType": "uint256",
          "name": "protocolFees",
          "type": "uint256"
        },
        {
          "indexed": false,
          "internalType": "address",
          "name": "protocolFeeRecipient",
          "type": "address"
        }
      ],
      "name": "UpdatedFees",
      "type": "event"
    },
    {
      "anonymous": false,
      "inputs": [
        {
          "indexed": true,
          "internalType": "address",
          "name": "sender",
          "type": "address"
        },
        {
          "indexed": true,
          "internalType": "address",
          "name": "strategy",
          "type": "address"
        },
        {
          "indexed": false,
          "internalType": "uint256",
          "name": "newDebt",
          "type": "uint256"
        }
      ],
      "name": "UpdatedMaxDebtForStrategy",
      "type": "event"
    },
    {
      "anonymous": false,
      "inputs": [
        {
          "indexed": false,
          "internalType": "uint256",
          "name": "minimumTotalIdle",
          "type": "uint256"
        }
      ],
      "name": "UpdatedMinimumTotalIdle",
      "type": "event"
    },
    {
      "anonymous": false,
      "inputs": [
        {
          "indexed": false,
          "internalType": "uint256",
          "name": "profitMaxUnlockTime",
          "type": "uint256"
        }
      ],
      "name": "UpdatedProfitMaxUnlockTime",
      "type": "event"
    },
    {
      "anonymous": false,
      "inputs": [
        {
          "indexed": false,
          "internalType": "address",
          "name": "roleManager",
          "type": "address"
        }
      ],
      "name": "UpdatedRoleManager",
      "type": "event"
    },
    {
      "anonymous": false,
      "inputs": [
        {
          "indexed": false,
          "internalType": "bool",
          "name": "useDefaultQueue",
          "type": "bool"
        }
      ],
      "name": "UpdatedUseDefaultQueue",
      "type": "event"
    },
    {
      "anonymous": false,
      "inputs": [
        {
          "indexed": false,
          "internalType": "address",
          "name": "withdrawLimitModule",
          "type": "address"
        }
      ],
      "name": "UpdatedWithdrawLimitModule",
      "type": "event"
    },
    {
      "anonymous": false,
      "inputs": [
        {
          "indexed": true,
          "internalType": "address",
          "name": "sender",
          "type": "address"
        },
        {
          "indexed": true,
          "internalType": "address",
          "name": "receiver",
          "type": "address"
        },
        {
          "indexed": true,
          "internalType": "address",
          "name": "owner",
          "type": "address"
        },
        {
          "indexed": false,
          "internalType": "uint256",
          "name": "assets",
          "type": "uint256"
        },
        {
          "indexed": false,
          "internalType": "uint256",
          "name": "shares",
          "type": "uint256"
        }
      ],
      "name": "Withdraw",
      "type": "event"
    },
    {
      "inputs": [],
      "name": "API_VERSION",
      "outputs": [
        {
          "internalType": "string",
          "name": "",
          "type": "string"
        }
      ],
      "stateMutability": "view",
      "type": "function"
    },
    {
      "inputs": [],
      "name": "DEBT_PURCHASER",
      "outputs": [
        {
          "internalType": "bytes32",
          "name": "",
          "type": "bytes32"
        }
      ],
      "stateMutability": "view",
      "type": "function"
    },
    {
      "inputs": [],
      "name": "DEFAULT_ADMIN_ROLE",
      "outputs": [
        {
          "internalType": "bytes32",
          "name": "",
          "type": "bytes32"
        }
      ],
      "stateMutability": "view",
      "type": "function"
    },
    {
      "inputs": [],
      "name": "DOMAIN_SEPARATOR",
      "outputs": [
        {
          "internalType": "bytes32",
          "name": "",
          "type": "bytes32"
        }
      ],
      "stateMutability": "view",
      "type": "function"
    },
    {
      "inputs": [],
      "name": "DOMAIN_TYPE_HASH",
      "outputs": [
        {
          "internalType": "bytes32",
          "name": "",
          "type": "bytes32"
        }
      ],
      "stateMutability": "view",
      "type": "function"
    },
    {
      "inputs": [],
      "name": "MAX_BPS",
      "outputs": [
        {
          "internalType": "uint256",
          "name": "",
          "type": "uint256"
        }
      ],
      "stateMutability": "view",
      "type": "function"
    },
    {
      "inputs": [],
      "name": "MAX_BPS_EXTENDED",
      "outputs": [
        {
          "internalType": "uint256",
          "name": "",
          "type": "uint256"
        }
      ],
      "stateMutability": "view",
      "type": "function"
    },
    {
      "inputs": [],
      "name": "MAX_FEE_BPS",
      "outputs": [
        {
          "internalType": "uint16",
          "name": "",
          "type": "uint16"
        }
      ],
      "stateMutability": "view",
      "type": "function"
    },
    {
      "inputs": [],
      "name": "MAX_QUEUE",
      "outputs": [
        {
          "internalType": "uint256",
          "name": "",
          "type": "uint256"
        }
      ],
      "stateMutability": "view",
      "type": "function"
    },
    {
      "inputs": [],
      "name": "ONE_YEAR",
      "outputs": [
        {
          "internalType": "uint256",
          "name": "",
          "type": "uint256"
        }
      ],
      "stateMutability": "view",
      "type": "function"
    },
    {
      "inputs": [],
      "name": "PERMIT_TYPE_HASH",
      "outputs": [
        {
          "internalType": "bytes32",
          "name": "",
          "type": "bytes32"
        }
      ],
      "stateMutability": "view",
      "type": "function"
    },
    {
      "inputs": [],
      "name": "REPORTING_MANAGER",
      "outputs": [
        {
          "internalType": "bytes32",
          "name": "",
          "type": "bytes32"
        }
      ],
      "stateMutability": "view",
      "type": "function"
    },
    {
      "inputs": [],
      "name": "STRATEGY_MANAGER",
      "outputs": [
        {
          "internalType": "bytes32",
          "name": "",
          "type": "bytes32"
        }
      ],
      "stateMutability": "view",
      "type": "function"
    },
    {
      "inputs": [],
      "name": "accountant",
      "outputs": [
        {
          "internalType": "address",
          "name": "",
          "type": "address"
        }
      ],
      "stateMutability": "view",
      "type": "function"
    },
    {
      "inputs": [
        {
          "internalType": "address",
          "name": "newStrategy",
          "type": "address"
        }
      ],
      "name": "addStrategy",
      "outputs": [],
      "stateMutability": "nonpayable",
      "type": "function"
    },
    {
      "inputs": [
        {
          "internalType": "address",
          "name": "owner",
          "type": "address"
        },
        {
          "internalType": "address",
          "name": "spender",
          "type": "address"
        }
      ],
      "name": "allowance",
      "outputs": [
        {
          "internalType": "uint256",
          "name": "",
          "type": "uint256"
        }
      ],
      "stateMutability": "view",
      "type": "function"
    },
    {
      "inputs": [
        {
          "internalType": "address",
          "name": "spender",
          "type": "address"
        },
        {
          "internalType": "uint256",
          "name": "amount",
          "type": "uint256"
        }
      ],
      "name": "approve",
      "outputs": [
        {
          "internalType": "bool",
          "name": "",
          "type": "bool"
        }
      ],
      "stateMutability": "nonpayable",
      "type": "function"
    },
    {
      "inputs": [
        {
          "internalType": "address",
          "name": "strategy",
          "type": "address"
        },
        {
          "internalType": "uint256",
          "name": "assetsNeeded",
          "type": "uint256"
        }
      ],
      "name": "assessShareOfUnrealisedLosses",
      "outputs": [
        {
          "internalType": "uint256",
          "name": "",
          "type": "uint256"
        }
      ],
      "stateMutability": "view",
      "type": "function"
    },
    {
      "inputs": [],
      "name": "asset",
      "outputs": [
        {
          "internalType": "address",
          "name": "",
          "type": "address"
        }
      ],
      "stateMutability": "view",
      "type": "function"
    },
    {
      "inputs": [
        {
          "internalType": "address",
          "name": "addr",
          "type": "address"
        }
      ],
      "name": "balanceOf",
      "outputs": [
        {
          "internalType": "uint256",
          "name": "",
          "type": "uint256"
        }
      ],
      "stateMutability": "view",
      "type": "function"
    },
    {
      "inputs": [
        {
          "internalType": "address",
          "name": "strategy",
          "type": "address"
        },
        {
          "internalType": "uint256",
          "name": "amount",
          "type": "uint256"
        }
      ],
      "name": "buyDebt",
      "outputs": [],
      "stateMutability": "nonpayable",
      "type": "function"
    },
    {
      "inputs": [
        {
          "internalType": "uint256",
          "name": "shares",
          "type": "uint256"
        }
      ],
      "name": "convertToAssets",
      "outputs": [
        {
          "internalType": "uint256",
          "name": "",
          "type": "uint256"
        }
      ],
      "stateMutability": "view",
      "type": "function"
    },
    {
      "inputs": [
        {
          "internalType": "uint256",
          "name": "assets",
          "type": "uint256"
        }
      ],
      "name": "convertToShares",
      "outputs": [
        {
          "internalType": "uint256",
          "name": "",
          "type": "uint256"
        }
      ],
      "stateMutability": "view",
      "type": "function"
    },
    {
      "inputs": [],
      "name": "customFeeBPS",
      "outputs": [
        {
          "internalType": "uint16",
          "name": "",
          "type": "uint16"
        }
      ],
      "stateMutability": "view",
      "type": "function"
    },
    {
      "inputs": [],
      "name": "customFeeRecipient",
      "outputs": [
        {
          "internalType": "address",
          "name": "",
          "type": "address"
        }
      ],
      "stateMutability": "view",
      "type": "function"
    },
    {
      "inputs": [],
      "name": "customFees",
      "outputs": [
        {
          "internalType": "uint256",
          "name": "totalFees",
          "type": "uint256"
        },
        {
          "internalType": "uint256",
          "name": "totalRefunds",
          "type": "uint256"
        },
        {
          "internalType": "uint256",
          "name": "protocolFees",
          "type": "uint256"
        },
        {
          "internalType": "address",
          "name": "protocolFeeRecipient",
          "type": "address"
        }
      ],
      "stateMutability": "view",
      "type": "function"
    },
    {
      "inputs": [],
      "name": "decimals",
      "outputs": [
        {
          "internalType": "uint8",
          "name": "",
          "type": "uint8"
        }
      ],
      "stateMutability": "view",
      "type": "function"
    },
    {
      "inputs": [
        {
          "internalType": "uint256",
          "name": "",
          "type": "uint256"
        }
      ],
      "name": "defaultQueue",
      "outputs": [
        {
          "internalType": "address",
          "name": "",
          "type": "address"
        }
      ],
      "stateMutability": "view",
      "type": "function"
    },
    {
      "inputs": [
        {
          "internalType": "uint256",
          "name": "assets",
          "type": "uint256"
        },
        {
          "internalType": "address",
          "name": "receiver",
          "type": "address"
        }
      ],
      "name": "deposit",
      "outputs": [
        {
          "internalType": "uint256",
          "name": "",
          "type": "uint256"
        }
      ],
      "stateMutability": "nonpayable",
      "type": "function"
    },
    {
      "inputs": [],
      "name": "depositLimit",
      "outputs": [
        {
          "internalType": "uint256",
          "name": "",
          "type": "uint256"
        }
      ],
      "stateMutability": "view",
      "type": "function"
    },
    {
      "inputs": [],
      "name": "depositLimitModule",
      "outputs": [
        {
          "internalType": "address",
          "name": "",
          "type": "address"
        }
      ],
      "stateMutability": "view",
      "type": "function"
    },
    {
      "inputs": [],
      "name": "factory",
      "outputs": [
        {
          "internalType": "address",
          "name": "",
          "type": "address"
        }
      ],
      "stateMutability": "view",
      "type": "function"
    },
    {
      "inputs": [],
      "name": "fees",
      "outputs": [
        {
          "components": [
            {
              "internalType": "uint256",
              "name": "totalFees",
              "type": "uint256"
            },
            {
              "internalType": "uint256",
              "name": "totalRefunds",
              "type": "uint256"
            },
            {
              "internalType": "uint256",
              "name": "protocolFees",
              "type": "uint256"
            },
            {
              "internalType": "address",
              "name": "protocolFeeRecipient",
              "type": "address"
            }
          ],
          "internalType": "struct FeeAssessment",
          "name": "",
          "type": "tuple"
        }
      ],
      "stateMutability": "view",
      "type": "function"
    },
    {
      "inputs": [
        {
          "internalType": "address",
          "name": "strategy",
          "type": "address"
        }
      ],
      "name": "forceRevokeStrategy",
      "outputs": [],
      "stateMutability": "nonpayable",
      "type": "function"
    },
    {
      "inputs": [],
      "name": "fullProfitUnlockDate",
      "outputs": [
        {
          "internalType": "uint256",
          "name": "",
          "type": "uint256"
        }
      ],
      "stateMutability": "view",
      "type": "function"
    },
    {
      "inputs": [],
      "name": "futureRoleManager",
      "outputs": [
        {
          "internalType": "address",
          "name": "",
          "type": "address"
        }
      ],
      "stateMutability": "view",
      "type": "function"
    },
    {
      "inputs": [
        {
          "internalType": "address",
          "name": "strategy",
          "type": "address"
        }
      ],
      "name": "getDebt",
      "outputs": [
        {
          "internalType": "uint256",
          "name": "",
          "type": "uint256"
        }
      ],
      "stateMutability": "view",
      "type": "function"
    },
    {
      "inputs": [],
      "name": "getDefaultQueueLength",
      "outputs": [
        {
          "internalType": "uint256",
          "name": "length",
          "type": "uint256"
        }
      ],
      "stateMutability": "view",
      "type": "function"
    },
    {
      "inputs": [
        {
          "internalType": "bytes32",
          "name": "role",
          "type": "bytes32"
        }
      ],
      "name": "getRoleAdmin",
      "outputs": [
        {
          "internalType": "bytes32",
          "name": "",
          "type": "bytes32"
        }
      ],
      "stateMutability": "view",
      "type": "function"
    },
    {
      "inputs": [
        {
          "internalType": "bytes32",
          "name": "role",
          "type": "bytes32"
        },
        {
          "internalType": "address",
          "name": "account",
          "type": "address"
        }
      ],
      "name": "grantRole",
      "outputs": [],
      "stateMutability": "nonpayable",
      "type": "function"
    },
    {
      "inputs": [
        {
          "internalType": "bytes32",
          "name": "role",
          "type": "bytes32"
        },
        {
          "internalType": "address",
          "name": "account",
          "type": "address"
        }
      ],
      "name": "hasRole",
      "outputs": [
        {
          "internalType": "bool",
          "name": "",
          "type": "bool"
        }
      ],
      "stateMutability": "view",
      "type": "function"
    },
    {
      "inputs": [
        {
          "internalType": "uint256",
          "name": "_profitMaxUnlockTime",
          "type": "uint256"
        },
        {
          "internalType": "address",
          "name": "_asset",
          "type": "address"
        },
        {
          "internalType": "string",
          "name": "_name",
          "type": "string"
        },
        {
          "internalType": "string",
          "name": "_symbol",
          "type": "string"
        },
        {
          "internalType": "address",
          "name": "_accountant",
          "type": "address"
        }
      ],
      "name": "initialize",
      "outputs": [],
      "stateMutability": "nonpayable",
      "type": "function"
    },
    {
      "inputs": [],
      "name": "lastProfitUpdate",
      "outputs": [
        {
          "internalType": "uint256",
          "name": "",
          "type": "uint256"
        }
      ],
      "stateMutability": "view",
      "type": "function"
    },
    {
      "inputs": [
        {
          "internalType": "address",
          "name": "receiver",
          "type": "address"
        }
      ],
      "name": "maxDeposit",
      "outputs": [
        {
          "internalType": "uint256",
          "name": "",
          "type": "uint256"
        }
      ],
      "stateMutability": "view",
      "type": "function"
    },
    {
      "inputs": [
        {
          "internalType": "address",
          "name": "receiver",
          "type": "address"
        }
      ],
      "name": "maxMint",
      "outputs": [
        {
          "internalType": "uint256",
          "name": "",
          "type": "uint256"
        }
      ],
      "stateMutability": "view",
      "type": "function"
    },
    {
      "inputs": [
        {
          "internalType": "address",
          "name": "owner",
          "type": "address"
        },
        {
          "internalType": "uint256",
          "name": "maxLoss",
          "type": "uint256"
        },
        {
          "internalType": "address[]",
          "name": "_strategies",
          "type": "address[]"
        }
      ],
      "name": "maxRedeem",
      "outputs": [
        {
          "internalType": "uint256",
          "name": "",
          "type": "uint256"
        }
      ],
      "stateMutability": "view",
      "type": "function"
    },
    {
      "inputs": [
        {
          "internalType": "address",
          "name": "owner",
          "type": "address"
        },
        {
          "internalType": "uint256",
          "name": "maxLoss",
          "type": "uint256"
        },
        {
          "internalType": "address[]",
          "name": "_strategies",
          "type": "address[]"
        }
      ],
      "name": "maxWithdraw",
      "outputs": [
        {
          "internalType": "uint256",
          "name": "",
          "type": "uint256"
        }
      ],
      "stateMutability": "view",
      "type": "function"
    },
    {
      "inputs": [],
      "name": "minimumTotalIdle",
      "outputs": [
        {
          "internalType": "uint256",
          "name": "",
          "type": "uint256"
        }
      ],
      "stateMutability": "view",
      "type": "function"
    },
    {
      "inputs": [
        {
          "internalType": "uint256",
          "name": "shares",
          "type": "uint256"
        },
        {
          "internalType": "address",
          "name": "receiver",
          "type": "address"
        }
      ],
      "name": "mint",
      "outputs": [
        {
          "internalType": "uint256",
          "name": "",
          "type": "uint256"
        }
      ],
      "stateMutability": "nonpayable",
      "type": "function"
    },
    {
      "inputs": [],
      "name": "name",
      "outputs": [
        {
          "internalType": "string",
          "name": "",
          "type": "string"
        }
      ],
      "stateMutability": "view",
      "type": "function"
    },
    {
      "inputs": [
        {
          "internalType": "address",
          "name": "",
          "type": "address"
        }
      ],
      "name": "nonces",
      "outputs": [
        {
          "internalType": "uint256",
          "name": "",
          "type": "uint256"
        }
      ],
      "stateMutability": "view",
      "type": "function"
    },
    {
      "inputs": [
        {
          "internalType": "bytes32",
          "name": "",
          "type": "bytes32"
        }
      ],
      "name": "openRoles",
      "outputs": [
        {
          "internalType": "bool",
          "name": "",
          "type": "bool"
        }
      ],
      "stateMutability": "view",
      "type": "function"
    },
    {
      "inputs": [
        {
          "internalType": "address",
          "name": "owner",
          "type": "address"
        },
        {
          "internalType": "address",
          "name": "spender",
          "type": "address"
        },
        {
          "internalType": "uint256",
          "name": "amount",
          "type": "uint256"
        },
        {
          "internalType": "uint256",
          "name": "deadline",
          "type": "uint256"
        },
        {
          "internalType": "uint8",
          "name": "v",
          "type": "uint8"
        },
        {
          "internalType": "bytes32",
          "name": "r",
          "type": "bytes32"
        },
        {
          "internalType": "bytes32",
          "name": "s",
          "type": "bytes32"
        }
      ],
      "name": "permit",
      "outputs": [
        {
          "internalType": "bool",
          "name": "",
          "type": "bool"
        }
      ],
      "stateMutability": "nonpayable",
      "type": "function"
    },
    {
      "inputs": [
        {
          "internalType": "uint256",
          "name": "assets",
          "type": "uint256"
        }
      ],
      "name": "previewDeposit",
      "outputs": [
        {
          "internalType": "uint256",
          "name": "",
          "type": "uint256"
        }
      ],
      "stateMutability": "view",
      "type": "function"
    },
    {
      "inputs": [
        {
          "internalType": "uint256",
          "name": "shares",
          "type": "uint256"
        }
      ],
      "name": "previewMint",
      "outputs": [
        {
          "internalType": "uint256",
          "name": "",
          "type": "uint256"
        }
      ],
      "stateMutability": "view",
      "type": "function"
    },
    {
      "inputs": [
        {
          "internalType": "uint256",
          "name": "shares",
          "type": "uint256"
        }
      ],
      "name": "previewRedeem",
      "outputs": [
        {
          "internalType": "uint256",
          "name": "",
          "type": "uint256"
        }
      ],
      "stateMutability": "view",
      "type": "function"
    },
    {
      "inputs": [
        {
          "internalType": "uint256",
          "name": "assets",
          "type": "uint256"
        }
      ],
      "name": "previewWithdraw",
      "outputs": [
        {
          "internalType": "uint256",
          "name": "",
          "type": "uint256"
        }
      ],
      "stateMutability": "view",
      "type": "function"
    },
    {
      "inputs": [],
      "name": "pricePerShare",
      "outputs": [
        {
          "internalType": "uint256",
          "name": "",
          "type": "uint256"
        }
      ],
      "stateMutability": "view",
      "type": "function"
    },
    {
      "inputs": [
        {
          "internalType": "address",
          "name": "strategy",
          "type": "address"
        }
      ],
      "name": "processReport",
      "outputs": [
        {
          "internalType": "uint256",
          "name": "",
          "type": "uint256"
        },
        {
          "internalType": "uint256",
          "name": "",
          "type": "uint256"
        }
      ],
      "stateMutability": "nonpayable",
      "type": "function"
    },
    {
      "inputs": [],
      "name": "profitMaxUnlockTime",
      "outputs": [
        {
          "internalType": "uint256",
          "name": "",
          "type": "uint256"
        }
      ],
      "stateMutability": "view",
      "type": "function"
    },
    {
      "inputs": [],
      "name": "profitUnlockingRate",
      "outputs": [
        {
          "internalType": "uint256",
          "name": "",
          "type": "uint256"
        }
      ],
      "stateMutability": "view",
      "type": "function"
    },
    {
      "inputs": [
        {
          "internalType": "uint256",
          "name": "shares",
          "type": "uint256"
        },
        {
          "internalType": "address",
          "name": "receiver",
          "type": "address"
        },
        {
          "internalType": "address",
          "name": "owner",
          "type": "address"
        },
        {
          "internalType": "uint256",
          "name": "maxLoss",
          "type": "uint256"
        },
        {
          "internalType": "address[]",
          "name": "_strategies",
          "type": "address[]"
        }
      ],
      "name": "redeem",
      "outputs": [
        {
          "internalType": "uint256",
          "name": "",
          "type": "uint256"
        }
      ],
      "stateMutability": "nonpayable",
      "type": "function"
    },
    {
      "inputs": [
        {
          "internalType": "bytes32",
          "name": "role",
          "type": "bytes32"
        },
        {
          "internalType": "address",
          "name": "account",
          "type": "address"
        }
      ],
      "name": "renounceRole",
      "outputs": [],
      "stateMutability": "nonpayable",
      "type": "function"
    },
    {
      "inputs": [
        {
          "internalType": "bytes32",
          "name": "role",
          "type": "bytes32"
        },
        {
          "internalType": "address",
          "name": "account",
          "type": "address"
        }
      ],
      "name": "revokeRole",
      "outputs": [],
      "stateMutability": "nonpayable",
      "type": "function"
    },
    {
      "inputs": [
        {
          "internalType": "address",
          "name": "strategy",
          "type": "address"
        }
      ],
      "name": "revokeStrategy",
      "outputs": [],
      "stateMutability": "nonpayable",
      "type": "function"
    },
    {
      "inputs": [],
      "name": "roleManager",
      "outputs": [
        {
          "internalType": "address",
          "name": "",
          "type": "address"
        }
      ],
      "stateMutability": "view",
      "type": "function"
    },
    {
      "inputs": [
        {
          "internalType": "address",
          "name": "",
          "type": "address"
        }
      ],
      "name": "roles",
      "outputs": [
        {
          "internalType": "bytes32",
          "name": "",
          "type": "bytes32"
        }
      ],
      "stateMutability": "view",
      "type": "function"
    },
    {
      "inputs": [
        {
          "internalType": "address",
          "name": "newAccountant",
          "type": "address"
        }
      ],
      "name": "setAccountant",
      "outputs": [],
      "stateMutability": "nonpayable",
      "type": "function"
    },
    {
      "inputs": [
        {
          "internalType": "address[]",
          "name": "newDefaultQueue",
          "type": "address[]"
        }
      ],
      "name": "setDefaultQueue",
      "outputs": [],
      "stateMutability": "nonpayable",
      "type": "function"
    },
    {
      "inputs": [
        {
          "internalType": "uint256",
          "name": "_depositLimit",
          "type": "uint256"
        }
      ],
      "name": "setDepositLimit",
      "outputs": [],
      "stateMutability": "nonpayable",
      "type": "function"
    },
    {
      "inputs": [
        {
          "internalType": "address",
          "name": "_depositLimitModule",
          "type": "address"
        }
      ],
      "name": "setDepositLimitModule",
      "outputs": [],
      "stateMutability": "nonpayable",
      "type": "function"
    },
    {
      "inputs": [
        {
          "internalType": "uint256",
          "name": "totalFees",
          "type": "uint256"
        },
        {
          "internalType": "uint256",
          "name": "totalRefunds",
          "type": "uint256"
        },
        {
          "internalType": "uint256",
          "name": "protocolFees",
          "type": "uint256"
        },
        {
          "internalType": "address",
          "name": "protocolFeeRecipient",
          "type": "address"
        }
      ],
      "name": "setFees",
      "outputs": [],
      "stateMutability": "nonpayable",
      "type": "function"
    },
    {
      "inputs": [
        {
          "internalType": "uint256",
          "name": "_minimumTotalIdle",
          "type": "uint256"
        }
      ],
      "name": "setMinimumTotalIdle",
      "outputs": [],
      "stateMutability": "nonpayable",
      "type": "function"
    },
    {
      "inputs": [
        {
          "internalType": "uint256",
          "name": "_newProfitMaxUnlockTime",
          "type": "uint256"
        }
      ],
      "name": "setProfitMaxUnlockTime",
      "outputs": [],
      "stateMutability": "nonpayable",
      "type": "function"
    },
    {
      "inputs": [
        {
          "internalType": "bool",
          "name": "_useDefaultQueue",
          "type": "bool"
        }
      ],
      "name": "setUseDefaultQueue",
      "outputs": [],
      "stateMutability": "nonpayable",
      "type": "function"
    },
    {
      "inputs": [
        {
          "internalType": "address",
          "name": "_withdrawLimitModule",
          "type": "address"
        }
      ],
      "name": "setWithdrawLimitModule",
      "outputs": [],
      "stateMutability": "nonpayable",
      "type": "function"
    },
    {
      "inputs": [],
      "name": "shutdown",
      "outputs": [
        {
          "internalType": "bool",
          "name": "",
          "type": "bool"
        }
      ],
      "stateMutability": "view",
      "type": "function"
    },
    {
      "inputs": [],
      "name": "shutdownVault",
      "outputs": [],
      "stateMutability": "nonpayable",
      "type": "function"
    },
    {
      "inputs": [
        {
          "internalType": "address",
          "name": "",
          "type": "address"
        }
      ],
      "name": "strategies",
      "outputs": [
        {
          "internalType": "uint256",
          "name": "activation",
          "type": "uint256"
        },
        {
          "internalType": "uint256",
          "name": "lastReport",
          "type": "uint256"
        },
        {
          "internalType": "uint256",
          "name": "currentDebt",
          "type": "uint256"
        },
        {
          "internalType": "uint256",
          "name": "maxDebt",
          "type": "uint256"
        }
      ],
      "stateMutability": "view",
      "type": "function"
    },
    {
      "inputs": [
        {
          "internalType": "bytes4",
          "name": "interfaceId",
          "type": "bytes4"
        }
      ],
      "name": "supportsInterface",
      "outputs": [
        {
          "internalType": "bool",
          "name": "",
          "type": "bool"
        }
      ],
      "stateMutability": "view",
      "type": "function"
    },
    {
      "inputs": [],
      "name": "symbol",
      "outputs": [
        {
          "internalType": "string",
          "name": "",
          "type": "string"
        }
      ],
      "stateMutability": "view",
      "type": "function"
    },
    {
      "inputs": [],
      "name": "totalAssets",
      "outputs": [
        {
          "internalType": "uint256",
          "name": "",
          "type": "uint256"
        }
      ],
      "stateMutability": "view",
      "type": "function"
    },
    {
      "inputs": [],
      "name": "totalDebt",
      "outputs": [
        {
          "internalType": "uint256",
          "name": "",
          "type": "uint256"
        }
      ],
      "stateMutability": "view",
      "type": "function"
    },
    {
      "inputs": [],
      "name": "totalIdle",
      "outputs": [
        {
          "internalType": "uint256",
          "name": "",
          "type": "uint256"
        }
      ],
      "stateMutability": "view",
      "type": "function"
    },
    {
      "inputs": [],
      "name": "totalSupply",
      "outputs": [
        {
          "internalType": "uint256",
          "name": "",
          "type": "uint256"
        }
      ],
      "stateMutability": "view",
      "type": "function"
    },
    {
      "inputs": [],
      "name": "totalSupplyAmount",
      "outputs": [
        {
          "internalType": "uint256",
          "name": "",
          "type": "uint256"
        }
      ],
      "stateMutability": "view",
      "type": "function"
    },
    {
      "inputs": [
        {
          "internalType": "address",
          "name": "receiver",
          "type": "address"
        },
        {
          "internalType": "uint256",
          "name": "amount",
          "type": "uint256"
        }
      ],
      "name": "transfer",
      "outputs": [
        {
          "internalType": "bool",
          "name": "",
          "type": "bool"
        }
      ],
      "stateMutability": "nonpayable",
      "type": "function"
    },
    {
      "inputs": [
        {
          "internalType": "address",
          "name": "sender",
          "type": "address"
        },
        {
          "internalType": "address",
          "name": "receiver",
          "type": "address"
        },
        {
          "internalType": "uint256",
          "name": "amount",
          "type": "uint256"
        }
      ],
      "name": "transferFrom",
      "outputs": [
        {
          "internalType": "bool",
          "name": "",
          "type": "bool"
        }
      ],
      "stateMutability": "nonpayable",
      "type": "function"
    },
    {
      "inputs": [],
      "name": "unlockedShares",
      "outputs": [
        {
          "internalType": "uint256",
          "name": "",
          "type": "uint256"
        }
      ],
      "stateMutability": "view",
      "type": "function"
    },
    {
      "inputs": [
        {
          "internalType": "address",
          "name": "sender",
          "type": "address"
        },
        {
          "internalType": "address",
          "name": "strategy",
          "type": "address"
        },
        {
          "internalType": "uint256",
          "name": "targetDebt",
          "type": "uint256"
        }
      ],
      "name": "updateDebt",
      "outputs": [
        {
          "internalType": "uint256",
          "name": "",
          "type": "uint256"
        }
      ],
      "stateMutability": "nonpayable",
      "type": "function"
    },
    {
      "inputs": [
        {
          "internalType": "address",
          "name": "strategy",
          "type": "address"
        },
        {
          "internalType": "uint256",
          "name": "newMaxDebt",
          "type": "uint256"
        }
      ],
      "name": "updateMaxDebtForStrategy",
      "outputs": [],
      "stateMutability": "nonpayable",
      "type": "function"
    },
    {
      "inputs": [],
      "name": "useDefaultQueue",
      "outputs": [
        {
          "internalType": "bool",
          "name": "",
          "type": "bool"
        }
      ],
      "stateMutability": "view",
      "type": "function"
    },
    {
      "inputs": [
        {
          "internalType": "uint256",
          "name": "assets",
          "type": "uint256"
        },
        {
          "internalType": "address",
          "name": "receiver",
          "type": "address"
        },
        {
          "internalType": "address",
          "name": "owner",
          "type": "address"
        },
        {
          "internalType": "uint256",
          "name": "maxLoss",
          "type": "uint256"
        },
        {
          "internalType": "address[]",
          "name": "_strategies",
          "type": "address[]"
        }
      ],
      "name": "withdraw",
      "outputs": [
        {
          "internalType": "uint256",
          "name": "",
          "type": "uint256"
        }
      ],
      "stateMutability": "nonpayable",
      "type": "function"
    },
    {
      "inputs": [],
      "name": "withdrawLimitModule",
      "outputs": [
        {
          "internalType": "address",
          "name": "",
          "type": "address"
        }
      ],
      "stateMutability": "view",
      "type": "function"
    }
  ],
  "transactionHash": "0xbe8f6c8c80f93d8386cc3a9a4844b938cb09459c9a8ddc2193864ef3b6231e33",
  "args": [],
  "numDeployments": 1,
  "solcInputHash": "2e9c6be6eb8217c9ae52341685546fa1",
  "bytecode": "0x608060405234801561001057600080fd5b5060018055615f3180620000256000396000f3fe608060405234801561001057600080fd5b50600436106104395760003560e01c806389b893f11161023457806389b893f1146108175780638afca8f01461083f578063919860031461084857806391d148541461085b57806394bf804d1461086e57806395d89b4114610881578063993746421461088957806399530b06146108a95780639a78e72e146108b15780639aa7df94146108dd5780639af1d35a146108e65780639bbca8841461092a5780639e34e3481461093d5780639fc2c47614610950578063a217fddf14610965578063a835cd811461096d578063a9059cbb14610980578063ab5b4d4914610993578063b1c46c9f146109a8578063b3c187f2146109bb578063b3d7f6b9146109ce578063b6cc2d1f146109e1578063ba71ecd414610a02578063bb994d4814610a0a578063bbe4eb4914610a1d578063bdc8144b14610a31578063c0993eea14610a44578063c45a015514610a59578063c63d75b614610a6c578063c6e6f59214610a7f578063d505accf14610a92578063d547741f14610aa5578063d55be8c614610ab8578063d81a09f614610ac1578063d9a0e97a14610ad4578063dd62ed3e14610adc578063df69b22a14610aef578063e5236cc914610b02578063ecf7085814610b0a578063ef8b30f714610a7f578063f2e3c4d314610b13578063f6d7bfa014610b26578063f828f50b14610b39578063fc0e74d114610b42578063fc7b9c1814610b56578063fd967f4714610b5f578063ff1e7f0814610b6857600080fd5b8062435da51461043e57806301e1d1141461046757806301ffc9a71461047d57806303dcd12c146104a057806306580f2d146104b557806306fdde03146104c857806307a2d13a146104dd5780630835a3fc146104f05780630952864e146104f9578063095ea7b3146105025780630a28a4771461051557806316b87ac01461052857806316d3bfbb1461053d57806318160ddd14610548578063223e54791461055057806323b872dd14610563578063248a9ca3146105765780632d632692146105895780632d772168146105925780632f2ff15d146105a5578063313ce567146105b857806334b5fab6146105d75780633644e515146105ea57806336568abe146105f357806336fba0841461060657806338d52e0f1461061257806339ebf823146106235780633f7b5e4014610678578063402d267d14610680578063405977e71461069357806341a5068f146106a657806348ea7127146106b95780634bbd71e9146106cc5780634cdad506146104dd5780634d08d131146106df5780634d4bb1971461070e5780634fb3ccc5146107235780635141eebb1461073657806353a661321461073f5780635a56909914610761578063633f228c1461077457806365cb6765146107875780636e553f651461079a57806370a08231146107ad57806377e3b267146107c05780637ecebe00146107e45780638212fd4314610804575b600080fd5b600f54610451906001600160a01b031681565b60405161045e919061529e565b60405180910390f35b61046f610b7b565b60405190815260200161045e565b61049061048b3660046152b2565b610b8a565b604051901515815260200161045e565b61046f600080516020615d7c83398151915281565b61046f6104c3366004615335565b610bc1565b6104d0610c32565b60405161045e91906153d4565b61046f6104eb366004615407565b610cc4565b61046f60065481565b61046f60085481565b610490610510366004615420565b610cd1565b61046f610523366004615407565b610ce5565b61053b61053636600461544c565b610cf2565b005b61046f6301e1855881565b61046f610d0c565b61053b61055e36600461544c565b610d16565b610490610571366004615469565b610f22565b61046f610584366004615407565b610f80565b61046f60095481565b61053b6105a036600461544c565b610f95565b61053b6105b33660046154aa565b611038565b601354600160c81b900460ff1660405160ff909116815260200161045e565b61046f6105e53660046154da565b611059565b61046f60025481565b61053b6106013660046154aa565b6110db565b61046f64e8d4a5100081565b6013546001600160a01b0316610451565b61065861063136600461544c565b601b6020526000908152604090208054600182015460028301546003909301549192909184565b60408051948552602085019390935291830152606082015260800161045e565b61046f600a81565b61046f61068e36600461544c565b611155565b61053b6106a1366004615420565b611160565b61053b6106b4366004615576565b6113b4565b61053b6106c736600461544c565b611674565b61053b6106da36600461544c565b6116ca565b601754601854601954601a546106fe939291906001600160a01b031684565b60405161045e9493929190615615565b61046f600080516020615e3c83398151915281565b600c54610451906001600160a01b031681565b61046f600a5481565b61049061074d366004615407565b602080526000908152604090205460ff1681565b61046f61076f366004615420565b611720565b61053b610782366004615639565b611772565b61046f6107953660046154da565b611859565b61046f6107a83660046154aa565b6118a2565b61046f6107bb36600461544c565b6118c2565b6104d0604051806040016040528060058152602001640312e302e360dc1b81525081565b61046f6107f236600461544c565b601e6020526000908152604090205481565b61053b610812366004615407565b61191b565b60135461082c90600160a01b900461ffff1681565b60405161ffff909116815260200161045e565b61046f600b5481565b600e54610451906001600160a01b031681565b6104906108693660046154aa565b61195b565b61046f61087c3660046154aa565b611984565b6104d0611999565b61046f61089736600461544c565b601f6020526000908152604090205481565b61046f6119a8565b61046f6108bf36600461544c565b6001600160a01b03166000908152601b602052604090206002015490565b61046f60055481565b6108ee6119ce565b60405161045e91908151815260208083015190820152604080830151908201526060918201516001600160a01b03169181019190915260800190565b61053b610938366004615688565b611a0c565b600d54610451906001600160a01b031681565b61046f600080516020615dbc83398151915281565b61046f600081565b61046f61097b366004615469565b611a71565b61049061098e366004615420565b61211a565b61046f600080516020615e7c83398151915281565b61053b6109b63660046156a5565b61216c565b601054610451906001600160a01b031681565b61046f6109dc366004615407565b6121e6565b6109f46109ef36600461544c565b6121f3565b60405161045e9291906156e6565b60165461046f565b61053b610a1836600461544c565b612342565b60135461049090600160b01b900460ff1681565b61053b610a3f366004615407565b612365565b61046f600080516020615e9c83398151915281565b601154610451906001600160a01b031681565b61046f610a7a36600461544c565b6123ec565b61046f610a8d366004615407565b612405565b610490610aa0366004615703565b612412565b61053b610ab33660046154aa565b61262d565b61082c61138881565b61046f610acf366004615335565b612649565b61046f6126b0565b61046f610aea366004615774565b6126ba565b61053b610afd366004615407565b6126e5565b61053b612776565b61046f60075481565b601254610451906001600160a01b031681565b61053b610b34366004615420565b612878565b61046f60035481565b60135461049090600160b81b900460ff1681565b61046f60045481565b61046f61271081565b610451610b76366004615407565b612929565b6000610b85612953565b905090565b60006001600160e01b03198216637965db0b60e01b1480610bbb57506301ffc9a760e01b6001600160e01b03198316145b92915050565b6000610bcb612965565b6000610bd88860006129be565b9050610c1c338888848c8a8a8a80806020026020016040519081016040528093929190818152602001838360200280828437600092019190915250612a5492505050565b915050610c2860018055565b9695505050505050565b606060148054610c41906157a2565b80601f0160208091040260200160405190810160405280929190818152602001828054610c6d906157a2565b8015610cba5780601f10610c8f57610100808354040283529160200191610cba565b820191906000526020600020905b815481529060010190602001808311610c9d57829003601f168201915b5050505050905090565b6000610bbb8260006129be565b6000610cde338484612af1565b9392505050565b6000610bbb826001612b82565b6000610cfd81612c30565b610d08826001612c3d565b5050565b6000610b85612e73565b600080516020615dbc833981519152610d2e81612c30565b6001600160a01b0382161580610d4c57506001600160a01b03821630145b15610d6a5760405163d92e233d60e01b815260040160405180910390fd5b6000826001600160a01b03166338d52e0f6040518163ffffffff1660e01b8152600401602060405180830381865afa158015610daa573d6000803e3d6000fd5b505050506040513d601f19601f82011682018060405250810190610dce91906157dc565b6013549091506001600160a01b03808316911614610e0a57806040516337bce3c560e11b8152600401610e01919061529e565b60405180910390fd5b6001600160a01b0383166000908152601b602052604090205415610e415760405163c976754d60e01b815260040160405180910390fd5b604080516080810182524280825260208083019182526000838501818152606085018281526001600160a01b038a168352601b9093529490209251835590516001830155915160028201559051600390910155601654600a811015610eec57601680546001810182556000919091527fd833147d7dc355ba459fc788f669e58cfaf9dc25ddcd0702e87d69c7b51242890180546001600160a01b0319166001600160a01b0386161790555b836001600160a01b0316600080516020615ddc8339815191526000604051610f14919061580f565b60405180910390a250505050565b60006001600160a01b038316301480610f4257506001600160a01b038316155b15610f605760405163d92e233d60e01b815260040160405180910390fd5b610f6b843384612e8a565b610f76848484612eef565b5060019392505050565b60009081526020819052604090206001015490565b6000610fa081612c30565b601354600160b81b900460ff161515600103610fcf5760405163036882cf60e41b815260040160405180910390fd5b60001960075414610ff357604051634e41418560e11b815260040160405180910390fd5b600d80546001600160a01b0319166001600160a01b038416179055604051600080516020615d9c8339815191529061102c90849061529e565b60405180910390a15050565b61104182610f80565b61104a81612c30565b6110548383612fee565b505050565b60008061109a868686868080602002602001604051908101604052809392919081815260200183836020028082843760009201919091525061307292505050565b905060006110a9826001612b82565b6001600160a01b0388166000908152601c60205260409020549091506110d0908290613445565b979650505050505050565b6001600160a01b038116331461114b5760405162461bcd60e51b815260206004820152602f60248201527f416363657373436f6e74726f6c3a2063616e206f6e6c792072656e6f756e636560448201526e103937b632b9903337b91039b2b63360891b6064820152608401610e01565b610d08828261345b565b6000610bbb826134c0565b600080516020615e7c83398151915261117881612c30565b611180612965565b6001600160a01b0383166000908152601b602052604081205490036111ba578260405163489d081b60e11b8152600401610e01919061529e565b6001600160a01b0383166000908152601b60205260409020600201548015806111e1575082155b156111ff57604051637c946ed760e01b815260040160405180910390fd5b8083111561120b578092505b60008184866001600160a01b03166370a08231306040518263ffffffff1660e01b815260040161123b919061529e565b602060405180830381865afa158015611258573d6000803e3d6000fd5b505050506040513d601f19601f8201168201806040525081019061127c9190615837565b6112869190615866565b6112909190615893565b9050806000036112b357604051637c946ed760e01b815260040160405180910390fd5b6112bf30333087613598565b6001600160a01b0385166000908152601b6020526040812060020180548692906112ea9084906158a7565b92505081905550836004600082825461130391906158a7565b92505081905550836005600082825461131c91906158ba565b90915550506001600160a01b038516600080516020615edc8339815191528361134587826158a7565b6040516113539291906156e6565b60405180910390a261136685338361367b565b846001600160a01b03167fe94e7f88819f66c19b097748cb754149f63b1a176ed425dee1f1ee933e6d09b0856040516113a191815260200190565b60405180910390a2505061105460018055565b60006113bf81612c30565b601354600160c01b900460ff1615156001036113ed5760405162dc149f60e41b815260040160405180910390fd5b333b1561140b57601180546001600160a01b03191633179055611441565b601180546001600160a01b03199081169091556013805461027160a31b61ffff60a01b1990911617905560128054909116331790555b600c80546001600160a01b0319166001600160a01b0384161790556301e185588811156114815760405163fdfbb0b760e01b815260040160405180910390fd5b6008889055601380546001600160a01b0319166001600160a01b0389169081179091556040805163313ce56760e01b8152905163313ce567916004808201926020929091908290030181865afa1580156114df573d6000803e3d6000fd5b505050506040513d601f19601f8201168201806040525081019061150391906158cd565b6013805460ff60c81b1916600160c81b60ff938416810291909117918290556101009104909116106115485760405163e236476560e01b815260040160405180910390fd5b601461155586888361594e565b50601561156384868361594e565b5061156f600033612fee565b611587600080516020615dbc83398151915233612fee565b61159f600080516020615d7c83398151915233612fee565b6115b7600080516020615e7c83398151915233612fee565b600080516020615e9c83398151915286866040516115d6929190615a0d565b60408051918290038220828201825260058352640312e302e360dc1b6020938401528151928301939093528101919091527f06c015bd22b4c69690933c1058878ebdfef31f9aaae40bbe86d8a09fe1b2972c60608201524660808201523060a082015260c00160408051601f19818403018152919052805160209091012060025550506013805460ff60c01b1916600160c01b179055505050505050565b600061167f81612c30565b600c80546001600160a01b0319166001600160a01b0384161790556040517f7421df9bb5aa804486a873c3f79b4bda8b65888cb4ceb1ce73ab3415f479adea9061102c90849061529e565b60006116d581612c30565b600e80546001600160a01b0319166001600160a01b0384161790556040517fb02c7aec2b89901bc7caa8b5cd2ed1ede10b5dd3d3c15f2a249ef51a76a3fc949061102c90849061529e565b6001600160a01b0382166000908152601b60205260408120600201548281101561176057604051633327137b60e21b815260048101829052602401610e01565b61176a8484613744565b949350505050565b600080516020615dbc83398151915261178a81612c30565b60005b8281101561180d5760008484838181106117a9576117a9615a1d565b90506020020160208101906117be919061544c565b6001600160a01b0381166000908152601b6020526040812054919250036117fa578060405163489d081b60e11b8152600401610e01919061529e565b508061180581615a33565b91505061178d565b5061181a6016848461517f565b507f3adf0cd8b4427265ab8cb9118d0b9c61b811c637fe87c5be9f2f4d91ce17cfbc838360405161184c929190615a4c565b60405180910390a1505050565b6000611899858585858080602002602001604051908101604052809392919081815260200183836020028082843760009201919091525061307292505050565b95945050505050565b60006118ac612965565b6118b73383856138a4565b9050610bbb60018055565b6000306001600160a01b038316036118ff576118dc613a2e565b6001600160a01b0383166000908152601c6020526040902054610bbb91906158a7565b506001600160a01b03166000908152601c602052604090205490565b600061192681612c30565b60068290556040518281527f3c79c9aaa553ffa63df7f68d233487e697a31db07a59fb73fbab634e187120209060200161102c565b6000918252602082815260408084206001600160a01b0393909316845291905290205460ff1690565b600061198e612965565b6118b7338385613a8c565b606060158054610c41906157a2565b601354600090610b85906119c790600160c81b900460ff16600a615b73565b60006129be565b6119d66151e2565b50604080516080810182526017548152601854602082015260195491810191909152601a546001600160a01b0316606082015290565b600080516020615dbc833981519152611a2481612c30565b60138054831515600160b01b0260ff60b01b199091161790556040517fa9cd3583c5278952720fbec6b769ae08cbab1491fd69ae1edeb07ed07c9432f99061102c90841515815260200190565b6000600080516020615dbc833981519152611a8b81612c30565b611a93612965565b6001600160a01b0384166000908152601b60205260409020600201548314801590611ac2575060065460055411155b15611ae05760405163356680b760e01b815260040160405180910390fd5b6001600160a01b0384166000908152601b6020526040902060020154601354849190600160b81b900460ff161515600103611b1a57600091505b808203611b3a5760405163084df06b60e41b815260040160405180910390fd5b81811115611e1c576000611b4e83836158a7565b905060065481600554611b6191906158ba565b1015611b8457600554600654611b7791906158a7565b905081811115611b845750805b604051636c82bbbf60e11b81526000906001600160a01b038916906307a2d13a90829063d905777e90611bbb908e9060040161529e565b602060405180830381865afa158015611bd8573d6000803e3d6000fd5b505050506040513d601f19601f82011682018060405250810190611bfc9190615837565b6040518263ffffffff1660e01b8152600401611c1a91815260200190565b602060405180830381865afa158015611c37573d6000803e3d6000fd5b505050506040513d601f19601f82011682018060405250810190611c5b9190615837565b905080600003611c7e57604051637c946ed760e01b815260040160405180910390fd5b81811015611c8a578091505b6000611c968984613744565b90508015611cba5760405163311d104160e01b815260048101829052602401610e01565b6013546040516370a0823160e01b81526000916001600160a01b0316906370a0823190611ceb908e9060040161529e565b602060405180830381865afa158015611d08573d6000803e3d6000fd5b505050506040513d601f19601f82011682018060405250810190611d2c9190615837565b9050611d388a85613bd4565b6013546040516370a0823160e01b81526000916001600160a01b0316906370a0823190611d69908f9060040161529e565b602060405180830381865afa158015611d86573d6000803e3d6000fd5b505050506040513d601f19601f82011682018060405250810190611daa9190615837565b90506000611dc1611dbb84846158a7565b88613445565b905085811115611dcf578095505b8060056000828254611de191906158ba565b925050819055508560046000828254611dfa91906158a7565b90915550611e059050565b611e0f86886158a7565b97505050505050506120c0565b6001600160a01b0386166000908152601b6020526040902060030154821115611e77576001600160a01b0386166000908152601b602052604090819020600301549051638f55f52760e01b8152610e019184916004016156e6565b60405163402d267d60e01b81526000906001600160a01b0388169063402d267d90611ea6908b9060040161529e565b602060405180830381865afa158015611ec3573d6000803e3d6000fd5b505050506040513d601f19601f82011682018060405250810190611ee79190615837565b905080600003611f0a57604051637c946ed760e01b815260040160405180910390fd5b6000611f1683856158a7565b905081811115611f235750805b6000600654600554611f3591906158a7565b905080821115611f43578091505b81156120bc57601354611f60906001600160a01b03168a84613d31565b6013546040516370a0823160e01b81526000916001600160a01b0316906370a0823190611f9190309060040161529e565b602060405180830381865afa158015611fae573d6000803e3d6000fd5b505050506040513d601f19601f82011682018060405250810190611fd29190615837565b9050611fde8a84613dfa565b6013546040516370a0823160e01b81526000916001600160a01b0316906370a082319061200f90309060040161529e565b602060405180830381865afa15801561202c573d6000803e3d6000fd5b505050506040513d601f19601f820116820180604052508101906120509190615837565b60135490915061206b906001600160a01b03168c6000613d31565b61207581836158a7565b9350836005600082825461208991906158a7565b9250508190555083600460008282546120a291906158ba565b909155506120ad9050565b6120b784876158ba565b965050505b5050505b6001600160a01b0386166000818152601b60205260409081902060020184905551600080516020615edc833981519152906120fe90849086906156e6565b60405180910390a250915061211260018055565b509392505050565b60006001600160a01b03831630148061213a57506001600160a01b038316155b156121585760405163d92e233d60e01b815260040160405180910390fd5b612163338484612eef565b50600192915050565b600061217781612c30565b601785905560188490556019839055601a80546001600160a01b0319166001600160a01b0384161790556040517f94aff052e386f7223093efb6183667af7a14a6d206ce5e9c66a9c064ebe94528906121d7908790879087908790615615565b60405180910390a15050505050565b6000610bbb8260016129be565b600080600080516020615d7c83398151915261220e81612c30565b612216612965565b6001600160a01b0384166000908152601b60205260408120549003612250578360405163489d081b60e11b8152600401610e01919061529e565b612258613e6b565b60008061226486613e9b565b915091506000612275878484613fcf565b9050600061228e8484846000015185604001518c6141df565b905060008061229e8385886142f3565b915091506122ac828261448a565b6001600160a01b038a166000818152601b60205260408082204260018201556002015490860151600080516020615e1c833981519152928a928a9290916122f391906129be565b61230a89602001518a604001516119c791906158ba565b8a6020015160405161232196959493929190615b82565b60405180910390a25093965091945050505061233c60018055565b50915091565b600080516020615dbc83398151915261235a81612c30565b610d08826000612c3d565b600061237081612c30565b601354600160b81b900460ff16151560010361239f5760405163036882cf60e41b815260040160405180910390fd5b600d546001600160a01b0316156123c9576040516364b9991160e11b815260040160405180910390fd5b6007829055604051828152600080516020615d5c8339815191529060200161102c565b6000806123f8836134c0565b9050610cde816000612b82565b6000610bbb826000612b82565b60006001600160a01b03881661243b5760405163d92e233d60e01b815260040160405180910390fd5b4285101561245c576040516363bef56160e11b815260040160405180910390fd5b6001600160a01b038881166000818152601e60209081526040808320548151600080516020615e3c8339815191528185015280830195909552948c166060850152608084018b905260a0840185905260c08085018b90528151808603909101815260e08501909152805191012060025461190160f01b6101008501526101028401526101228301819052916101420160408051601f198184030181528282528051602091820120600080855291840180845281905260ff8b169284019290925260608301899052608083018890529092509060019060a0016020604051602081039080840390855afa158015612556573d6000803e3d6000fd5b5050604051601f1901519150506001600160a01b038116158061258b57508b6001600160a01b0316816001600160a01b031614155b156125ab5780604051633934136760e01b8152600401610e01919061529e565b6125b68c8c8c612af1565b506001600160a01b038c166000908152601e602052604081208054916125db83615a33565b91905055508a6001600160a01b03168c6001600160a01b0316600080516020615e5c8339815191528c60405161261391815260200190565b60405180910390a35060019b9a5050505050505050505050565b61263682610f80565b61263f81612c30565b611054838361345b565b6000612653612965565b6000612660886001612b82565b90506126a43388888b858a8a8a80806020026020016040519081016040528093929190818152602001838360200280828437600092019190915250612a5492505050565b509050610c2860018055565b6000610b85613a2e565b6001600160a01b039182166000908152601d6020908152604080832093909416825291909152205490565b60006126f081612c30565b6301e185588211156127155760405163fdfbb0b760e01b815260040160405180910390fd5b8160000361274157306000818152601c60205260409020546127369161452b565b6000600a8190556009555b60088290556040518281527fc464d502702beac6615fdfda7756f59ccaf253cb2591db454c8def44d03bddd99060200161102c565b600061278181612c30565b601354600160b81b900460ff1615156001036127b05760405163036882cf60e41b815260040160405180910390fd5b6013805460ff60b81b1916600160b81b179055600d546001600160a01b03161561280c57600d80546001600160a01b0319169055604051600080516020615d9c833981519152906128039060009061529e565b60405180910390a15b60006007819055604051908152600080516020615d5c8339815191529060200160405180910390a161284c600080516020615dbc83398151915233612fee565b6040517f4426aa1fb73e391071491fcfe21a88b5c38a0a0333a1f6e77161470439704cf890600090a150565b600080516020615dbc83398151915261289081612c30565b6001600160a01b0383166000908152601b602052604081205490036128ca578260405163489d081b60e11b8152600401610e01919061529e565b6001600160a01b0383166000818152601b6020526040908190206003018490555133907fb3eef2123fec1523a6bbc90aceb203000154c1a4974335fe06b544c7534d4b899061291c9086815260200190565b60405180910390a3505050565b6016818154811061293957600080fd5b6000918252602090912001546001600160a01b0316905081565b6000600454600554610b8591906158ba565b6002600154036129b75760405162461bcd60e51b815260206004820152601f60248201527f5265656e7472616e637947756172643a207265656e7472616e742063616c6c006044820152606401610e01565b6002600155565b60006000198314806129ce575082155b156129da575081610bbb565b60006129e4612e73565b9050806000036129f75783915050610bbb565b6000612a01612953565b612a0b9086615866565b90506000612a198383615893565b90506001856001811115612a2f57612a2f6157f9565b148015612a445750612a418383615baa565b15155b1561189957610c286001826158ba565b6000612a62878786866145fc565b612a6d8689866146be565b600080612a7a87856146e2565b91509150612a8d8989888a86868b614d83565b876001600160a01b0316896001600160a01b03168b6001600160a01b03167ffbde797d201c681b91056529119e0b02407c7bb96a4a2c75c01fc9667232c8db858a604051612adc9291906156e6565b60405180910390a45098975050505050505050565b60006001600160a01b0384161580612b1057506001600160a01b038316155b15612b2e5760405163d92e233d60e01b815260040160405180910390fd5b6001600160a01b038481166000818152601d60209081526040808320948816808452948252918290208690559051858152600080516020615e5c833981519152910160405180910390a35060019392505050565b6000600019831480612b92575082155b15612b9e575081610bbb565b6000612ba8612e73565b90506000612bb4612953565b905080600003612bdb5781600003612bd0578492505050610bbb565b600092505050610bbb565b6000612be78387615866565b90506000612bf58383615893565b90506001866001811115612c0b57612c0b6157f9565b148015612c205750612c1d8383615baa565b15155b15610c28576110d06001826158ba565b612c3a8133614e0f565b50565b6001600160a01b0382166000908152601b60205260408120549003612c77578160405163489d081b60e11b8152600401610e01919061529e565b6001600160a01b0382166000908152601b602052604081206002015415801590612c9f575081155b15612cde576001600160a01b0383166000908152601b6020526040908190206002015490516357d8a97560e11b81526004810191909152602401610e01565b506001600160a01b0382166000908152601b60205260408120600201546004805491928392612d0e9084906158a7565b92505081905550826001600160a01b0316600080516020615e1c833981519152600083600080600080604051612d4996959493929190615b82565b60405180910390a2604080516080810182526000808252602080830182815283850183815260608086018581526001600160a01b038b168652601b9094529590932093518455516001840155905160028301555160039091015560165415612e375760005b601654811015612e3557600060168281548110612dcd57612dcd615a1d565b6000918252602090912001546001600160a01b03908116915086168114612e225780838381518110612e0157612e01615a1d565b60200260200101906001600160a01b031690816001600160a01b0316815250505b5080612e2d81615a33565b915050612dae565b505b8051612e4a906016906020840190615213565b50836001600160a01b0316600080516020615ddc8339815191526001604051610f14919061580f565b6000612e7d613a2e565b600354610b8591906158a7565b6001600160a01b038084166000908152601d602090815260408083209386168352929052205481811015612ed457604051631649cee760e01b815260048101829052602401610e01565b612ee88484612ee385856158a7565b612af1565b5050505050565b6001600160a01b0383166000908152601c602052604090205481811015612f295760405163356680b760e01b815260040160405180910390fd5b6001600160a01b0384161580612f4657506001600160a01b038316155b15612f645760405163d92e233d60e01b815260040160405180910390fd5b612f6e82826158a7565b6001600160a01b038086166000908152601c60205260408082209390935590851681522054612f9d83826158ba565b6001600160a01b038086166000818152601c60205260409081902093909355915190871690600080516020615dfc83398151915290612fdf9087815260200190565b60405180910390a35050505050565b612ff8828261195b565b610d08576000828152602081815260408083206001600160a01b03851684529091529020805460ff1916600117905561302e3390565b6001600160a01b0316816001600160a01b0316837f2f8788117e7eff1d82e926ec794901d17c78024a50270940304540a733656f0d60405160405180910390a45050565b6001600160a01b0383166000908152601c6020526040812054819061309790826129be565b600e549091506001600160a01b03161561313757600e54604051632319b8cf60e01b81526000916001600160a01b031690632319b8cf906130e090899089908990600401615bbe565b602060405180830381865afa1580156130fd573d6000803e3d6000fd5b505050506040513d601f19601f820116820180604052508101906131219190615837565b90508181101561312f578091505b509050610cde565b6005548082111561343c57835181906000908190158015906131635750601354600160b01b900460ff16155b6131c75760168054806020026020016040519081016040528092919081815260200182805480156131bd57602002820191906000526020600020905b81546001600160a01b0316815260019091019060200180831161319f575b50505050506131c9565b865b905060005b81518110156134355760008282815181106131eb576131eb615a1d565b60200260200101519050601b6000826001600160a01b03166001600160a01b0316815260200190815260200160002060000154600003613240578060405163489d081b60e11b8152600401610e01919061529e565b600061327061324f878a6158a7565b6001600160a01b0384166000908152601b6020526040902060020154613445565b9050600061327e8383613744565b90506000836001600160a01b03166307a2d13a856001600160a01b031663d905777e306040518263ffffffff1660e01b81526004016132bd919061529e565b602060405180830381865afa1580156132da573d6000803e3d6000fd5b505050506040513d601f19601f820116820180604052508101906132fe9190615837565b6040518263ffffffff1660e01b815260040161331c91815260200190565b602060405180830381865afa158015613339573d6000803e3d6000fd5b505050506040513d601f19601f8201168201806040525081019061335d9190615837565b905061336982846158a7565b811015613394578261337b8284615866565b6133859190615893565b915061339182826158ba565b92505b826000036133a55750505050613423565b6000821180156133b657506127108d105b156133f6576127108d6133c9858b6158ba565b6133d39190615866565b6133dd9190615893565b6133e783896158ba565b11156133f65750505050613435565b61340083896158ba565b97508988106134125750505050613435565b61341c82886158ba565b9650505050505b8061342d81615a33565b9150506131ce565b5091935050505b50949350505050565b60008183106134545781610cde565b5090919050565b613465828261195b565b15610d08576000828152602081815260408083206001600160a01b0385168085529252808320805460ff1916905551339285917ff6391f5c32d9c69d2a47ea670b442974b53935d1edc7fd64eb21e047a839171b9190a45050565b60006001600160a01b0382163014806134e057506001600160a01b038216155b156134ed57506000919050565b600d546001600160a01b0316801561356c57604051632355178960e11b81526001600160a01b038216906346aa2f129061352b90869060040161529e565b602060405180830381865afa158015613548573d6000803e3d6000fd5b505050506040513d601f19601f82011682018060405250810190610cde9190615837565b6000613576612953565b60075490915080821061358e57506000949350505050565b61189982826158a7565b6001600160a01b03841615806135b557506001600160a01b038316155b806135c757506001600160a01b038216155b156135e55760405163d92e233d60e01b815260040160405180910390fd5b6040516323b872dd60e01b81526001600160a01b038516906323b872dd9061361590869086908690600401615c21565b6020604051808303816000875af1158015613634573d6000803e3d6000fd5b505050506040513d601f19601f820116820180604052508101906136589190615c45565b61367557604051633c9fd93960e21b815260040160405180910390fd5b50505050565b6001600160a01b038316158061369857506001600160a01b038216155b156136b65760405163d92e233d60e01b815260040160405180910390fd5b60405163a9059cbb60e01b81526001600160a01b0384169063a9059cbb906136e49085908590600401615c62565b6020604051808303816000875af1158015613703573d6000803e3d6000fd5b505050506040513d601f19601f820116820180604052508101906137279190615c45565b61105457604051633c9fd93960e21b815260040160405180910390fd5b6001600160a01b0382166000818152601b60205260408082206002015490516370a0823160e01b8152919290918391906370a082319061378890309060040161529e565b602060405180830381865afa1580156137a5573d6000803e3d6000fd5b505050506040513d601f19601f820116820180604052508101906137c99190615837565b6040516303d1689d60e11b8152600481018290529091506000906001600160a01b038716906307a2d13a90602401602060405180830381865afa158015613814573d6000803e3d6000fd5b505050506040513d601f19601f820116820180604052508101906138389190615837565b90508281101580613847575082155b156138585760009350505050610bbb565b60006138648287615866565b905060006138728583615893565b61387c90886158a7565b90506138888583615baa565b156110d0576138986001826158ba565b98975050505050505050565b601354600090600160b81b900460ff1615156001036138d65760405163036882cf60e41b815260040160405180910390fd5b6138df836134c0565b82111561390b576138ef836134c0565b604051630ee7300760e11b8152600401610e0191815260200190565b8160000361392c57604051637c946ed760e01b815260040160405180910390fd5b6013546040516323b872dd60e01b81526001600160a01b03909116906323b872dd9061396090339030908790600401615c21565b6020604051808303816000875af115801561397f573d6000803e3d6000fd5b505050506040513d601f19601f820116820180604052508101906139a39190615c45565b5081600560008282546139b691906158ba565b90915550600090506139c88385614e68565b9050806000036139eb57604051637c946ed760e01b815260040160405180910390fd5b836001600160a01b0316856001600160a01b0316600080516020615ebc8339815191528584604051613a1e9291906156e6565b60405180910390a3949350505050565b6009546000908142821115613a6f5764e8d4a51000600b5442613a5191906158a7565b600a54613a5e9190615866565b613a689190615893565b9050610bbb565b8115610bbb5750306000908152601c602052604090205492915050565b601354600090600160b81b900460ff161515600103613abe5760405163036882cf60e41b815260040160405180910390fd5b6000613acb8360016129be565b905080600003613aee57604051637c946ed760e01b815260040160405180910390fd5b613af7846134c0565b811115613b07576138ef846134c0565b6013546040516323b872dd60e01b81526001600160a01b03909116906323b872dd90613b3b90889030908690600401615c21565b6020604051808303816000875af1158015613b5a573d6000803e3d6000fd5b505050506040513d601f19601f82011682018060405250810190613b7e9190615c45565b508060056000828254613b9191906158ba565b90915550613ba190508385614f1a565b836001600160a01b0316856001600160a01b0316600080516020615ebc8339815191528386604051613a1e9291906156e6565b604051630a28a47760e01b815260048101829052600090613cb6906001600160a01b03851690630a28a47790602401602060405180830381865afa158015613c20573d6000803e3d6000fd5b505050506040513d601f19601f82011682018060405250810190613c449190615837565b6040516370a0823160e01b81526001600160a01b038616906370a0823190613c7090309060040161529e565b602060405180830381865afa158015613c8d573d6000803e3d6000fd5b505050506040513d601f19601f82011682018060405250810190613cb19190615837565b613445565b604051635d043b2960e11b815260048101829052306024820181905260448201529091506001600160a01b0384169063ba087652906064016020604051808303816000875af1158015613d0d573d6000803e3d6000fd5b505050506040513d601f19601f820116820180604052508101906136759190615837565b6001600160a01b0383161580613d4e57506001600160a01b038216155b15613d6c5760405163d92e233d60e01b815260040160405180910390fd5b60405163095ea7b360e01b81526001600160a01b0384169063095ea7b390613d9a9085908590600401615c62565b6020604051808303816000875af1158015613db9573d6000803e3d6000fd5b505050506040513d601f19601f82011682018060405250810190613ddd9190615c45565b61105457604051631946df2360e31b815260040160405180910390fd5b604051636e553f6560e01b8152600481018290523060248201526001600160a01b03831690636e553f65906044016020604051808303816000875af1158015613e47573d6000803e3d6000fd5b505050506040513d601f19601f820116820180604052508101906110549190615837565b6000613e75613a2e565b905080600003613e825750565b426009541115613e915742600b555b612c3a813061452b565b6000806000836001600160a01b03166370a08231306040518263ffffffff1660e01b8152600401613ecc919061529e565b602060405180830381865afa158015613ee9573d6000803e3d6000fd5b505050506040513d601f19601f82011682018060405250810190613f0d9190615837565b6040516303d1689d60e11b8152600481018290529091506000906001600160a01b038616906307a2d13a90602401602060405180830381865afa158015613f58573d6000803e3d6000fd5b505050506040513d601f19601f82011682018060405250810190613f7c9190615837565b6001600160a01b0386166000908152601b60205260408120600201549192508082841115613fb557613fae83856158a7565b9150613fc2565b613fbf84846158a7565b90505b9097909650945050505050565b613fd76151e2565b600c546001600160a01b0316156141a757604080516080810182526000808252602082018190528183018190526060820152600c54915163921f8a8f60e01b81526001600160a01b03878116600483015260248201879052604482018690529192919091169063921f8a8f9060640160408051808303816000875af1158015614064573d6000803e3d6000fd5b505050506040513d601f19601f820116820180604052508101906140889190615c7b565b6020830152808252156141a0576011546000906001600160a01b03166140cd57506013546012546001600160a01b03166060830152600160a01b900461ffff16614149565b601154604080516307d3277f60e01b815281516001600160a01b03909316926307d3277f926004808401939192918290030181865afa158015614114573d6000803e3d6000fd5b505050506040513d601f19601f820116820180604052508101906141389190615c9f565b6001600160a01b0316606084015290505b61ffff81161561312f576127108161ffff16111561417a57604051635ff85e3f60e01b815260040160405180910390fd5b81516127109061418f9061ffff841690615866565b6141999190615893565b6040830152505b9050610cde565b50604080516080810182526017548152601854602082015260195491810191909152601a546001600160a01b03166060820152610cde565b6141e7615268565b6141ef615268565b6001600160a01b0383166000908152601b6020526040902060020154871561423c576142248461421f8a846158ba565b614fb3565b876004600082825461423691906158ba565b90915550505b8615614268576142508461421f89846158a7565b866004600082825461426291906158a7565b90915550505b600061427487896158ba565b11156142e85761428e61428787896158ba565b6001612b82565b8251839061429d9083906158ba565b90525085156142e8576142ba6142b386886158a7565b6000612b82565b602083015284156142e85760006142d18987615866565b90506142e16142b3606483615893565b6040840152505b509695505050505050565b60008060008085602001511115614381576020850151600c5461433d9190613cb190614327906001600160a01b03166118c2565b600c54613cb1906001600160a01b0316306126ba565b60208601819052601354600c54614365926001600160a01b0392831692909116903090613598565b84602001516005600082825461437b91906158ba565b90915550505b600085602001518561439391906158ba565b1180156143a1575060085415155b156143c2576143bf8560200151856143b991906158ba565b30614e68565b90505b306000908152601c60205260408120546143dd9083906158a7565b87519091501561443e5786516143f790613cb184846158ba565b808852614404903061452b565b6000614414886000015184613445565b905061442081846158a7565b88519093506144309082906158a7565b61443a90836158a7565b9150505b602087015115614463576020870151600c5461446391906001600160a01b0316614f1a565b60408701511561447f5761447f87604001518760600151614f1a565b969095509350505050565b600061449682846158ba565b905080156145215760004260095411156144c557426009546144b891906158a7565b6144c29085615866565b90505b600082600854856144d69190615866565b6144e090846158ba565b6144ea9190615893565b9050806144fc64e8d4a5100085615866565b6145069190615893565b600a5561451381426158ba565b600955505042600b55505050565b6000600a55505050565b6001600160a01b0381166000908152601c6020526040902054821115614582576001600160a01b0381166000908152601c6020526040908190205490516307f885ff60e21b81526004810191909152602401610e01565b6001600160a01b0381166000908152601c6020526040812080548492906145aa9084906158a7565b9250508190555081600360008282546145c391906158a7565b90915550506040518281526000906001600160a01b03831690600080516020615dfc833981519152906020015b60405180910390a35050565b6001600160a01b0384166146235760405163d92e233d60e01b815260040160405180910390fd5b61271081111561464657604051631a7ed0a160e31b815260040160405180910390fd5b8160000361466757604051637c946ed760e01b815260040160405180910390fd5b6001600160a01b0383166000908152601c6020526040902054821115613675576001600160a01b0383166000908152601c6020526040908190205490516307f885ff60e21b81526004810191909152602401610e01565b826001600160a01b0316826001600160a01b03161461105457611054838383612e8a565b6040805160c0810182528381526005546020820152600480548284015260006060830181905260135493516370a0823160e01b8152909384938493909260808401926001600160a01b0316916370a08231916147409130910161529e565b602060405180830381865afa15801561475d573d6000803e3d6000fd5b505050506040513d601f19601f820116820180604052508101906147819190615837565b8152600060209182015281015181519192501015614d6e576060600085516000141580156147b95750601354600160b01b900460ff16155b156147c957505083518490614827565b601680548060200260200160405190810160405280929190818152602001828054801561481f57602002820191906000526020600020905b81546001600160a01b03168152600190910190602001808311614801575b505050505091505b6020830151835161483891906158a7565b606084015260005b8251811015614d3357600083828151811061485d5761485d615a1d565b6020908102919091018101516001600160a01b0381166000908152601b9092526040822054909250908190036148a8578160405163489d081b60e11b8152600401610e01919061529e565b6001600160a01b0382166000908152601b602052604081206002015460608801519091906148d69083613445565b90506000846001600160a01b03166307a2d13a866001600160a01b031663d905777e306040518263ffffffff1660e01b8152600401614915919061529e565b602060405180830381865afa158015614932573d6000803e3d6000fd5b505050506040513d601f19601f820116820180604052508101906149569190615837565b6040518263ffffffff1660e01b815260040161497491815260200190565b602060405180830381865afa158015614991573d6000803e3d6000fd5b505050506040513d601f19601f820116820180604052508101906149b59190615837565b905060006149c38684613744565b90508015614abc576149d581846158a7565b821015614a0f5760006149e882856158a7565b9050806149f58484615866565b6149ff9190615893565b9150614a0b82846158ba565b9350505b614a1981846158a7565b9250808a600001818151614a2d91906158a7565b90525060608a018051829190614a449083906158a7565b90525060408a018051829190614a5b9083906158a7565b90525081158015614a6c5750600081115b15614abc576000614a7d82866158a7565b9050614a898782614fb3565b866001600160a01b0316600080516020615edc8339815191528683604051614ab29291906156e6565b60405180910390a2505b614ac68383613445565b925082600003614adb57505050505050614d21565b614ae58684613bd4565b6013546040516370a0823160e01b81526000916001600160a01b0316906370a0823190614b1690309060040161529e565b602060405180830381865afa158015614b33573d6000803e3d6000fd5b505050506040513d601f19601f82011682018060405250810190614b579190615837565b905060008b6080015182614b6b91906158a7565b9050600085821115614ba25786821115614b8757869550614bb7565b614b9186836158a7565b614b9b90876158ba565b9550614bb7565b85821015614bb757614bb482876158a7565b90505b80868e60200151614bc891906158ba565b614bd291906158a7565b600003614be557600060208e0152614c04565b614bef81876158a7565b8d602001818151614c0091906158ba565b9052505b8c51614c119082906158a7565b600003614c215760008d52614c37565b808d600001818151614c3391906158a7565b9052505b858d60400151614c4791906158a7565b600003614c5a57600060408e0152614c70565b858d604001818151614c6c91906158a7565b9052505b6000614c7c85886158ba565b881015614c8b57506000614ca2565b614c9585886158ba565b614c9f90896158a7565b90505b614cac8a82614fb3565b896001600160a01b0316600080516020615edc8339815191528983604051614cd59291906156e6565b60405180910390a260208e01518e5111614cf85750505050505050505050614d33565b60808e0184905260608e018051889190614d139083906158a7565b905250505050505050505050505b80614d2b81615a33565b915050614840565b50825160208401511015614d63576020830151835160405163b97fded160e01b8152610e019291906004016156e6565b505060408101516004555b805160209091015190925090505b9250929050565b8284118015614d93575061271081105b15614dd857612710614da58286615866565b614daf9190615893565b614db984866158a7565b1115614dd8576040516307f65e3960e11b815260040160405180910390fd5b614de2858761452b565b614dec83836158a7565b600555601354614e06906001600160a01b0316888561367b565b50505050505050565b614e19828261195b565b610d0857614e2681614fd2565b614e31836020614fe4565b604051602001614e42929190615cd5565b60408051601f198184030181529082905262461bcd60e51b8252610e01916004016153d4565b60006001600160a01b038216614e915760405163d92e233d60e01b815260040160405180910390fd5b6000614e9b612e73565b90506000614ea7612953565b9050600082600003614eba575084614f00565b85821115614ee757614ecc86836158a7565b614ed68488615866565b614ee09190615893565b9050614f00565b60405163fd7850ad60e01b815260040160405180910390fd5b80600003614f145760009350505050610bbb565b61189981865b6001600160a01b038116614f415760405163d92e233d60e01b815260040160405180910390fd5b6001600160a01b0381166000908152601c602052604081208054849290614f699084906158ba565b925050819055508160036000828254614f8291906158ba565b90915550506040518281526001600160a01b03821690600090600080516020615dfc833981519152906020016145f0565b6001600160a01b039091166000908152601b6020526040902060020155565b6060610bbb6001600160a01b03831660145b60606000614ff3836002615866565b614ffe9060026158ba565b6001600160401b03811115615015576150156158ea565b6040519080825280601f01601f19166020018201604052801561503f576020820181803683370190505b509050600360fc1b8160008151811061505a5761505a615a1d565b60200101906001600160f81b031916908160001a905350600f60fb1b8160018151811061508957615089615a1d565b60200101906001600160f81b031916908160001a90535060006150ad846002615866565b6150b89060016158ba565b90505b6001811115615130576f181899199a1a9b1b9c1cb0b131b232b360811b85600f16601081106150ec576150ec615a1d565b1a60f81b82828151811061510257615102615a1d565b60200101906001600160f81b031916908160001a90535060049490941c9361512981615d44565b90506150bb565b508315610cde5760405162461bcd60e51b815260206004820181905260248201527f537472696e67733a20686578206c656e67746820696e73756666696369656e746044820152606401610e01565b8280548282559060005260206000209081019282156151d2579160200282015b828111156151d25781546001600160a01b0319166001600160a01b0384351617825560209092019160019091019061519f565b506151de929150615289565b5090565b604051806080016040528060008152602001600081526020016000815260200160006001600160a01b031681525090565b8280548282559060005260206000209081019282156151d2579160200282015b828111156151d257825182546001600160a01b0319166001600160a01b03909116178255602090920191600190910190615233565b60405180606001604052806000815260200160008152602001600081525090565b5b808211156151de576000815560010161528a565b6001600160a01b0391909116815260200190565b6000602082840312156152c457600080fd5b81356001600160e01b031981168114610cde57600080fd5b6001600160a01b0381168114612c3a57600080fd5b60008083601f84011261530357600080fd5b5081356001600160401b0381111561531a57600080fd5b6020830191508360208260051b8501011115614d7c57600080fd5b60008060008060008060a0878903121561534e57600080fd5b863595506020870135615360816152dc565b94506040870135615370816152dc565b93506060870135925060808701356001600160401b0381111561539257600080fd5b61539e89828a016152f1565b979a9699509497509295939492505050565b60005b838110156153cb5781810151838201526020016153b3565b50506000910152565b60208152600082518060208401526153f38160408501602087016153b0565b601f01601f19169190910160400192915050565b60006020828403121561541957600080fd5b5035919050565b6000806040838503121561543357600080fd5b823561543e816152dc565b946020939093013593505050565b60006020828403121561545e57600080fd5b8135610cde816152dc565b60008060006060848603121561547e57600080fd5b8335615489816152dc565b92506020840135615499816152dc565b929592945050506040919091013590565b600080604083850312156154bd57600080fd5b8235915060208301356154cf816152dc565b809150509250929050565b600080600080606085870312156154f057600080fd5b84356154fb816152dc565b93506020850135925060408501356001600160401b0381111561551d57600080fd5b615529878288016152f1565b95989497509550505050565b60008083601f84011261554757600080fd5b5081356001600160401b0381111561555e57600080fd5b602083019150836020828501011115614d7c57600080fd5b600080600080600080600060a0888a03121561559157600080fd5b8735965060208801356155a3816152dc565b955060408801356001600160401b03808211156155bf57600080fd5b6155cb8b838c01615535565b909750955060608a01359150808211156155e457600080fd5b506155f18a828b01615535565b9094509250506080880135615605816152dc565b8091505092959891949750929550565b938452602084019290925260408301526001600160a01b0316606082015260800190565b6000806020838503121561564c57600080fd5b82356001600160401b0381111561566257600080fd5b61566e858286016152f1565b90969095509350505050565b8015158114612c3a57600080fd5b60006020828403121561569a57600080fd5b8135610cde8161567a565b600080600080608085870312156156bb57600080fd5b84359350602085013592506040850135915060608501356156db816152dc565b939692955090935050565b918252602082015260400190565b60ff81168114612c3a57600080fd5b600080600080600080600060e0888a03121561571e57600080fd5b8735615729816152dc565b96506020880135615739816152dc565b955060408801359450606088013593506080880135615757816156f4565b9699959850939692959460a0840135945060c09093013592915050565b6000806040838503121561578757600080fd5b8235615792816152dc565b915060208301356154cf816152dc565b600181811c908216806157b657607f821691505b6020821081036157d657634e487b7160e01b600052602260045260246000fd5b50919050565b6000602082840312156157ee57600080fd5b8151610cde816152dc565b634e487b7160e01b600052602160045260246000fd5b602081016002831061583157634e487b7160e01b600052602160045260246000fd5b91905290565b60006020828403121561584957600080fd5b5051919050565b634e487b7160e01b600052601160045260246000fd5b8082028115828204841417610bbb57610bbb615850565b634e487b7160e01b600052601260045260246000fd5b6000826158a2576158a261587d565b500490565b81810381811115610bbb57610bbb615850565b80820180821115610bbb57610bbb615850565b6000602082840312156158df57600080fd5b8151610cde816156f4565b634e487b7160e01b600052604160045260246000fd5b601f82111561105457600081815260208120601f850160051c810160208610156159275750805b601f850160051c820191505b8181101561594657828155600101615933565b505050505050565b6001600160401b03831115615965576159656158ea565b6159798361597383546157a2565b83615900565b6000601f8411600181146159ad57600085156159955750838201355b600019600387901b1c1916600186901b178355612ee8565b600083815260209020601f19861690835b828110156159de57868501358255602094850194600190920191016159be565b50868210156159fb5760001960f88860031b161c19848701351681555b505060018560011b0183555050505050565b8183823760009101908152919050565b634e487b7160e01b600052603260045260246000fd5b600060018201615a4557615a45615850565b5060010190565b60208082528181018390526000908460408401835b868110156142e8578235615a74816152dc565b6001600160a01b031682529183019190830190600101615a61565b600181815b80851115615aca578160001904821115615ab057615ab0615850565b80851615615abd57918102915b93841c9390800290615a94565b509250929050565b600082615ae157506001610bbb565b81615aee57506000610bbb565b8160018114615b045760028114615b0e57615b2a565b6001915050610bbb565b60ff841115615b1f57615b1f615850565b50506001821b610bbb565b5060208310610133831016604e8410600b8410161715615b4d575081810a610bbb565b615b578383615a8f565b8060001904821115615b6b57615b6b615850565b029392505050565b6000610cde60ff841683615ad2565b958652602086019490945260408501929092526060840152608083015260a082015260c00190565b600082615bb957615bb961587d565b500690565b6001600160a01b038481168252602080830185905260606040840181905284519084018190526000928583019290916080860190855b81811015615c12578551851683529483019491830191600101615bf4565b50909998505050505050505050565b6001600160a01b039384168152919092166020820152604081019190915260600190565b600060208284031215615c5757600080fd5b8151610cde8161567a565b6001600160a01b03929092168252602082015260400190565b60008060408385031215615c8e57600080fd5b505080516020909101519092909150565b60008060408385031215615cb257600080fd5b825161ffff81168114615cc457600080fd5b60208401519092506154cf816152dc565b76020b1b1b2b9b9a1b7b73a3937b61d1030b1b1b7bab73a1604d1b815260008351615d078160178501602088016153b0565b7001034b99036b4b9b9b4b733903937b6329607d1b6017918401918201528351615d388160288401602088016153b0565b01602801949350505050565b600081615d5357615d53615850565b50600019019056fed5c8971839cd457e3e7008c5010f80fdfb8dbe466e9eff20c25d5d7c1e93d3fb633076a97f32ae349b28772e7b1483f67a926f150cbc501d02bdbd77389325ab1e92f04e56f08d7fc631d317720ce6c1392414dbf052f01c99b4d50ccc494c091893e1a169e79f2fe8aa327b1bceb2fede7a1b76a54824f95ea0e737720954aebcf55f13710eed7eda89416c2984da5475fcff67e96fe85e56eed808559a5222ddf252ad1be2c89b69c2b068fc378daa952ba7f163c4a11628f55a4df523b3ef7f2ad1d3ba35276f35ef140f83e3e0f17b23064fd710113d3f7a5ab30d2678116e71edae12b1b97f4d1f60370fef10105fa2faae0126114a169c64845d6126c98c5be1e5ebec7d5bd14f71427d1e84f3dd0314c0f7b2291e5b200ac8c7c3b925900d80def0427daac599092fcb16b21808ec68dd9a2e1eae89d1e8db213573758b73c3c69bb8fe3d512ecc4cf759cc79239f7b179b0ffacaa9a75d522b39400fdcbc1c05240f31ff3ad067ef1ee35ce4997762752e3a095284754544f4c709d75e2b8821ad6e0e26207e0cb4d242d07eeb1cbb1cfd853e645bdcd27cc5484f95a2646970667358221220536ece1baf97ff63b37f84ade761bd2562d15f92b1bf102b683c3d6e8398d20764736f6c63430008130033",
  "devdoc": {
    "events": {
      "Approval(address,address,uint256)": {
        "details": "Emitted when the allowance of a `spender` for an `owner` is set by a call to {approve}. `value` is the new allowance."
      },
      "RoleAdminChanged(bytes32,bytes32,bytes32)": {
        "details": "Emitted when `newAdminRole` is set as ``role``'s admin role, replacing `previousAdminRole` `DEFAULT_ADMIN_ROLE` is the starting admin for all roles, despite {RoleAdminChanged} not being emitted signaling this. _Available since v3.1._"
      },
      "RoleGranted(bytes32,address,address)": {
        "details": "Emitted when `account` is granted `role`. `sender` is the account that originated the contract call, an admin role bearer except when using {AccessControl-_setupRole}."
      },
      "RoleRevoked(bytes32,address,address)": {
        "details": "Emitted when `account` is revoked `role`. `sender` is the account that originated the contract call:   - if using `revokeRole`, it is the admin role bearer   - if using `renounceRole`, it is the role bearer (i.e. `account`)"
      },
      "Transfer(address,address,uint256)": {
        "details": "Emitted when `value` tokens are moved from one account (`from`) to another (`to`). Note that `value` may be zero."
      }
    },
    "kind": "dev",
    "methods": {
      "addStrategy(address)": {
        "params": {
          "newStrategy": "The new strategy to add."
        }
      },
      "allowance(address,address)": {
        "params": {
          "owner": "The address that owns the shares.",
          "spender": "The address that is allowed to spend the shares."
        }
      },
      "approve(address,uint256)": {
        "params": {
          "amount": "The amount of shares to approve.",
          "spender": "The address to approve."
        },
        "returns": {
          "_0": "True if the approval was successful."
        }
      },
      "assessShareOfUnrealisedLosses(address,uint256)": {
        "params": {
          "assetsNeeded": "The amount of assets needed by the strategy.",
          "strategy": "The strategy to assess the share of unrealised losses for."
        }
      },
      "asset()": {
        "returns": {
          "_0": "The address of the asset."
        }
      },
      "balanceOf(address)": {
        "params": {
          "addr": "The address to get the balance of."
        },
        "returns": {
          "_0": "The balance of the user."
        }
      },
      "buyDebt(address,uint256)": {
        "details": "This should only ever be used in an emergency in place of force revoking a strategy in order to not report a loss. It allows the DEBT_PURCHASER role to buy the strategies debt for an equal amount of `asset`.",
        "params": {
          "amount": "The amount of debt to buy from the vault.",
          "strategy": "The strategy to buy the debt for"
        }
      },
      "convertToAssets(uint256)": {
        "params": {
          "shares": "The amount of shares to convert."
        },
        "returns": {
          "_0": "The amount of assets."
        }
      },
      "convertToShares(uint256)": {
        "params": {
          "assets": "The amount of assets to convert."
        },
        "returns": {
          "_0": "The amount of shares."
        }
      },
      "decimals()": {
        "returns": {
          "_0": "The number of decimals of the asset/share."
        }
      },
      "deposit(uint256,address)": {
        "params": {
          "assets": "The amount of assets to deposit.",
          "receiver": "The address to receive the shares."
        },
        "returns": {
          "_0": "The amount of shares minted."
        }
      },
      "fees()": {
        "returns": {
          "_0": "The vault's fees."
        }
      },
      "forceRevokeStrategy(address)": {
        "details": "The vault will remove the strategy and write off any debt left in it as a loss. This function is a dangerous function as it can force a strategy to take a loss. All possible assets should be removed from the strategy first via update_debt. If a strategy is removed erroneously it can be re-added and the loss will be credited as profit. Fees will apply.",
        "params": {
          "strategy": "The strategy to force revoke."
        }
      },
      "getDebt(address)": {
        "params": {
          "strategy": "The strategy to withdraw from."
        }
      },
      "getRoleAdmin(bytes32)": {
        "details": "Returns the admin role that controls `role`. See {grantRole} and {revokeRole}. To change a role's admin, use {_setRoleAdmin}."
      },
      "grantRole(bytes32,address)": {
        "details": "Grants `role` to `account`. If `account` had not been already granted `role`, emits a {RoleGranted} event. Requirements: - the caller must have ``role``'s admin role. May emit a {RoleGranted} event."
      },
      "hasRole(bytes32,address)": {
        "details": "Returns `true` if `account` has been granted `role`."
      },
      "maxDeposit(address)": {
        "params": {
          "receiver": "The address that will receive the shares."
        },
        "returns": {
          "_0": "The maximum amount of assets that can be deposited."
        }
      },
      "maxMint(address)": {
        "params": {
          "receiver": "The address that will receive the shares."
        },
        "returns": {
          "_0": "The maximum amount of shares that can be minted."
        }
      },
      "maxRedeem(address,uint256,address[])": {
        "details": "Complies to normal 4626 interface and takes custom params.",
        "params": {
          "_strategies": "Custom strategies queue if any.",
          "maxLoss": "Custom maxLoss if any.",
          "owner": "The address that owns the shares."
        },
        "returns": {
          "_0": "The maximum amount of shares that can be redeemed."
        }
      },
      "maxWithdraw(address,uint256,address[])": {
        "details": "Complies to normal 4626 interface and takes custom params.",
        "params": {
          "_strategies": "Custom strategies queue if any.",
          "maxLoss": "Custom maxLoss if any.",
          "owner": "The address that owns the shares."
        },
        "returns": {
          "_0": "The maximum amount of assets that can be withdrawn."
        }
      },
      "mint(uint256,address)": {
        "params": {
          "receiver": "The address to receive the shares.",
          "shares": "The amount of shares to mint."
        },
        "returns": {
          "_0": "The amount of assets deposited."
        }
      },
      "permit(address,address,uint256,uint256,uint8,bytes32,bytes32)": {
        "params": {
          "amount": "The amount of shares to approve.",
          "deadline": "The deadline for the permit.",
          "owner": "The address to approve.",
          "r": "The r component of the signature.",
          "s": "The s component of the signature.",
          "spender": "The address to approve.",
          "v": "The v component of the signature."
        },
        "returns": {
          "_0": "True if the approval was successful."
        }
      },
      "previewDeposit(uint256)": {
        "params": {
          "assets": "The amount of assets to deposit."
        },
        "returns": {
          "_0": "The amount of shares that would be minted."
        }
      },
      "previewMint(uint256)": {
        "params": {
          "shares": "The amount of shares to mint."
        },
        "returns": {
          "_0": "The amount of assets that would be deposited."
        }
      },
      "previewRedeem(uint256)": {
        "params": {
          "shares": "The amount of shares to redeem."
        },
        "returns": {
          "_0": "The amount of assets that would be withdrawn."
        }
      },
      "previewWithdraw(uint256)": {
        "params": {
          "assets": "The amount of assets to withdraw."
        },
        "returns": {
          "_0": "The amount of shares that would be redeemed."
        }
      },
      "pricePerShare()": {
        "details": "This value offers limited precision. Integrations that require exact precision should use convertToAssets or convertToShares instead.",
        "returns": {
          "_0": "The price per share."
        }
      },
      "processReport(address)": {
        "details": "Processing a report means comparing the debt that the strategy has taken with the current amount of funds it is reporting. If the strategy owes less than it currently has, it means it has had a profit, else (assets < debt) it has had a loss. Different strategies might choose different reporting strategies: pessimistic, only realised P&L, ... The best way to report depends on the strategy. The profit will be distributed following a smooth curve over the vaults profitMaxUnlockTime seconds. Losses will be taken immediately, first from the profit buffer (avoiding an impact in pps), then will reduce pps. Any applicable fees are charged and distributed during the report as well to the specified recipients.",
        "params": {
          "strategy": "The strategy to process the report for."
        },
        "returns": {
          "_0": "The gain and loss of the strategy."
        }
      },
      "redeem(uint256,address,address,uint256,address[])": {
        "details": "The default behavior is to allow losses to be realized.",
        "params": {
          "_strategies": "Optional array of strategies to withdraw from.",
          "maxLoss": "Optional amount of acceptable loss in Basis Points.",
          "owner": "The address who's shares are being burnt.",
          "receiver": "The address to receive the assets.",
          "shares": "The amount of shares to burn."
        },
        "returns": {
          "_0": "The amount of assets actually withdrawn."
        }
      },
      "renounceRole(bytes32,address)": {
        "details": "Revokes `role` from the calling account. Roles are often managed via {grantRole} and {revokeRole}: this function's purpose is to provide a mechanism for accounts to lose their privileges if they are compromised (such as when a trusted device is misplaced). If the calling account had been revoked `role`, emits a {RoleRevoked} event. Requirements: - the caller must be `account`. May emit a {RoleRevoked} event."
      },
      "revokeRole(bytes32,address)": {
        "details": "Revokes `role` from `account`. If `account` had been granted `role`, emits a {RoleRevoked} event. Requirements: - the caller must have ``role``'s admin role. May emit a {RoleRevoked} event."
      },
      "revokeStrategy(address)": {
        "params": {
          "strategy": "The strategy to revoke."
        }
      },
      "setAccountant(address)": {
        "params": {
          "newAccountant": "The new accountant address."
        }
      },
      "setDefaultQueue(address[])": {
        "details": "Will check each strategy to make sure it is active.",
        "params": {
          "newDefaultQueue": "The new default queue array."
        }
      },
      "setDepositLimit(uint256)": {
        "details": "Can not be changed if a depositLimitModule is set or if shutdown.",
        "params": {
          "_depositLimit": "The new deposit limit."
        }
      },
      "setDepositLimitModule(address)": {
        "details": "The default `depositLimit` will need to be set to max uint256 since the module will override it.",
        "params": {
          "_depositLimitModule": "Address of the module."
        }
      },
      "setMinimumTotalIdle(uint256)": {
        "params": {
          "_minimumTotalIdle": "The new minimum total idle."
        }
      },
      "setProfitMaxUnlockTime(uint256)": {
        "details": "The time is denominated in seconds and must be less than 1 year.  We only need to update locking period if setting to 0,  since the current period will use the old rate and on the next  report it will be reset with the new unlocking time.  Setting to 0 will cause any currently locked profit to instantly unlock and an immediate increase in the vaults Price Per Share.",
        "params": {
          "_newProfitMaxUnlockTime": "The new profit max unlock time."
        }
      },
      "setUseDefaultQueue(bool)": {
        "details": "If set `True` the default queue will always be used no matter whats passed in.",
        "params": {
          "_useDefaultQueue": "new value."
        }
      },
      "setWithdrawLimitModule(address)": {
        "details": "This will override the default `maxWithdraw`.",
        "params": {
          "_withdrawLimitModule": "Address of the module."
        }
      },
      "supportsInterface(bytes4)": {
        "details": "See {IERC165-supportsInterface}."
      },
      "totalAssets()": {
        "returns": {
          "_0": "The total assets held by the vault."
        }
      },
      "totalSupply()": {
        "returns": {
          "_0": "The total supply of shares."
        }
      },
      "transfer(address,uint256)": {
        "params": {
          "amount": "The amount of shares to transfer.",
          "receiver": "The address to transfer shares to."
        },
        "returns": {
          "_0": "True if the transfer was successful."
        }
      },
      "transferFrom(address,address,uint256)": {
        "params": {
          "amount": "The amount of shares to transfer.",
          "receiver": "The address to transfer shares to.",
          "sender": "The address to transfer shares from."
        },
        "returns": {
          "_0": "True if the transfer was successful."
        }
      },
      "unlockedShares()": {
        "returns": {
          "_0": "The amount of shares that are have been unlocked."
        }
      },
      "updateDebt(address,address,uint256)": {
        "params": {
          "strategy": "The strategy to update the debt for.",
          "targetDebt": "The target debt for the strategy."
        },
        "returns": {
          "_0": "The amount of debt added or removed."
        }
      },
      "updateMaxDebtForStrategy(address,uint256)": {
        "params": {
          "newMaxDebt": "The new max debt for the strategy.",
          "strategy": "The strategy to update the max debt for."
        }
      },
      "withdraw(uint256,address,address,uint256,address[])": {
        "details": "The default behavior is to not allow any loss.",
        "params": {
          "_strategies": "Optional array of strategies to withdraw from.",
          "assets": "The amount of asset to withdraw.",
          "maxLoss": "Optional amount of acceptable loss in Basis Points.",
          "owner": "The address who's shares are being burnt.",
          "receiver": "The address to receive the assets."
        },
        "returns": {
          "_0": "The amount of shares actually burnt."
        }
      }
    },
    "title": "Fathom Vault",
    "version": 1
  },
  "userdoc": {
    "kind": "user",
    "methods": {
      "API_VERSION()": {
        "notice": "The version of this vault."
      },
      "DOMAIN_SEPARATOR()": {
        "notice": "EIP-2612 permit() domain separator."
      },
      "DOMAIN_TYPE_HASH()": {
        "notice": "EIP-2612 permit() typehashes"
      },
      "MAX_BPS()": {
        "notice": "100% in Basis Points."
      },
      "MAX_BPS_EXTENDED()": {
        "notice": "Extended for profit locking calculations."
      },
      "MAX_FEE_BPS()": {
        "notice": "50% in BPS for fees."
      },
      "MAX_QUEUE()": {
        "notice": "The max length the withdrawal queue can be."
      },
      "ONE_YEAR()": {
        "notice": "One year constant for calculating the profit unlocking rate."
      },
      "STRATEGY_MANAGER()": {
        "notice": "Roles"
      },
      "accountant()": {
        "notice": "Contract that charges fees and can give refunds."
      },
      "addStrategy(address)": {
        "notice": "Add a new strategy."
      },
      "allowance(address,address)": {
        "notice": "Get the allowance for a spender."
      },
      "approve(address,uint256)": {
        "notice": "Approve an address to spend the vault's shares."
      },
      "assessShareOfUnrealisedLosses(address,uint256)": {
        "notice": "Assess the share of unrealised losses for a strategy."
      },
      "asset()": {
        "notice": "Get the address of the asset."
      },
      "balanceOf(address)": {
        "notice": "Get the balance of a user."
      },
      "buyDebt(address,uint256)": {
        "notice": "Used for governance to buy bad debt from the vault."
      },
      "convertToAssets(uint256)": {
        "notice": "Convert an amount of shares to assets."
      },
      "convertToShares(uint256)": {
        "notice": "Convert an amount of assets to shares."
      },
      "customFeeBPS()": {
        "notice": "The custom fee BPS charged for withdrawals."
      },
      "customFeeRecipient()": {
        "notice": "Address of the custom fee recipient."
      },
      "decimals()": {
        "notice": "Get the number of decimals of the asset/share."
      },
      "defaultQueue(uint256)": {
        "notice": "The current default withdrawal queue."
      },
      "deposit(uint256,address)": {
        "notice": "Deposit assets into the vault."
      },
      "depositLimit()": {
        "notice": "Maximum amount of tokens that the vault can accept. If totalAssets > deposit_limit, deposits will revert."
      },
      "depositLimitModule()": {
        "notice": "Contract to control the deposit limit."
      },
      "factory()": {
        "notice": "Factory address"
      },
      "fees()": {
        "notice": "Get the vault's fees."
      },
      "forceRevokeStrategy(address)": {
        "notice": "Force revoke a strategy."
      },
      "fullProfitUnlockDate()": {
        "notice": "The timestamp of when the current unlocking period ends."
      },
      "futureRoleManager()": {
        "notice": "Temporary variable to store the address of the next role_manager until the role is accepted."
      },
      "getDebt(address)": {
        "notice": "Get debt for a strategy."
      },
      "getDefaultQueueLength()": {
        "notice": "Get default strategy queue length."
      },
      "lastProfitUpdate()": {
        "notice": "Last timestamp of the most recent profitable report."
      },
      "maxDeposit(address)": {
        "notice": "Get the maximum amount of assets that can be deposited."
      },
      "maxMint(address)": {
        "notice": "Get the maximum amount of shares that can be minted."
      },
      "maxRedeem(address,uint256,address[])": {
        "notice": "Get the maximum amount of shares that can be redeemed."
      },
      "maxWithdraw(address,uint256,address[])": {
        "notice": "Get the maximum amount of assets that can be withdrawn."
      },
      "minimumTotalIdle()": {
        "notice": "Minimum amount of assets that should be kept in the vault contract to allow for fast, cheap redeems."
      },
      "mint(uint256,address)": {
        "notice": "Mint shares for the receiver."
      },
      "name()": {
        "notice": "ERC20 - name of the vault's token"
      },
      "nonces(address)": {
        "notice": "EIP-2612 permit() nonces"
      },
      "openRoles(bytes32)": {
        "notice": "HashMap mapping roles to their permissioned state. If false, the role is not open to the public."
      },
      "permit(address,address,uint256,uint256,uint8,bytes32,bytes32)": {
        "notice": "Approve an address to spend the vault's shares."
      },
      "previewDeposit(uint256)": {
        "notice": "Preview the amount of shares that would be minted for a deposit."
      },
      "previewMint(uint256)": {
        "notice": "Preview the amount of assets that would be deposited for a mint."
      },
      "previewRedeem(uint256)": {
        "notice": "Preview the amount of assets that would be withdrawn for a redeem."
      },
      "previewWithdraw(uint256)": {
        "notice": "Preview the amount of shares that would be redeemed for a withdraw."
      },
      "pricePerShare()": {
        "notice": "Get the price per share (pps) of the vault."
      },
      "processReport(address)": {
        "notice": "Process the report of a strategy."
      },
      "profitMaxUnlockTime()": {
        "notice": "The amount of time profits will unlock over."
      },
      "profitUnlockingRate()": {
        "notice": "The per second rate at which profit will unlock."
      },
      "redeem(uint256,address,address,uint256,address[])": {
        "notice": "Redeems an amount of shares of `owners` shares sending funds to `receiver`."
      },
      "revokeStrategy(address)": {
        "notice": "Revoke a strategy."
      },
      "roleManager()": {
        "notice": "Address that can add and remove roles to addresses."
      },
      "roles(address)": {
        "notice": "HashMap mapping addresses to their roles"
      },
      "setAccountant(address)": {
        "notice": "Set the new accountant address."
      },
      "setDefaultQueue(address[])": {
        "notice": "Set the new default queue array."
      },
      "setDepositLimit(uint256)": {
        "notice": "Set the new deposit limit."
      },
      "setDepositLimitModule(address)": {
        "notice": "Set a contract to handle the deposit limit."
      },
      "setFees(uint256,uint256,uint256,address)": {
        "notice": "Set fees and refunds."
      },
      "setMinimumTotalIdle(uint256)": {
        "notice": "Set the new minimum total idle."
      },
      "setProfitMaxUnlockTime(uint256)": {
        "notice": "Set the new profit max unlock time."
      },
      "setUseDefaultQueue(bool)": {
        "notice": "Set a new value for `use_default_queue`."
      },
      "setWithdrawLimitModule(address)": {
        "notice": "Set a contract to handle the withdraw limit."
      },
      "shutdown()": {
        "notice": "State of the vault - if set to true, only withdrawals will be available. It can't be reverted."
      },
      "shutdownVault()": {
        "notice": "Shutdown the vault."
      },
      "strategies(address)": {
        "notice": "HashMap that records all the strategies that are allowed to receive assets from the vault."
      },
      "symbol()": {
        "notice": "ERC20 - symbol of the vault's token"
      },
      "totalAssets()": {
        "notice": "Get the total assets held by the vault."
      },
      "totalDebt()": {
        "notice": "Total amount of assets that has been deposited in strategies."
      },
      "totalIdle()": {
        "notice": "Current assets held in the vault contract. Replacing balanceOf(this) to avoid pricePerShare manipulation."
      },
      "totalSupply()": {
        "notice": "Get the total supply of shares."
      },
      "totalSupplyAmount()": {
        "notice": "Total amount of shares that are currently minted including those locked. NOTE: To get the ERC20 compliant version use totalSupply()."
      },
      "transfer(address,uint256)": {
        "notice": "Transfer shares to a receiver."
      },
      "transferFrom(address,address,uint256)": {
        "notice": "Transfer shares from a sender to a receiver."
      },
      "unlockedShares()": {
        "notice": "Get the amount of shares that have been unlocked."
      },
      "updateDebt(address,address,uint256)": {
        "notice": "Update the debt for a strategy."
      },
      "updateMaxDebtForStrategy(address,uint256)": {
        "notice": "Update the max debt for a strategy."
      },
      "useDefaultQueue()": {
        "notice": "Should the vault use the default_queue regardless whats passed in."
      },
      "withdraw(uint256,address,address,uint256,address[])": {
        "notice": "Withdraw an amount of asset to `receiver` burning `owner`s shares."
      },
      "withdrawLimitModule()": {
        "notice": "Contract to control the withdraw limit."
      }
    },
    "notice": "The Fathom Vault is designed as a non-opinionated system to distribute funds of depositors for a specific `asset` into different opportunities (aka Strategies) and manage accounting in a robust way.",
    "version": 1
  },
  "storageLayout": {
    "storage": [
      {
        "astId": 24,
        "contract": "contracts/packages/VaultPackage.sol:VaultPackage",
        "label": "_roles",
        "offset": 0,
        "slot": "0",
        "type": "t_mapping(t_bytes32,t_struct(RoleData)19_storage)"
      },
      {
        "astId": 399,
        "contract": "contracts/packages/VaultPackage.sol:VaultPackage",
        "label": "_status",
        "offset": 0,
        "slot": "1",
        "type": "t_uint256"
      },
      {
        "astId": 1973,
        "contract": "contracts/packages/VaultPackage.sol:VaultPackage",
        "label": "DOMAIN_SEPARATOR",
        "offset": 0,
        "slot": "2",
        "type": "t_bytes32"
      },
      {
        "astId": 1976,
        "contract": "contracts/packages/VaultPackage.sol:VaultPackage",
        "label": "totalSupplyAmount",
        "offset": 0,
        "slot": "3",
        "type": "t_uint256"
      },
      {
        "astId": 1979,
        "contract": "contracts/packages/VaultPackage.sol:VaultPackage",
        "label": "totalDebt",
        "offset": 0,
        "slot": "4",
        "type": "t_uint256"
      },
      {
        "astId": 1982,
        "contract": "contracts/packages/VaultPackage.sol:VaultPackage",
        "label": "totalIdle",
        "offset": 0,
        "slot": "5",
        "type": "t_uint256"
      },
      {
        "astId": 1985,
        "contract": "contracts/packages/VaultPackage.sol:VaultPackage",
        "label": "minimumTotalIdle",
        "offset": 0,
        "slot": "6",
        "type": "t_uint256"
      },
      {
        "astId": 1988,
        "contract": "contracts/packages/VaultPackage.sol:VaultPackage",
        "label": "depositLimit",
        "offset": 0,
        "slot": "7",
        "type": "t_uint256"
      },
      {
        "astId": 1991,
        "contract": "contracts/packages/VaultPackage.sol:VaultPackage",
        "label": "profitMaxUnlockTime",
        "offset": 0,
        "slot": "8",
        "type": "t_uint256"
      },
      {
        "astId": 1994,
        "contract": "contracts/packages/VaultPackage.sol:VaultPackage",
        "label": "fullProfitUnlockDate",
        "offset": 0,
        "slot": "9",
        "type": "t_uint256"
      },
      {
        "astId": 1997,
        "contract": "contracts/packages/VaultPackage.sol:VaultPackage",
        "label": "profitUnlockingRate",
        "offset": 0,
        "slot": "10",
        "type": "t_uint256"
      },
      {
        "astId": 2000,
        "contract": "contracts/packages/VaultPackage.sol:VaultPackage",
        "label": "lastProfitUpdate",
        "offset": 0,
        "slot": "11",
        "type": "t_uint256"
      },
      {
        "astId": 2003,
        "contract": "contracts/packages/VaultPackage.sol:VaultPackage",
        "label": "accountant",
        "offset": 0,
        "slot": "12",
        "type": "t_address"
      },
      {
        "astId": 2006,
        "contract": "contracts/packages/VaultPackage.sol:VaultPackage",
        "label": "depositLimitModule",
        "offset": 0,
        "slot": "13",
        "type": "t_address"
      },
      {
        "astId": 2009,
        "contract": "contracts/packages/VaultPackage.sol:VaultPackage",
        "label": "withdrawLimitModule",
        "offset": 0,
        "slot": "14",
        "type": "t_address"
      },
      {
        "astId": 2012,
        "contract": "contracts/packages/VaultPackage.sol:VaultPackage",
        "label": "roleManager",
        "offset": 0,
        "slot": "15",
        "type": "t_address"
      },
      {
        "astId": 2015,
        "contract": "contracts/packages/VaultPackage.sol:VaultPackage",
        "label": "futureRoleManager",
        "offset": 0,
        "slot": "16",
        "type": "t_address"
      },
      {
        "astId": 2018,
        "contract": "contracts/packages/VaultPackage.sol:VaultPackage",
        "label": "factory",
        "offset": 0,
        "slot": "17",
        "type": "t_address"
      },
      {
        "astId": 2021,
        "contract": "contracts/packages/VaultPackage.sol:VaultPackage",
        "label": "customFeeRecipient",
        "offset": 0,
        "slot": "18",
        "type": "t_address"
      },
      {
        "astId": 2025,
        "contract": "contracts/packages/VaultPackage.sol:VaultPackage",
        "label": "assetContract",
        "offset": 0,
        "slot": "19",
        "type": "t_contract(IERC20Metadata)556"
      },
      {
        "astId": 2028,
        "contract": "contracts/packages/VaultPackage.sol:VaultPackage",
        "label": "customFeeBPS",
        "offset": 20,
        "slot": "19",
        "type": "t_uint16"
      },
      {
        "astId": 2031,
        "contract": "contracts/packages/VaultPackage.sol:VaultPackage",
        "label": "useDefaultQueue",
        "offset": 22,
        "slot": "19",
        "type": "t_bool"
      },
      {
        "astId": 2034,
        "contract": "contracts/packages/VaultPackage.sol:VaultPackage",
        "label": "shutdown",
        "offset": 23,
        "slot": "19",
        "type": "t_bool"
      },
      {
        "astId": 2037,
        "contract": "contracts/packages/VaultPackage.sol:VaultPackage",
        "label": "initialized",
        "offset": 24,
        "slot": "19",
        "type": "t_bool"
      },
      {
        "astId": 2040,
        "contract": "contracts/packages/VaultPackage.sol:VaultPackage",
        "label": "decimalsValue",
        "offset": 25,
        "slot": "19",
        "type": "t_uint8"
      },
      {
        "astId": 2043,
        "contract": "contracts/packages/VaultPackage.sol:VaultPackage",
        "label": "sharesName",
        "offset": 0,
        "slot": "20",
        "type": "t_string_storage"
      },
      {
        "astId": 2046,
        "contract": "contracts/packages/VaultPackage.sol:VaultPackage",
        "label": "sharesSymbol",
        "offset": 0,
        "slot": "21",
        "type": "t_string_storage"
      },
      {
        "astId": 2050,
        "contract": "contracts/packages/VaultPackage.sol:VaultPackage",
        "label": "defaultQueue",
        "offset": 0,
        "slot": "22",
        "type": "t_array(t_address)dyn_storage"
      },
      {
        "astId": 2053,
        "contract": "contracts/packages/VaultPackage.sol:VaultPackage",
        "label": "customFees",
        "offset": 0,
        "slot": "23",
        "type": "t_struct(FeeAssessment)2107_storage"
      },
      {
        "astId": 2059,
        "contract": "contracts/packages/VaultPackage.sol:VaultPackage",
        "label": "strategies",
        "offset": 0,
        "slot": "27",
        "type": "t_mapping(t_address,t_struct(StrategyParams)2098_storage)"
      },
      {
        "astId": 2064,
        "contract": "contracts/packages/VaultPackage.sol:VaultPackage",
        "label": "sharesBalanceOf",
        "offset": 0,
        "slot": "28",
        "type": "t_mapping(t_address,t_uint256)"
      },
      {
        "astId": 2071,
        "contract": "contracts/packages/VaultPackage.sol:VaultPackage",
        "label": "sharesAllowance",
        "offset": 0,
        "slot": "29",
        "type": "t_mapping(t_address,t_mapping(t_address,t_uint256))"
      },
      {
        "astId": 2076,
        "contract": "contracts/packages/VaultPackage.sol:VaultPackage",
        "label": "nonces",
        "offset": 0,
        "slot": "30",
        "type": "t_mapping(t_address,t_uint256)"
      },
      {
        "astId": 2081,
        "contract": "contracts/packages/VaultPackage.sol:VaultPackage",
        "label": "roles",
        "offset": 0,
        "slot": "31",
        "type": "t_mapping(t_address,t_bytes32)"
      },
      {
        "astId": 2086,
        "contract": "contracts/packages/VaultPackage.sol:VaultPackage",
        "label": "openRoles",
        "offset": 0,
        "slot": "32",
        "type": "t_mapping(t_bytes32,t_bool)"
      }
    ],
    "types": {
      "t_address": {
        "encoding": "inplace",
        "label": "address",
        "numberOfBytes": "20"
      },
      "t_array(t_address)dyn_storage": {
        "base": "t_address",
        "encoding": "dynamic_array",
        "label": "address[]",
        "numberOfBytes": "32"
      },
      "t_bool": {
        "encoding": "inplace",
        "label": "bool",
        "numberOfBytes": "1"
      },
      "t_bytes32": {
        "encoding": "inplace",
        "label": "bytes32",
        "numberOfBytes": "32"
      },
      "t_contract(IERC20Metadata)556": {
        "encoding": "inplace",
        "label": "contract IERC20Metadata",
        "numberOfBytes": "20"
      },
      "t_mapping(t_address,t_bool)": {
        "encoding": "mapping",
        "key": "t_address",
        "label": "mapping(address => bool)",
        "numberOfBytes": "32",
        "value": "t_bool"
      },
      "t_mapping(t_address,t_bytes32)": {
        "encoding": "mapping",
        "key": "t_address",
        "label": "mapping(address => bytes32)",
        "numberOfBytes": "32",
        "value": "t_bytes32"
      },
      "t_mapping(t_address,t_mapping(t_address,t_uint256))": {
        "encoding": "mapping",
        "key": "t_address",
        "label": "mapping(address => mapping(address => uint256))",
        "numberOfBytes": "32",
        "value": "t_mapping(t_address,t_uint256)"
      },
      "t_mapping(t_address,t_struct(StrategyParams)2098_storage)": {
        "encoding": "mapping",
        "key": "t_address",
        "label": "mapping(address => struct StrategyParams)",
        "numberOfBytes": "32",
        "value": "t_struct(StrategyParams)2098_storage"
      },
      "t_mapping(t_address,t_uint256)": {
        "encoding": "mapping",
        "key": "t_address",
        "label": "mapping(address => uint256)",
        "numberOfBytes": "32",
        "value": "t_uint256"
      },
      "t_mapping(t_bytes32,t_bool)": {
        "encoding": "mapping",
        "key": "t_bytes32",
        "label": "mapping(bytes32 => bool)",
        "numberOfBytes": "32",
        "value": "t_bool"
      },
      "t_mapping(t_bytes32,t_struct(RoleData)19_storage)": {
        "encoding": "mapping",
        "key": "t_bytes32",
        "label": "mapping(bytes32 => struct AccessControl.RoleData)",
        "numberOfBytes": "32",
        "value": "t_struct(RoleData)19_storage"
      },
      "t_string_storage": {
        "encoding": "bytes",
        "label": "string",
        "numberOfBytes": "32"
      },
      "t_struct(FeeAssessment)2107_storage": {
        "encoding": "inplace",
        "label": "struct FeeAssessment",
        "members": [
          {
            "astId": 2100,
            "contract": "contracts/packages/VaultPackage.sol:VaultPackage",
            "label": "totalFees",
            "offset": 0,
            "slot": "0",
            "type": "t_uint256"
          },
          {
            "astId": 2102,
            "contract": "contracts/packages/VaultPackage.sol:VaultPackage",
            "label": "totalRefunds",
            "offset": 0,
            "slot": "1",
            "type": "t_uint256"
          },
          {
            "astId": 2104,
            "contract": "contracts/packages/VaultPackage.sol:VaultPackage",
            "label": "protocolFees",
            "offset": 0,
            "slot": "2",
            "type": "t_uint256"
          },
          {
            "astId": 2106,
            "contract": "contracts/packages/VaultPackage.sol:VaultPackage",
            "label": "protocolFeeRecipient",
            "offset": 0,
            "slot": "3",
            "type": "t_address"
          }
        ],
        "numberOfBytes": "128"
      },
      "t_struct(RoleData)19_storage": {
        "encoding": "inplace",
        "label": "struct AccessControl.RoleData",
        "members": [
          {
            "astId": 16,
            "contract": "contracts/packages/VaultPackage.sol:VaultPackage",
            "label": "members",
            "offset": 0,
            "slot": "0",
            "type": "t_mapping(t_address,t_bool)"
          },
          {
            "astId": 18,
            "contract": "contracts/packages/VaultPackage.sol:VaultPackage",
            "label": "adminRole",
            "offset": 0,
            "slot": "1",
            "type": "t_bytes32"
          }
        ],
        "numberOfBytes": "64"
      },
      "t_struct(StrategyParams)2098_storage": {
        "encoding": "inplace",
        "label": "struct StrategyParams",
        "members": [
          {
            "astId": 2091,
            "contract": "contracts/packages/VaultPackage.sol:VaultPackage",
            "label": "activation",
            "offset": 0,
            "slot": "0",
            "type": "t_uint256"
          },
          {
            "astId": 2093,
            "contract": "contracts/packages/VaultPackage.sol:VaultPackage",
            "label": "lastReport",
            "offset": 0,
            "slot": "1",
            "type": "t_uint256"
          },
          {
            "astId": 2095,
            "contract": "contracts/packages/VaultPackage.sol:VaultPackage",
            "label": "currentDebt",
            "offset": 0,
            "slot": "2",
            "type": "t_uint256"
          },
          {
            "astId": 2097,
            "contract": "contracts/packages/VaultPackage.sol:VaultPackage",
            "label": "maxDebt",
            "offset": 0,
            "slot": "3",
            "type": "t_uint256"
          }
        ],
        "numberOfBytes": "128"
      },
      "t_uint16": {
        "encoding": "inplace",
        "label": "uint16",
        "numberOfBytes": "2"
      },
      "t_uint256": {
        "encoding": "inplace",
        "label": "uint256",
        "numberOfBytes": "32"
      },
      "t_uint8": {
        "encoding": "inplace",
        "label": "uint8",
        "numberOfBytes": "1"
      }
    }
  }
}